{
  "contractName": "BTMarketFactory",
  "abi": [
    {
      "inputs": [
        {
          "internalType": "contract Dai",
          "name": "_daiAddress",
          "type": "address"
        },
        {
          "internalType": "contract IaToken",
          "name": "_aTokenAddress",
          "type": "address"
        },
        {
          "internalType": "contract IAaveLendingPool",
          "name": "_aaveLpAddress",
          "type": "address"
        },
        {
          "internalType": "contract IAaveLendingPoolCore",
          "name": "_aaveLpcoreAddress",
          "type": "address"
        },
        {
          "internalType": "contract IRealitio",
          "name": "_realitioAddress",
          "type": "address"
        }
      ],
      "stateMutability": "nonpayable",
      "type": "constructor"
    },
    {
      "anonymous": false,
      "inputs": [
        {
          "indexed": false,
          "internalType": "address",
          "name": "contractAddress",
          "type": "address"
        }
      ],
      "name": "MarketCreated",
      "type": "event"
    },
    {
      "anonymous": false,
      "inputs": [
        {
          "indexed": true,
          "internalType": "address",
          "name": "previousOwner",
          "type": "address"
        },
        {
          "indexed": true,
          "internalType": "address",
          "name": "newOwner",
          "type": "address"
        }
      ],
      "name": "OwnershipTransferred",
      "type": "event"
    },
    {
      "anonymous": false,
      "inputs": [
        {
          "indexed": false,
          "internalType": "address",
          "name": "account",
          "type": "address"
        }
      ],
      "name": "Paused",
      "type": "event"
    },
    {
      "anonymous": false,
      "inputs": [
        {
          "indexed": false,
          "internalType": "address",
          "name": "account",
          "type": "address"
        }
      ],
      "name": "Unpaused",
      "type": "event"
    },
    {
      "inputs": [],
      "name": "aToken",
      "outputs": [
        {
          "internalType": "contract IaToken",
          "name": "",
          "type": "address"
        }
      ],
      "stateMutability": "view",
      "type": "function"
    },
    {
      "inputs": [],
      "name": "aaveLendingPool",
      "outputs": [
        {
          "internalType": "contract IAaveLendingPool",
          "name": "",
          "type": "address"
        }
      ],
      "stateMutability": "view",
      "type": "function"
    },
    {
      "inputs": [],
      "name": "aaveLendingPoolCore",
      "outputs": [
        {
          "internalType": "contract IAaveLendingPoolCore",
          "name": "",
          "type": "address"
        }
      ],
      "stateMutability": "view",
      "type": "function"
    },
    {
      "inputs": [],
      "name": "dai",
      "outputs": [
        {
          "internalType": "contract Dai",
          "name": "",
          "type": "address"
        }
      ],
      "stateMutability": "view",
      "type": "function"
    },
    {
      "inputs": [
        {
          "internalType": "address",
          "name": "",
          "type": "address"
        }
      ],
      "name": "mappingOfMarkets",
      "outputs": [
        {
          "internalType": "bool",
          "name": "",
          "type": "bool"
        }
      ],
      "stateMutability": "view",
      "type": "function"
    },
    {
      "inputs": [
        {
          "internalType": "uint256",
          "name": "",
          "type": "uint256"
        }
      ],
      "name": "marketAddresses",
      "outputs": [
        {
          "internalType": "address",
          "name": "",
          "type": "address"
        }
      ],
      "stateMutability": "view",
      "type": "function"
    },
    {
      "inputs": [],
      "name": "owner",
      "outputs": [
        {
          "internalType": "address",
          "name": "",
          "type": "address"
        }
      ],
      "stateMutability": "view",
      "type": "function"
    },
    {
      "inputs": [],
      "name": "paused",
      "outputs": [
        {
          "internalType": "bool",
          "name": "",
          "type": "bool"
        }
      ],
      "stateMutability": "view",
      "type": "function"
    },
    {
      "inputs": [],
      "name": "realitio",
      "outputs": [
        {
          "internalType": "contract IRealitio",
          "name": "",
          "type": "address"
        }
      ],
      "stateMutability": "view",
      "type": "function"
    },
    {
      "inputs": [],
      "name": "renounceOwnership",
      "outputs": [],
      "stateMutability": "nonpayable",
      "type": "function"
    },
    {
      "inputs": [
        {
          "internalType": "address",
          "name": "newOwner",
          "type": "address"
        }
      ],
      "name": "transferOwnership",
      "outputs": [],
      "stateMutability": "nonpayable",
      "type": "function"
    },
    {
      "inputs": [
        {
          "internalType": "string",
          "name": "_eventName",
          "type": "string"
        },
        {
          "internalType": "uint256",
          "name": "_marketOpeningTime",
          "type": "uint256"
        },
        {
          "internalType": "uint256",
          "name": "_marketLockingTime",
          "type": "uint256"
        },
        {
          "internalType": "uint32",
          "name": "_marketResolutionTime",
          "type": "uint32"
        },
        {
          "internalType": "uint32",
          "name": "_timeout",
          "type": "uint32"
        },
        {
          "internalType": "address",
          "name": "_arbitrator",
          "type": "address"
        },
        {
          "internalType": "string",
          "name": "_realitioQuestion",
          "type": "string"
        },
        {
          "internalType": "uint256",
          "name": "_numberOfOutcomes",
          "type": "uint256"
        }
      ],
      "name": "createMarket",
      "outputs": [
        {
          "internalType": "contract BTMarket",
          "name": "",
          "type": "address"
        }
      ],
      "stateMutability": "nonpayable",
      "type": "function"
    },
    {
      "inputs": [],
      "name": "getMarkets",
      "outputs": [
        {
          "internalType": "address[]",
          "name": "",
          "type": "address[]"
        }
      ],
      "stateMutability": "view",
      "type": "function"
    },
    {
      "inputs": [],
      "name": "destroy",
      "outputs": [],
      "stateMutability": "nonpayable",
      "type": "function"
    },
    {
      "inputs": [
        {
          "internalType": "address payable",
          "name": "marketAddress",
          "type": "address"
        }
      ],
      "name": "disableMarket",
      "outputs": [
        {
          "internalType": "bool",
          "name": "",
          "type": "bool"
        }
      ],
      "stateMutability": "nonpayable",
      "type": "function"
    }
  ],
  "bytecode": "0x608060405234801561001057600080fd5b50604051615150380380615150833981810160405260a081101561003357600080fd5b5080516020820151604083015160608401516080909401519293919290919060006100656001600160e01b0361011e16565b600080546001600160a01b0319166001600160a01b0383169081178255604051929350917f8be0079c531659141344cd1fd0a4f28419497f9722a3daafe3b4186f6b6457e0908290a3506000805460ff60a01b19169055600180546001600160a01b03199081166001600160a01b03978816179091556002805482169587169590951790945560038054851693861693909317909255600480548416918516919091179055600580549092169216919091179055610122565b3390565b61501f806101316000396000f3fe60806040523480156200001157600080fd5b50600436106200010c5760003560e01c8063a0c1f15e11620000a5578063ec2c9016116200006f578063ec2c90161462000341578063f2fde38b146200039d578063f4b9fa7514620003c6578063f55a898c14620003d0576200010c565b8063a0c1f15e14620002fa578063bc8802a21462000304578063d3f8fb81146200030e578063e9d337b81462000337576200010c565b80635c975abb11620000e75780635c975abb14620002bc578063715018a614620002da57806383197ef014620002e65780638da5cb5b14620002f0576200010c565b8063222007591462000111578063350293a114620002925780633ca5583314620002b2575b600080fd5b6200027660048036036101008110156200012a57600080fd5b8101906020810181356401000000008111156200014657600080fd5b8201836020820111156200015957600080fd5b803590602001918460018302840111640100000000831117156200017c57600080fd5b91908080601f016020809104026020016040519081016040528093929190818152602001838380828437600092019190915250929584359560208601359563ffffffff60408201358116965060608201351694506001600160a01b03608082013516935060c081019060a00135640100000000811115620001fc57600080fd5b8201836020820111156200020f57600080fd5b803590602001918460018302840111640100000000831117156200023257600080fd5b91908080601f0160208091040260200160405190810160405280939291908181526020018383808284376000920191909152509295505091359250620003f9915050565b604080516001600160a01b039092168252519081900360200190f35b6200027660048036036020811015620002aa57600080fd5b503562000753565b620002766200077b565b620002c66200078a565b604080519115158252519081900360200190f35b620002e46200079a565b005b620002e462000840565b62000276620008f5565b6200027662000904565b6200027662000913565b620002c6600480360360208110156200032657600080fd5b50356001600160a01b031662000922565b6200027662000937565b6200034b62000946565b60408051602080825283518183015283519192839290830191858101910280838360005b83811015620003895781810151838201526020016200036f565b505050509050019250505060405180910390f35b620002e460048036036020811015620003b557600080fd5b50356001600160a01b0316620009aa565b6200027662000aa8565b620002c660048036036020811015620003e857600080fd5b50356001600160a01b031662000ab7565b60008054600160a01b900460ff16156200044d576040805162461bcd60e51b815260206004820152601060248201526f14185d5cd8589b194e881c185d5cd95960821b604482015290519081900360640190fd5b6200045762000be5565b60405180606001604052808a81526020018981526020018863ffffffff1681525090506000600160009054906101000a90046001600160a01b0316600260009054906101000a90046001600160a01b0316600360009054906101000a90046001600160a01b0316600460009054906101000a90046001600160a01b0316600560009054906101000a90046001600160a01b03168f878d8d8d8d33604051620004ff9062000c03565b6001600160a01b03808e1682528c811660208301528b811660408301528a8116606080840191909152908a16608083015260a082019060c0830190899080838360005b838110156200055c57818101518382015260200162000542565b505050509050018763ffffffff1663ffffffff168152602001866001600160a01b03166001600160a01b0316815260200180602001858152602001846001600160a01b03166001600160a01b0316815260200183810383528a818151815260200191508051906020019080838360005b83811015620005e6578181015183820152602001620005cc565b50505050905090810190601f168015620006145780820380516001836020036101000a031916815260200191505b50838103825286518152865160209182019188019080838360005b83811015620006495781810151838201526020016200062f565b50505050905090810190601f168015620006775780820380516001836020036101000a031916815260200191505b509e505050505050505050505050505050604051809103906000f080158015620006a5573d6000803e3d6000fd5b506007805460018082019092557fa66cc928b5edb82af9bd49922954155ab7b0942694bea4ce44661d9a8736c6880180546001600160a01b0319166001600160a01b038416908117909155600081815260066020908152604091829020805460ff191690941790935580519182525192935083927fb27af04ab132a0b6bba5de2a84bbbadcc31c20c33932936a992ae6ff951259c3929181900390910190a1509a9950505050505050505050565b600781815481106200076157fe5b6000918252602090912001546001600160a01b0316905081565b6004546001600160a01b031681565b600054600160a01b900460ff1690565b620007a462000be1565b6000546001600160a01b03908116911614620007f6576040805162461bcd60e51b8152602060048201819052602482015260008051602062004fca833981519152604482015290519081900360640190fd5b600080546040516001600160a01b03909116907f8be0079c531659141344cd1fd0a4f28419497f9722a3daafe3b4186f6b6457e0908390a3600080546001600160a01b0319169055565b6200084a62000be1565b6000546001600160a01b039081169116146200089c576040805162461bcd60e51b8152602060048201819052602482015260008051602062004fca833981519152604482015290519081900360640190fd5b600054600160a01b900460ff16620008f2576040805162461bcd60e51b815260206004820152601460248201527314185d5cd8589b194e881b9bdd081c185d5cd95960621b604482015290519081900360640190fd5b33ff5b6000546001600160a01b031690565b6002546001600160a01b031681565b6005546001600160a01b031681565b60066020526000908152604090205460ff1681565b6003546001600160a01b031681565b60606007805480602002602001604051908101604052809291908181526020018280548015620009a057602002820191906000526020600020905b81546001600160a01b0316815260019091019060200180831162000981575b5050505050905090565b620009b462000be1565b6000546001600160a01b0390811691161462000a06576040805162461bcd60e51b8152602060048201819052602482015260008051602062004fca833981519152604482015290519081900360640190fd5b6001600160a01b03811662000a4d5760405162461bcd60e51b815260040180806020018281038252602681526020018062004f736026913960400191505060405180910390fd5b600080546040516001600160a01b03808516939216917f8be0079c531659141344cd1fd0a4f28419497f9722a3daafe3b4186f6b6457e091a3600080546001600160a01b0319166001600160a01b0392909216919091179055565b6001546001600160a01b031681565b600062000ac362000be1565b6000546001600160a01b0390811691161462000b15576040805162461bcd60e51b8152602060048201819052602482015260008051602062004fca833981519152604482015290519081900360640190fd5b6001600160a01b038216600090815260066020526040902054829060ff1662000b705760405162461bcd60e51b815260040180806020018281038252603181526020018062004f996031913960400191505060405180910390fd5b826001600160a01b031663894ba8336040518163ffffffff1660e01b8152600401602060405180830381600087803b15801562000bac57600080fd5b505af115801562000bc1573d6000803e3d6000fd5b505050506040513d602081101562000bd857600080fd5b50519392505050565b3390565b60405180606001604052806003906020820280368337509192915050565b6143618062000c128339019056fe60806040526045601b55601c805460ff191660011790553480156200002357600080fd5b50604051620043613803806200436183398181016040526101c08110156200004a57600080fd5b815160208301516040808501516060860151608087015160a0880180519451969895979396929591949293820192846401000000008211156200008c57600080fd5b908301906020820185811115620000a257600080fd5b8251640100000000811182820188101715620000bd57600080fd5b82525081516020918201929091019080838360005b83811015620000ec578181015183820152602001620000d2565b50505050905090810190601f1680156200011a5780820380516001836020036101000a031916815260200191505b506040819052608082015160a083015160c08401805160209095019692959194846401000000008211156200014e57600080fd5b9083019060208201858111156200016457600080fd5b82516401000000008111828201881017156200017f57600080fd5b82525081516020918201929091019080838360005b83811015620001ae57818101518382015260200162000194565b50505050905090810190601f168015620001dc5780820380516001836020036101000a031916815260200191505b506040908152602082015191015190925090506000620002046001600160e01b03620003b216565b600080546001600160a01b0319166001600160a01b03831690811782556040519293509160008051602062004341833981519152908290a3506000805461ffff60a01b1916600160a81b1790556001600160a01b0381163314620002765762000276816001600160e01b03620003b716565b600180546001600160a01b03199081166001600160a01b038f811691909117928390556002805483168f83161790556003805483168e8316179055600480549092168b82161782556040805163095ea7b360e01b81528d831693810193909352600160ff1b60248401525192169163095ea7b3916044808201926020929091908290030181600087803b1580156200030d57600080fd5b505af115801562000322573d6000803e3d6000fd5b505050506040513d60208110156200033957600080fd5b505086516200035090600c9060208a01906200060c565b50855160075560208601516009556040860151600a805463ffffffff191663ffffffff9283161790819055600f84905560029142916200039a91849188918a918c911686620004be565b600b5550620006ae9c50505050505050505050505050565b335b90565b620003ca6001600160e01b03620003b216565b6000546001600160a01b039081169116146200042d576040805162461bcd60e51b815260206004820181905260248201527f4f776e61626c653a2063616c6c6572206973206e6f7420746865206f776e6572604482015290519081900360640190fd5b6001600160a01b038116620004745760405162461bcd60e51b81526004018080602001828103825260268152602001806200431b6026913960400191505060405180910390fd5b600080546040516001600160a01b03808516939216916000805160206200434183398151915291a3600080546001600160a01b0319166001600160a01b0392909216919091179055565b6000600460009054906101000a90046001600160a01b03166001600160a01b031663762c38fd8888888888886040518763ffffffff1660e01b81526004018087815260200180602001866001600160a01b03166001600160a01b031681526020018563ffffffff1663ffffffff1681526020018463ffffffff1663ffffffff168152602001838152602001828103825287818151815260200191508051906020019080838360005b838110156200058057818101518382015260200162000566565b50505050905090810190601f168015620005ae5780820380516001836020036101000a031916815260200191505b50975050505050505050602060405180830381600087803b158015620005d357600080fd5b505af1158015620005e8573d6000803e3d6000fd5b505050506040513d6020811015620005ff57600080fd5b5051979650505050505050565b828054600181600116156101000203166002900490600052602060002090601f016020900481019282601f106200064f57805160ff19168380011785556200067f565b828001600101855582156200067f579182015b828111156200067f57825182559160200191906001019062000662565b506200068d92915062000691565b5090565b620003b491905b808211156200068d576000815560010162000698565b613c5d80620006be6000396000f3fe608060405260043610620002cb5760003560e01c8063894ba833116200017b578063befa1e2f11620000d3578063e8f033c91162000085578063e8f033c91462000a44578063e9d337b81462000a72578063ee72b06d1462000a8a578063f2fde38b1462000aa2578063f4b9fa751462000ad9578063fd27b51e1462000af157620002d3565b8063befa1e2f1462000944578063c19d93fb146200095c578063c56f338c1462000999578063d844ab5f14620009c7578063e14dedfd14620009fe578063e5df8b841462000a1657620002d3565b8063a055ccc5116200012d578063a055ccc5146200089e578063a0c1f15e14620008b6578063aa0cb84214620008ce578063ad5d286214620008e6578063b06a5c521462000914578063bc8802a2146200092c57620002d3565b8063894ba83314620007835780638da5cb5b146200079b578063906d624114620007b3578063991d4f5d14620007ea5780639b34ae03146200086e5780639d7c7d39146200088657620002d3565b806347254f4f116200022f5780635c975abb11620001e15780635c975abb14620005ca5780636c0dc97614620005e2578063715018a614620006bb5780638043c9c014620006d3578063807535cc14620006eb57806382633028146200076b57620002d3565b806347254f4f146200050857806349200d7714620005205780634afe62b514620005385780634b8755ca146200056c5780634ecc79f71462000584578063519709c4146200059c57620002d3565b806327acae74116200028957806327acae7414620003a457806333b16d93146200044a57806335c1d3491462000462578063367edd3214620004ac5780633ccfd60b14620004d85780633eac554014620004f057620002d3565b806305801f0b14620002d55780630b60365c1462000315578063149b5d58146200032d57806316efd941146200035b578063232ea3ad146200037357620002d3565b36620002d357005b005b348015620002e257600080fd5b506200030360048036036020811015620002fb57600080fd5b503562000b09565b60408051918252519081900360200190f35b3480156200032257600080fd5b506200030362000b1b565b3480156200033a57600080fd5b5062000303600480360360208110156200035357600080fd5b503562000bd6565b3480156200036857600080fd5b50620002d362000c6f565b3480156200038057600080fd5b506200038b62000cde565b6040805163ffffffff9092168252519081900360200190f35b348015620003b157600080fd5b50620003d260048036036020811015620003ca57600080fd5b503562000cea565b6040805160208082528351818301528351919283929083019185019080838360005b838110156200040e578181015183820152602001620003f4565b50505050905090810190601f1680156200043c5780820380516001836020036101000a031916815260200191505b509250505060405180910390f35b3480156200045757600080fd5b50620002d362000d95565b3480156200046f57600080fd5b5062000490600480360360208110156200048857600080fd5b503562000e73565b604080516001600160a01b039092168252519081900360200190f35b348015620004b957600080fd5b50620004c462000e9b565b604080519115158252519081900360200190f35b348015620004e557600080fd5b50620002d362000f59565b348015620004fd57600080fd5b506200030362001121565b3480156200051557600080fd5b50620004c462001127565b3480156200052d57600080fd5b506200030362001130565b3480156200054557600080fd5b50620002d3600480360360408110156200055e57600080fd5b508035906020013562001136565b3480156200057957600080fd5b506200030362001204565b3480156200059157600080fd5b50620003036200120a565b348015620005a957600080fd5b506200030360048036036020811015620005c257600080fd5b503562001210565b348015620005d757600080fd5b50620004c462001222565b348015620005ef57600080fd5b50620002d3600480360360408110156200060857600080fd5b8101906020810181356401000000008111156200062457600080fd5b8201836020820111156200063757600080fd5b803590602001918460018302840111640100000000831117156200065a57600080fd5b9193909290916020810190356401000000008111156200067957600080fd5b8201836020820111156200068c57600080fd5b80359060200191846001830284011164010000000083111715620006af57600080fd5b50909250905062001232565b348015620006c857600080fd5b50620002d362001433565b348015620006e057600080fd5b50620003d2620014d9565b348015620006f857600080fd5b5062000719600480360360208110156200071157600080fd5b503562001537565b60408051602080825283518183015283519192839290830191858101910280838360005b83811015620007575781810151838201526020016200073d565b505050509050019250505060405180910390f35b3480156200077857600080fd5b50620003036200159b565b3480156200079057600080fd5b50620004c4620015a1565b348015620007a857600080fd5b50620004906200165c565b348015620007c057600080fd5b50620004c460048036036020811015620007d957600080fd5b50356001600160a01b03166200166b565b348015620007f757600080fd5b50620002d3600480360360208110156200081057600080fd5b8101906020810181356401000000008111156200082c57600080fd5b8201836020820111156200083f57600080fd5b803590602001918460018302840111640100000000831117156200086257600080fd5b50909250905062001680565b3480156200087b57600080fd5b5062000303620016ea565b3480156200089357600080fd5b5062000303620016f0565b348015620008ab57600080fd5b506200030362001729565b348015620008c357600080fd5b5062000490620017b5565b348015620008db57600080fd5b5062000303620017c4565b348015620008f357600080fd5b5062000303600480360360208110156200090c57600080fd5b5035620017ca565b3480156200092157600080fd5b5062000303620018d4565b3480156200093957600080fd5b5062000490620018da565b3480156200095157600080fd5b5062000303620018e9565b3480156200096957600080fd5b5062000974620018ef565b604051808260048111156200098557fe5b60ff16815260200191505060405180910390f35b348015620009a657600080fd5b506200030360048036036020811015620009bf57600080fd5b5035620018f8565b348015620009d457600080fd5b506200030360048036036020811015620009ed57600080fd5b50356001600160a01b03166200190a565b34801562000a0b57600080fd5b50620003036200191c565b34801562000a2357600080fd5b50620004906004803603602081101562000a3c57600080fd5b503562001922565b34801562000a5157600080fd5b50620007196004803603602081101562000a6a57600080fd5b503562001930565b34801562000a7f57600080fd5b506200049062001992565b34801562000a9757600080fd5b50620002d3620019a1565b34801562000aaf57600080fd5b50620002d36004803603602081101562000ac857600080fd5b50356001600160a01b031662001b48565b34801562000ae657600080fd5b506200049062001c46565b34801562000afe57600080fd5b506200030362001c55565b60136020526000908152604090205481565b60008062000b3760185460175462001c5b90919063ffffffff16565b600254604080516370a0823160e01b815230600482015290519293506000926001600160a01b03909216916370a0823191602480820192602092909190829003018186803b15801562000b8957600080fd5b505afa15801562000b9e573d6000803e3d6000fd5b505050506040513d602081101562000bb557600080fd5b50519050600062000bcd828463ffffffff62001c5b16565b93505050505b90565b600080600e838154811062000be757fe5b60009182526020918290200154604080516370a0823160e01b815233600482015290516001600160a01b03909216935083926370a0823192602480840193829003018186803b15801562000c3a57600080fd5b505afa15801562000c4f573d6000803e3d6000fd5b505050506040513d602081101562000c6657600080fd5b50519392505050565b600a546224ea0063ffffffff9182160116421162000cc0576040805162461bcd60e51b8152602060048201526009602482015268546f6f206561726c7960b81b604482015290519081900360640190fd5b601c805460ff19908116600117909155601080549091166004179055565b600a5463ffffffff1681565b600d818154811062000cf857fe5b600091825260209182902001805460408051601f600260001961010060018716150201909416939093049283018590048502810185019091528181529350909183018282801562000d8d5780601f1062000d615761010080835404028352916020019162000d8d565b820191906000526020600020905b81548152906001019060200180831162000d6f57829003601f168201915b505050505081565b600054600160a01b900460ff161562000de8576040805162461bcd60e51b815260206004820152601060248201526f14185d5cd8589b194e881c185d5cd95960821b604482015290519081900360640190fd5b62000df262001ca8565b62000e44576040805162461bcd60e51b815260206004820152601860248201527f4f7261636c6520686173206e6f742066696e616c697365640000000000000000604482015290519081900360640190fd5b62000e4e62001d2d565b601b8190556000191462000e6757601c805460ff191690555b62000e71620019a1565b565b6019818154811062000e8157fe5b6000918252602090912001546001600160a01b0316905081565b600062000ea762001db4565b6000546001600160a01b0390811691161462000ef9576040805162461bcd60e51b8152602060048201819052602482015260008051602062003be2833981519152604482015290519081900360640190fd5b600054600160a01b900460ff1662000f4f576040805162461bcd60e51b815260206004820152601460248201527314185d5cd8589b194e881b9bdd081c185d5cd95960621b604482015290519081900360640190fd5b62000bd362001db8565b60048060105460ff16600481111562000f6e57fe5b1462000fac5760405162461bcd60e51b815260040180806020018281038252602681526020018062003c026026913960400191505060405180910390fd5b600054600160a01b900460ff161562000fff576040805162461bcd60e51b815260206004820152601060248201526f14185d5cd8589b194e881c185d5cd95960821b604482015290519081900360640190fd5b600054600160a81b900460ff166200105e576040805162461bcd60e51b815260206004820152601f60248201527f5265656e7472616e637947756172643a207265656e7472616e742063616c6c00604482015290519081900360640190fd5b6000805460ff60a81b19168155338152601a602052604090205460ff1615620010c2576040805162461bcd60e51b815260206004820152601160248201527020b63932b0b23c903bb4ba34323930bbb760791b604482015290519081900360640190fd5b336000908152601a60205260409020805460ff19166001179055601c5460ff16620010f757620010f162001e63565b62001101565b6200110162001ebd565b6200110b62001ec9565b506000805460ff60a81b1916600160a81b179055565b60085481565b601c5460ff1681565b600f5481565b60028060105460ff1660048111156200114b57fe5b14620011895760405162461bcd60e51b815260040180806020018281038252602681526020018062003c026026913960400191505060405180910390fd5b600054600160a01b900460ff1615620011dc576040805162461bcd60e51b815260206004820152601060248201526f14185d5cd8589b194e881c185d5cd95960821b604482015290519081900360640190fd5b620011e8838362002060565b620011f43383620022b3565b620011ff8262002387565b505050565b60095481565b60075481565b60166020526000908152604090205481565b600054600160a01b900460ff1690565b6200123c62001db4565b6000546001600160a01b039081169116146200128e576040805162461bcd60e51b8152602060048201819052602482015260008051602062003be2833981519152604482015290519081900360640190fd5b60008060105460ff166004811115620012a357fe5b14620012e15760405162461bcd60e51b815260040180806020018281038252602681526020018062003c026026913960400191505060405180910390fd5b600d805460018101825560009190915262001320907fd7b6990105719101dabeb77144f2a3385c8033acd3af97e9423a695e81ad1eb501868662002738565b50600083836040516200133390620027bd565b6020808252810182905280604081018484808284376000838201819052604051601f909201601f1916909301819003965094509092505050f0801580156200137f573d6000803e3d6000fd5b50600e8054600180820183556000929092527fbb7b4a454dc3493923482f07822329ed19e8244eff582cc204f8554c3620c3fd0180546001600160a01b0319166001600160a01b038416179055600554919250620013de919062002401565b6005819055600f5414156200142b5760105460ff166004811115620013ff57fe5b60010160048111156200140e57fe5b6010805460ff191660018360048111156200142557fe5b02179055505b505050505050565b6200143d62001db4565b6000546001600160a01b039081169116146200148f576040805162461bcd60e51b8152602060048201819052602482015260008051602062003be2833981519152604482015290519081900360640190fd5b600080546040516001600160a01b03909116907f8be0079c531659141344cd1fd0a4f28419497f9722a3daafe3b4186f6b6457e0908390a3600080546001600160a01b0319169055565b600c805460408051602060026001851615610100026000190190941693909304601f8101849004840282018401909252818152929183018282801562000d8d5780601f1062000d615761010080835404028352916020019162000d8d565b6000818152601160209081526040918290208054835181840281018401909452808452606093928301828280156200158f57602002820191906000526020600020905b8154815260200190600101908083116200157a575b50505050509050919050565b60065481565b6000620015ad62001db4565b6000546001600160a01b03908116911614620015ff576040805162461bcd60e51b8152602060048201819052602482015260008051602062003be2833981519152604482015290519081900360640190fd5b600054600160a01b900460ff161562001652576040805162461bcd60e51b815260206004820152601060248201526f14185d5cd8589b194e881c185d5cd95960821b604482015290519081900360640190fd5b62000bd36200245c565b6000546001600160a01b031690565b601a6020526000908152604090205460ff1681565b6200168a62001db4565b6000546001600160a01b03908116911614620016dc576040805162461bcd60e51b8152602060048201819052602482015260008051602062003be2833981519152604482015290519081900360640190fd5b620011ff600c838362002738565b601b5481565b6000600460105460ff1660048111156200170657fe5b141562001717575060065462000bd3565b6200172162000b1b565b905062000bd3565b33600090815260146020526040812054819015620017b05760006200174d62000b1b565b905060006200176a60185460175462001c5b90919063ffffffff16565b90508015620017ad5733600090815260146020526040902054620017aa9082906200179d90859063ffffffff620024ed16565b9063ffffffff6200254b16565b92505b50505b905090565b6002546001600160a01b031681565b60055481565b600080600e8381548110620017db57fe5b6000918252602080832090910154604080516370a0823160e01b815233600482015290516001600160a01b039092169450839285926370a08231926024808201939291829003018186803b1580156200183357600080fd5b505afa15801562001848573d6000803e3d6000fd5b505050506040513d60208110156200185f57600080fd5b505190508015620018cc5760006200187662000b1b565b60008781526015602090815260408083205460139092528220549293509091620018a69163ffffffff62001c5b16565b90508015620018c957620018c6816200179d848663ffffffff620024ed16565b93505b50505b509392505050565b600b5481565b6004546001600160a01b031681565b60175481565b60105460ff1681565b60156020526000908152604090205481565b60146020526000908152604090205481565b60185481565b600e818154811062000e8157fe5b6000818152601260209081526040918290208054835181840281018401909452808452606093928301828280156200158f57602002820191906000526020600020908154815260200190600101908083116200157a5750505050509050919050565b6003546001600160a01b031681565b600054600160a01b900460ff1615620019f4576040805162461bcd60e51b815260206004820152601060248201526f14185d5cd8589b194e881c185d5cd95960821b604482015290519081900360640190fd5b600160105460ff16600481111562001a0857fe5b14801562001a17575042600754105b8062001a415750600260105460ff16600481111562001a3257fe5b14801562001a41575042600954105b8062001a6d5750600360105460ff16600481111562001a5c57fe5b14801562001a6d5750601b54604514155b1562000e7157600160105460ff16600481111562001a8757fe5b141562001a9357426008555b600360105460ff16600481111562001aa757fe5b141562001abc5762001ab862000b1b565b6006555b60105460ff16600481111562001ace57fe5b600101600481111562001add57fe5b6010805460ff1916600183600481111562001af457fe5b02179055506010546040517f551dc40198cc79684bb69e4931dba4ac16e4598792ee1c0a5000aeea366d7bb69160ff16908082600481111562001b3357fe5b60ff16815260200191505060405180910390a1565b62001b5262001db4565b6000546001600160a01b0390811691161462001ba4576040805162461bcd60e51b8152602060048201819052602482015260008051602062003be2833981519152604482015290519081900360640190fd5b6001600160a01b03811662001beb5760405162461bcd60e51b815260040180806020018281038252602681526020018062003b9b6026913960400191505060405180910390fd5b600080546040516001600160a01b03808516939216917f8be0079c531659141344cd1fd0a4f28419497f9722a3daafe3b4186f6b6457e091a3600080546001600160a01b0319166001600160a01b0392909216919091179055565b6001546001600160a01b031681565b60195490565b600062001c9f83836040518060400160405280601e81526020017f536166654d6174683a207375627472616374696f6e206f766572666c6f7700008152506200258f565b90505b92915050565b60048054600b5460408051633fc6a14f60e11b815293840191909152516000926001600160a01b0390921691637f8d429e916024808301926020929190829003018186803b15801562001cfa57600080fd5b505afa15801562001d0f573d6000803e3d6000fd5b505050506040513d602081101562001d2657600080fd5b5051905090565b60048054600b546040805163684e62bf60e11b8152938401919091525160009283926001600160a01b03169163d09cc57e91602480820192602092909190829003018186803b15801562001d8057600080fd5b505afa15801562001d95573d6000803e3d6000fd5b505050506040513d602081101562001dac57600080fd5b505191505090565b3390565b600054600160a01b900460ff1662001e0e576040805162461bcd60e51b815260206004820152601460248201527314185d5cd8589b194e881b9bdd081c185d5cd95960621b604482015290519081900360640190fd5b6000805460ff60a01b191690557f5db9ee0a495bf2e6ff9c91a7834c1ba4fdd244a5e8aa4e537bd38aeae4b073aa62001e4662001db4565b604080516001600160a01b039092168252519081900360200190a1565b600062001e72601b54620017ca565b336000908152601460205260408120549192509062001e9990839063ffffffff6200240116565b9050801562001eb95762001ead816200262a565b62001eb9338262002678565b5050565b600062001e7262001729565b6000805b600f548110156200202b576000600e828154811062001ee857fe5b6000918252602080832090910154604080516370a0823160e01b815233600482015290516001600160a01b03909216945084926370a0823192602480840193829003018186803b15801562001f3c57600080fd5b505afa15801562001f51573d6000803e3d6000fd5b505050506040513d602081101562001f6857600080fd5b505190508015620020205762001f85848263ffffffff6200240116565b60008481526015602052604090205490945062001fa9908263ffffffff6200240116565b600084815260156020526040808220929092558151632770a7eb60e21b81523360048201526024810184905291516001600160a01b03851692639dc29fac92604480830193919282900301818387803b1580156200200657600080fd5b505af11580156200201b573d6000803e3d6000fd5b505050505b505060010162001ecd565b503360009081526014602052604090205481146200204557fe5b6018546200205a908263ffffffff6200240116565b60185550565b6000828152601160209081526040808320805460018181018355918552838520018590558584526012835290832080549182018155835290822042910155600e805484908110620020ad57fe5b60009182526020918290200154604080516370a0823160e01b815233600482015290516001600160a01b03909216935083926370a0823192602480840193829003018186803b1580156200210057600080fd5b505afa15801562002115573d6000803e3d6000fd5b505050506040513d60208110156200212c57600080fd5b5051620021a1576019805460018181019092557f944998273e477b495144fb8794c914197f3ccb46be2900f4698fd0ef743c96950180546001600160a01b03191633179055600084815260166020526040902054620021919163ffffffff6200240116565b6000848152601660205260409020555b60405133907fef3b3ae531a4f494c95e537ec1fe385cfe5c1146cb4c1d850b24bad38595804990600090a2604080516340c10f1960e01b81523360048201526024810184905290516001600160a01b038316916340c10f1991604480830192600092919082900301818387803b1580156200221b57600080fd5b505af115801562002230573d6000803e3d6000fd5b50506017546200224a925090508363ffffffff6200240116565b6017556000838152601360205260409020546200226e908363ffffffff6200240116565b6000848152601360209081526040808320939093553382526014905220546200229e908363ffffffff6200240116565b33600090815260146020526040902055505050565b600154604080516323b872dd60e01b81526001600160a01b03858116600483015230602483015260448201859052915191909216916323b872dd9160648083019260209291908290030181600087803b1580156200231057600080fd5b505af115801562002325573d6000803e3d6000fd5b505050506040513d60208110156200233c57600080fd5b505162001eb9576040805162461bcd60e51b815260206004820152601460248201527310d85cda081d1c985b9cd9995c8819985a5b195960621b604482015290519081900360640190fd5b60035460015460408051636968703360e11b81526001600160a01b039283166004820152602481018590526000604482018190529151929093169263d2d0e066926064808301939282900301818387803b158015620023e557600080fd5b505af1158015620023fa573d6000803e3d6000fd5b5050505050565b60008282018381101562001c9f576040805162461bcd60e51b815260206004820152601b60248201527f536166654d6174683a206164646974696f6e206f766572666c6f770000000000604482015290519081900360640190fd5b600054600160a01b900460ff1615620024af576040805162461bcd60e51b815260206004820152601060248201526f14185d5cd8589b194e881c185d5cd95960821b604482015290519081900360640190fd5b6000805460ff60a01b1916600160a01b1790557f62e78cea01bee320cd4e420270b5ea74000d11b0c9f74754ebdbfc544b05a25862001e4662001db4565b600082620024fe5750600062001ca2565b828202828482816200250c57fe5b041462001c9f5760405162461bcd60e51b815260040180806020018281038252602181526020018062003bc16021913960400191505060405180910390fd5b600062001c9f83836040518060400160405280601a81526020017f536166654d6174683a206469766973696f6e206279207a65726f000000000000815250620026cf565b60008184841115620026225760405162461bcd60e51b81526004018080602001828103825283818151815260200191508051906020019080838360005b83811015620025e6578181015183820152602001620025cc565b50505050905090810190601f168015620026145780820380516001836020036101000a031916815260200191505b509250505060405180910390fd5b505050900390565b6002546040805163db006a7560e01b81526004810184905290516001600160a01b039092169163db006a759160248082019260009290919082900301818387803b158015620023e557600080fd5b6001546040805163a9059cbb60e01b81526001600160a01b038581166004830152602482018590529151919092169163a9059cbb9160448083019260209291908290030181600087803b1580156200231057600080fd5b60008183620027215760405162461bcd60e51b8152602060048201818152835160248401528351909283926044909101919085019080838360008315620025e6578181015183820152602001620025cc565b5060008385816200272e57fe5b0495945050505050565b828054600181600116156101000203166002900490600052602060002090601f016020900481019282601f106200277b5782800160ff19823516178555620027ab565b82800160010185558215620027ab579182015b82811115620027ab5782358255916020019190600101906200278e565b50620027b9929150620027cb565b5090565b6113b280620027e983390190565b62000bd391905b80821115620027b95760008155600101620027d256fe60806040523480156200001157600080fd5b50604051620013b2380380620013b2833981810160405260208110156200003757600080fd5b81019080805160405193929190846401000000008211156200005857600080fd5b9083019060208201858111156200006e57600080fd5b82516401000000008111828201881017156200008957600080fd5b82525081516020918201929091019080838360005b83811015620000b85781810151838201526020016200009e565b50505050905090810190601f168015620000e65780820380516001836020036101000a031916815260200191505b5060408181019052600281526126a160f11b60208083019190915285518695509193506200011c925060039190850190620001b9565b50805162000132906004906020840190620001b9565b50506005805460ff19166012179055506000620001576001600160e01b03620001b416565b60058054610100600160a81b0319166101006001600160a01b03841690810291909117909155604051919250906000907f8be0079c531659141344cd1fd0a4f28419497f9722a3daafe3b4186f6b6457e0908290a350506200025b565b335b90565b828054600181600116156101000203166002900490600052602060002090601f016020900481019282601f10620001fc57805160ff19168380011785556200022c565b828001600101855582156200022c579182015b828111156200022c5782518255916020019190600101906200020f565b506200023a9291506200023e565b5090565b620001b691905b808211156200023a576000815560010162000245565b611147806200026b6000396000f3fe6080604052600436106100f75760003560e01c8063715018a61161008a578063a457c2d711610059578063a457c2d7146103a5578063a9059cbb146103de578063dd62ed3e14610417578063f2fde38b14610452576100fe565b8063715018a6146103115780638da5cb5b1461032657806395d89b41146103575780639dc29fac1461036c576100fe565b8063313ce567116100c6578063313ce56714610241578063395093511461026c57806340c10f19146102a557806370a08231146102de576100fe565b806306fdde0314610100578063095ea7b31461018a57806318160ddd146101d757806323b872dd146101fe576100fe565b366100fe57005b005b34801561010c57600080fd5b50610115610485565b6040805160208082528351818301528351919283929083019185019080838360005b8381101561014f578181015183820152602001610137565b50505050905090810190601f16801561017c5780820380516001836020036101000a031916815260200191505b509250505060405180910390f35b34801561019657600080fd5b506101c3600480360360408110156101ad57600080fd5b506001600160a01b03813516906020013561051b565b604080519115158252519081900360200190f35b3480156101e357600080fd5b506101ec610538565b60408051918252519081900360200190f35b34801561020a57600080fd5b506101c36004803603606081101561022157600080fd5b506001600160a01b0381358116916020810135909116906040013561053e565b34801561024d57600080fd5b506102566105cb565b6040805160ff9092168252519081900360200190f35b34801561027857600080fd5b506101c36004803603604081101561028f57600080fd5b506001600160a01b0381351690602001356105d4565b3480156102b157600080fd5b506100fe600480360360408110156102c857600080fd5b506001600160a01b038135169060200135610628565b3480156102ea57600080fd5b506101ec6004803603602081101561030157600080fd5b50356001600160a01b0316610693565b34801561031d57600080fd5b506100fe6106ae565b34801561033257600080fd5b5061033b61075b565b604080516001600160a01b039092168252519081900360200190f35b34801561036357600080fd5b5061011561076f565b34801561037857600080fd5b506100fe6004803603604081101561038f57600080fd5b506001600160a01b0381351690602001356107d0565b3480156103b157600080fd5b506101c3600480360360408110156103c857600080fd5b506001600160a01b038135169060200135610837565b3480156103ea57600080fd5b506101c36004803603604081101561040157600080fd5b506001600160a01b0381351690602001356108a5565b34801561042357600080fd5b506101ec6004803603604081101561043a57600080fd5b506001600160a01b03813581169160200135166108b9565b34801561045e57600080fd5b506100fe6004803603602081101561047557600080fd5b50356001600160a01b03166108e4565b60038054604080516020601f60026000196101006001881615020190951694909404938401819004810282018101909252828152606093909290918301828280156105115780601f106104e657610100808354040283529160200191610511565b820191906000526020600020905b8154815290600101906020018083116104f457829003601f168201915b5050505050905090565b600061052f6105286109ed565b84846109f1565b50600192915050565b60025490565b600061054b848484610add565b6105c1846105576109ed565b6105bc8560405180606001604052806028815260200161103b602891396001600160a01b038a166000908152600160205260408120906105956109ed565b6001600160a01b03168152602081019190915260400160002054919063ffffffff610c4416565b6109f1565b5060019392505050565b60055460ff1690565b600061052f6105e16109ed565b846105bc85600160006105f26109ed565b6001600160a01b03908116825260208083019390935260409182016000908120918c16815292529020549063ffffffff610cdb16565b6106306109ed565b60055461010090046001600160a01b03908116911614610685576040805162461bcd60e51b81526020600482018190526024820152600080516020611063833981519152604482015290519081900360640190fd5b61068f8282610d3c565b5050565b6001600160a01b031660009081526020819052604090205490565b6106b66109ed565b60055461010090046001600160a01b0390811691161461070b576040805162461bcd60e51b81526020600482018190526024820152600080516020611063833981519152604482015290519081900360640190fd5b60055460405160009161010090046001600160a01b0316907f8be0079c531659141344cd1fd0a4f28419497f9722a3daafe3b4186f6b6457e0908390a360058054610100600160a81b0319169055565b60055461010090046001600160a01b031690565b60048054604080516020601f60026000196101006001881615020190951694909404938401819004810282018101909252828152606093909290918301828280156105115780601f106104e657610100808354040283529160200191610511565b6107d86109ed565b60055461010090046001600160a01b0390811691161461082d576040805162461bcd60e51b81526020600482018190526024820152600080516020611063833981519152604482015290519081900360640190fd5b61068f8282610e38565b600061052f6108446109ed565b846105bc856040518060600160405280602581526020016110ed602591396001600061086e6109ed565b6001600160a01b03908116825260208083019390935260409182016000908120918d1681529252902054919063ffffffff610c4416565b600061052f6108b26109ed565b8484610add565b6001600160a01b03918216600090815260016020908152604080832093909416825291909152205490565b6108ec6109ed565b60055461010090046001600160a01b03908116911614610941576040805162461bcd60e51b81526020600482018190526024820152600080516020611063833981519152604482015290519081900360640190fd5b6001600160a01b0381166109865760405162461bcd60e51b8152600401808060200182810382526026815260200180610fcd6026913960400191505060405180910390fd5b6005546040516001600160a01b0380841692610100900416907f8be0079c531659141344cd1fd0a4f28419497f9722a3daafe3b4186f6b6457e090600090a3600580546001600160a01b0390921661010002610100600160a81b0319909216919091179055565b3390565b6001600160a01b038316610a365760405162461bcd60e51b81526004018080602001828103825260248152602001806110c96024913960400191505060405180910390fd5b6001600160a01b038216610a7b5760405162461bcd60e51b8152600401808060200182810382526022815260200180610ff36022913960400191505060405180910390fd5b6001600160a01b03808416600081815260016020908152604080832094871680845294825291829020859055815185815291517f8c5be1e5ebec7d5bd14f71427d1e84f3dd0314c0f7b2291e5b200ac8c7c3b9259281900390910190a3505050565b6001600160a01b038316610b225760405162461bcd60e51b81526004018080602001828103825260258152602001806110a46025913960400191505060405180910390fd5b6001600160a01b038216610b675760405162461bcd60e51b8152600401808060200182810382526023815260200180610f886023913960400191505060405180910390fd5b610b72838383610f40565b610bb581604051806060016040528060268152602001611015602691396001600160a01b038616600090815260208190526040902054919063ffffffff610c4416565b6001600160a01b038085166000908152602081905260408082209390935590841681522054610bea908263ffffffff610cdb16565b6001600160a01b038084166000818152602081815260409182902094909455805185815290519193928716927fddf252ad1be2c89b69c2b068fc378daa952ba7f163c4a11628f55a4df523b3ef92918290030190a3505050565b60008184841115610cd35760405162461bcd60e51b81526004018080602001828103825283818151815260200191508051906020019080838360005b83811015610c98578181015183820152602001610c80565b50505050905090810190601f168015610cc55780820380516001836020036101000a031916815260200191505b509250505060405180910390fd5b505050900390565b600082820183811015610d35576040805162461bcd60e51b815260206004820152601b60248201527f536166654d6174683a206164646974696f6e206f766572666c6f770000000000604482015290519081900360640190fd5b9392505050565b6001600160a01b038216610d97576040805162461bcd60e51b815260206004820152601f60248201527f45524332303a206d696e7420746f20746865207a65726f206164647265737300604482015290519081900360640190fd5b610da360008383610f40565b600254610db6908263ffffffff610cdb16565b6002556001600160a01b038216600090815260208190526040902054610de2908263ffffffff610cdb16565b6001600160a01b0383166000818152602081815260408083209490945583518581529351929391927fddf252ad1be2c89b69c2b068fc378daa952ba7f163c4a11628f55a4df523b3ef9281900390910190a35050565b6001600160a01b038216610e7d5760405162461bcd60e51b81526004018080602001828103825260218152602001806110836021913960400191505060405180910390fd5b610e8982600083610f40565b610ecc81604051806060016040528060228152602001610fab602291396001600160a01b038516600090815260208190526040902054919063ffffffff610c4416565b6001600160a01b038316600090815260208190526040902055600254610ef8908263ffffffff610f4516565b6002556040805182815290516000916001600160a01b038516917fddf252ad1be2c89b69c2b068fc378daa952ba7f163c4a11628f55a4df523b3ef9181900360200190a35050565b505050565b6000610d3583836040518060400160405280601e81526020017f536166654d6174683a207375627472616374696f6e206f766572666c6f770000815250610c4456fe45524332303a207472616e7366657220746f20746865207a65726f206164647265737345524332303a206275726e20616d6f756e7420657863656564732062616c616e63654f776e61626c653a206e6577206f776e657220697320746865207a65726f206164647265737345524332303a20617070726f766520746f20746865207a65726f206164647265737345524332303a207472616e7366657220616d6f756e7420657863656564732062616c616e636545524332303a207472616e7366657220616d6f756e74206578636565647320616c6c6f77616e63654f776e61626c653a2063616c6c6572206973206e6f7420746865206f776e657245524332303a206275726e2066726f6d20746865207a65726f206164647265737345524332303a207472616e736665722066726f6d20746865207a65726f206164647265737345524332303a20617070726f76652066726f6d20746865207a65726f206164647265737345524332303a2064656372656173656420616c6c6f77616e63652062656c6f77207a65726fa264697066735822122061d79501a92a326734bdbff920e8494e88e057aa50f9760d826ee10c39922e3464736f6c634300060800334f776e61626c653a206e6577206f776e657220697320746865207a65726f2061646472657373536166654d6174683a206d756c7469706c69636174696f6e206f766572666c6f774f776e61626c653a2063616c6c6572206973206e6f7420746865206f776e657266756e6374696f6e2063616e6e6f742062652063616c6c656420617420746869732074696d65a2646970667358221220653b9bb6c98a8b65342a0019b9b4685686ce69e09583a3f13b31bb248c89904964736f6c634300060800334f776e61626c653a206e6577206f776e657220697320746865207a65726f20616464726573738be0079c531659141344cd1fd0a4f28419497f9722a3daafe3b4186f6b6457e04f776e61626c653a206e6577206f776e657220697320746865207a65726f20616464726573734d757374277665206265656e20637265617465642062792074686520636f72726573706f6e64696e6720666163746f72794f776e61626c653a2063616c6c6572206973206e6f7420746865206f776e6572a2646970667358221220ff3529a3ef66eaa23b138c3a081318a26d81bd7331befbe093b4f9b61cfdfe6f64736f6c63430006080033",
  "immutableReferences": {},
  "source": "//SPDX-License-Identifier: UNLICENSED\npragma solidity 0.6.8;\n\nimport '@openzeppelin/contracts/access/Ownable.sol';\nimport '@openzeppelin/contracts/utils/Pausable.sol';\nimport './BTMarket.sol';\nimport './interfaces/IAave.sol';\nimport './interfaces/IDai.sol';\nimport './interfaces/IRealitio.sol';\n\n\ncontract BTMarketFactory is Ownable, Pausable {\n    Dai public dai;\n    IaToken public aToken;\n    IAaveLendingPool public aaveLendingPool;\n    IAaveLendingPoolCore public aaveLendingPoolCore;\n    IRealitio public realitio;\n    mapping(address => bool) public mappingOfMarkets;\n    address[] public marketAddresses;\n\n    event MarketCreated(address contractAddress);\n\n    modifier createdByThisFactory(address marketAddress) {\n        require(mappingOfMarkets[marketAddress], \"Must've been created by the corresponding factory\");\n        _;\n    }\n\n    constructor(\n        Dai _daiAddress,\n        IaToken _aTokenAddress,\n        IAaveLendingPool _aaveLpAddress,\n        IAaveLendingPoolCore _aaveLpcoreAddress,\n        IRealitio _realitioAddress\n    ) public {\n        dai = _daiAddress;\n        aToken = _aTokenAddress;\n        aaveLendingPool = _aaveLpAddress;\n        aaveLendingPoolCore = _aaveLpcoreAddress;\n        realitio = _realitioAddress;\n    }\n\n    function createMarket(\n        string memory _eventName,\n        uint256 _marketOpeningTime,\n        uint256 _marketLockingTime,\n        uint32 _marketResolutionTime,\n        uint32 _timeout,\n        address _arbitrator,\n        string memory _realitioQuestion,\n        uint256 _numberOfOutcomes\n    )\n        public\n        virtual\n        /* onlyOwner TODO removed for development */\n        whenNotPaused\n        returns (BTMarket)\n    {\n        uint256[3] memory marketTimes = [_marketOpeningTime, _marketLockingTime, _marketResolutionTime];\n        BTMarket newContract = new BTMarket({\n            _daiAddress: dai,\n            _aTokenAddress: aToken,\n            _aaveLpAddress: aaveLendingPool,\n            _aaveLpcoreAddress: aaveLendingPoolCore,\n            _realitioAddress: realitio,\n            _eventName: _eventName,\n            _marketTimes: marketTimes,\n            _timeout: _timeout,\n            _arbitrator: _arbitrator,\n            _realitioQuestion: _realitioQuestion,\n            _numberOfOutcomes: _numberOfOutcomes,\n            _owner: msg.sender\n        });\n        address newAddress = address(newContract);\n        marketAddresses.push(newAddress);\n        mappingOfMarkets[newAddress] = true;\n        emit MarketCreated(address(newAddress));\n        return newContract;\n    }\n\n    function getMarkets() public view returns (address[] memory) {\n        return marketAddresses;\n    }\n\n    function destroy() public onlyOwner whenPaused {\n        selfdestruct(msg.sender);\n    }\n\n    function disableMarket(address payable marketAddress)\n        public\n        onlyOwner\n        createdByThisFactory(marketAddress)\n        returns (bool)\n    {\n        return BTMarket(marketAddress).disableContract();\n    }\n}\n",
  "sourcePath": "/Users/brenfife/Desktop/MagicBet-Contracts/contracts/BTMarketFactory.sol",
  "compiler": {
    "name": "solc",
    "version": "0.6.8+commit.0bbfe453.Emscripten.clang"
  },
  "schemaVersion": "3.1.0",
  "updatedAt": "2020-05-21T22:11:09.455Z",
  "devdoc": {
    "methods": {
      "owner()": {
        "details": "Returns the address of the current owner."
      },
      "paused()": {
        "details": "Returns true if the contract is paused, and false otherwise."
      },
      "renounceOwnership()": {
        "details": "Leaves the contract without owner. It will not be possible to call `onlyOwner` functions anymore. Can only be called by the current owner.     * NOTE: Renouncing ownership will leave the contract without an owner, thereby removing any functionality that is only available to the owner."
      },
      "transferOwnership(address)": {
        "details": "Transfers ownership of the contract to a new account (`newOwner`). Can only be called by the current owner."
      }
    }
  },
  "userdoc": {
    "methods": {}
  }
}