{
  "contractName": "BTMarket",
  "abi": [
    {
      "inputs": [
        {
          "internalType": "contract Dai",
          "name": "_daiAddress",
          "type": "address"
        },
        {
          "internalType": "contract IaToken",
          "name": "_aTokenAddress",
          "type": "address"
        },
        {
          "internalType": "contract IAaveLendingPool",
          "name": "_aaveLpAddress",
          "type": "address"
        },
        {
          "internalType": "contract IAaveLendingPoolCore",
          "name": "_aaveLpcoreAddress",
          "type": "address"
        },
        {
          "internalType": "contract IRealitio",
          "name": "_realitioAddress",
          "type": "address"
        },
        {
          "internalType": "string",
          "name": "_eventName",
          "type": "string"
        },
        {
          "internalType": "uint256[3]",
          "name": "_marketTimes",
          "type": "uint256[3]"
        },
        {
          "internalType": "uint32",
          "name": "_timeout",
          "type": "uint32"
        },
        {
          "internalType": "address",
          "name": "_arbitrator",
          "type": "address"
        },
        {
          "internalType": "string",
          "name": "_realitioQuestion",
          "type": "string"
        },
        {
          "internalType": "uint256",
          "name": "_numberOfOutcomes",
          "type": "uint256"
        },
        {
          "internalType": "address",
          "name": "_owner",
          "type": "address"
        }
      ],
      "stateMutability": "nonpayable",
      "type": "constructor"
    },
    {
      "anonymous": false,
      "inputs": [
        {
          "indexed": true,
          "internalType": "address",
          "name": "previousOwner",
          "type": "address"
        },
        {
          "indexed": true,
          "internalType": "address",
          "name": "newOwner",
          "type": "address"
        }
      ],
      "name": "OwnershipTransferred",
      "type": "event"
    },
    {
      "anonymous": false,
      "inputs": [
        {
          "indexed": true,
          "internalType": "address",
          "name": "participant",
          "type": "address"
        }
      ],
      "name": "ParticipantEntered",
      "type": "event"
    },
    {
      "anonymous": false,
      "inputs": [
        {
          "indexed": true,
          "internalType": "address",
          "name": "participant",
          "type": "address"
        }
      ],
      "name": "ParticipantWithdrawn",
      "type": "event"
    },
    {
      "anonymous": false,
      "inputs": [
        {
          "indexed": false,
          "internalType": "address",
          "name": "account",
          "type": "address"
        }
      ],
      "name": "Paused",
      "type": "event"
    },
    {
      "anonymous": false,
      "inputs": [
        {
          "indexed": false,
          "internalType": "enum BTMarket.States",
          "name": "state",
          "type": "uint8"
        }
      ],
      "name": "StateChanged",
      "type": "event"
    },
    {
      "anonymous": false,
      "inputs": [
        {
          "indexed": false,
          "internalType": "address",
          "name": "account",
          "type": "address"
        }
      ],
      "name": "Unpaused",
      "type": "event"
    },
    {
      "anonymous": false,
      "inputs": [
        {
          "indexed": true,
          "internalType": "address",
          "name": "winner",
          "type": "address"
        }
      ],
      "name": "WinnerSelected",
      "type": "event"
    },
    {
      "stateMutability": "payable",
      "type": "fallback"
    },
    {
      "inputs": [],
      "name": "aToken",
      "outputs": [
        {
          "internalType": "contract IaToken",
          "name": "",
          "type": "address"
        }
      ],
      "stateMutability": "view",
      "type": "function"
    },
    {
      "inputs": [],
      "name": "aaveLendingPool",
      "outputs": [
        {
          "internalType": "contract IAaveLendingPool",
          "name": "",
          "type": "address"
        }
      ],
      "stateMutability": "view",
      "type": "function"
    },
    {
      "inputs": [
        {
          "internalType": "uint256",
          "name": "",
          "type": "uint256"
        },
        {
          "internalType": "uint256",
          "name": "",
          "type": "uint256"
        }
      ],
      "name": "betTimestamps",
      "outputs": [
        {
          "internalType": "uint256",
          "name": "",
          "type": "uint256"
        }
      ],
      "stateMutability": "view",
      "type": "function"
    },
    {
      "inputs": [],
      "name": "betsWithdrawn",
      "outputs": [
        {
          "internalType": "uint256",
          "name": "",
          "type": "uint256"
        }
      ],
      "stateMutability": "view",
      "type": "function"
    },
    {
      "inputs": [
        {
          "internalType": "uint256",
          "name": "",
          "type": "uint256"
        }
      ],
      "name": "betsWithdrawnPerOutcome",
      "outputs": [
        {
          "internalType": "uint256",
          "name": "",
          "type": "uint256"
        }
      ],
      "stateMutability": "view",
      "type": "function"
    },
    {
      "inputs": [],
      "name": "dai",
      "outputs": [
        {
          "internalType": "contract Dai",
          "name": "",
          "type": "address"
        }
      ],
      "stateMutability": "view",
      "type": "function"
    },
    {
      "inputs": [],
      "name": "eventName",
      "outputs": [
        {
          "internalType": "string",
          "name": "",
          "type": "string"
        }
      ],
      "stateMutability": "view",
      "type": "function"
    },
    {
      "inputs": [],
      "name": "marketLockingTime",
      "outputs": [
        {
          "internalType": "uint256",
          "name": "",
          "type": "uint256"
        }
      ],
      "stateMutability": "view",
      "type": "function"
    },
    {
      "inputs": [],
      "name": "marketOpeningTime",
      "outputs": [
        {
          "internalType": "uint256",
          "name": "",
          "type": "uint256"
        }
      ],
      "stateMutability": "view",
      "type": "function"
    },
    {
      "inputs": [],
      "name": "marketResolutionTime",
      "outputs": [
        {
          "internalType": "uint32",
          "name": "",
          "type": "uint32"
        }
      ],
      "stateMutability": "view",
      "type": "function"
    },
    {
      "inputs": [],
      "name": "maxInterest",
      "outputs": [
        {
          "internalType": "uint256",
          "name": "",
          "type": "uint256"
        }
      ],
      "stateMutability": "view",
      "type": "function"
    },
    {
      "inputs": [],
      "name": "numberOfOutcomes",
      "outputs": [
        {
          "internalType": "uint256",
          "name": "",
          "type": "uint256"
        }
      ],
      "stateMutability": "view",
      "type": "function"
    },
    {
      "inputs": [
        {
          "internalType": "uint256",
          "name": "",
          "type": "uint256"
        }
      ],
      "name": "outcomeNames",
      "outputs": [
        {
          "internalType": "string",
          "name": "",
          "type": "string"
        }
      ],
      "stateMutability": "view",
      "type": "function"
    },
    {
      "inputs": [],
      "name": "owner",
      "outputs": [
        {
          "internalType": "address",
          "name": "",
          "type": "address"
        }
      ],
      "stateMutability": "view",
      "type": "function"
    },
    {
      "inputs": [
        {
          "internalType": "uint256",
          "name": "",
          "type": "uint256"
        }
      ],
      "name": "participants",
      "outputs": [
        {
          "internalType": "address",
          "name": "",
          "type": "address"
        }
      ],
      "stateMutability": "view",
      "type": "function"
    },
    {
      "inputs": [],
      "name": "paused",
      "outputs": [
        {
          "internalType": "bool",
          "name": "",
          "type": "bool"
        }
      ],
      "stateMutability": "view",
      "type": "function"
    },
    {
      "inputs": [],
      "name": "questionId",
      "outputs": [
        {
          "internalType": "bytes32",
          "name": "",
          "type": "bytes32"
        }
      ],
      "stateMutability": "view",
      "type": "function"
    },
    {
      "inputs": [],
      "name": "questionResolvedInvalid",
      "outputs": [
        {
          "internalType": "bool",
          "name": "",
          "type": "bool"
        }
      ],
      "stateMutability": "view",
      "type": "function"
    },
    {
      "inputs": [],
      "name": "realitio",
      "outputs": [
        {
          "internalType": "contract IRealitio",
          "name": "",
          "type": "address"
        }
      ],
      "stateMutability": "view",
      "type": "function"
    },
    {
      "inputs": [],
      "name": "renounceOwnership",
      "outputs": [],
      "stateMutability": "nonpayable",
      "type": "function"
    },
    {
      "inputs": [],
      "name": "state",
      "outputs": [
        {
          "internalType": "enum BTMarket.States",
          "name": "",
          "type": "uint8"
        }
      ],
      "stateMutability": "view",
      "type": "function"
    },
    {
      "inputs": [
        {
          "internalType": "uint256",
          "name": "",
          "type": "uint256"
        }
      ],
      "name": "tokenAddresses",
      "outputs": [
        {
          "internalType": "contract Token",
          "name": "",
          "type": "address"
        }
      ],
      "stateMutability": "view",
      "type": "function"
    },
    {
      "inputs": [],
      "name": "tokenContractsCreated",
      "outputs": [
        {
          "internalType": "uint256",
          "name": "",
          "type": "uint256"
        }
      ],
      "stateMutability": "view",
      "type": "function"
    },
    {
      "inputs": [],
      "name": "totalBets",
      "outputs": [
        {
          "internalType": "uint256",
          "name": "",
          "type": "uint256"
        }
      ],
      "stateMutability": "view",
      "type": "function"
    },
    {
      "inputs": [
        {
          "internalType": "uint256",
          "name": "",
          "type": "uint256"
        }
      ],
      "name": "totalBetsPerOutcome",
      "outputs": [
        {
          "internalType": "uint256",
          "name": "",
          "type": "uint256"
        }
      ],
      "stateMutability": "view",
      "type": "function"
    },
    {
      "inputs": [
        {
          "internalType": "address",
          "name": "",
          "type": "address"
        }
      ],
      "name": "totalBetsPerUser",
      "outputs": [
        {
          "internalType": "uint256",
          "name": "",
          "type": "uint256"
        }
      ],
      "stateMutability": "view",
      "type": "function"
    },
    {
      "inputs": [
        {
          "internalType": "address",
          "name": "newOwner",
          "type": "address"
        }
      ],
      "name": "transferOwnership",
      "outputs": [],
      "stateMutability": "nonpayable",
      "type": "function"
    },
    {
      "inputs": [
        {
          "internalType": "uint256",
          "name": "",
          "type": "uint256"
        }
      ],
      "name": "usersPerOutcome",
      "outputs": [
        {
          "internalType": "uint256",
          "name": "",
          "type": "uint256"
        }
      ],
      "stateMutability": "view",
      "type": "function"
    },
    {
      "inputs": [],
      "name": "winningOutcome",
      "outputs": [
        {
          "internalType": "uint256",
          "name": "",
          "type": "uint256"
        }
      ],
      "stateMutability": "view",
      "type": "function"
    },
    {
      "inputs": [
        {
          "internalType": "address",
          "name": "",
          "type": "address"
        }
      ],
      "name": "withdrawnBool",
      "outputs": [
        {
          "internalType": "bool",
          "name": "",
          "type": "bool"
        }
      ],
      "stateMutability": "view",
      "type": "function"
    },
    {
      "stateMutability": "payable",
      "type": "receive"
    },
    {
      "inputs": [
        {
          "internalType": "string",
          "name": "_eventName",
          "type": "string"
        }
      ],
      "name": "setEventName",
      "outputs": [],
      "stateMutability": "nonpayable",
      "type": "function"
    },
    {
      "inputs": [
        {
          "internalType": "string",
          "name": "_outcomeName",
          "type": "string"
        },
        {
          "internalType": "string",
          "name": "_tokenName",
          "type": "string"
        }
      ],
      "name": "createTokenContract",
      "outputs": [],
      "stateMutability": "nonpayable",
      "type": "function"
    },
    {
      "inputs": [],
      "name": "getMarketSize",
      "outputs": [
        {
          "internalType": "uint256",
          "name": "",
          "type": "uint256"
        }
      ],
      "stateMutability": "view",
      "type": "function"
    },
    {
      "inputs": [
        {
          "internalType": "uint256",
          "name": "_outcome",
          "type": "uint256"
        }
      ],
      "name": "getParticipantsBet",
      "outputs": [
        {
          "internalType": "uint256",
          "name": "",
          "type": "uint256"
        }
      ],
      "stateMutability": "view",
      "type": "function"
    },
    {
      "inputs": [],
      "name": "getMaxTotalInterest",
      "outputs": [
        {
          "internalType": "uint256",
          "name": "",
          "type": "uint256"
        }
      ],
      "stateMutability": "view",
      "type": "function"
    },
    {
      "inputs": [],
      "name": "getTotalInterest",
      "outputs": [
        {
          "internalType": "uint256",
          "name": "",
          "type": "uint256"
        }
      ],
      "stateMutability": "view",
      "type": "function"
    },
    {
      "inputs": [
        {
          "internalType": "uint256",
          "name": "_outcome",
          "type": "uint256"
        }
      ],
      "name": "getWinnings",
      "outputs": [
        {
          "internalType": "uint256",
          "name": "",
          "type": "uint256"
        }
      ],
      "stateMutability": "view",
      "type": "function"
    },
    {
      "inputs": [],
      "name": "getWinningsInvalid",
      "outputs": [
        {
          "internalType": "uint256",
          "name": "",
          "type": "uint256"
        }
      ],
      "stateMutability": "view",
      "type": "function"
    },
    {
      "inputs": [
        {
          "internalType": "uint256",
          "name": "_outcome",
          "type": "uint256"
        },
        {
          "internalType": "uint256",
          "name": "_dai",
          "type": "uint256"
        }
      ],
      "name": "placeBet",
      "outputs": [],
      "stateMutability": "nonpayable",
      "type": "function"
    },
    {
      "inputs": [],
      "name": "determineWinner",
      "outputs": [],
      "stateMutability": "nonpayable",
      "type": "function"
    },
    {
      "inputs": [],
      "name": "incrementState",
      "outputs": [],
      "stateMutability": "nonpayable",
      "type": "function"
    },
    {
      "inputs": [],
      "name": "withdraw",
      "outputs": [],
      "stateMutability": "nonpayable",
      "type": "function"
    },
    {
      "inputs": [],
      "name": "disableContract",
      "outputs": [
        {
          "internalType": "bool",
          "name": "",
          "type": "bool"
        }
      ],
      "stateMutability": "nonpayable",
      "type": "function"
    },
    {
      "inputs": [],
      "name": "enableContract",
      "outputs": [
        {
          "internalType": "bool",
          "name": "",
          "type": "bool"
        }
      ],
      "stateMutability": "nonpayable",
      "type": "function"
    }
  ],
  "bytecode": "0x60806040526045601955601a805460ff191660011790553480156200002357600080fd5b50604051620041983803806200419883398181016040526101c08110156200004a57600080fd5b815160208301516040808501516060860151608087015160a0880180519451969895979396929591949293820192846401000000008211156200008c57600080fd5b908301906020820185811115620000a257600080fd5b8251640100000000811182820188101715620000bd57600080fd5b82525081516020918201929091019080838360005b83811015620000ec578181015183820152602001620000d2565b50505050905090810190601f1680156200011a5780820380516001836020036101000a031916815260200191505b506040819052608082015160a083015160c08401805160209095019692959194846401000000008211156200014e57600080fd5b9083019060208201858111156200016457600080fd5b82516401000000008111828201881017156200017f57600080fd5b82525081516020918201929091019080838360005b83811015620001ae57818101518382015260200162000194565b50505050905090810190601f168015620001dc5780820380516001836020036101000a031916815260200191505b506040908152602082015191015190925090506000620002046001600160e01b03620003fc16565b600080546001600160a01b0319166001600160a01b03831690811782556040519293509160008051602062004178833981519152908290a3506000805461ffff60a01b1916600160a81b1790556001600160a01b0381163314620002765762000276816001600160e01b036200040116565b600180546001600160a01b03199081166001600160a01b038f811691909117928390556002805483168f83161790556003805483168e8316179055600480549092168b82161782556040805163095ea7b360e01b81528d831693810193909352600160ff1b60248401525192169163095ea7b3916044808201926020929091908290030181600087803b1580156200030d57600080fd5b505af115801562000322573d6000803e3d6000fd5b505050506040513d60208110156200033957600080fd5b505086516200035090600b9060208a019062000656565b508551600755602086015160085560408601516009805463ffffffff191663ffffffff909216919091179055600e82905560005b82811015620003b8576000818152601060209081526040822080546001818101835591845291909220429101550162000384565b506009546002904290620003e4908390879089908b9063ffffffff16866001600160e01b036200050816565b600a5550620006f89c50505050505050505050505050565b335b90565b620004146001600160e01b03620003fc16565b6000546001600160a01b0390811691161462000477576040805162461bcd60e51b815260206004820181905260248201527f4f776e61626c653a2063616c6c6572206973206e6f7420746865206f776e6572604482015290519081900360640190fd5b6001600160a01b038116620004be5760405162461bcd60e51b8152600401808060200182810382526026815260200180620041526026913960400191505060405180910390fd5b600080546040516001600160a01b03808516939216916000805160206200417883398151915291a3600080546001600160a01b0319166001600160a01b0392909216919091179055565b6000600460009054906101000a90046001600160a01b03166001600160a01b031663762c38fd8888888888886040518763ffffffff1660e01b81526004018087815260200180602001866001600160a01b03166001600160a01b031681526020018563ffffffff1663ffffffff1681526020018463ffffffff1663ffffffff168152602001838152602001828103825287818151815260200191508051906020019080838360005b83811015620005ca578181015183820152602001620005b0565b50505050905090810190601f168015620005f85780820380516001836020036101000a031916815260200191505b50975050505050505050602060405180830381600087803b1580156200061d57600080fd5b505af115801562000632573d6000803e3d6000fd5b505050506040513d60208110156200064957600080fd5b5051979650505050505050565b828054600181600116156101000203166002900490600052602060002090601f016020900481019282601f106200069957805160ff1916838001178555620006c9565b82800160010185558215620006c9579182015b82811115620006c9578251825591602001919060010190620006ac565b50620006d7929150620006db565b5090565b620003fe91905b80821115620006d75760008155600101620006e2565b613a4a80620007086000396000f3fe608060405260043610620002a75760003560e01c80638da5cb5b1162000163578063befa1e2f11620000c7578063e5df8b841162000085578063e5df8b841462000976578063e9d337b814620009a4578063ee72b06d14620009bc578063f2fde38b14620009d4578063f4b9fa751462000a0b578063fd27b51e1462000a2357620002af565b8063befa1e2f14620008a4578063c19d93fb14620008bc578063c56f338c14620008f9578063d844ab5f1462000927578063e14dedfd146200095e57620002af565b8063a055ccc51162000121578063a055ccc514620007fe578063a0c1f15e1462000816578063aa0cb842146200082e578063ad5d28621462000846578063b06a5c521462000874578063bc8802a2146200088c57620002af565b80638da5cb5b14620006fb578063906d62411462000713578063991d4f5d146200074a5780639b34ae0314620007ce5780639d7c7d3914620007e657620002af565b80634afe62b5116200020b578063659e3fc411620001c9578063659e3fc4146200058e5780636c0dc97614620005c2578063715018a6146200069b5780638043c9c014620006b35780638263302814620006cb578063894ba83314620006e357620002af565b80634afe62b514620004e45780634b8755ca14620005185780634ecc79f71462000530578063519709c414620005485780635c975abb146200057657620002af565b806333b16d93116200026557806333b16d93146200040e57806335c1d3491462000426578063367edd3214620004705780633ccfd60b146200049c57806347254f4f14620004b457806349200d7714620004cc57620002af565b806305801f0b14620002b15780630b60365c14620002f1578063149b5d581462000309578063232ea3ad146200033757806327acae74146200036857620002af565b36620002af57005b005b348015620002be57600080fd5b50620002df60048036036020811015620002d757600080fd5b503562000a3b565b60408051918252519081900360200190f35b348015620002fe57600080fd5b50620002df62000a4d565b3480156200031657600080fd5b50620002df600480360360208110156200032f57600080fd5b503562000b08565b3480156200034457600080fd5b506200034f62000ba1565b6040805163ffffffff9092168252519081900360200190f35b3480156200037557600080fd5b5062000396600480360360208110156200038e57600080fd5b503562000bad565b6040805160208082528351818301528351919283929083019185019080838360005b83811015620003d2578181015183820152602001620003b8565b50505050905090810190601f168015620004005780820380516001836020036101000a031916815260200191505b509250505060405180910390f35b3480156200041b57600080fd5b50620002af62000c58565b3480156200043357600080fd5b5062000454600480360360208110156200044c57600080fd5b503562000d36565b604080516001600160a01b039092168252519081900360200190f35b3480156200047d57600080fd5b506200048862000d5e565b604080519115158252519081900360200190f35b348015620004a957600080fd5b50620002af62000e1c565b348015620004c157600080fd5b506200048862000fe4565b348015620004d957600080fd5b50620002df62000fed565b348015620004f157600080fd5b50620002af600480360360408110156200050a57600080fd5b508035906020013562000ff3565b3480156200052557600080fd5b50620002df620010c1565b3480156200053d57600080fd5b50620002df620010c7565b3480156200055557600080fd5b50620002df600480360360208110156200056e57600080fd5b5035620010cd565b3480156200058357600080fd5b5062000488620010df565b3480156200059b57600080fd5b50620002df60048036036040811015620005b457600080fd5b5080359060200135620010ef565b348015620005cf57600080fd5b50620002af60048036036040811015620005e857600080fd5b8101906020810181356401000000008111156200060457600080fd5b8201836020820111156200061757600080fd5b803590602001918460018302840111640100000000831117156200063a57600080fd5b9193909290916020810190356401000000008111156200065957600080fd5b8201836020820111156200066c57600080fd5b803590602001918460018302840111640100000000831117156200068f57600080fd5b5090925090506200111e565b348015620006a857600080fd5b50620002af6200131f565b348015620006c057600080fd5b5062000396620013c5565b348015620006d857600080fd5b50620002df62001423565b348015620006f057600080fd5b506200048862001429565b3480156200070857600080fd5b5062000454620014e4565b3480156200072057600080fd5b5062000488600480360360208110156200073957600080fd5b50356001600160a01b0316620014f3565b3480156200075757600080fd5b50620002af600480360360208110156200077057600080fd5b8101906020810181356401000000008111156200078c57600080fd5b8201836020820111156200079f57600080fd5b80359060200191846001830284011164010000000083111715620007c257600080fd5b50909250905062001508565b348015620007db57600080fd5b50620002df62001572565b348015620007f357600080fd5b50620002df62001578565b3480156200080b57600080fd5b50620002df620015b1565b3480156200082357600080fd5b50620004546200163d565b3480156200083b57600080fd5b50620002df6200164c565b3480156200085357600080fd5b50620002df600480360360208110156200086c57600080fd5b503562001652565b3480156200088157600080fd5b50620002df6200175f565b3480156200089957600080fd5b506200045462001765565b348015620008b157600080fd5b50620002df62001774565b348015620008c957600080fd5b50620008d46200177a565b60405180826004811115620008e557fe5b60ff16815260200191505060405180910390f35b3480156200090657600080fd5b50620002df600480360360208110156200091f57600080fd5b503562001783565b3480156200093457600080fd5b50620002df600480360360208110156200094d57600080fd5b50356001600160a01b031662001795565b3480156200096b57600080fd5b50620002df620017a7565b3480156200098357600080fd5b5062000454600480360360208110156200099c57600080fd5b5035620017ad565b348015620009b157600080fd5b5062000454620017bb565b348015620009c957600080fd5b50620002af620017ca565b348015620009e157600080fd5b50620002af60048036036020811015620009fa57600080fd5b50356001600160a01b031662001951565b34801562000a1857600080fd5b506200045462001a4f565b34801562000a3057600080fd5b50620002df62001a5e565b60116020526000908152604090205481565b60008062000a6960165460155462001a6490919063ffffffff16565b600254604080516370a0823160e01b815230600482015290519293506000926001600160a01b03909216916370a0823191602480820192602092909190829003018186803b15801562000abb57600080fd5b505afa15801562000ad0573d6000803e3d6000fd5b505050506040513d602081101562000ae757600080fd5b50519050600062000aff828463ffffffff62001a6416565b93505050505b90565b600080600d838154811062000b1957fe5b60009182526020918290200154604080516370a0823160e01b815233600482015290516001600160a01b03909216935083926370a0823192602480840193829003018186803b15801562000b6c57600080fd5b505afa15801562000b81573d6000803e3d6000fd5b505050506040513d602081101562000b9857600080fd5b50519392505050565b60095463ffffffff1681565b600c818154811062000bbb57fe5b600091825260209182902001805460408051601f600260001961010060018716150201909416939093049283018590048502810185019091528181529350909183018282801562000c505780601f1062000c245761010080835404028352916020019162000c50565b820191906000526020600020905b81548152906001019060200180831162000c3257829003601f168201915b505050505081565b600054600160a01b900460ff161562000cab576040805162461bcd60e51b815260206004820152601060248201526f14185d5cd8589b194e881c185d5cd95960821b604482015290519081900360640190fd5b62000cb562001ab1565b62000d07576040805162461bcd60e51b815260206004820152601860248201527f4f7261636c6520686173206e6f742066696e616c697365640000000000000000604482015290519081900360640190fd5b62000d1162001b36565b60198190556000191462000d2a57601a805460ff191690555b62000d34620017ca565b565b6017818154811062000d4457fe5b6000918252602090912001546001600160a01b0316905081565b600062000d6a62001bbd565b6000546001600160a01b0390811691161462000dbc576040805162461bcd60e51b81526020600482018190526024820152600080516020620039cf833981519152604482015290519081900360640190fd5b600054600160a01b900460ff1662000e12576040805162461bcd60e51b815260206004820152601460248201527314185d5cd8589b194e881b9bdd081c185d5cd95960621b604482015290519081900360640190fd5b62000b0562001bc1565b600480600f5460ff16600481111562000e3157fe5b1462000e6f5760405162461bcd60e51b8152600401808060200182810382526026815260200180620039ef6026913960400191505060405180910390fd5b600054600160a01b900460ff161562000ec2576040805162461bcd60e51b815260206004820152601060248201526f14185d5cd8589b194e881c185d5cd95960821b604482015290519081900360640190fd5b600054600160a81b900460ff1662000f21576040805162461bcd60e51b815260206004820152601f60248201527f5265656e7472616e637947756172643a207265656e7472616e742063616c6c00604482015290519081900360640190fd5b6000805460ff60a81b191681553381526018602052604090205460ff161562000f85576040805162461bcd60e51b815260206004820152601160248201527020b63932b0b23c903bb4ba34323930bbb760791b604482015290519081900360640190fd5b336000908152601860205260409020805460ff19166001179055601a5460ff1662000fba5762000fb462001c6c565b62000fc4565b62000fc462001cc6565b62000fce62001cd2565b506000805460ff60a81b1916600160a81b179055565b601a5460ff1681565b600e5481565b600280600f5460ff1660048111156200100857fe5b14620010465760405162461bcd60e51b8152600401808060200182810382526026815260200180620039ef6026913960400191505060405180910390fd5b600054600160a01b900460ff161562001099576040805162461bcd60e51b815260206004820152601060248201526f14185d5cd8589b194e881c185d5cd95960821b604482015290519081900360640190fd5b620010a5838362001e69565b620010b13383620020a0565b620010bc8262002174565b505050565b60085481565b60075481565b60146020526000908152604090205481565b600054600160a01b900460ff1690565b601060205281600052604060002081815481106200110957fe5b90600052602060002001600091509150505481565b6200112862001bbd565b6000546001600160a01b039081169116146200117a576040805162461bcd60e51b81526020600482018190526024820152600080516020620039cf833981519152604482015290519081900360640190fd5b600080600f5460ff1660048111156200118f57fe5b14620011cd5760405162461bcd60e51b8152600401808060200182810382526026815260200180620039ef6026913960400191505060405180910390fd5b600c80546001810182556000919091526200120c907fdf6966c971051c3d54ec59162606531493a51404a002842f56009d7e5cf4a8c701868662002525565b50600083836040516200121f90620025aa565b6020808252810182905280604081018484808284376000838201819052604051601f909201601f1916909301819003965094509092505050f0801580156200126b573d6000803e3d6000fd5b50600d8054600180820183556000929092527fd7b6990105719101dabeb77144f2a3385c8033acd3af97e9423a695e81ad1eb50180546001600160a01b0319166001600160a01b038416179055600554919250620012ca9190620021ee565b6005819055600e5414156200131757600f5460ff166004811115620012eb57fe5b6001016004811115620012fa57fe5b600f805460ff191660018360048111156200131157fe5b02179055505b505050505050565b6200132962001bbd565b6000546001600160a01b039081169116146200137b576040805162461bcd60e51b81526020600482018190526024820152600080516020620039cf833981519152604482015290519081900360640190fd5b600080546040516001600160a01b03909116907f8be0079c531659141344cd1fd0a4f28419497f9722a3daafe3b4186f6b6457e0908390a3600080546001600160a01b0319169055565b600b805460408051602060026001851615610100026000190190941693909304601f8101849004840282018401909252818152929183018282801562000c505780601f1062000c245761010080835404028352916020019162000c50565b60065481565b60006200143562001bbd565b6000546001600160a01b0390811691161462001487576040805162461bcd60e51b81526020600482018190526024820152600080516020620039cf833981519152604482015290519081900360640190fd5b600054600160a01b900460ff1615620014da576040805162461bcd60e51b815260206004820152601060248201526f14185d5cd8589b194e881c185d5cd95960821b604482015290519081900360640190fd5b62000b0562002249565b6000546001600160a01b031690565b60186020526000908152604090205460ff1681565b6200151262001bbd565b6000546001600160a01b0390811691161462001564576040805162461bcd60e51b81526020600482018190526024820152600080516020620039cf833981519152604482015290519081900360640190fd5b620010bc600b838362002525565b60195481565b60006004600f5460ff1660048111156200158e57fe5b14156200159f575060065462000b05565b620015a962000a4d565b905062000b05565b3360009081526012602052604081205481901562001638576000620015d562000a4d565b90506000620015f260165460155462001a6490919063ffffffff16565b90508015620016355733600090815260126020526040902054620016329082906200162590859063ffffffff620022da16565b9063ffffffff6200233816565b92505b50505b905090565b6002546001600160a01b031681565b60055481565b600080600d83815481106200166357fe5b6000918252602080832090910154604080516370a0823160e01b815233600482015290516001600160a01b039092169450839285926370a08231926024808201939291829003018186803b158015620016bb57600080fd5b505afa158015620016d0573d6000803e3d6000fd5b505050506040513d6020811015620016e757600080fd5b50519050801562001757576000620016fe62000a4d565b60195460009081526013602090815260408083205460119092528220549293509091620017319163ffffffff62001a6416565b905080156200175457620017518162001625848663ffffffff620022da16565b93505b50505b509392505050565b600a5481565b6004546001600160a01b031681565b60155481565b600f5460ff1681565b60136020526000908152604090205481565b60126020526000908152604090205481565b60165481565b600d818154811062000d4457fe5b6003546001600160a01b031681565b600054600160a01b900460ff16156200181d576040805162461bcd60e51b815260206004820152601060248201526f14185d5cd8589b194e881c185d5cd95960821b604482015290519081900360640190fd5b6001600f5460ff1660048111156200183157fe5b14801562001840575042600754105b806200186a57506002600f5460ff1660048111156200185b57fe5b1480156200186a575042600854105b806200189657506003600f5460ff1660048111156200188557fe5b148015620018965750601954604514155b1562000d34576003600f5460ff166004811115620018b057fe5b1415620018c557620018c162000a4d565b6006555b600f5460ff166004811115620018d757fe5b6001016004811115620018e657fe5b600f805460ff19166001836004811115620018fd57fe5b0217905550600f546040517f551dc40198cc79684bb69e4931dba4ac16e4598792ee1c0a5000aeea366d7bb69160ff1690808260048111156200193c57fe5b60ff16815260200191505060405180910390a1565b6200195b62001bbd565b6000546001600160a01b03908116911614620019ad576040805162461bcd60e51b81526020600482018190526024820152600080516020620039cf833981519152604482015290519081900360640190fd5b6001600160a01b038116620019f45760405162461bcd60e51b8152600401808060200182810382526026815260200180620039886026913960400191505060405180910390fd5b600080546040516001600160a01b03808516939216917f8be0079c531659141344cd1fd0a4f28419497f9722a3daafe3b4186f6b6457e091a3600080546001600160a01b0319166001600160a01b0392909216919091179055565b6001546001600160a01b031681565b60175490565b600062001aa883836040518060400160405280601e81526020017f536166654d6174683a207375627472616374696f6e206f766572666c6f7700008152506200237c565b90505b92915050565b60048054600a5460408051633fc6a14f60e11b815293840191909152516000926001600160a01b0390921691637f8d429e916024808301926020929190829003018186803b15801562001b0357600080fd5b505afa15801562001b18573d6000803e3d6000fd5b505050506040513d602081101562001b2f57600080fd5b5051905090565b60048054600a546040805163684e62bf60e11b8152938401919091525160009283926001600160a01b03169163d09cc57e91602480820192602092909190829003018186803b15801562001b8957600080fd5b505afa15801562001b9e573d6000803e3d6000fd5b505050506040513d602081101562001bb557600080fd5b505191505090565b3390565b600054600160a01b900460ff1662001c17576040805162461bcd60e51b815260206004820152601460248201527314185d5cd8589b194e881b9bdd081c185d5cd95960621b604482015290519081900360640190fd5b6000805460ff60a01b191690557f5db9ee0a495bf2e6ff9c91a7834c1ba4fdd244a5e8aa4e537bd38aeae4b073aa62001c4f62001bbd565b604080516001600160a01b039092168252519081900360200190a1565b600062001c7b60195462001652565b336000908152601260205260408120549192509062001ca290839063ffffffff620021ee16565b9050801562001cc25762001cb68162002417565b62001cc2338262002465565b5050565b600062001c7b620015b1565b6000805b600e5481101562001e34576000600d828154811062001cf157fe5b6000918252602080832090910154604080516370a0823160e01b815233600482015290516001600160a01b03909216945084926370a0823192602480840193829003018186803b15801562001d4557600080fd5b505afa15801562001d5a573d6000803e3d6000fd5b505050506040513d602081101562001d7157600080fd5b50519050801562001e295762001d8e848263ffffffff620021ee16565b60008481526013602052604090205490945062001db2908263ffffffff620021ee16565b600084815260136020526040808220929092558151632770a7eb60e21b81523360048201526024810184905291516001600160a01b03851692639dc29fac92604480830193919282900301818387803b15801562001e0f57600080fd5b505af115801562001e24573d6000803e3d6000fd5b505050505b505060010162001cd6565b5033600090815260126020526040902054811462001e4e57fe5b60165462001e63908263ffffffff620021ee16565b60165550565b60008281526010602090815260408220805460018101825590835290822042910155600d80548490811062001e9a57fe5b60009182526020918290200154604080516370a0823160e01b815233600482015290516001600160a01b03909216935083926370a0823192602480840193829003018186803b15801562001eed57600080fd5b505afa15801562001f02573d6000803e3d6000fd5b505050506040513d602081101562001f1957600080fd5b505162001f8e576017805460018181019092557fc624b66cc0138b8fabc209247f72d758e1cf3343756d543badbf24212bed8c150180546001600160a01b0319163317905560008481526014602052604090205462001f7e9163ffffffff620021ee16565b6000848152601460205260409020555b60405133907fef3b3ae531a4f494c95e537ec1fe385cfe5c1146cb4c1d850b24bad38595804990600090a2604080516340c10f1960e01b81523360048201526024810184905290516001600160a01b038316916340c10f1991604480830192600092919082900301818387803b1580156200200857600080fd5b505af11580156200201d573d6000803e3d6000fd5b505060155462002037925090508363ffffffff620021ee16565b6015556000838152601160205260409020546200205b908363ffffffff620021ee16565b6000848152601160209081526040808320939093553382526012905220546200208b908363ffffffff620021ee16565b33600090815260126020526040902055505050565b600154604080516323b872dd60e01b81526001600160a01b03858116600483015230602483015260448201859052915191909216916323b872dd9160648083019260209291908290030181600087803b158015620020fd57600080fd5b505af115801562002112573d6000803e3d6000fd5b505050506040513d60208110156200212957600080fd5b505162001cc2576040805162461bcd60e51b815260206004820152601460248201527310d85cda081d1c985b9cd9995c8819985a5b195960621b604482015290519081900360640190fd5b60035460015460408051636968703360e11b81526001600160a01b039283166004820152602481018590526000604482018190529151929093169263d2d0e066926064808301939282900301818387803b158015620021d257600080fd5b505af1158015620021e7573d6000803e3d6000fd5b5050505050565b60008282018381101562001aa8576040805162461bcd60e51b815260206004820152601b60248201527f536166654d6174683a206164646974696f6e206f766572666c6f770000000000604482015290519081900360640190fd5b600054600160a01b900460ff16156200229c576040805162461bcd60e51b815260206004820152601060248201526f14185d5cd8589b194e881c185d5cd95960821b604482015290519081900360640190fd5b6000805460ff60a01b1916600160a01b1790557f62e78cea01bee320cd4e420270b5ea74000d11b0c9f74754ebdbfc544b05a25862001c4f62001bbd565b600082620022eb5750600062001aab565b82820282848281620022f957fe5b041462001aa85760405162461bcd60e51b8152600401808060200182810382526021815260200180620039ae6021913960400191505060405180910390fd5b600062001aa883836040518060400160405280601a81526020017f536166654d6174683a206469766973696f6e206279207a65726f000000000000815250620024bc565b600081848411156200240f5760405162461bcd60e51b81526004018080602001828103825283818151815260200191508051906020019080838360005b83811015620023d3578181015183820152602001620023b9565b50505050905090810190601f168015620024015780820380516001836020036101000a031916815260200191505b509250505060405180910390fd5b505050900390565b6002546040805163db006a7560e01b81526004810184905290516001600160a01b039092169163db006a759160248082019260009290919082900301818387803b158015620021d257600080fd5b6001546040805163a9059cbb60e01b81526001600160a01b038581166004830152602482018590529151919092169163a9059cbb9160448083019260209291908290030181600087803b158015620020fd57600080fd5b600081836200250e5760405162461bcd60e51b8152602060048201818152835160248401528351909283926044909101919085019080838360008315620023d3578181015183820152602001620023b9565b5060008385816200251b57fe5b0495945050505050565b828054600181600116156101000203166002900490600052602060002090601f016020900481019282601f10620025685782800160ff1982351617855562002598565b8280016001018555821562002598579182015b82811115620025985782358255916020019190600101906200257b565b50620025a6929150620025b8565b5090565b6113b280620025d683390190565b62000b0591905b80821115620025a65760008155600101620025bf56fe60806040523480156200001157600080fd5b50604051620013b2380380620013b2833981810160405260208110156200003757600080fd5b81019080805160405193929190846401000000008211156200005857600080fd5b9083019060208201858111156200006e57600080fd5b82516401000000008111828201881017156200008957600080fd5b82525081516020918201929091019080838360005b83811015620000b85781810151838201526020016200009e565b50505050905090810190601f168015620000e65780820380516001836020036101000a031916815260200191505b5060408181019052600281526126a160f11b60208083019190915285518695509193506200011c925060039190850190620001b9565b50805162000132906004906020840190620001b9565b50506005805460ff19166012179055506000620001576001600160e01b03620001b416565b60058054610100600160a81b0319166101006001600160a01b03841690810291909117909155604051919250906000907f8be0079c531659141344cd1fd0a4f28419497f9722a3daafe3b4186f6b6457e0908290a350506200025b565b335b90565b828054600181600116156101000203166002900490600052602060002090601f016020900481019282601f10620001fc57805160ff19168380011785556200022c565b828001600101855582156200022c579182015b828111156200022c5782518255916020019190600101906200020f565b506200023a9291506200023e565b5090565b620001b691905b808211156200023a576000815560010162000245565b611147806200026b6000396000f3fe6080604052600436106100f75760003560e01c8063715018a61161008a578063a457c2d711610059578063a457c2d7146103a5578063a9059cbb146103de578063dd62ed3e14610417578063f2fde38b14610452576100fe565b8063715018a6146103115780638da5cb5b1461032657806395d89b41146103575780639dc29fac1461036c576100fe565b8063313ce567116100c6578063313ce56714610241578063395093511461026c57806340c10f19146102a557806370a08231146102de576100fe565b806306fdde0314610100578063095ea7b31461018a57806318160ddd146101d757806323b872dd146101fe576100fe565b366100fe57005b005b34801561010c57600080fd5b50610115610485565b6040805160208082528351818301528351919283929083019185019080838360005b8381101561014f578181015183820152602001610137565b50505050905090810190601f16801561017c5780820380516001836020036101000a031916815260200191505b509250505060405180910390f35b34801561019657600080fd5b506101c3600480360360408110156101ad57600080fd5b506001600160a01b03813516906020013561051b565b604080519115158252519081900360200190f35b3480156101e357600080fd5b506101ec610538565b60408051918252519081900360200190f35b34801561020a57600080fd5b506101c36004803603606081101561022157600080fd5b506001600160a01b0381358116916020810135909116906040013561053e565b34801561024d57600080fd5b506102566105cb565b6040805160ff9092168252519081900360200190f35b34801561027857600080fd5b506101c36004803603604081101561028f57600080fd5b506001600160a01b0381351690602001356105d4565b3480156102b157600080fd5b506100fe600480360360408110156102c857600080fd5b506001600160a01b038135169060200135610628565b3480156102ea57600080fd5b506101ec6004803603602081101561030157600080fd5b50356001600160a01b0316610693565b34801561031d57600080fd5b506100fe6106ae565b34801561033257600080fd5b5061033b61075b565b604080516001600160a01b039092168252519081900360200190f35b34801561036357600080fd5b5061011561076f565b34801561037857600080fd5b506100fe6004803603604081101561038f57600080fd5b506001600160a01b0381351690602001356107d0565b3480156103b157600080fd5b506101c3600480360360408110156103c857600080fd5b506001600160a01b038135169060200135610837565b3480156103ea57600080fd5b506101c36004803603604081101561040157600080fd5b506001600160a01b0381351690602001356108a5565b34801561042357600080fd5b506101ec6004803603604081101561043a57600080fd5b506001600160a01b03813581169160200135166108b9565b34801561045e57600080fd5b506100fe6004803603602081101561047557600080fd5b50356001600160a01b03166108e4565b60038054604080516020601f60026000196101006001881615020190951694909404938401819004810282018101909252828152606093909290918301828280156105115780601f106104e657610100808354040283529160200191610511565b820191906000526020600020905b8154815290600101906020018083116104f457829003601f168201915b5050505050905090565b600061052f6105286109ed565b84846109f1565b50600192915050565b60025490565b600061054b848484610add565b6105c1846105576109ed565b6105bc8560405180606001604052806028815260200161103b602891396001600160a01b038a166000908152600160205260408120906105956109ed565b6001600160a01b03168152602081019190915260400160002054919063ffffffff610c4416565b6109f1565b5060019392505050565b60055460ff1690565b600061052f6105e16109ed565b846105bc85600160006105f26109ed565b6001600160a01b03908116825260208083019390935260409182016000908120918c16815292529020549063ffffffff610cdb16565b6106306109ed565b60055461010090046001600160a01b03908116911614610685576040805162461bcd60e51b81526020600482018190526024820152600080516020611063833981519152604482015290519081900360640190fd5b61068f8282610d3c565b5050565b6001600160a01b031660009081526020819052604090205490565b6106b66109ed565b60055461010090046001600160a01b0390811691161461070b576040805162461bcd60e51b81526020600482018190526024820152600080516020611063833981519152604482015290519081900360640190fd5b60055460405160009161010090046001600160a01b0316907f8be0079c531659141344cd1fd0a4f28419497f9722a3daafe3b4186f6b6457e0908390a360058054610100600160a81b0319169055565b60055461010090046001600160a01b031690565b60048054604080516020601f60026000196101006001881615020190951694909404938401819004810282018101909252828152606093909290918301828280156105115780601f106104e657610100808354040283529160200191610511565b6107d86109ed565b60055461010090046001600160a01b0390811691161461082d576040805162461bcd60e51b81526020600482018190526024820152600080516020611063833981519152604482015290519081900360640190fd5b61068f8282610e38565b600061052f6108446109ed565b846105bc856040518060600160405280602581526020016110ed602591396001600061086e6109ed565b6001600160a01b03908116825260208083019390935260409182016000908120918d1681529252902054919063ffffffff610c4416565b600061052f6108b26109ed565b8484610add565b6001600160a01b03918216600090815260016020908152604080832093909416825291909152205490565b6108ec6109ed565b60055461010090046001600160a01b03908116911614610941576040805162461bcd60e51b81526020600482018190526024820152600080516020611063833981519152604482015290519081900360640190fd5b6001600160a01b0381166109865760405162461bcd60e51b8152600401808060200182810382526026815260200180610fcd6026913960400191505060405180910390fd5b6005546040516001600160a01b0380841692610100900416907f8be0079c531659141344cd1fd0a4f28419497f9722a3daafe3b4186f6b6457e090600090a3600580546001600160a01b0390921661010002610100600160a81b0319909216919091179055565b3390565b6001600160a01b038316610a365760405162461bcd60e51b81526004018080602001828103825260248152602001806110c96024913960400191505060405180910390fd5b6001600160a01b038216610a7b5760405162461bcd60e51b8152600401808060200182810382526022815260200180610ff36022913960400191505060405180910390fd5b6001600160a01b03808416600081815260016020908152604080832094871680845294825291829020859055815185815291517f8c5be1e5ebec7d5bd14f71427d1e84f3dd0314c0f7b2291e5b200ac8c7c3b9259281900390910190a3505050565b6001600160a01b038316610b225760405162461bcd60e51b81526004018080602001828103825260258152602001806110a46025913960400191505060405180910390fd5b6001600160a01b038216610b675760405162461bcd60e51b8152600401808060200182810382526023815260200180610f886023913960400191505060405180910390fd5b610b72838383610f40565b610bb581604051806060016040528060268152602001611015602691396001600160a01b038616600090815260208190526040902054919063ffffffff610c4416565b6001600160a01b038085166000908152602081905260408082209390935590841681522054610bea908263ffffffff610cdb16565b6001600160a01b038084166000818152602081815260409182902094909455805185815290519193928716927fddf252ad1be2c89b69c2b068fc378daa952ba7f163c4a11628f55a4df523b3ef92918290030190a3505050565b60008184841115610cd35760405162461bcd60e51b81526004018080602001828103825283818151815260200191508051906020019080838360005b83811015610c98578181015183820152602001610c80565b50505050905090810190601f168015610cc55780820380516001836020036101000a031916815260200191505b509250505060405180910390fd5b505050900390565b600082820183811015610d35576040805162461bcd60e51b815260206004820152601b60248201527f536166654d6174683a206164646974696f6e206f766572666c6f770000000000604482015290519081900360640190fd5b9392505050565b6001600160a01b038216610d97576040805162461bcd60e51b815260206004820152601f60248201527f45524332303a206d696e7420746f20746865207a65726f206164647265737300604482015290519081900360640190fd5b610da360008383610f40565b600254610db6908263ffffffff610cdb16565b6002556001600160a01b038216600090815260208190526040902054610de2908263ffffffff610cdb16565b6001600160a01b0383166000818152602081815260408083209490945583518581529351929391927fddf252ad1be2c89b69c2b068fc378daa952ba7f163c4a11628f55a4df523b3ef9281900390910190a35050565b6001600160a01b038216610e7d5760405162461bcd60e51b81526004018080602001828103825260218152602001806110836021913960400191505060405180910390fd5b610e8982600083610f40565b610ecc81604051806060016040528060228152602001610fab602291396001600160a01b038516600090815260208190526040902054919063ffffffff610c4416565b6001600160a01b038316600090815260208190526040902055600254610ef8908263ffffffff610f4516565b6002556040805182815290516000916001600160a01b038516917fddf252ad1be2c89b69c2b068fc378daa952ba7f163c4a11628f55a4df523b3ef9181900360200190a35050565b505050565b6000610d3583836040518060400160405280601e81526020017f536166654d6174683a207375627472616374696f6e206f766572666c6f770000815250610c4456fe45524332303a207472616e7366657220746f20746865207a65726f206164647265737345524332303a206275726e20616d6f756e7420657863656564732062616c616e63654f776e61626c653a206e6577206f776e657220697320746865207a65726f206164647265737345524332303a20617070726f766520746f20746865207a65726f206164647265737345524332303a207472616e7366657220616d6f756e7420657863656564732062616c616e636545524332303a207472616e7366657220616d6f756e74206578636565647320616c6c6f77616e63654f776e61626c653a2063616c6c6572206973206e6f7420746865206f776e657245524332303a206275726e2066726f6d20746865207a65726f206164647265737345524332303a207472616e736665722066726f6d20746865207a65726f206164647265737345524332303a20617070726f76652066726f6d20746865207a65726f206164647265737345524332303a2064656372656173656420616c6c6f77616e63652062656c6f77207a65726fa264697066735822122061d79501a92a326734bdbff920e8494e88e057aa50f9760d826ee10c39922e3464736f6c634300060800334f776e61626c653a206e6577206f776e657220697320746865207a65726f2061646472657373536166654d6174683a206d756c7469706c69636174696f6e206f766572666c6f774f776e61626c653a2063616c6c6572206973206e6f7420746865206f776e657266756e6374696f6e2063616e6e6f742062652063616c6c656420617420746869732074696d65a2646970667358221220fa091ee025b22cad4a3e35206862c255cfce9d00915def78d8cbe33af5dc6c2964736f6c634300060800334f776e61626c653a206e6577206f776e657220697320746865207a65726f20616464726573738be0079c531659141344cd1fd0a4f28419497f9722a3daafe3b4186f6b6457e0",
  "immutableReferences": {},
  "source": "//SPDX-License-Identifier: UNLICENSED\npragma solidity 0.6.8;\n\nimport '@nomiclabs/buidler/console.sol';\nimport '@openzeppelin/contracts/math/SafeMath.sol';\nimport '@openzeppelin/contracts/utils/ReentrancyGuard.sol';\nimport '@openzeppelin/contracts/utils/Pausable.sol';\nimport '@openzeppelin/contracts/access/Ownable.sol';\nimport './interfaces/IAave.sol';\nimport './interfaces/IDai.sol';\nimport './interfaces/IRealitio.sol';\nimport './Token.sol';\n\n\ncontract BTMarket is Ownable, Pausable, ReentrancyGuard {\n    using SafeMath for uint256;\n\n    ////////////////////////////////////\n    //////// VARIABLES /////////////////\n    ////////////////////////////////////\n\n    //////// Externals ////////\n    Dai public dai;\n    IaToken public aToken;\n    IAaveLendingPool public aaveLendingPool;\n    IRealitio public realitio;\n\n    //////// Setup ////////\n    uint256 public tokenContractsCreated;\n\n    //////// Market Details ////////\n    uint256 public maxInterest; //for the front end\n    uint256 public marketOpeningTime; // when the market is opened for bets\n    uint256 public marketLockingTime; // when the market is no longer open for bets\n    uint32 public marketResolutionTime; // the time the realitio market is able to be answered, uint32 cos Realitio needs it\n    bytes32 public questionId; // the question ID of the question on realitio\n    string public eventName;\n    string[] public outcomeNames;\n    Token[] public tokenAddresses;\n    uint256 public numberOfOutcomes;\n    enum States {SETUP, WAITING, OPEN, LOCKED, WITHDRAW}\n    States public state;\n\n    //////// Betting variables ////////\n    mapping(uint256 => uint256[]) public betTimestamps;\n    mapping(uint256 => uint256) public totalBetsPerOutcome;\n    mapping(address => uint256) public totalBetsPerUser;\n    mapping(uint256 => uint256) public betsWithdrawnPerOutcome;\n    mapping(uint256 => uint256) public usersPerOutcome;\n    uint256 public totalBets;\n    uint256 public betsWithdrawn;\n    address[] public participants;\n\n    //////// Market resolution variables ////////\n    mapping(address => bool) public withdrawnBool; //so participants can only withdraw once\n    uint256 public winningOutcome = 69; // start with incorrect winning outcome\n    bool public questionResolvedInvalid = true; // default to true\n\n    ////////////////////////////////////\n    //////// CONSTRUCTOR ///////////////\n    ////////////////////////////////////\n    constructor(\n        Dai _daiAddress,\n        IaToken _aTokenAddress,\n        IAaveLendingPool _aaveLpAddress,\n        IAaveLendingPoolCore _aaveLpcoreAddress,\n        IRealitio _realitioAddress,\n        string memory _eventName,\n        uint256[3] memory _marketTimes,\n        uint32 _timeout, // how long realitio waits for a dispute before confirming an answer\n        address _arbitrator,\n        string memory _realitioQuestion,\n        uint256 _numberOfOutcomes,\n        address _owner\n    ) public {\n        if (_owner != msg.sender) {\n            transferOwnership(_owner);\n        }\n        // Externals\n        dai = _daiAddress;\n        aToken = _aTokenAddress;\n        aaveLendingPool = _aaveLpAddress;\n        realitio = _realitioAddress;\n\n        // Approvals\n        dai.approve(address(_aaveLpcoreAddress), 2**255);\n\n        // Pass arguments to public variables\n        eventName = _eventName;\n        marketOpeningTime = _marketTimes[0];\n        marketLockingTime = _marketTimes[1];\n        marketResolutionTime = uint32(_marketTimes[2]);\n        numberOfOutcomes = _numberOfOutcomes;\n\n        //Initialise timestamps with contract creation time\n        for (uint256 i = 0; i < _numberOfOutcomes; i++) {\n            betTimestamps[i].push(now);\n        }\n\n        // Create the question on Realitio\n        uint256 _templateId = 2;\n        uint256 _nonce = now; // <- should probably change this to zero for mainnet\n        questionId = _postQuestion(_templateId, _realitioQuestion, _arbitrator, _timeout, marketResolutionTime, _nonce);\n    }\n\n    ////////////////////////////////////\n    //////// EVENTS ////////////////////\n    ////////////////////////////////////\n    event ParticipantEntered(address indexed participant);\n    event ParticipantWithdrawn(address indexed participant);\n    event StateChanged(States state);\n    event WinnerSelected(address indexed winner);\n\n    ////////////////////////////////////\n    //////// INITIAL SETUP /////////////\n    ////////////////////////////////////\n    // you cannot pass an array of strings as an argument\n    // string manipulation is also difficult, so it is not easy to parse the relevant\n    // ... info from the _realitioQuestion string. So, manually set this info\n    // probably redundant, the front end can store this, just adding in case\n\n    function setEventName(string calldata _eventName) external onlyOwner {\n        eventName = _eventName;\n    }\n\n    function createTokenContract(string calldata _outcomeName, string calldata _tokenName)\n        external\n        onlyOwner\n        checkState(States.SETUP)\n    {\n        outcomeNames.push(_outcomeName);\n        Token tokenContract = new Token({_tokenName: _tokenName});\n        tokenAddresses.push(tokenContract);\n        tokenContractsCreated = tokenContractsCreated.add(1);\n        if (tokenContractsCreated == numberOfOutcomes) {\n            state = States(uint256(state) + 1);\n        }\n    }\n\n    ////////////////////////////////////\n    //////// MODIFIERS /////////////////\n    ////////////////////////////////////\n    modifier checkState(States currentState) {\n        require(state == currentState, 'function cannot be called at this time');\n        _;\n    }\n\n    ////////////////////////////////////\n    ////////// VIEW FUNCTIONS //////////\n    ////////////////////////////////////\n    function getMarketSize() public view returns (uint256) {\n        return participants.length;\n    }\n\n    function getParticipantsBet(uint256 _outcome) public view returns (uint256) {\n        Token _token = Token(tokenAddresses[_outcome]);\n        return _token.balanceOf(msg.sender);\n    }\n\n    function getMaxTotalInterest() public view returns (uint256) {\n        if (state == States.WITHDRAW) {\n            return maxInterest;\n        } else {\n            return getTotalInterest();\n        }\n    }\n\n    function getTotalInterest() public view returns (uint256) {\n        uint256 _remainingBet = totalBets.sub(betsWithdrawn);\n        uint256 _totalAdaibalances = aToken.balanceOf(address(this));\n        uint256 _totalInterest = _totalAdaibalances.sub(_remainingBet);\n        return _totalInterest;\n    }\n\n    /// @dev Returns total winnings for a participant based on current accumulated interest\n    /// @dev ... and assuming the passed _outcome wins.\n    function getWinnings(uint256 _outcome) public view returns (uint256) {\n        Token _token = Token(tokenAddresses[_outcome]);\n        uint256 _winnings;\n        uint256 _userBetOnWinningOutcome = _token.balanceOf(msg.sender);\n        if (_userBetOnWinningOutcome > 0) {\n            uint256 _totalInterest = getTotalInterest();\n            uint256 _totalRemainingBetsOnWinningOutcome = totalBetsPerOutcome[winningOutcome].sub(\n                betsWithdrawnPerOutcome[winningOutcome]\n            );\n            if (_totalRemainingBetsOnWinningOutcome > 0) {\n                _winnings = (_totalInterest.mul(_userBetOnWinningOutcome)).div(_totalRemainingBetsOnWinningOutcome);\n            }\n        }\n        return _winnings;\n    }\n\n    /// @dev if invalid outcome, simply pay out interest in proportion to bets across all tokenAddresses\n    /// @dev i.e. as if all the outcomes 'won'\n    function getWinningsInvalid() public view returns (uint256) {\n        uint256 _winningsInvalid;\n        if (totalBetsPerUser[msg.sender] > 0) {\n            uint256 _totalInterest = getTotalInterest();\n            uint256 _totalRemainingBets = totalBets.sub(betsWithdrawn);\n            if (_totalRemainingBets > 0) {\n                _winningsInvalid = (_totalInterest.mul(totalBetsPerUser[msg.sender])).div(_totalRemainingBets);\n            }\n        }\n        return _winningsInvalid;\n    }\n\n    // need the interest rate for this\n    // function getEstimatedReturn(uint _outcome) returns (uint) {\n    //     uint _timeLocked = marketResolutionTime.\n    // }\n\n    ////////////////////////////////////\n    //////// REALIITO FUNCTIONS ////////\n    ////////////////////////////////////\n\n    /// @notice posts the question to realit.io\n    function _postQuestion(\n        uint256 template_id,\n        string memory question,\n        address arbitrator,\n        uint32 timeout,\n        uint32 opening_ts,\n        uint256 nonce\n    ) internal returns (bytes32) {\n        return realitio.askQuestion(template_id, question, arbitrator, timeout, opening_ts, nonce);\n    }\n\n    /// @notice gets the winning outcome from realitio\n    /// @dev this function call will revert if it has not yet resolved\n    function _determineWinner() internal view returns (uint256) {\n        bytes32 _winningOutcome = realitio.resultFor(questionId);\n        return uint256(_winningOutcome);\n    }\n\n    /// @notice has the question been finalized on realitio?\n    function _isQuestionFinalized() internal view returns (bool) {\n        return realitio.isFinalized(questionId);\n    }\n\n    ////////////////////////////////////\n    /////// EXTERNAL DAI CALLS /////////\n    ////////////////////////////////////\n\n    /// @notice common function for all outgoing DAI transfers\n    function _sendCash(address _to, uint256 _amount) internal {\n        require(dai.transfer(_to, _amount), 'Cash transfer failed');\n    }\n\n    /// @notice common function for all incoming DAI transfers\n    function _receiveCash(address _from, uint256 _amount) internal {\n        require(dai.transferFrom(_from, address(this), _amount), 'Cash transfer failed');\n    }\n\n    /// @notice mints Dai, will only work on a testnet\n    function _mintCash(uint256 _amount) internal {\n        dai.mint(_amount);\n    }\n\n    ////////////////////////////////////\n    /////// EXTERNAL AAVE CALLS ////////\n    ////////////////////////////////////\n\n    /// @notice swap Dai for aDai\n    function _sendToAave(uint256 _dai) internal {\n        aaveLendingPool.deposit(address(dai), _dai, 0);\n    }\n\n    /// @notice swap aDai for Dai\n    function _redeemFromAave(uint256 _dai) internal {\n        aToken.redeem(_dai);\n    }\n\n    ////////////////////////////////////\n    //////// EXTERNAL FUNCTIONS ////////\n    ////////////////////////////////////\n\n    function placeBet(uint256 _outcome, uint256 _dai) external virtual checkState(States.OPEN) whenNotPaused {\n        _placeBet(_outcome, _dai);\n        _receiveCash(msg.sender, _dai);\n        _sendToAave(_dai);\n    }\n\n    function determineWinner() external whenNotPaused {\n        require(_isQuestionFinalized(), 'Oracle has not finalised');\n        winningOutcome = _determineWinner();\n        if (winningOutcome != ((2**256) - 1)) {\n            questionResolvedInvalid = false;\n        }\n        incrementState();\n    }\n\n    // keep this public as it's called by determineWinner\n    // not onlyOwner, can be called by anyone, this is fine\n    function incrementState() public whenNotPaused {\n        if (\n            ((state == States.WAITING) && (marketOpeningTime < now)) ||\n            ((state == States.OPEN) && (marketLockingTime < now)) ||\n            ((state == States.LOCKED) && (winningOutcome != 69))\n        ) {\n            if (state == States.LOCKED) {\n                maxInterest = getTotalInterest();\n            }\n            state = States(uint256(state) + 1);\n            emit StateChanged(state);\n        }\n    }\n\n    function withdraw() external checkState(States.WITHDRAW) whenNotPaused nonReentrant {\n        require(!withdrawnBool[msg.sender], 'Already withdrawn');\n        withdrawnBool[msg.sender] = true;\n        if (!questionResolvedInvalid) {\n            _payoutWinnings();\n        } else {\n            _payoutWinningsInvalid();\n        }\n        _burnUserstokenAddresses();\n    }\n\n    ////////////////////////////////////\n    //////// INTERNAL FUNCTIONS ////////\n    ////////////////////////////////////\n    function _payoutWinnings() internal {\n        uint256 _winnings = getWinnings(winningOutcome);\n        uint256 _daiToSend = _winnings.add(totalBetsPerUser[msg.sender]);\n        // externals\n        if (_daiToSend > 0) {\n            _redeemFromAave(_daiToSend);\n            _sendCash(msg.sender, _daiToSend);\n        }\n    }\n\n    function _payoutWinningsInvalid() internal {\n        uint256 _winningsInvalid = getWinningsInvalid();\n        uint256 _daiToSend = _winningsInvalid.add(totalBetsPerUser[msg.sender]);\n        // externals\n        if (_daiToSend > 0) {\n            _redeemFromAave(_daiToSend);\n            _sendCash(msg.sender, _daiToSend);\n        }\n    }\n\n    function _placeBet(uint256 _outcome, uint256 _dai) internal {\n        betTimestamps[_outcome].push(now);\n        Token _token = Token(tokenAddresses[_outcome]);\n        if (_token.balanceOf(msg.sender) == 0) {\n            participants.push(msg.sender);\n            usersPerOutcome[_outcome] = usersPerOutcome[_outcome].add(1);\n        }\n        emit ParticipantEntered(msg.sender);\n        _token.mint(msg.sender, _dai);\n        totalBets = totalBets.add(_dai);\n        totalBetsPerOutcome[_outcome] = totalBetsPerOutcome[_outcome].add(_dai);\n        totalBetsPerUser[msg.sender] = totalBetsPerUser[msg.sender].add(_dai);\n    }\n\n    function _burnUserstokenAddresses() internal {\n        uint256 _userBetsAllOutcomes;\n        for (uint256 i = 0; i < numberOfOutcomes; i++) {\n            Token _token = Token(tokenAddresses[i]);\n            uint256 _userBetThisOutcome = _token.balanceOf(msg.sender);\n            if (_userBetThisOutcome > 0) {\n                _userBetsAllOutcomes = _userBetsAllOutcomes.add(_userBetThisOutcome);\n                betsWithdrawnPerOutcome[i] = betsWithdrawnPerOutcome[i].add(_userBetThisOutcome);\n                _token.burn(msg.sender, _userBetThisOutcome);\n            }\n        }\n        assert(_userBetsAllOutcomes == totalBetsPerUser[msg.sender]);\n        betsWithdrawn = betsWithdrawn.add(_userBetsAllOutcomes);\n    }\n\n    ////////////////////////////////////\n    ///// BOILERPLATE FUNCTIONS ////////\n    ////////////////////////////////////\n    function disableContract() public onlyOwner whenNotPaused returns (bool) {\n        _pause();\n    }\n\n    function enableContract() public onlyOwner whenPaused returns (bool) {\n        _unpause();\n    }\n\n    receive() external payable {}\n\n    fallback() external payable {}\n}\n",
  "sourcePath": "/Users/brenfife/Desktop/MagicBet-Contracts/contracts/BTMarket.sol",
  "compiler": {
    "name": "solc",
    "version": "0.6.8+commit.0bbfe453.Emscripten.clang"
  },
  "schemaVersion": "3.1.0",
  "updatedAt": "2020-05-20T21:56:17.042Z",
  "devdoc": {
    "methods": {
      "getWinnings(uint256)": {
        "details": "Returns total winnings for a participant based on current accumulated interest... and assuming the passed _outcome wins."
      },
      "getWinningsInvalid()": {
        "details": "if invalid outcome, simply pay out interest in proportion to bets across all tokenAddressesi.e. as if all the outcomes 'won'"
      },
      "owner()": {
        "details": "Returns the address of the current owner."
      },
      "paused()": {
        "details": "Returns true if the contract is paused, and false otherwise."
      },
      "renounceOwnership()": {
        "details": "Leaves the contract without owner. It will not be possible to call `onlyOwner` functions anymore. Can only be called by the current owner.     * NOTE: Renouncing ownership will leave the contract without an owner, thereby removing any functionality that is only available to the owner."
      },
      "transferOwnership(address)": {
        "details": "Transfers ownership of the contract to a new account (`newOwner`). Can only be called by the current owner."
      }
    }
  },
  "userdoc": {
    "methods": {
      "constructor": "///////////////////////////////// ///// CONSTRUCTOR /////////////// /////////////////////////////////",
      "disableContract()": {
        "notice": "///////////////////////////////// // BOILERPLATE FUNCTIONS //////// /////////////////////////////////"
      },
      "getMarketSize()": {
        "notice": "///////////////////////////////// /////// VIEW FUNCTIONS ////////// /////////////////////////////////"
      },
      "placeBet(uint256,uint256)": {
        "notice": "///////////////////////////////// ///// EXTERNAL FUNCTIONS //////// /////////////////////////////////"
      },
      "setEventName(string)": {
        "notice": "///////////////////////////////// ///// INITIAL SETUP ///////////// /////////////////////////////////"
      }
    }
  }
}