{
  "contractName": "BTMarketFactory",
  "abi": [
    {
      "inputs": [
        {
          "internalType": "contract Dai",
          "name": "_daiAddress",
          "type": "address"
        },
        {
          "internalType": "contract IaToken",
          "name": "_aTokenAddress",
          "type": "address"
        },
        {
          "internalType": "contract IAaveLendingPool",
          "name": "_aaveLpAddress",
          "type": "address"
        },
        {
          "internalType": "contract IAaveLendingPoolCore",
          "name": "_aaveLpcoreAddress",
          "type": "address"
        },
        {
          "internalType": "contract IRealitio",
          "name": "_realitioAddress",
          "type": "address"
        }
      ],
      "stateMutability": "nonpayable",
      "type": "constructor"
    },
    {
      "anonymous": false,
      "inputs": [
        {
          "indexed": false,
          "internalType": "address",
          "name": "contractAddress",
          "type": "address"
        }
      ],
      "name": "MarketCreated",
      "type": "event"
    },
    {
      "anonymous": false,
      "inputs": [
        {
          "indexed": true,
          "internalType": "address",
          "name": "previousOwner",
          "type": "address"
        },
        {
          "indexed": true,
          "internalType": "address",
          "name": "newOwner",
          "type": "address"
        }
      ],
      "name": "OwnershipTransferred",
      "type": "event"
    },
    {
      "anonymous": false,
      "inputs": [
        {
          "indexed": false,
          "internalType": "address",
          "name": "account",
          "type": "address"
        }
      ],
      "name": "Paused",
      "type": "event"
    },
    {
      "anonymous": false,
      "inputs": [
        {
          "indexed": false,
          "internalType": "address",
          "name": "account",
          "type": "address"
        }
      ],
      "name": "Unpaused",
      "type": "event"
    },
    {
      "inputs": [],
      "name": "aToken",
      "outputs": [
        {
          "internalType": "contract IaToken",
          "name": "",
          "type": "address"
        }
      ],
      "stateMutability": "view",
      "type": "function"
    },
    {
      "inputs": [],
      "name": "aaveLendingPool",
      "outputs": [
        {
          "internalType": "contract IAaveLendingPool",
          "name": "",
          "type": "address"
        }
      ],
      "stateMutability": "view",
      "type": "function"
    },
    {
      "inputs": [],
      "name": "aaveLendingPoolCore",
      "outputs": [
        {
          "internalType": "contract IAaveLendingPoolCore",
          "name": "",
          "type": "address"
        }
      ],
      "stateMutability": "view",
      "type": "function"
    },
    {
      "inputs": [],
      "name": "dai",
      "outputs": [
        {
          "internalType": "contract Dai",
          "name": "",
          "type": "address"
        }
      ],
      "stateMutability": "view",
      "type": "function"
    },
    {
      "inputs": [
        {
          "internalType": "address",
          "name": "",
          "type": "address"
        }
      ],
      "name": "mappingOfMarkets",
      "outputs": [
        {
          "internalType": "bool",
          "name": "",
          "type": "bool"
        }
      ],
      "stateMutability": "view",
      "type": "function"
    },
    {
      "inputs": [
        {
          "internalType": "uint256",
          "name": "",
          "type": "uint256"
        }
      ],
      "name": "marketAddresses",
      "outputs": [
        {
          "internalType": "address",
          "name": "",
          "type": "address"
        }
      ],
      "stateMutability": "view",
      "type": "function"
    },
    {
      "inputs": [],
      "name": "owner",
      "outputs": [
        {
          "internalType": "address",
          "name": "",
          "type": "address"
        }
      ],
      "stateMutability": "view",
      "type": "function"
    },
    {
      "inputs": [],
      "name": "paused",
      "outputs": [
        {
          "internalType": "bool",
          "name": "",
          "type": "bool"
        }
      ],
      "stateMutability": "view",
      "type": "function"
    },
    {
      "inputs": [],
      "name": "realitio",
      "outputs": [
        {
          "internalType": "contract IRealitio",
          "name": "",
          "type": "address"
        }
      ],
      "stateMutability": "view",
      "type": "function"
    },
    {
      "inputs": [],
      "name": "renounceOwnership",
      "outputs": [],
      "stateMutability": "nonpayable",
      "type": "function"
    },
    {
      "inputs": [
        {
          "internalType": "address",
          "name": "newOwner",
          "type": "address"
        }
      ],
      "name": "transferOwnership",
      "outputs": [],
      "stateMutability": "nonpayable",
      "type": "function"
    },
    {
      "inputs": [
        {
          "internalType": "string",
          "name": "_eventName",
          "type": "string"
        },
        {
          "internalType": "uint256",
          "name": "_marketOpeningTime",
          "type": "uint256"
        },
        {
          "internalType": "uint256",
          "name": "_marketLockingTime",
          "type": "uint256"
        },
        {
          "internalType": "uint32",
          "name": "_marketResolutionTime",
          "type": "uint32"
        },
        {
          "internalType": "uint32",
          "name": "_timeout",
          "type": "uint32"
        },
        {
          "internalType": "address",
          "name": "_arbitrator",
          "type": "address"
        },
        {
          "internalType": "string",
          "name": "_realitioQuestion",
          "type": "string"
        },
        {
          "internalType": "string[]",
          "name": "_outcomeNamesArray",
          "type": "string[]"
        }
      ],
      "name": "createMarket",
      "outputs": [
        {
          "internalType": "contract BTMarket",
          "name": "",
          "type": "address"
        }
      ],
      "stateMutability": "nonpayable",
      "type": "function"
    },
    {
      "inputs": [],
      "name": "getMarkets",
      "outputs": [
        {
          "internalType": "address[]",
          "name": "",
          "type": "address[]"
        }
      ],
      "stateMutability": "view",
      "type": "function"
    },
    {
      "inputs": [],
      "name": "destroy",
      "outputs": [],
      "stateMutability": "nonpayable",
      "type": "function"
    },
    {
      "inputs": [
        {
          "internalType": "address payable",
          "name": "marketAddress",
          "type": "address"
        }
      ],
      "name": "disableMarket",
      "outputs": [
        {
          "internalType": "bool",
          "name": "",
          "type": "bool"
        }
      ],
      "stateMutability": "nonpayable",
      "type": "function"
    }
  ],
  "bytecode": "0x60806040523480156200001157600080fd5b5060405162004f6338038062004f63833981016040819052620000349162000107565b6000620000496001600160e01b036200010316565b600080546001600160a01b0319166001600160a01b0383169081178255604051929350917f8be0079c531659141344cd1fd0a4f28419497f9722a3daafe3b4186f6b6457e0908290a3506000805460ff60a01b19169055600180546001600160a01b03199081166001600160a01b039788161790915560028054821695871695909517909455600380548516938616939093179092556004805484169185169190911790556005805490921692169190911790556200019f565b3390565b600080600080600060a086880312156200011f578081fd5b85516200012c8162000186565b60208701519095506200013f8162000186565b6040870151909450620001528162000186565b6060870151909350620001658162000186565b6080870151909250620001788162000186565b809150509295509295909350565b6001600160a01b03811681146200019c57600080fd5b50565b614db480620001af6000396000f3fe60806040523480156200001157600080fd5b50600436106200010c5760003560e01c8063a0c1f15e11620000a5578063ec2c9016116200006f578063ec2c901614620001cf578063f2fde38b14620001e8578063f4b9fa7514620001ff578063f55a898c1462000209576200010c565b8063a0c1f15e146200019a578063bc8802a214620001a4578063d3f8fb8114620001ae578063e9d337b814620001c5576200010c565b8063715018a611620000e7578063715018a61462000163578063799d9727146200016f57806383197ef014620001865780638da5cb5b1462000190576200010c565b8063350293a114620001115780633ca5583314620001405780635c975abb146200014a575b600080fd5b620001286200012236600462000a0a565b62000220565b60405162000137919062000ad8565b60405180910390f35b6200012862000248565b6200015462000257565b60405162000137919062000b3b565b6200016d62000267565b005b62000128620001803660046200092d565b620002f4565b6200016d620004c5565b620001286200052e565b620001286200053d565b620001286200054c565b62000154620001bf366004620008ec565b6200055b565b6200012862000570565b620001d96200057f565b60405162000137919062000aec565b6200016d620001f9366004620008ec565b620005e3565b62000128620006a1565b620001546200021a366004620008ec565b620006b0565b600781815481106200022e57fe5b6000918252602090912001546001600160a01b0316905081565b6004546001600160a01b031681565b600054600160a01b900460ff1690565b62000271620007a7565b6000546001600160a01b03908116911614620002aa5760405162461bcd60e51b8152600401620002a19062000d08565b60405180910390fd5b600080546040516001600160a01b03909116907f8be0079c531659141344cd1fd0a4f28419497f9722a3daafe3b4186f6b6457e0908390a3600080546001600160a01b0319169055565b60008054600160a01b900460ff1615620003225760405162461bcd60e51b8152600401620002a19062000cde565b6200032c620007ab565b60405180608001604052808a81526020018981526020018863ffffffff1681526020018763ffffffff1681525090506000600160009054906101000a90046001600160a01b0316600260009054906101000a90046001600160a01b0316600360009054906101000a90046001600160a01b0316600460009054906101000a90046001600160a01b0316600560009054906101000a90046001600160a01b03168f878c8c8c33604051620003df90620007c9565b620003f59b9a9998979695949392919062000b46565b604051809103906000f08015801562000412573d6000803e3d6000fd5b506007805460018082019092557fa66cc928b5edb82af9bd49922954155ab7b0942694bea4ce44661d9a8736c6880180546001600160a01b0319166001600160a01b03841690811790915560009081526006602052604090819020805460ff19169092179091555190915081907fb27af04ab132a0b6bba5de2a84bbbadcc31c20c33932936a992ae6ff951259c390620004ae90839062000ad8565b60405180910390a1509a9950505050505050505050565b620004cf620007a7565b6000546001600160a01b03908116911614620004ff5760405162461bcd60e51b8152600401620002a19062000d08565b600054600160a01b900460ff166200052b5760405162461bcd60e51b8152600401620002a19062000c19565b33ff5b6000546001600160a01b031690565b6002546001600160a01b031681565b6005546001600160a01b031681565b60066020526000908152604090205460ff1681565b6003546001600160a01b031681565b60606007805480602002602001604051908101604052809291908181526020018280548015620005d957602002820191906000526020600020905b81546001600160a01b03168152600190910190602001808311620005ba575b5050505050905090565b620005ed620007a7565b6000546001600160a01b039081169116146200061d5760405162461bcd60e51b8152600401620002a19062000d08565b6001600160a01b038116620006465760405162461bcd60e51b8152600401620002a19062000c47565b600080546040516001600160a01b03808516939216917f8be0079c531659141344cd1fd0a4f28419497f9722a3daafe3b4186f6b6457e091a3600080546001600160a01b0319166001600160a01b0392909216919091179055565b6001546001600160a01b031681565b6000620006bc620007a7565b6000546001600160a01b03908116911614620006ec5760405162461bcd60e51b8152600401620002a19062000d08565b6001600160a01b038216600090815260066020526040902054829060ff16620007295760405162461bcd60e51b8152600401620002a19062000c8d565b826001600160a01b031663894ba8336040518163ffffffff1660e01b8152600401602060405180830381600087803b1580156200076557600080fd5b505af11580156200077a573d6000803e3d6000fd5b505050506040513d601f19601f82011682018060405250810190620007a091906200090b565b9392505050565b3390565b60405180608001604052806004906020820280368337509192915050565b6140008062000d7f83390190565b8035620007e48162000d65565b92915050565b600082601f830112620007fb578081fd5b813567ffffffffffffffff81111562000812578182fd5b602062000823818284020162000d3d565b828152925080830184820160005b848110156200085e576200084b888584358a010162000869565b8352918301919083019060010162000831565b505050505092915050565b600082601f8301126200087a578081fd5b813567ffffffffffffffff81111562000891578182fd5b620008a6601f8201601f191660200162000d3d565b9150808252836020828501011115620008be57600080fd5b8060208401602084013760009082016020015292915050565b803563ffffffff81168114620007e457600080fd5b600060208284031215620008fe578081fd5b8135620007a08162000d65565b6000602082840312156200091d578081fd5b81518015158114620007a0578182fd5b600080600080600080600080610100898b0312156200094a578384fd5b883567ffffffffffffffff8082111562000962578586fd5b620009708c838d0162000869565b995060208b0135985060408b013597506200098f8c60608d01620008d7565b9650620009a08c60808d01620008d7565b9550620009b18c60a08d01620007d7565b945060c08b0135915080821115620009c7578384fd5b620009d58c838d0162000869565b935060e08b0135915080821115620009eb578283fd5b50620009fa8b828c01620007ea565b9150509295985092959890939650565b60006020828403121562000a1c578081fd5b5035919050565b6001600160a01b03169052565b60008282518085526020808601955080818302840101818601855b8481101562000a7d57601f1986840301895262000a6a83835162000a8a565b9884019892509083019060010162000a4b565b5090979650505050505050565b60008151808452815b8181101562000ab15760208185018101518683018201520162000a93565b8181111562000ac35782602083870101525b50601f01601f19169290920160200192915050565b6001600160a01b0391909116815260200190565b6020808252825182820181905260009190848201906040850190845b8181101562000b2f5783516001600160a01b03168352928401929184019160010162000b08565b50909695505050505050565b901515815260200190565b60006101c060018060a01b03808f1684526020818f1681860152818e166040860152818d166060860152818c1660808601528260a086015262000b8c8386018c62000a8a565b60c086019350915089845b600481101562000bb65781518552938201939082019060010162000b97565b50505062000bc961014085018962000a23565b83810361016085015262000bde818862000a8a565b91505082810361018084015262000bf6818662000a30565b91505062000c096101a083018462000a23565b9c9b505050505050505050505050565b60208082526014908201527314185d5cd8589b194e881b9bdd081c185d5cd95960621b604082015260600190565b60208082526026908201527f4f776e61626c653a206e6577206f776e657220697320746865207a65726f206160408201526564647265737360d01b606082015260800190565b60208082526031908201527f4d757374277665206265656e20637265617465642062792074686520636f72726040820152706573706f6e64696e6720666163746f727960781b606082015260800190565b60208082526010908201526f14185d5cd8589b194e881c185d5cd95960821b604082015260600190565b6020808252818101527f4f776e61626c653a2063616c6c6572206973206e6f7420746865206f776e6572604082015260600190565b60405181810167ffffffffffffffff8111828210171562000d5d57600080fd5b604052919050565b6001600160a01b038116811462000d7b57600080fd5b5056fe60806040526045601a55601b805460ff191660011790553480156200002357600080fd5b50604051620040003803806200400083398101604081905262000046916200076b565b60006200005b6001600160e01b036200025b16565b600080546001600160a01b0319166001600160a01b03831690811782556040519293509160008051602062003fe0833981519152908290a3506000805461ffff60a01b1916600160a81b1790556001600160a01b0381163314620000cd57620000cd816001600160e01b036200026016565b600180546001600160a01b03199081166001600160a01b038e811691909117928390556002805483168e83161790556003805483168d8316179055600480549092168a821617825560405163095ea7b360e01b815292169163095ea7b3916200013f918c91600160ff1b9101620008d6565b602060405180830381600087803b1580156200015a57600080fd5b505af11580156200016f573d6000803e3d6000fd5b505050506040513d601f19601f8201168201806040525081019062000195919062000729565b508551620001ab90600b90602089019062000510565b508451600655602085015160085560408501516009805463ffffffff191663ffffffff9092169190911790558151600e5560005b600e5481101562000218576200020f838281518110620001fb57fe5b60200260200101516200031f60201b60201c565b600101620001df565b50600242620002448286888a6003602002015160095463ffffffff16866001600160e01b036200047116565b600a555062000a6c9b505050505050505050505050565b335b90565b620002736001600160e01b036200025b16565b6000546001600160a01b03908116911614620002ac5760405162461bcd60e51b8152600401620002a3906200094a565b60405180910390fd5b6001600160a01b038116620002d55760405162461bcd60e51b8152600401620002a39062000904565b600080546040516001600160a01b038085169392169160008051602062003fe083398151915291a3600080546001600160a01b0319166001600160a01b0392909216919091179055565b600080600f5460ff1660048111156200033457fe5b14620003545760405162461bcd60e51b8152600401620002a3906200097f565b600c8054600181018255600091909152825162000399917fdf6966c971051c3d54ec59162606531493a51404a002842f56009d7e5cf4a8c70190602085019062000510565b50600082604051620003ab9062000595565b620003b79190620008ef565b604051809103906000f080158015620003d4573d6000803e3d6000fd5b50600d805460018101825560008290527fd7b6990105719101dabeb77144f2a3385c8033acd3af97e9423a695e81ad1eb50180546001600160a01b0319166001600160a01b038416179055600e54905491925014156200046c57600f5460ff1660048111156200044057fe5b60010160048111156200044f57fe5b600f805460ff191660018360048111156200046657fe5b02179055505b505050565b6004805460405163762c38fd60e01b81526000926001600160a01b039092169163762c38fd91620004af918b918b918b918b918b918b9101620009c5565b602060405180830381600087803b158015620004ca57600080fd5b505af1158015620004df573d6000803e3d6000fd5b505050506040513d601f19601f8201168201806040525081019062000505919062000752565b979650505050505050565b828054600181600116156101000203166002900490600052602060002090601f016020900481019282601f106200055357805160ff191683800117855562000583565b8280016001018555821562000583579182015b828111156200058357825182559160200191906001019062000566565b5062000591929150620005a3565b5090565b6113b28062002c2e83390190565b6200025d91905b80821115620005915760008155600101620005aa565b80516001600160a01b0381168114620005d857600080fd5b92915050565b600082601f830112620005ef578081fd5b81516001600160401b0381111562000605578182fd5b602062000616818284020162000a12565b828152925080830184820160005b8481101562000651576200063e888584518a0101620006bb565b8352918301919083019060010162000624565b505050505092915050565b600082601f8301126200066d578081fd5b62000679608062000a12565b90508082846080850111156200068e57600080fd5b60005b6004811015620006b257815183526020928301929091019060010162000691565b50505092915050565b600082601f830112620006cc578081fd5b81516001600160401b03811115620006e2578182fd5b620006f7601f8201601f191660200162000a12565b91508082528360208285010111156200070f57600080fd5b6200072281602084016020860162000a39565b5092915050565b6000602082840312156200073b578081fd5b815180151581146200074b578182fd5b9392505050565b60006020828403121562000764578081fd5b5051919050565b60008060008060008060008060008060006101c08c8e0312156200078d578687fd5b620007998d8d620005c0565b9a50620007aa8d60208e01620005c0565b9950620007bb8d60408e01620005c0565b9850620007cc8d60608e01620005c0565b9750620007dd8d60808e01620005c0565b60a08d01519097506001600160401b03811115620007f9578687fd5b620008078e828f01620006bb565b965050620008198d60c08e016200065c565b94506200082b8d6101408e01620005c0565b6101608d01519094506001600160401b0381111562000848578384fd5b620008568e828f01620006bb565b6101808e015190945090506001600160401b0381111562000875578283fd5b620008838e828f01620005de565b925050620008968d6101a08e01620005c0565b90509295989b509295989b9093969950565b60008151808452620008c281602086016020860162000a39565b601f01601f19169290920160200192915050565b6001600160a01b03929092168252602082015260400190565b6000602082526200074b6020830184620008a8565b60208082526026908201527f4f776e61626c653a206e6577206f776e657220697320746865207a65726f206160408201526564647265737360d01b606082015260800190565b6020808252818101527f4f776e61626c653a2063616c6c6572206973206e6f7420746865206f776e6572604082015260600190565b60208082526026908201527f66756e6374696f6e2063616e6e6f742062652063616c6c656420617420746869604082015265732074696d6560d01b606082015260800190565b600087825260c06020830152620009e060c0830188620008a8565b6001600160a01b039690961660408301525063ffffffff938416606082015291909216608082015260a0015292915050565b6040518181016001600160401b038111828210171562000a3157600080fd5b604052919050565b60005b8381101562000a5657818101518382015260200162000a3c565b8381111562000a66576000848401525b50505050565b6121b28062000a7c6000396000f3fe6080604052600436106102765760003560e01c8063894ba8331161014f578063c19d93fb116100c1578063e8f033c91161007a578063e8f033c9146106a5578063e9d337b8146106c5578063ee72b06d146106da578063f2fde38b146106ef578063f4b9fa751461070f578063fd27b51e146107245761027d565b8063c19d93fb146105ee578063c4d8dc5814610610578063c56f338c14610630578063d844ab5f14610650578063e14dedfd14610670578063e5df8b84146106855761027d565b80639d7c7d39116101135780639d7c7d3914610570578063a055ccc514610585578063a0c1f15e1461059a578063b06a5c52146105af578063bc8802a2146105c4578063befa1e2f146105d95761027d565b8063894ba833146104f15780638da5cb5b14610506578063906d62411461051b578063991d4f5d1461053b5780639b34ae031461055b5761027d565b806347254f4f116101e8578063519709c4116101ac578063519709c4146104505780635c975abb14610470578063715018a6146104855780638043c9c01461049a578063807535cc146104af57806382633028146104dc5761027d565b806347254f4f146103dc57806349200d77146103f15780634afe62b5146104065780634b8755ca146104265780634ecc79f71461043b5761027d565b806327acae741161023a57806327acae741461032157806333b16d931461034e57806335c1d34914610363578063367edd32146103905780633ccfd60b146103b25780633eac5540146103c75761027d565b806305801f0b1461027f5780630b60365c146102b5578063149b5d58146102ca57806316efd941146102ea578063232ea3ad146102ff5761027d565b3661027d57005b005b34801561028b57600080fd5b5061029f61029a366004611d82565b610739565b6040516102ac9190611e80565b60405180910390f35b3480156102c157600080fd5b5061029f61074b565b3480156102d657600080fd5b5061029f6102e5366004611d82565b610808565b3480156102f657600080fd5b5061027d6108ab565b34801561030b57600080fd5b50610314610901565b6040516102ac919061216b565b34801561032d57600080fd5b5061034161033c366004611d82565b61090d565b6040516102ac9190611e9d565b34801561035a57600080fd5b5061027d6109b3565b34801561036f57600080fd5b5061038361037e366004611d82565b610a49565b6040516102ac9190611dbb565b34801561039c57600080fd5b506103a5610a70565b6040516102ac9190611e75565b3480156103be57600080fd5b5061027d610ad8565b3480156103d357600080fd5b5061029f610bed565b3480156103e857600080fd5b506103a5610bf3565b3480156103fd57600080fd5b5061029f610bfc565b34801561041257600080fd5b5061027d610421366004611d9a565b610c02565b34801561043257600080fd5b5061029f610c7f565b34801561044757600080fd5b5061029f610c85565b34801561045c57600080fd5b5061029f61046b366004611d82565b610c8b565b34801561047c57600080fd5b506103a5610c9d565b34801561049157600080fd5b5061027d610cad565b3480156104a657600080fd5b50610341610d2c565b3480156104bb57600080fd5b506104cf6104ca366004611d82565b610d87565b6040516102ac9190611e31565b3480156104e857600080fd5b5061029f610de9565b3480156104fd57600080fd5b506103a5610def565b34801561051257600080fd5b50610383610e58565b34801561052757600080fd5b506103a5610536366004611cb9565b610e67565b34801561054757600080fd5b5061027d610556366004611d18565b610e7c565b34801561056757600080fd5b5061029f610ebd565b34801561057c57600080fd5b5061029f610ec3565b34801561059157600080fd5b5061029f610ef6565b3480156105a657600080fd5b50610383610f2c565b3480156105bb57600080fd5b5061029f610f3b565b3480156105d057600080fd5b50610383610f41565b3480156105e557600080fd5b5061029f610f50565b3480156105fa57600080fd5b50610603610f56565b6040516102ac9190611e89565b34801561061c57600080fd5b5061029f61062b366004611d82565b610f5f565b34801561063c57600080fd5b5061029f61064b366004611d82565b610f70565b34801561065c57600080fd5b5061029f61066b366004611cb9565b610f82565b34801561067c57600080fd5b5061029f610f94565b34801561069157600080fd5b506103836106a0366004611d82565b610f9a565b3480156106b157600080fd5b506104cf6106c0366004611d82565b610fa7565b3480156106d157600080fd5b50610383611007565b3480156106e657600080fd5b5061027d611016565b3480156106fb57600080fd5b5061027d61070a366004611cb9565b611174565b34801561071b57600080fd5b5061038361122a565b34801561073057600080fd5b5061029f611239565b60126020526000908152604090205481565b60008061076560175460165461123f90919063ffffffff16565b6002546040516370a0823160e01b81529192506000916001600160a01b03909116906370a082319061079b903090600401611dbb565b60206040518083038186803b1580156107b357600080fd5b505afa1580156107c7573d6000803e3d6000fd5b505050506040513d601f19601f820116820180604052508101906107eb9190611d00565b905060006107ff828463ffffffff61123f16565b93505050505b90565b600080600d838154811061081857fe5b6000918252602090912001546040516370a0823160e01b81526001600160a01b03909116915081906370a0823190610854903390600401611dbb565b60206040518083038186803b15801561086c57600080fd5b505afa158015610880573d6000803e3d6000fd5b505050506040513d601f19601f820116820180604052508101906108a49190611d00565b9392505050565b6009546224ea0063ffffffff918216011642116108e35760405162461bcd60e51b81526004016108da9061209d565b60405180910390fd5b601b805460ff19908116600117909155600f80549091166004179055565b60095463ffffffff1681565b600c818154811061091a57fe5b600091825260209182902001805460408051601f60026000196101006001871615020190941693909304928301859004850281018501909152818152935090918301828280156109ab5780601f10610980576101008083540402835291602001916109ab565b820191906000526020600020905b81548152906001019060200180831161098e57829003601f168201915b505050505081565b600054600160a01b900460ff16156109dd5760405162461bcd60e51b81526004016108da90611fd2565b6109e5611281565b610a015760405162461bcd60e51b81526004016108da90611f9b565b610a09611306565b601a81905560001914801590610a2f5750601a5460009081526012602052604090205415155b15610a3f57601b805460ff191690555b610a47611016565b565b60188181548110610a5657fe5b6000918252602090912001546001600160a01b0316905081565b6000610a7a61138f565b6000546001600160a01b03908116911614610aa75760405162461bcd60e51b81526004016108da90612068565b600054600160a01b900460ff16610ad05760405162461bcd60e51b81526004016108da90611ef0565b610805611393565b600480600f5460ff166004811115610aec57fe5b14610b095760405162461bcd60e51b81526004016108da906120c0565b600054600160a01b900460ff1615610b335760405162461bcd60e51b81526004016108da90611fd2565b600054600160a81b900460ff16610b5c5760405162461bcd60e51b81526004016108da90612134565b6000805460ff60a81b191681553381526019602052604090205460ff1615610b965760405162461bcd60e51b81526004016108da90611ffc565b336000908152601960205260409020805460ff19166001179055601b5460ff16610bc757610bc26113ff565b610bcf565b610bcf611450565b610bd761145a565b506000805460ff60a81b1916600160a81b179055565b60075481565b601b5460ff1681565b600e5481565b600280600f5460ff166004811115610c1657fe5b14610c335760405162461bcd60e51b81526004016108da906120c0565b600054600160a01b900460ff1615610c5d5760405162461bcd60e51b81526004016108da90611fd2565b610c6783836115eb565b610c713383611837565b610c7a826118d9565b505050565b60085481565b60065481565b60156020526000908152604090205481565b600054600160a01b900460ff1690565b610cb561138f565b6000546001600160a01b03908116911614610ce25760405162461bcd60e51b81526004016108da90612068565b600080546040516001600160a01b03909116907f8be0079c531659141344cd1fd0a4f28419497f9722a3daafe3b4186f6b6457e0908390a3600080546001600160a01b0319169055565b600b805460408051602060026001851615610100026000190190941693909304601f810184900484028201840190925281815292918301828280156109ab5780601f10610980576101008083540402835291602001916109ab565b600081815260106020908152604091829020805483518184028101840190945280845260609392830182828015610ddd57602002820191906000526020600020905b815481526020019060010190808311610dc9575b50505050509050919050565b60055481565b6000610df961138f565b6000546001600160a01b03908116911614610e265760405162461bcd60e51b81526004016108da90612068565b600054600160a01b900460ff1615610e505760405162461bcd60e51b81526004016108da90611fd2565b610805611947565b6000546001600160a01b031690565b60196020526000908152604090205460ff1681565b610e8461138f565b6000546001600160a01b03908116911614610eb15760405162461bcd60e51b81526004016108da90612068565b610c7a600b8383611c21565b601a5481565b60006004600f5460ff166004811115610ed857fe5b1415610ee75750600554610805565b610eef61074b565b9050610805565b6000610f27610f1260175460165461123f90919063ffffffff16565b336000908152601360205260409020546119ad565b905090565b6002546001600160a01b031681565b600a5481565b6004546001600160a01b031681565b60165481565b600f5460ff1681565b6000610f6a826119eb565b92915050565b60146020526000908152604090205481565b60136020526000908152604090205481565b60175481565b600d8181548110610a5657fe5b600081815260116020908152604091829020805483518184028101840190945280845260609392830182828015610ddd5760200282019190600052602060002090815481526020019060010190808311610dc95750505050509050919050565b6003546001600160a01b031681565b600054600160a01b900460ff16156110405760405162461bcd60e51b81526004016108da90611fd2565b6001600f5460ff16600481111561105357fe5b148015611061575042600654105b8061108857506002600f5460ff16600481111561107a57fe5b148015611088575042600854105b806110b157506003600f5460ff1660048111156110a157fe5b1480156110b15750601a54604514155b15610a47576001600f5460ff1660048111156110c957fe5b14156110d457426007555b6003600f5460ff1660048111156110e757fe5b14156110f9576110f561074b565b6005555b600f5460ff16600481111561110a57fe5b600101600481111561111857fe5b600f805460ff1916600183600481111561112e57fe5b0217905550600f546040517f551dc40198cc79684bb69e4931dba4ac16e4598792ee1c0a5000aeea366d7bb69161116a9160ff90911690611e89565b60405180910390a1565b61117c61138f565b6000546001600160a01b039081169116146111a95760405162461bcd60e51b81526004016108da90612068565b6001600160a01b0381166111cf5760405162461bcd60e51b81526004016108da90611f1e565b600080546040516001600160a01b03808516939216917f8be0079c531659141344cd1fd0a4f28419497f9722a3daafe3b4186f6b6457e091a3600080546001600160a01b0319166001600160a01b0392909216919091179055565b6001546001600160a01b031681565b60185490565b60006108a483836040518060400160405280601e81526020017f536166654d6174683a207375627472616374696f6e206f766572666c6f770000815250611ac0565b60048054600a54604051633fc6a14f60e11b81526000936001600160a01b0390931692637f8d429e926112b692909101611e80565b60206040518083038186803b1580156112ce57600080fd5b505afa1580156112e2573d6000803e3d6000fd5b505050506040513d601f19601f82011682018060405250810190610f279190611ce0565b60048054600a5460405163684e62bf60e11b815260009384936001600160a01b03169263d09cc57e926113399201611e80565b60206040518083038186803b15801561135157600080fd5b505afa158015611365573d6000803e3d6000fd5b505050506040513d601f19601f820116820180604052508101906113899190611d00565b91505090565b3390565b600054600160a01b900460ff166113bc5760405162461bcd60e51b81526004016108da90611ef0565b6000805460ff60a01b191690557f5db9ee0a495bf2e6ff9c91a7834c1ba4fdd244a5e8aa4e537bd38aeae4b073aa6113f261138f565b60405161116a9190611dbb565b600061140c601a546119eb565b336000908152601360205260408120549192509061143190839063ffffffff611aec16565b9050801561144c5761144281611b11565b61144c3382611b41565b5050565b600061140c610ef6565b6000805b600e548110156115b9576000600d828154811061147757fe5b60009182526020822001546040516370a0823160e01b81526001600160a01b03909116925082906370a08231906114b2903390600401611dbb565b60206040518083038186803b1580156114ca57600080fd5b505afa1580156114de573d6000803e3d6000fd5b505050506040513d601f19601f820116820180604052508101906115029190611d00565b905080156115af5761151a848263ffffffff611aec16565b60008481526014602052604090205490945061153c908263ffffffff611aec16565b600084815260146020526040908190209190915551632770a7eb60e21b81526001600160a01b03831690639dc29fac9061157c9033908590600401611dcf565b600060405180830381600087803b15801561159657600080fd5b505af11580156115aa573d6000803e3d6000fd5b505050505b505060010161145e565b503360009081526013602052604090205481146115d257fe5b6017546115e5908263ffffffff611aec16565b60175550565b6000828152601060209081526040808320805460018181018355918552838520018590558584526011835290832080549182018155835290822042910155600d80548490811061163757fe5b6000918252602090912001546040516370a0823160e01b81526001600160a01b03909116915081906370a0823190611673903390600401611dbb565b60206040518083038186803b15801561168b57600080fd5b505afa15801561169f573d6000803e3d6000fd5b505050506040513d601f19601f820116820180604052508101906116c39190611d00565b611733576018805460018181019092557fb13d2d76d1f4b7be834882e410b3e3a8afaf69f83600ae24db354391d2378d2e0180546001600160a01b031916331790556000848152601560205260409020546117239163ffffffff611aec16565b6000848152601560205260409020555b60405133907fef3b3ae531a4f494c95e537ec1fe385cfe5c1146cb4c1d850b24bad38595804990600090a26040516340c10f1960e01b81526001600160a01b038216906340c10f199061178c9033908690600401611dcf565b600060405180830381600087803b1580156117a657600080fd5b505af11580156117ba573d6000803e3d6000fd5b50506016546117d2925090508363ffffffff611aec16565b6016556000838152601260205260409020546117f4908363ffffffff611aec16565b600084815260126020908152604080832093909355338252601390522054611822908363ffffffff611aec16565b33600090815260136020526040902055505050565b6001546040516323b872dd60e01b81526001600160a01b03909116906323b872dd9061186b90859030908690600401611de8565b602060405180830381600087803b15801561188557600080fd5b505af1158015611899573d6000803e3d6000fd5b505050506040513d601f19601f820116820180604052508101906118bd9190611ce0565b61144c5760405162461bcd60e51b81526004016108da90612106565b600354600154604051636968703360e11b81526001600160a01b039283169263d2d0e06692611912929116908590600090600401611e0c565b600060405180830381600087803b15801561192c57600080fd5b505af1158015611940573d6000803e3d6000fd5b5050505050565b600054600160a01b900460ff16156119715760405162461bcd60e51b81526004016108da90611fd2565b6000805460ff60a01b1916600160a01b1790557f62e78cea01bee320cd4e420270b5ea74000d11b0c9f74754ebdbfc544b05a2586113f261138f565b60008083156108a45760006119c061074b565b90506119e2856119d6838763ffffffff611b7316565b9063ffffffff611bad16565b95945050505050565b600080600d83815481106119fb57fe5b60009182526020822001546040516370a0823160e01b81526001600160a01b03909116925082906370a0823190611a36903390600401611dbb565b60206040518083038186803b158015611a4e57600080fd5b505afa158015611a62573d6000803e3d6000fd5b505050506040513d601f19601f82011682018060405250810190611a869190611d00565b60008581526014602090815260408083205460129092528220549293509091611ab49163ffffffff61123f16565b90506119e281836119ad565b60008184841115611ae45760405162461bcd60e51b81526004016108da9190611e9d565b505050900390565b6000828201838110156108a45760405162461bcd60e51b81526004016108da90611f64565b60025460405163db006a7560e01b81526001600160a01b039091169063db006a7590611912908490600401611e80565b60015460405163a9059cbb60e01b81526001600160a01b039091169063a9059cbb9061186b9085908590600401611dcf565b600082611b8257506000610f6a565b82820282848281611b8f57fe5b04146108a45760405162461bcd60e51b81526004016108da90612027565b60006108a483836040518060400160405280601a81526020017f536166654d6174683a206469766973696f6e206279207a65726f00000000000081525060008183611c0b5760405162461bcd60e51b81526004016108da9190611e9d565b506000838581611c1757fe5b0495945050505050565b828054600181600116156101000203166002900490600052602060002090601f016020900481019282601f10611c625782800160ff19823516178555611c8f565b82800160010185558215611c8f579182015b82811115611c8f578235825591602001919060010190611c74565b50611c9b929150611c9f565b5090565b61080591905b80821115611c9b5760008155600101611ca5565b600060208284031215611cca578081fd5b81356001600160a01b03811681146108a4578182fd5b600060208284031215611cf1578081fd5b815180151581146108a4578182fd5b600060208284031215611d11578081fd5b5051919050565b60008060208385031215611d2a578081fd5b823567ffffffffffffffff80821115611d41578283fd5b81850186601f820112611d52578384fd5b8035925081831115611d62578384fd5b866020848301011115611d73578384fd5b60200196919550909350505050565b600060208284031215611d93578081fd5b5035919050565b60008060408385031215611dac578182fd5b50508035926020909101359150565b6001600160a01b0391909116815260200190565b6001600160a01b03929092168252602082015260400190565b6001600160a01b039384168152919092166020820152604081019190915260600190565b6001600160a01b03939093168352602083019190915261ffff16604082015260600190565b6020808252825182820181905260009190848201906040850190845b81811015611e6957835183529284019291840191600101611e4d565b50909695505050505050565b901515815260200190565b90815260200190565b6020810160058310611e9757fe5b91905290565b6000602080835283518082850152825b81811015611ec957858101830151858201604001528201611ead565b81811115611eda5783604083870101525b50601f01601f1916929092016040019392505050565b60208082526014908201527314185d5cd8589b194e881b9bdd081c185d5cd95960621b604082015260600190565b60208082526026908201527f4f776e61626c653a206e6577206f776e657220697320746865207a65726f206160408201526564647265737360d01b606082015260800190565b6020808252601b908201527f536166654d6174683a206164646974696f6e206f766572666c6f770000000000604082015260600190565b60208082526018908201527f4f7261636c6520686173206e6f742066696e616c697365640000000000000000604082015260600190565b60208082526010908201526f14185d5cd8589b194e881c185d5cd95960821b604082015260600190565b60208082526011908201527020b63932b0b23c903bb4ba34323930bbb760791b604082015260600190565b60208082526021908201527f536166654d6174683a206d756c7469706c69636174696f6e206f766572666c6f6040820152607760f81b606082015260800190565b6020808252818101527f4f776e61626c653a2063616c6c6572206973206e6f7420746865206f776e6572604082015260600190565b602080825260099082015268546f6f206561726c7960b81b604082015260600190565b60208082526026908201527f66756e6374696f6e2063616e6e6f742062652063616c6c656420617420746869604082015265732074696d6560d01b606082015260800190565b60208082526014908201527310d85cda081d1c985b9cd9995c8819985a5b195960621b604082015260600190565b6020808252601f908201527f5265656e7472616e637947756172643a207265656e7472616e742063616c6c00604082015260600190565b63ffffffff9190911681526020019056fea2646970667358221220f0e20e0c4457ac8a152001d64d997153dbeece9557e48a2bcbe35c180c4be14264736f6c6343000607003360806040523480156200001157600080fd5b50604051620013b2380380620013b2833981810160405260208110156200003757600080fd5b81019080805160405193929190846401000000008211156200005857600080fd5b9083019060208201858111156200006e57600080fd5b82516401000000008111828201881017156200008957600080fd5b82525081516020918201929091019080838360005b83811015620000b85781810151838201526020016200009e565b50505050905090810190601f168015620000e65780820380516001836020036101000a031916815260200191505b5060408181019052600281526126a160f11b60208083019190915285518695509193506200011c925060039190850190620001b9565b50805162000132906004906020840190620001b9565b50506005805460ff19166012179055506000620001576001600160e01b03620001b416565b60058054610100600160a81b0319166101006001600160a01b03841690810291909117909155604051919250906000907f8be0079c531659141344cd1fd0a4f28419497f9722a3daafe3b4186f6b6457e0908290a350506200025b565b335b90565b828054600181600116156101000203166002900490600052602060002090601f016020900481019282601f10620001fc57805160ff19168380011785556200022c565b828001600101855582156200022c579182015b828111156200022c5782518255916020019190600101906200020f565b506200023a9291506200023e565b5090565b620001b691905b808211156200023a576000815560010162000245565b611147806200026b6000396000f3fe6080604052600436106100f75760003560e01c8063715018a61161008a578063a457c2d711610059578063a457c2d7146103a5578063a9059cbb146103de578063dd62ed3e14610417578063f2fde38b14610452576100fe565b8063715018a6146103115780638da5cb5b1461032657806395d89b41146103575780639dc29fac1461036c576100fe565b8063313ce567116100c6578063313ce56714610241578063395093511461026c57806340c10f19146102a557806370a08231146102de576100fe565b806306fdde0314610100578063095ea7b31461018a57806318160ddd146101d757806323b872dd146101fe576100fe565b366100fe57005b005b34801561010c57600080fd5b50610115610485565b6040805160208082528351818301528351919283929083019185019080838360005b8381101561014f578181015183820152602001610137565b50505050905090810190601f16801561017c5780820380516001836020036101000a031916815260200191505b509250505060405180910390f35b34801561019657600080fd5b506101c3600480360360408110156101ad57600080fd5b506001600160a01b03813516906020013561051b565b604080519115158252519081900360200190f35b3480156101e357600080fd5b506101ec610538565b60408051918252519081900360200190f35b34801561020a57600080fd5b506101c36004803603606081101561022157600080fd5b506001600160a01b0381358116916020810135909116906040013561053e565b34801561024d57600080fd5b506102566105cb565b6040805160ff9092168252519081900360200190f35b34801561027857600080fd5b506101c36004803603604081101561028f57600080fd5b506001600160a01b0381351690602001356105d4565b3480156102b157600080fd5b506100fe600480360360408110156102c857600080fd5b506001600160a01b038135169060200135610628565b3480156102ea57600080fd5b506101ec6004803603602081101561030157600080fd5b50356001600160a01b0316610693565b34801561031d57600080fd5b506100fe6106ae565b34801561033257600080fd5b5061033b61075b565b604080516001600160a01b039092168252519081900360200190f35b34801561036357600080fd5b5061011561076f565b34801561037857600080fd5b506100fe6004803603604081101561038f57600080fd5b506001600160a01b0381351690602001356107d0565b3480156103b157600080fd5b506101c3600480360360408110156103c857600080fd5b506001600160a01b038135169060200135610837565b3480156103ea57600080fd5b506101c36004803603604081101561040157600080fd5b506001600160a01b0381351690602001356108a5565b34801561042357600080fd5b506101ec6004803603604081101561043a57600080fd5b506001600160a01b03813581169160200135166108b9565b34801561045e57600080fd5b506100fe6004803603602081101561047557600080fd5b50356001600160a01b03166108e4565b60038054604080516020601f60026000196101006001881615020190951694909404938401819004810282018101909252828152606093909290918301828280156105115780601f106104e657610100808354040283529160200191610511565b820191906000526020600020905b8154815290600101906020018083116104f457829003601f168201915b5050505050905090565b600061052f6105286109ed565b84846109f1565b50600192915050565b60025490565b600061054b848484610add565b6105c1846105576109ed565b6105bc8560405180606001604052806028815260200161103b602891396001600160a01b038a166000908152600160205260408120906105956109ed565b6001600160a01b03168152602081019190915260400160002054919063ffffffff610c4416565b6109f1565b5060019392505050565b60055460ff1690565b600061052f6105e16109ed565b846105bc85600160006105f26109ed565b6001600160a01b03908116825260208083019390935260409182016000908120918c16815292529020549063ffffffff610cdb16565b6106306109ed565b60055461010090046001600160a01b03908116911614610685576040805162461bcd60e51b81526020600482018190526024820152600080516020611063833981519152604482015290519081900360640190fd5b61068f8282610d3c565b5050565b6001600160a01b031660009081526020819052604090205490565b6106b66109ed565b60055461010090046001600160a01b0390811691161461070b576040805162461bcd60e51b81526020600482018190526024820152600080516020611063833981519152604482015290519081900360640190fd5b60055460405160009161010090046001600160a01b0316907f8be0079c531659141344cd1fd0a4f28419497f9722a3daafe3b4186f6b6457e0908390a360058054610100600160a81b0319169055565b60055461010090046001600160a01b031690565b60048054604080516020601f60026000196101006001881615020190951694909404938401819004810282018101909252828152606093909290918301828280156105115780601f106104e657610100808354040283529160200191610511565b6107d86109ed565b60055461010090046001600160a01b0390811691161461082d576040805162461bcd60e51b81526020600482018190526024820152600080516020611063833981519152604482015290519081900360640190fd5b61068f8282610e38565b600061052f6108446109ed565b846105bc856040518060600160405280602581526020016110ed602591396001600061086e6109ed565b6001600160a01b03908116825260208083019390935260409182016000908120918d1681529252902054919063ffffffff610c4416565b600061052f6108b26109ed565b8484610add565b6001600160a01b03918216600090815260016020908152604080832093909416825291909152205490565b6108ec6109ed565b60055461010090046001600160a01b03908116911614610941576040805162461bcd60e51b81526020600482018190526024820152600080516020611063833981519152604482015290519081900360640190fd5b6001600160a01b0381166109865760405162461bcd60e51b8152600401808060200182810382526026815260200180610fcd6026913960400191505060405180910390fd5b6005546040516001600160a01b0380841692610100900416907f8be0079c531659141344cd1fd0a4f28419497f9722a3daafe3b4186f6b6457e090600090a3600580546001600160a01b0390921661010002610100600160a81b0319909216919091179055565b3390565b6001600160a01b038316610a365760405162461bcd60e51b81526004018080602001828103825260248152602001806110c96024913960400191505060405180910390fd5b6001600160a01b038216610a7b5760405162461bcd60e51b8152600401808060200182810382526022815260200180610ff36022913960400191505060405180910390fd5b6001600160a01b03808416600081815260016020908152604080832094871680845294825291829020859055815185815291517f8c5be1e5ebec7d5bd14f71427d1e84f3dd0314c0f7b2291e5b200ac8c7c3b9259281900390910190a3505050565b6001600160a01b038316610b225760405162461bcd60e51b81526004018080602001828103825260258152602001806110a46025913960400191505060405180910390fd5b6001600160a01b038216610b675760405162461bcd60e51b8152600401808060200182810382526023815260200180610f886023913960400191505060405180910390fd5b610b72838383610f40565b610bb581604051806060016040528060268152602001611015602691396001600160a01b038616600090815260208190526040902054919063ffffffff610c4416565b6001600160a01b038085166000908152602081905260408082209390935590841681522054610bea908263ffffffff610cdb16565b6001600160a01b038084166000818152602081815260409182902094909455805185815290519193928716927fddf252ad1be2c89b69c2b068fc378daa952ba7f163c4a11628f55a4df523b3ef92918290030190a3505050565b60008184841115610cd35760405162461bcd60e51b81526004018080602001828103825283818151815260200191508051906020019080838360005b83811015610c98578181015183820152602001610c80565b50505050905090810190601f168015610cc55780820380516001836020036101000a031916815260200191505b509250505060405180910390fd5b505050900390565b600082820183811015610d35576040805162461bcd60e51b815260206004820152601b60248201527f536166654d6174683a206164646974696f6e206f766572666c6f770000000000604482015290519081900360640190fd5b9392505050565b6001600160a01b038216610d97576040805162461bcd60e51b815260206004820152601f60248201527f45524332303a206d696e7420746f20746865207a65726f206164647265737300604482015290519081900360640190fd5b610da360008383610f40565b600254610db6908263ffffffff610cdb16565b6002556001600160a01b038216600090815260208190526040902054610de2908263ffffffff610cdb16565b6001600160a01b0383166000818152602081815260408083209490945583518581529351929391927fddf252ad1be2c89b69c2b068fc378daa952ba7f163c4a11628f55a4df523b3ef9281900390910190a35050565b6001600160a01b038216610e7d5760405162461bcd60e51b81526004018080602001828103825260218152602001806110836021913960400191505060405180910390fd5b610e8982600083610f40565b610ecc81604051806060016040528060228152602001610fab602291396001600160a01b038516600090815260208190526040902054919063ffffffff610c4416565b6001600160a01b038316600090815260208190526040902055600254610ef8908263ffffffff610f4516565b6002556040805182815290516000916001600160a01b038516917fddf252ad1be2c89b69c2b068fc378daa952ba7f163c4a11628f55a4df523b3ef9181900360200190a35050565b505050565b6000610d3583836040518060400160405280601e81526020017f536166654d6174683a207375627472616374696f6e206f766572666c6f770000815250610c4456fe45524332303a207472616e7366657220746f20746865207a65726f206164647265737345524332303a206275726e20616d6f756e7420657863656564732062616c616e63654f776e61626c653a206e6577206f776e657220697320746865207a65726f206164647265737345524332303a20617070726f766520746f20746865207a65726f206164647265737345524332303a207472616e7366657220616d6f756e7420657863656564732062616c616e636545524332303a207472616e7366657220616d6f756e74206578636565647320616c6c6f77616e63654f776e61626c653a2063616c6c6572206973206e6f7420746865206f776e657245524332303a206275726e2066726f6d20746865207a65726f206164647265737345524332303a207472616e736665722066726f6d20746865207a65726f206164647265737345524332303a20617070726f76652066726f6d20746865207a65726f206164647265737345524332303a2064656372656173656420616c6c6f77616e63652062656c6f77207a65726fa26469706673582212200f090cb016a2ad4fd3d50374f1d8970d3dae4155ed2d3c69100960efaa88d0a264736f6c634300060700338be0079c531659141344cd1fd0a4f28419497f9722a3daafe3b4186f6b6457e0a2646970667358221220e7f3352071d676eb9dceb0b283c78ff730246d9dd51f027d2e3519b353eb0e4264736f6c63430006070033",
  "immutableReferences": {},
  "source": "//SPDX-License-Identifier: UNLICENSED\npragma solidity 0.6.7;\npragma experimental ABIEncoderV2;\n\nimport '@openzeppelin/contracts/access/Ownable.sol';\nimport '@openzeppelin/contracts/utils/Pausable.sol';\nimport './BTMarket.sol';\nimport './interfaces/IAave.sol';\nimport './interfaces/IDai.sol';\nimport './interfaces/IRealitio.sol';\n\n\ncontract BTMarketFactory is Ownable, Pausable {\n    Dai public dai;\n    IaToken public aToken;\n    IAaveLendingPool public aaveLendingPool;\n    IAaveLendingPoolCore public aaveLendingPoolCore;\n    IRealitio public realitio;\n    mapping(address => bool) public mappingOfMarkets;\n    address[] public marketAddresses;\n\n    event MarketCreated(address contractAddress);\n\n    modifier createdByThisFactory(address marketAddress) {\n        require(mappingOfMarkets[marketAddress], \"Must've been created by the corresponding factory\");\n        _;\n    }\n\n    constructor(\n        Dai _daiAddress,\n        IaToken _aTokenAddress,\n        IAaveLendingPool _aaveLpAddress,\n        IAaveLendingPoolCore _aaveLpcoreAddress,\n        IRealitio _realitioAddress\n    ) public {\n        dai = _daiAddress;\n        aToken = _aTokenAddress;\n        aaveLendingPool = _aaveLpAddress;\n        aaveLendingPoolCore = _aaveLpcoreAddress;\n        realitio = _realitioAddress;\n    }\n\n    function createMarket(\n        string memory _eventName,\n        uint256 _marketOpeningTime,\n        uint256 _marketLockingTime,\n        uint32 _marketResolutionTime,\n        uint32 _timeout,\n        address _arbitrator,\n        string memory _realitioQuestion,\n        string[] memory _outcomeNamesArray\n    )\n        public\n        virtual\n        /* onlyOwner TODO removed for development */\n        whenNotPaused\n        returns (BTMarket)\n    {\n        uint256[4] memory marketTimes = [_marketOpeningTime, _marketLockingTime, _marketResolutionTime, _timeout];\n        BTMarket newContract = new BTMarket({\n            _daiAddress: dai,\n            _aTokenAddress: aToken,\n            _aaveLpAddress: aaveLendingPool,\n            _aaveLpcoreAddress: aaveLendingPoolCore,\n            _realitioAddress: realitio,\n            _eventName: _eventName,\n            _marketTimes: marketTimes,\n            _arbitrator: _arbitrator,\n            _realitioQuestion: _realitioQuestion,\n            _outcomeNamesArray: _outcomeNamesArray,\n            _owner: msg.sender\n        });\n        address newAddress = address(newContract);\n        marketAddresses.push(newAddress);\n        mappingOfMarkets[newAddress] = true;\n        emit MarketCreated(address(newAddress));\n        return newContract;\n    }\n\n    function getMarkets() public view returns (address[] memory) {\n        return marketAddresses;\n    }\n\n    function destroy() public onlyOwner whenPaused {\n        selfdestruct(msg.sender);\n    }\n\n    function disableMarket(address payable marketAddress)\n        public\n        onlyOwner\n        createdByThisFactory(marketAddress)\n        returns (bool)\n    {\n        return BTMarket(marketAddress).disableContract();\n    }\n}\n",
  "sourcePath": "/Users/brenfife/Desktop/MagicBet-Contracts/contracts/BTMarketFactory.sol",
  "compiler": {
    "name": "solc",
    "version": "0.6.7+commit.b8d736ae.Emscripten.clang"
  },
  "schemaVersion": "3.1.0",
  "updatedAt": "2020-05-23T15:17:42.282Z",
  "devdoc": {
    "methods": {
      "owner()": {
        "details": "Returns the address of the current owner."
      },
      "paused()": {
        "details": "Returns true if the contract is paused, and false otherwise."
      },
      "renounceOwnership()": {
        "details": "Leaves the contract without owner. It will not be possible to call `onlyOwner` functions anymore. Can only be called by the current owner.     * NOTE: Renouncing ownership will leave the contract without an owner, thereby removing any functionality that is only available to the owner."
      },
      "transferOwnership(address)": {
        "details": "Transfers ownership of the contract to a new account (`newOwner`). Can only be called by the current owner."
      }
    }
  },
  "userdoc": {
    "methods": {}
  }
}