{
  "contractName": "BTMarket",
  "abi": [
    {
      "inputs": [
        {
          "internalType": "contract Dai",
          "name": "_daiAddress",
          "type": "address"
        },
        {
          "internalType": "contract IaToken",
          "name": "_aTokenAddress",
          "type": "address"
        },
        {
          "internalType": "contract IAaveLendingPool",
          "name": "_aaveLpAddress",
          "type": "address"
        },
        {
          "internalType": "contract IAaveLendingPoolCore",
          "name": "_aaveLpcoreAddress",
          "type": "address"
        },
        {
          "internalType": "contract IRealitio",
          "name": "_realitioAddress",
          "type": "address"
        },
        {
          "internalType": "string",
          "name": "_eventName",
          "type": "string"
        },
        {
          "internalType": "uint256[3]",
          "name": "_marketTimes",
          "type": "uint256[3]"
        },
        {
          "internalType": "uint32",
          "name": "_timeout",
          "type": "uint32"
        },
        {
          "internalType": "address",
          "name": "_arbitrator",
          "type": "address"
        },
        {
          "internalType": "string",
          "name": "_realitioQuestion",
          "type": "string"
        },
        {
          "internalType": "uint256",
          "name": "_numberOfOutcomes",
          "type": "uint256"
        },
        {
          "internalType": "address",
          "name": "_owner",
          "type": "address"
        }
      ],
      "stateMutability": "nonpayable",
      "type": "constructor"
    },
    {
      "anonymous": false,
      "inputs": [
        {
          "indexed": true,
          "internalType": "address",
          "name": "previousOwner",
          "type": "address"
        },
        {
          "indexed": true,
          "internalType": "address",
          "name": "newOwner",
          "type": "address"
        }
      ],
      "name": "OwnershipTransferred",
      "type": "event"
    },
    {
      "anonymous": false,
      "inputs": [
        {
          "indexed": true,
          "internalType": "address",
          "name": "participant",
          "type": "address"
        }
      ],
      "name": "ParticipantEntered",
      "type": "event"
    },
    {
      "anonymous": false,
      "inputs": [
        {
          "indexed": true,
          "internalType": "address",
          "name": "participant",
          "type": "address"
        }
      ],
      "name": "ParticipantWithdrawn",
      "type": "event"
    },
    {
      "anonymous": false,
      "inputs": [
        {
          "indexed": false,
          "internalType": "address",
          "name": "account",
          "type": "address"
        }
      ],
      "name": "Paused",
      "type": "event"
    },
    {
      "anonymous": false,
      "inputs": [
        {
          "indexed": false,
          "internalType": "enum BTMarket.States",
          "name": "state",
          "type": "uint8"
        }
      ],
      "name": "StateChanged",
      "type": "event"
    },
    {
      "anonymous": false,
      "inputs": [
        {
          "indexed": false,
          "internalType": "address",
          "name": "account",
          "type": "address"
        }
      ],
      "name": "Unpaused",
      "type": "event"
    },
    {
      "anonymous": false,
      "inputs": [
        {
          "indexed": true,
          "internalType": "address",
          "name": "winner",
          "type": "address"
        }
      ],
      "name": "WinnerSelected",
      "type": "event"
    },
    {
      "stateMutability": "payable",
      "type": "fallback"
    },
    {
      "inputs": [],
      "name": "aToken",
      "outputs": [
        {
          "internalType": "contract IaToken",
          "name": "",
          "type": "address"
        }
      ],
      "stateMutability": "view",
      "type": "function"
    },
    {
      "inputs": [],
      "name": "aaveLendingPool",
      "outputs": [
        {
          "internalType": "contract IAaveLendingPool",
          "name": "",
          "type": "address"
        }
      ],
      "stateMutability": "view",
      "type": "function"
    },
    {
      "inputs": [
        {
          "internalType": "uint256",
          "name": "",
          "type": "uint256"
        },
        {
          "internalType": "uint256",
          "name": "",
          "type": "uint256"
        }
      ],
      "name": "betsTracker",
      "outputs": [
        {
          "internalType": "uint256",
          "name": "daiBet",
          "type": "uint256"
        },
        {
          "internalType": "uint256",
          "name": "timestamp",
          "type": "uint256"
        }
      ],
      "stateMutability": "view",
      "type": "function"
    },
    {
      "inputs": [],
      "name": "betsWithdrawn",
      "outputs": [
        {
          "internalType": "uint256",
          "name": "",
          "type": "uint256"
        }
      ],
      "stateMutability": "view",
      "type": "function"
    },
    {
      "inputs": [
        {
          "internalType": "uint256",
          "name": "",
          "type": "uint256"
        }
      ],
      "name": "betsWithdrawnPerOutcome",
      "outputs": [
        {
          "internalType": "uint256",
          "name": "",
          "type": "uint256"
        }
      ],
      "stateMutability": "view",
      "type": "function"
    },
    {
      "inputs": [],
      "name": "dai",
      "outputs": [
        {
          "internalType": "contract Dai",
          "name": "",
          "type": "address"
        }
      ],
      "stateMutability": "view",
      "type": "function"
    },
    {
      "inputs": [],
      "name": "eventName",
      "outputs": [
        {
          "internalType": "string",
          "name": "",
          "type": "string"
        }
      ],
      "stateMutability": "view",
      "type": "function"
    },
    {
      "inputs": [],
      "name": "marketLockingTime",
      "outputs": [
        {
          "internalType": "uint256",
          "name": "",
          "type": "uint256"
        }
      ],
      "stateMutability": "view",
      "type": "function"
    },
    {
      "inputs": [],
      "name": "marketOpeningTime",
      "outputs": [
        {
          "internalType": "uint256",
          "name": "",
          "type": "uint256"
        }
      ],
      "stateMutability": "view",
      "type": "function"
    },
    {
      "inputs": [],
      "name": "marketOpeningTimeActual",
      "outputs": [
        {
          "internalType": "uint256",
          "name": "",
          "type": "uint256"
        }
      ],
      "stateMutability": "view",
      "type": "function"
    },
    {
      "inputs": [],
      "name": "marketResolutionTime",
      "outputs": [
        {
          "internalType": "uint32",
          "name": "",
          "type": "uint32"
        }
      ],
      "stateMutability": "view",
      "type": "function"
    },
    {
      "inputs": [],
      "name": "maxInterest",
      "outputs": [
        {
          "internalType": "uint256",
          "name": "",
          "type": "uint256"
        }
      ],
      "stateMutability": "view",
      "type": "function"
    },
    {
      "inputs": [],
      "name": "numberOfOutcomes",
      "outputs": [
        {
          "internalType": "uint256",
          "name": "",
          "type": "uint256"
        }
      ],
      "stateMutability": "view",
      "type": "function"
    },
    {
      "inputs": [
        {
          "internalType": "uint256",
          "name": "",
          "type": "uint256"
        }
      ],
      "name": "outcomeNames",
      "outputs": [
        {
          "internalType": "string",
          "name": "",
          "type": "string"
        }
      ],
      "stateMutability": "view",
      "type": "function"
    },
    {
      "inputs": [],
      "name": "owner",
      "outputs": [
        {
          "internalType": "address",
          "name": "",
          "type": "address"
        }
      ],
      "stateMutability": "view",
      "type": "function"
    },
    {
      "inputs": [
        {
          "internalType": "uint256",
          "name": "",
          "type": "uint256"
        }
      ],
      "name": "participants",
      "outputs": [
        {
          "internalType": "address",
          "name": "",
          "type": "address"
        }
      ],
      "stateMutability": "view",
      "type": "function"
    },
    {
      "inputs": [],
      "name": "paused",
      "outputs": [
        {
          "internalType": "bool",
          "name": "",
          "type": "bool"
        }
      ],
      "stateMutability": "view",
      "type": "function"
    },
    {
      "inputs": [],
      "name": "questionId",
      "outputs": [
        {
          "internalType": "bytes32",
          "name": "",
          "type": "bytes32"
        }
      ],
      "stateMutability": "view",
      "type": "function"
    },
    {
      "inputs": [],
      "name": "questionResolvedInvalid",
      "outputs": [
        {
          "internalType": "bool",
          "name": "",
          "type": "bool"
        }
      ],
      "stateMutability": "view",
      "type": "function"
    },
    {
      "inputs": [],
      "name": "realitio",
      "outputs": [
        {
          "internalType": "contract IRealitio",
          "name": "",
          "type": "address"
        }
      ],
      "stateMutability": "view",
      "type": "function"
    },
    {
      "inputs": [],
      "name": "renounceOwnership",
      "outputs": [],
      "stateMutability": "nonpayable",
      "type": "function"
    },
    {
      "inputs": [],
      "name": "state",
      "outputs": [
        {
          "internalType": "enum BTMarket.States",
          "name": "",
          "type": "uint8"
        }
      ],
      "stateMutability": "view",
      "type": "function"
    },
    {
      "inputs": [
        {
          "internalType": "uint256",
          "name": "",
          "type": "uint256"
        }
      ],
      "name": "tokenAddresses",
      "outputs": [
        {
          "internalType": "contract Token",
          "name": "",
          "type": "address"
        }
      ],
      "stateMutability": "view",
      "type": "function"
    },
    {
      "inputs": [],
      "name": "tokenContractsCreated",
      "outputs": [
        {
          "internalType": "uint256",
          "name": "",
          "type": "uint256"
        }
      ],
      "stateMutability": "view",
      "type": "function"
    },
    {
      "inputs": [],
      "name": "totalBets",
      "outputs": [
        {
          "internalType": "uint256",
          "name": "",
          "type": "uint256"
        }
      ],
      "stateMutability": "view",
      "type": "function"
    },
    {
      "inputs": [
        {
          "internalType": "uint256",
          "name": "",
          "type": "uint256"
        }
      ],
      "name": "totalBetsPerOutcome",
      "outputs": [
        {
          "internalType": "uint256",
          "name": "",
          "type": "uint256"
        }
      ],
      "stateMutability": "view",
      "type": "function"
    },
    {
      "inputs": [
        {
          "internalType": "address",
          "name": "",
          "type": "address"
        }
      ],
      "name": "totalBetsPerUser",
      "outputs": [
        {
          "internalType": "uint256",
          "name": "",
          "type": "uint256"
        }
      ],
      "stateMutability": "view",
      "type": "function"
    },
    {
      "inputs": [
        {
          "internalType": "address",
          "name": "newOwner",
          "type": "address"
        }
      ],
      "name": "transferOwnership",
      "outputs": [],
      "stateMutability": "nonpayable",
      "type": "function"
    },
    {
      "inputs": [
        {
          "internalType": "uint256",
          "name": "",
          "type": "uint256"
        }
      ],
      "name": "usersPerOutcome",
      "outputs": [
        {
          "internalType": "uint256",
          "name": "",
          "type": "uint256"
        }
      ],
      "stateMutability": "view",
      "type": "function"
    },
    {
      "inputs": [],
      "name": "winningOutcome",
      "outputs": [
        {
          "internalType": "uint256",
          "name": "",
          "type": "uint256"
        }
      ],
      "stateMutability": "view",
      "type": "function"
    },
    {
      "inputs": [
        {
          "internalType": "address",
          "name": "",
          "type": "address"
        }
      ],
      "name": "withdrawnBool",
      "outputs": [
        {
          "internalType": "bool",
          "name": "",
          "type": "bool"
        }
      ],
      "stateMutability": "view",
      "type": "function"
    },
    {
      "stateMutability": "payable",
      "type": "receive"
    },
    {
      "inputs": [
        {
          "internalType": "string",
          "name": "_eventName",
          "type": "string"
        }
      ],
      "name": "setEventName",
      "outputs": [],
      "stateMutability": "nonpayable",
      "type": "function"
    },
    {
      "inputs": [
        {
          "internalType": "string",
          "name": "_outcomeName",
          "type": "string"
        },
        {
          "internalType": "string",
          "name": "_tokenName",
          "type": "string"
        }
      ],
      "name": "createTokenContract",
      "outputs": [],
      "stateMutability": "nonpayable",
      "type": "function"
    },
    {
      "inputs": [],
      "name": "getMarketSize",
      "outputs": [
        {
          "internalType": "uint256",
          "name": "",
          "type": "uint256"
        }
      ],
      "stateMutability": "view",
      "type": "function"
    },
    {
      "inputs": [
        {
          "internalType": "uint256",
          "name": "_outcome",
          "type": "uint256"
        }
      ],
      "name": "getParticipantsBet",
      "outputs": [
        {
          "internalType": "uint256",
          "name": "",
          "type": "uint256"
        }
      ],
      "stateMutability": "view",
      "type": "function"
    },
    {
      "inputs": [],
      "name": "getMaxTotalInterest",
      "outputs": [
        {
          "internalType": "uint256",
          "name": "",
          "type": "uint256"
        }
      ],
      "stateMutability": "view",
      "type": "function"
    },
    {
      "inputs": [],
      "name": "getTotalInterest",
      "outputs": [
        {
          "internalType": "uint256",
          "name": "",
          "type": "uint256"
        }
      ],
      "stateMutability": "view",
      "type": "function"
    },
    {
      "inputs": [
        {
          "internalType": "uint256",
          "name": "_winningOutcome",
          "type": "uint256"
        }
      ],
      "name": "getWinnings",
      "outputs": [
        {
          "internalType": "uint256",
          "name": "",
          "type": "uint256"
        }
      ],
      "stateMutability": "view",
      "type": "function"
    },
    {
      "inputs": [],
      "name": "getWinningsInvalid",
      "outputs": [
        {
          "internalType": "uint256",
          "name": "",
          "type": "uint256"
        }
      ],
      "stateMutability": "view",
      "type": "function"
    },
    {
      "inputs": [
        {
          "internalType": "uint256",
          "name": "_outcome",
          "type": "uint256"
        },
        {
          "internalType": "uint256",
          "name": "_dai",
          "type": "uint256"
        }
      ],
      "name": "placeBet",
      "outputs": [],
      "stateMutability": "nonpayable",
      "type": "function"
    },
    {
      "inputs": [],
      "name": "determineWinner",
      "outputs": [],
      "stateMutability": "nonpayable",
      "type": "function"
    },
    {
      "inputs": [],
      "name": "incrementState",
      "outputs": [],
      "stateMutability": "nonpayable",
      "type": "function"
    },
    {
      "inputs": [],
      "name": "circuitBreaker",
      "outputs": [],
      "stateMutability": "nonpayable",
      "type": "function"
    },
    {
      "inputs": [],
      "name": "withdraw",
      "outputs": [],
      "stateMutability": "nonpayable",
      "type": "function"
    },
    {
      "inputs": [],
      "name": "disableContract",
      "outputs": [
        {
          "internalType": "bool",
          "name": "",
          "type": "bool"
        }
      ],
      "stateMutability": "nonpayable",
      "type": "function"
    },
    {
      "inputs": [],
      "name": "enableContract",
      "outputs": [
        {
          "internalType": "bool",
          "name": "",
          "type": "bool"
        }
      ],
      "stateMutability": "nonpayable",
      "type": "function"
    }
  ],
  "bytecode": "0x60806040526045601a55601b805460ff191660011790553480156200002357600080fd5b50604051620042893803806200428983398181016040526101c08110156200004a57600080fd5b815160208301516040808501516060860151608087015160a0880180519451969895979396929591949293820192846401000000008211156200008c57600080fd5b908301906020820185811115620000a257600080fd5b8251640100000000811182820188101715620000bd57600080fd5b82525081516020918201929091019080838360005b83811015620000ec578181015183820152602001620000d2565b50505050905090810190601f1680156200011a5780820380516001836020036101000a031916815260200191505b506040819052608082015160a083015160c08401805160209095019692959194846401000000008211156200014e57600080fd5b9083019060208201858111156200016457600080fd5b82516401000000008111828201881017156200017f57600080fd5b82525081516020918201929091019080838360005b83811015620001ae57818101518382015260200162000194565b50505050905090810190601f168015620001dc5780820380516001836020036101000a031916815260200191505b506040908152602082015191015190925090506000620002046001600160e01b03620003b216565b600080546001600160a01b0319166001600160a01b03831690811782556040519293509160008051602062004269833981519152908290a3506000805461ffff60a01b1916600160a81b1790556001600160a01b0381163314620002765762000276816001600160e01b03620003b716565b600180546001600160a01b03199081166001600160a01b038f811691909117928390556002805483168f83161790556003805483168e8316179055600480549092168b82161782556040805163095ea7b360e01b81528d831693810193909352600160ff1b60248401525192169163095ea7b3916044808201926020929091908290030181600087803b1580156200030d57600080fd5b505af115801562000322573d6000803e3d6000fd5b505050506040513d60208110156200033957600080fd5b505086516200035090600c9060208a01906200060c565b50855160075560208601516009556040860151600a805463ffffffff191663ffffffff9283161790819055600f84905560029142916200039a91849188918a918c911686620004be565b600b5550620006ae9c50505050505050505050505050565b335b90565b620003ca6001600160e01b03620003b216565b6000546001600160a01b039081169116146200042d576040805162461bcd60e51b815260206004820181905260248201527f4f776e61626c653a2063616c6c6572206973206e6f7420746865206f776e6572604482015290519081900360640190fd5b6001600160a01b038116620004745760405162461bcd60e51b8152600401808060200182810382526026815260200180620042436026913960400191505060405180910390fd5b600080546040516001600160a01b03808516939216916000805160206200426983398151915291a3600080546001600160a01b0319166001600160a01b0392909216919091179055565b6000600460009054906101000a90046001600160a01b03166001600160a01b031663762c38fd8888888888886040518763ffffffff1660e01b81526004018087815260200180602001866001600160a01b03166001600160a01b031681526020018563ffffffff1663ffffffff1681526020018463ffffffff1663ffffffff168152602001838152602001828103825287818151815260200191508051906020019080838360005b838110156200058057818101518382015260200162000566565b50505050905090810190601f168015620005ae5780820380516001836020036101000a031916815260200191505b50975050505050505050602060405180830381600087803b158015620005d357600080fd5b505af1158015620005e8573d6000803e3d6000fd5b505050506040513d6020811015620005ff57600080fd5b5051979650505050505050565b828054600181600116156101000203166002900490600052602060002090601f016020900481019282601f106200064f57805160ff19168380011785556200067f565b828001600101855582156200067f579182015b828111156200067f57825182559160200191906001019062000662565b506200068d92915062000691565b5090565b620003b491905b808211156200068d576000815560010162000698565b613b8580620006be6000396000f3fe608060405260043610620002bf5760003560e01c80638da5cb5b116200016f578063befa1e2f11620000d3578063e9d337b81162000085578063e9d337b814620009b8578063ee72b06d14620009d0578063f2fde38b14620009e8578063f4b9fa751462000a1f578063f7f9940e1462000a37578063fd27b51e1462000a8457620002c7565b8063befa1e2f14620008b8578063c19d93fb14620008d0578063c56f338c146200090d578063d844ab5f146200093b578063e14dedfd1462000972578063e5df8b84146200098a57620002c7565b8063a055ccc5116200012d578063a055ccc51462000812578063a0c1f15e146200082a578063aa0cb8421462000842578063ad5d2862146200085a578063b06a5c521462000888578063bc8802a214620008a057620002c7565b80638da5cb5b146200070f578063906d62411462000727578063991d4f5d146200075e5780639b34ae0314620007e25780639d7c7d3914620007fa57620002c7565b806347254f4f11620002235780635c975abb11620001d55780635c975abb14620005be5780636c0dc97614620005d6578063715018a614620006af5780638043c9c014620006c75780638263302814620006df578063894ba83314620006f757620002c7565b806347254f4f14620004fc57806349200d7714620005145780634afe62b5146200052c5780634b8755ca14620005605780634ecc79f71462000578578063519709c4146200059057620002c7565b806327acae74116200027d57806327acae74146200039857806333b16d93146200043e57806335c1d3491462000456578063367edd3214620004a05780633ccfd60b14620004cc5780633eac554014620004e457620002c7565b806305801f0b14620002c95780630b60365c1462000309578063149b5d58146200032157806316efd941146200034f578063232ea3ad146200036757620002c7565b36620002c757005b005b348015620002d657600080fd5b50620002f760048036036020811015620002ef57600080fd5b503562000a9c565b60408051918252519081900360200190f35b3480156200031657600080fd5b50620002f762000aae565b3480156200032e57600080fd5b50620002f7600480360360208110156200034757600080fd5b503562000b69565b3480156200035c57600080fd5b50620002c762000c02565b3480156200037457600080fd5b506200037f62000c71565b6040805163ffffffff9092168252519081900360200190f35b348015620003a557600080fd5b50620003c660048036036020811015620003be57600080fd5b503562000c7d565b6040805160208082528351818301528351919283929083019185019080838360005b8381101562000402578181015183820152602001620003e8565b50505050905090810190601f168015620004305780820380516001836020036101000a031916815260200191505b509250505060405180910390f35b3480156200044b57600080fd5b50620002c762000d28565b3480156200046357600080fd5b5062000484600480360360208110156200047c57600080fd5b503562000e06565b604080516001600160a01b039092168252519081900360200190f35b348015620004ad57600080fd5b50620004b862000e2e565b604080519115158252519081900360200190f35b348015620004d957600080fd5b50620002c762000eec565b348015620004f157600080fd5b50620002f7620010b4565b3480156200050957600080fd5b50620004b8620010ba565b3480156200052157600080fd5b50620002f7620010c3565b3480156200053957600080fd5b50620002c7600480360360408110156200055257600080fd5b5080359060200135620010c9565b3480156200056d57600080fd5b50620002f762001197565b3480156200058557600080fd5b50620002f76200119d565b3480156200059d57600080fd5b50620002f760048036036020811015620005b657600080fd5b5035620011a3565b348015620005cb57600080fd5b50620004b8620011b5565b348015620005e357600080fd5b50620002c760048036036040811015620005fc57600080fd5b8101906020810181356401000000008111156200061857600080fd5b8201836020820111156200062b57600080fd5b803590602001918460018302840111640100000000831117156200064e57600080fd5b9193909290916020810190356401000000008111156200066d57600080fd5b8201836020820111156200068057600080fd5b80359060200191846001830284011164010000000083111715620006a357600080fd5b509092509050620011c5565b348015620006bc57600080fd5b50620002c7620013c6565b348015620006d457600080fd5b50620003c66200146c565b348015620006ec57600080fd5b50620002f7620014ca565b3480156200070457600080fd5b50620004b8620014d0565b3480156200071c57600080fd5b50620004846200158b565b3480156200073457600080fd5b50620004b8600480360360208110156200074d57600080fd5b50356001600160a01b03166200159a565b3480156200076b57600080fd5b50620002c7600480360360208110156200078457600080fd5b810190602081018135640100000000811115620007a057600080fd5b820183602082011115620007b357600080fd5b80359060200191846001830284011164010000000083111715620007d657600080fd5b509092509050620015af565b348015620007ef57600080fd5b50620002f762001619565b3480156200080757600080fd5b50620002f76200161f565b3480156200081f57600080fd5b50620002f762001658565b3480156200083757600080fd5b5062000484620016e4565b3480156200084f57600080fd5b50620002f7620016f3565b3480156200086757600080fd5b50620002f7600480360360208110156200088057600080fd5b5035620016f9565b3480156200089557600080fd5b50620002f762001803565b348015620008ad57600080fd5b506200048462001809565b348015620008c557600080fd5b50620002f762001818565b348015620008dd57600080fd5b50620008e86200181e565b60405180826004811115620008f957fe5b60ff16815260200191505060405180910390f35b3480156200091a57600080fd5b50620002f7600480360360208110156200093357600080fd5b503562001827565b3480156200094857600080fd5b50620002f7600480360360208110156200096157600080fd5b50356001600160a01b031662001839565b3480156200097f57600080fd5b50620002f76200184b565b3480156200099757600080fd5b506200048460048036036020811015620009b057600080fd5b503562001851565b348015620009c557600080fd5b50620004846200185f565b348015620009dd57600080fd5b50620002c76200186e565b348015620009f557600080fd5b50620002c76004803603602081101562000a0e57600080fd5b50356001600160a01b031662001a15565b34801562000a2c57600080fd5b506200048462001b13565b34801562000a4457600080fd5b5062000a6b6004803603604081101562000a5d57600080fd5b508035906020013562001b22565b6040805192835260208301919091528051918290030190f35b34801562000a9157600080fd5b50620002f762001b5c565b60126020526000908152604090205481565b60008062000aca60175460165462001b6290919063ffffffff16565b600254604080516370a0823160e01b815230600482015290519293506000926001600160a01b03909216916370a0823191602480820192602092909190829003018186803b15801562000b1c57600080fd5b505afa15801562000b31573d6000803e3d6000fd5b505050506040513d602081101562000b4857600080fd5b50519050600062000b60828463ffffffff62001b6216565b93505050505b90565b600080600e838154811062000b7a57fe5b60009182526020918290200154604080516370a0823160e01b815233600482015290516001600160a01b03909216935083926370a0823192602480840193829003018186803b15801562000bcd57600080fd5b505afa15801562000be2573d6000803e3d6000fd5b505050506040513d602081101562000bf957600080fd5b50519392505050565b600a546224ea0063ffffffff9182160116421162000c53576040805162461bcd60e51b8152602060048201526009602482015268546f6f206561726c7960b81b604482015290519081900360640190fd5b601b805460ff19908116600117909155601080549091166004179055565b600a5463ffffffff1681565b600d818154811062000c8b57fe5b600091825260209182902001805460408051601f600260001961010060018716150201909416939093049283018590048502810185019091528181529350909183018282801562000d205780601f1062000cf45761010080835404028352916020019162000d20565b820191906000526020600020905b81548152906001019060200180831162000d0257829003601f168201915b505050505081565b600054600160a01b900460ff161562000d7b576040805162461bcd60e51b815260206004820152601060248201526f14185d5cd8589b194e881c185d5cd95960821b604482015290519081900360640190fd5b62000d8562001baf565b62000dd7576040805162461bcd60e51b815260206004820152601860248201527f4f7261636c6520686173206e6f742066696e616c697365640000000000000000604482015290519081900360640190fd5b62000de162001c34565b601a8190556000191462000dfa57601b805460ff191690555b62000e046200186e565b565b6018818154811062000e1457fe5b6000918252602090912001546001600160a01b0316905081565b600062000e3a62001cbb565b6000546001600160a01b0390811691161462000e8c576040805162461bcd60e51b8152602060048201819052602482015260008051602062003b0a833981519152604482015290519081900360640190fd5b600054600160a01b900460ff1662000ee2576040805162461bcd60e51b815260206004820152601460248201527314185d5cd8589b194e881b9bdd081c185d5cd95960621b604482015290519081900360640190fd5b62000b6662001cbf565b60048060105460ff16600481111562000f0157fe5b1462000f3f5760405162461bcd60e51b815260040180806020018281038252602681526020018062003b2a6026913960400191505060405180910390fd5b600054600160a01b900460ff161562000f92576040805162461bcd60e51b815260206004820152601060248201526f14185d5cd8589b194e881c185d5cd95960821b604482015290519081900360640190fd5b600054600160a81b900460ff1662000ff1576040805162461bcd60e51b815260206004820152601f60248201527f5265656e7472616e637947756172643a207265656e7472616e742063616c6c00604482015290519081900360640190fd5b6000805460ff60a81b191681553381526019602052604090205460ff161562001055576040805162461bcd60e51b815260206004820152601160248201527020b63932b0b23c903bb4ba34323930bbb760791b604482015290519081900360640190fd5b336000908152601960205260409020805460ff19166001179055601b5460ff166200108a576200108462001d6a565b62001094565b6200109462001dc4565b6200109e62001dd0565b506000805460ff60a81b1916600160a81b179055565b60085481565b601b5460ff1681565b600f5481565b60028060105460ff166004811115620010de57fe5b146200111c5760405162461bcd60e51b815260040180806020018281038252602681526020018062003b2a6026913960400191505060405180910390fd5b600054600160a01b900460ff16156200116f576040805162461bcd60e51b815260206004820152601060248201526f14185d5cd8589b194e881c185d5cd95960821b604482015290519081900360640190fd5b6200117b838362001f67565b620011873383620021c1565b620011928262002295565b505050565b60095481565b60075481565b60156020526000908152604090205481565b600054600160a01b900460ff1690565b620011cf62001cbb565b6000546001600160a01b0390811691161462001221576040805162461bcd60e51b8152602060048201819052602482015260008051602062003b0a833981519152604482015290519081900360640190fd5b60008060105460ff1660048111156200123657fe5b14620012745760405162461bcd60e51b815260040180806020018281038252602681526020018062003b2a6026913960400191505060405180910390fd5b600d8054600181018255600091909152620012b3907fd7b6990105719101dabeb77144f2a3385c8033acd3af97e9423a695e81ad1eb501868662002646565b5060008383604051620012c690620026cb565b6020808252810182905280604081018484808284376000838201819052604051601f909201601f1916909301819003965094509092505050f08015801562001312573d6000803e3d6000fd5b50600e8054600180820183556000929092527fbb7b4a454dc3493923482f07822329ed19e8244eff582cc204f8554c3620c3fd0180546001600160a01b0319166001600160a01b0384161790556005549192506200137191906200230f565b6005819055600f541415620013be5760105460ff1660048111156200139257fe5b6001016004811115620013a157fe5b6010805460ff19166001836004811115620013b857fe5b02179055505b505050505050565b620013d062001cbb565b6000546001600160a01b0390811691161462001422576040805162461bcd60e51b8152602060048201819052602482015260008051602062003b0a833981519152604482015290519081900360640190fd5b600080546040516001600160a01b03909116907f8be0079c531659141344cd1fd0a4f28419497f9722a3daafe3b4186f6b6457e0908390a3600080546001600160a01b0319169055565b600c805460408051602060026001851615610100026000190190941693909304601f8101849004840282018401909252818152929183018282801562000d205780601f1062000cf45761010080835404028352916020019162000d20565b60065481565b6000620014dc62001cbb565b6000546001600160a01b039081169116146200152e576040805162461bcd60e51b8152602060048201819052602482015260008051602062003b0a833981519152604482015290519081900360640190fd5b600054600160a01b900460ff161562001581576040805162461bcd60e51b815260206004820152601060248201526f14185d5cd8589b194e881c185d5cd95960821b604482015290519081900360640190fd5b62000b666200236a565b6000546001600160a01b031690565b60196020526000908152604090205460ff1681565b620015b962001cbb565b6000546001600160a01b039081169116146200160b576040805162461bcd60e51b8152602060048201819052602482015260008051602062003b0a833981519152604482015290519081900360640190fd5b62001192600c838362002646565b601a5481565b6000600460105460ff1660048111156200163557fe5b141562001646575060065462000b66565b6200165062000aae565b905062000b66565b33600090815260136020526040812054819015620016df5760006200167c62000aae565b905060006200169960175460165462001b6290919063ffffffff16565b90508015620016dc5733600090815260136020526040902054620016d9908290620016cc90859063ffffffff620023fb16565b9063ffffffff6200245916565b92505b50505b905090565b6002546001600160a01b031681565b60055481565b600080600e83815481106200170a57fe5b6000918252602080832090910154604080516370a0823160e01b815233600482015290516001600160a01b039092169450839285926370a08231926024808201939291829003018186803b1580156200176257600080fd5b505afa15801562001777573d6000803e3d6000fd5b505050506040513d60208110156200178e57600080fd5b505190508015620017fb576000620017a562000aae565b60008781526014602090815260408083205460129092528220549293509091620017d59163ffffffff62001b6216565b90508015620017f857620017f581620016cc848663ffffffff620023fb16565b93505b50505b509392505050565b600b5481565b6004546001600160a01b031681565b60165481565b60105460ff1681565b60146020526000908152604090205481565b60136020526000908152604090205481565b60175481565b600e818154811062000e1457fe5b6003546001600160a01b031681565b600054600160a01b900460ff1615620018c1576040805162461bcd60e51b815260206004820152601060248201526f14185d5cd8589b194e881c185d5cd95960821b604482015290519081900360640190fd5b600160105460ff166004811115620018d557fe5b148015620018e4575042600754105b806200190e5750600260105460ff166004811115620018ff57fe5b1480156200190e575042600954105b806200193a5750600360105460ff1660048111156200192957fe5b1480156200193a5750601a54604514155b1562000e0457600160105460ff1660048111156200195457fe5b14156200196057426008555b600360105460ff1660048111156200197457fe5b141562001989576200198562000aae565b6006555b60105460ff1660048111156200199b57fe5b6001016004811115620019aa57fe5b6010805460ff19166001836004811115620019c157fe5b02179055506010546040517f551dc40198cc79684bb69e4931dba4ac16e4598792ee1c0a5000aeea366d7bb69160ff16908082600481111562001a0057fe5b60ff16815260200191505060405180910390a1565b62001a1f62001cbb565b6000546001600160a01b0390811691161462001a71576040805162461bcd60e51b8152602060048201819052602482015260008051602062003b0a833981519152604482015290519081900360640190fd5b6001600160a01b03811662001ab85760405162461bcd60e51b815260040180806020018281038252602681526020018062003ac36026913960400191505060405180910390fd5b600080546040516001600160a01b03808516939216917f8be0079c531659141344cd1fd0a4f28419497f9722a3daafe3b4186f6b6457e091a3600080546001600160a01b0319166001600160a01b0392909216919091179055565b6001546001600160a01b031681565b6011602052816000526040600020818154811062001b3c57fe5b600091825260209091206002909102018054600190910154909250905082565b60185490565b600062001ba683836040518060400160405280601e81526020017f536166654d6174683a207375627472616374696f6e206f766572666c6f7700008152506200249d565b90505b92915050565b60048054600b5460408051633fc6a14f60e11b815293840191909152516000926001600160a01b0390921691637f8d429e916024808301926020929190829003018186803b15801562001c0157600080fd5b505afa15801562001c16573d6000803e3d6000fd5b505050506040513d602081101562001c2d57600080fd5b5051905090565b60048054600b546040805163684e62bf60e11b8152938401919091525160009283926001600160a01b03169163d09cc57e91602480820192602092909190829003018186803b15801562001c8757600080fd5b505afa15801562001c9c573d6000803e3d6000fd5b505050506040513d602081101562001cb357600080fd5b505191505090565b3390565b600054600160a01b900460ff1662001d15576040805162461bcd60e51b815260206004820152601460248201527314185d5cd8589b194e881b9bdd081c185d5cd95960621b604482015290519081900360640190fd5b6000805460ff60a01b191690557f5db9ee0a495bf2e6ff9c91a7834c1ba4fdd244a5e8aa4e537bd38aeae4b073aa62001d4d62001cbb565b604080516001600160a01b039092168252519081900360200190a1565b600062001d79601a54620016f9565b336000908152601360205260408120549192509062001da090839063ffffffff6200230f16565b9050801562001dc05762001db48162002538565b62001dc0338262002586565b5050565b600062001d7962001658565b6000805b600f5481101562001f32576000600e828154811062001def57fe5b6000918252602080832090910154604080516370a0823160e01b815233600482015290516001600160a01b03909216945084926370a0823192602480840193829003018186803b15801562001e4357600080fd5b505afa15801562001e58573d6000803e3d6000fd5b505050506040513d602081101562001e6f57600080fd5b50519050801562001f275762001e8c848263ffffffff6200230f16565b60008481526014602052604090205490945062001eb0908263ffffffff6200230f16565b600084815260146020526040808220929092558151632770a7eb60e21b81523360048201526024810184905291516001600160a01b03851692639dc29fac92604480830193919282900301818387803b15801562001f0d57600080fd5b505af115801562001f22573d6000803e3d6000fd5b505050505b505060010162001dd4565b5033600090815260136020526040902054811462001f4c57fe5b60175462001f61908263ffffffff6200230f16565b60175550565b62001f71620026d9565b81815242602080830191825260008581526011825260408120805460018181018355918352928220855160029094020192835592519190920155600e80548590811062001fba57fe5b60009182526020918290200154604080516370a0823160e01b815233600482015290516001600160a01b03909216935083926370a0823192602480840193829003018186803b1580156200200d57600080fd5b505afa15801562002022573d6000803e3d6000fd5b505050506040513d60208110156200203957600080fd5b5051620020ae576018805460018181019092557fb13d2d76d1f4b7be834882e410b3e3a8afaf69f83600ae24db354391d2378d2e0180546001600160a01b031916331790556000858152601560205260409020546200209e9163ffffffff6200230f16565b6000858152601560205260409020555b60405133907fef3b3ae531a4f494c95e537ec1fe385cfe5c1146cb4c1d850b24bad38595804990600090a2604080516340c10f1960e01b81523360048201526024810185905290516001600160a01b038316916340c10f1991604480830192600092919082900301818387803b1580156200212857600080fd5b505af11580156200213d573d6000803e3d6000fd5b505060165462002157925090508463ffffffff6200230f16565b6016556000848152601260205260409020546200217b908463ffffffff6200230f16565b600085815260126020908152604080832093909355338252601390522054620021ab908463ffffffff6200230f16565b3360009081526013602052604090205550505050565b600154604080516323b872dd60e01b81526001600160a01b03858116600483015230602483015260448201859052915191909216916323b872dd9160648083019260209291908290030181600087803b1580156200221e57600080fd5b505af115801562002233573d6000803e3d6000fd5b505050506040513d60208110156200224a57600080fd5b505162001dc0576040805162461bcd60e51b815260206004820152601460248201527310d85cda081d1c985b9cd9995c8819985a5b195960621b604482015290519081900360640190fd5b60035460015460408051636968703360e11b81526001600160a01b039283166004820152602481018590526000604482018190529151929093169263d2d0e066926064808301939282900301818387803b158015620022f357600080fd5b505af115801562002308573d6000803e3d6000fd5b5050505050565b60008282018381101562001ba6576040805162461bcd60e51b815260206004820152601b60248201527f536166654d6174683a206164646974696f6e206f766572666c6f770000000000604482015290519081900360640190fd5b600054600160a01b900460ff1615620023bd576040805162461bcd60e51b815260206004820152601060248201526f14185d5cd8589b194e881c185d5cd95960821b604482015290519081900360640190fd5b6000805460ff60a01b1916600160a01b1790557f62e78cea01bee320cd4e420270b5ea74000d11b0c9f74754ebdbfc544b05a25862001d4d62001cbb565b6000826200240c5750600062001ba9565b828202828482816200241a57fe5b041462001ba65760405162461bcd60e51b815260040180806020018281038252602181526020018062003ae96021913960400191505060405180910390fd5b600062001ba683836040518060400160405280601a81526020017f536166654d6174683a206469766973696f6e206279207a65726f000000000000815250620025dd565b60008184841115620025305760405162461bcd60e51b81526004018080602001828103825283818151815260200191508051906020019080838360005b83811015620024f4578181015183820152602001620024da565b50505050905090810190601f168015620025225780820380516001836020036101000a031916815260200191505b509250505060405180910390fd5b505050900390565b6002546040805163db006a7560e01b81526004810184905290516001600160a01b039092169163db006a759160248082019260009290919082900301818387803b158015620022f357600080fd5b6001546040805163a9059cbb60e01b81526001600160a01b038581166004830152602482018590529151919092169163a9059cbb9160448083019260209291908290030181600087803b1580156200221e57600080fd5b600081836200262f5760405162461bcd60e51b8152602060048201818152835160248401528351909283926044909101919085019080838360008315620024f4578181015183820152602001620024da565b5060008385816200263c57fe5b0495945050505050565b828054600181600116156101000203166002900490600052602060002090601f016020900481019282601f10620026895782800160ff19823516178555620026b9565b82800160010185558215620026b9579182015b82811115620026b95782358255916020019190600101906200269c565b50620026c7929150620026f3565b5090565b6113b2806200271183390190565b604051806040016040528060008152602001600081525090565b62000b6691905b80821115620026c75760008155600101620026fa56fe60806040523480156200001157600080fd5b50604051620013b2380380620013b2833981810160405260208110156200003757600080fd5b81019080805160405193929190846401000000008211156200005857600080fd5b9083019060208201858111156200006e57600080fd5b82516401000000008111828201881017156200008957600080fd5b82525081516020918201929091019080838360005b83811015620000b85781810151838201526020016200009e565b50505050905090810190601f168015620000e65780820380516001836020036101000a031916815260200191505b5060408181019052600281526126a160f11b60208083019190915285518695509193506200011c925060039190850190620001b9565b50805162000132906004906020840190620001b9565b50506005805460ff19166012179055506000620001576001600160e01b03620001b416565b60058054610100600160a81b0319166101006001600160a01b03841690810291909117909155604051919250906000907f8be0079c531659141344cd1fd0a4f28419497f9722a3daafe3b4186f6b6457e0908290a350506200025b565b335b90565b828054600181600116156101000203166002900490600052602060002090601f016020900481019282601f10620001fc57805160ff19168380011785556200022c565b828001600101855582156200022c579182015b828111156200022c5782518255916020019190600101906200020f565b506200023a9291506200023e565b5090565b620001b691905b808211156200023a576000815560010162000245565b611147806200026b6000396000f3fe6080604052600436106100f75760003560e01c8063715018a61161008a578063a457c2d711610059578063a457c2d7146103a5578063a9059cbb146103de578063dd62ed3e14610417578063f2fde38b14610452576100fe565b8063715018a6146103115780638da5cb5b1461032657806395d89b41146103575780639dc29fac1461036c576100fe565b8063313ce567116100c6578063313ce56714610241578063395093511461026c57806340c10f19146102a557806370a08231146102de576100fe565b806306fdde0314610100578063095ea7b31461018a57806318160ddd146101d757806323b872dd146101fe576100fe565b366100fe57005b005b34801561010c57600080fd5b50610115610485565b6040805160208082528351818301528351919283929083019185019080838360005b8381101561014f578181015183820152602001610137565b50505050905090810190601f16801561017c5780820380516001836020036101000a031916815260200191505b509250505060405180910390f35b34801561019657600080fd5b506101c3600480360360408110156101ad57600080fd5b506001600160a01b03813516906020013561051b565b604080519115158252519081900360200190f35b3480156101e357600080fd5b506101ec610538565b60408051918252519081900360200190f35b34801561020a57600080fd5b506101c36004803603606081101561022157600080fd5b506001600160a01b0381358116916020810135909116906040013561053e565b34801561024d57600080fd5b506102566105cb565b6040805160ff9092168252519081900360200190f35b34801561027857600080fd5b506101c36004803603604081101561028f57600080fd5b506001600160a01b0381351690602001356105d4565b3480156102b157600080fd5b506100fe600480360360408110156102c857600080fd5b506001600160a01b038135169060200135610628565b3480156102ea57600080fd5b506101ec6004803603602081101561030157600080fd5b50356001600160a01b0316610693565b34801561031d57600080fd5b506100fe6106ae565b34801561033257600080fd5b5061033b61075b565b604080516001600160a01b039092168252519081900360200190f35b34801561036357600080fd5b5061011561076f565b34801561037857600080fd5b506100fe6004803603604081101561038f57600080fd5b506001600160a01b0381351690602001356107d0565b3480156103b157600080fd5b506101c3600480360360408110156103c857600080fd5b506001600160a01b038135169060200135610837565b3480156103ea57600080fd5b506101c36004803603604081101561040157600080fd5b506001600160a01b0381351690602001356108a5565b34801561042357600080fd5b506101ec6004803603604081101561043a57600080fd5b506001600160a01b03813581169160200135166108b9565b34801561045e57600080fd5b506100fe6004803603602081101561047557600080fd5b50356001600160a01b03166108e4565b60038054604080516020601f60026000196101006001881615020190951694909404938401819004810282018101909252828152606093909290918301828280156105115780601f106104e657610100808354040283529160200191610511565b820191906000526020600020905b8154815290600101906020018083116104f457829003601f168201915b5050505050905090565b600061052f6105286109ed565b84846109f1565b50600192915050565b60025490565b600061054b848484610add565b6105c1846105576109ed565b6105bc8560405180606001604052806028815260200161103b602891396001600160a01b038a166000908152600160205260408120906105956109ed565b6001600160a01b03168152602081019190915260400160002054919063ffffffff610c4416565b6109f1565b5060019392505050565b60055460ff1690565b600061052f6105e16109ed565b846105bc85600160006105f26109ed565b6001600160a01b03908116825260208083019390935260409182016000908120918c16815292529020549063ffffffff610cdb16565b6106306109ed565b60055461010090046001600160a01b03908116911614610685576040805162461bcd60e51b81526020600482018190526024820152600080516020611063833981519152604482015290519081900360640190fd5b61068f8282610d3c565b5050565b6001600160a01b031660009081526020819052604090205490565b6106b66109ed565b60055461010090046001600160a01b0390811691161461070b576040805162461bcd60e51b81526020600482018190526024820152600080516020611063833981519152604482015290519081900360640190fd5b60055460405160009161010090046001600160a01b0316907f8be0079c531659141344cd1fd0a4f28419497f9722a3daafe3b4186f6b6457e0908390a360058054610100600160a81b0319169055565b60055461010090046001600160a01b031690565b60048054604080516020601f60026000196101006001881615020190951694909404938401819004810282018101909252828152606093909290918301828280156105115780601f106104e657610100808354040283529160200191610511565b6107d86109ed565b60055461010090046001600160a01b0390811691161461082d576040805162461bcd60e51b81526020600482018190526024820152600080516020611063833981519152604482015290519081900360640190fd5b61068f8282610e38565b600061052f6108446109ed565b846105bc856040518060600160405280602581526020016110ed602591396001600061086e6109ed565b6001600160a01b03908116825260208083019390935260409182016000908120918d1681529252902054919063ffffffff610c4416565b600061052f6108b26109ed565b8484610add565b6001600160a01b03918216600090815260016020908152604080832093909416825291909152205490565b6108ec6109ed565b60055461010090046001600160a01b03908116911614610941576040805162461bcd60e51b81526020600482018190526024820152600080516020611063833981519152604482015290519081900360640190fd5b6001600160a01b0381166109865760405162461bcd60e51b8152600401808060200182810382526026815260200180610fcd6026913960400191505060405180910390fd5b6005546040516001600160a01b0380841692610100900416907f8be0079c531659141344cd1fd0a4f28419497f9722a3daafe3b4186f6b6457e090600090a3600580546001600160a01b0390921661010002610100600160a81b0319909216919091179055565b3390565b6001600160a01b038316610a365760405162461bcd60e51b81526004018080602001828103825260248152602001806110c96024913960400191505060405180910390fd5b6001600160a01b038216610a7b5760405162461bcd60e51b8152600401808060200182810382526022815260200180610ff36022913960400191505060405180910390fd5b6001600160a01b03808416600081815260016020908152604080832094871680845294825291829020859055815185815291517f8c5be1e5ebec7d5bd14f71427d1e84f3dd0314c0f7b2291e5b200ac8c7c3b9259281900390910190a3505050565b6001600160a01b038316610b225760405162461bcd60e51b81526004018080602001828103825260258152602001806110a46025913960400191505060405180910390fd5b6001600160a01b038216610b675760405162461bcd60e51b8152600401808060200182810382526023815260200180610f886023913960400191505060405180910390fd5b610b72838383610f40565b610bb581604051806060016040528060268152602001611015602691396001600160a01b038616600090815260208190526040902054919063ffffffff610c4416565b6001600160a01b038085166000908152602081905260408082209390935590841681522054610bea908263ffffffff610cdb16565b6001600160a01b038084166000818152602081815260409182902094909455805185815290519193928716927fddf252ad1be2c89b69c2b068fc378daa952ba7f163c4a11628f55a4df523b3ef92918290030190a3505050565b60008184841115610cd35760405162461bcd60e51b81526004018080602001828103825283818151815260200191508051906020019080838360005b83811015610c98578181015183820152602001610c80565b50505050905090810190601f168015610cc55780820380516001836020036101000a031916815260200191505b509250505060405180910390fd5b505050900390565b600082820183811015610d35576040805162461bcd60e51b815260206004820152601b60248201527f536166654d6174683a206164646974696f6e206f766572666c6f770000000000604482015290519081900360640190fd5b9392505050565b6001600160a01b038216610d97576040805162461bcd60e51b815260206004820152601f60248201527f45524332303a206d696e7420746f20746865207a65726f206164647265737300604482015290519081900360640190fd5b610da360008383610f40565b600254610db6908263ffffffff610cdb16565b6002556001600160a01b038216600090815260208190526040902054610de2908263ffffffff610cdb16565b6001600160a01b0383166000818152602081815260408083209490945583518581529351929391927fddf252ad1be2c89b69c2b068fc378daa952ba7f163c4a11628f55a4df523b3ef9281900390910190a35050565b6001600160a01b038216610e7d5760405162461bcd60e51b81526004018080602001828103825260218152602001806110836021913960400191505060405180910390fd5b610e8982600083610f40565b610ecc81604051806060016040528060228152602001610fab602291396001600160a01b038516600090815260208190526040902054919063ffffffff610c4416565b6001600160a01b038316600090815260208190526040902055600254610ef8908263ffffffff610f4516565b6002556040805182815290516000916001600160a01b038516917fddf252ad1be2c89b69c2b068fc378daa952ba7f163c4a11628f55a4df523b3ef9181900360200190a35050565b505050565b6000610d3583836040518060400160405280601e81526020017f536166654d6174683a207375627472616374696f6e206f766572666c6f770000815250610c4456fe45524332303a207472616e7366657220746f20746865207a65726f206164647265737345524332303a206275726e20616d6f756e7420657863656564732062616c616e63654f776e61626c653a206e6577206f776e657220697320746865207a65726f206164647265737345524332303a20617070726f766520746f20746865207a65726f206164647265737345524332303a207472616e7366657220616d6f756e7420657863656564732062616c616e636545524332303a207472616e7366657220616d6f756e74206578636565647320616c6c6f77616e63654f776e61626c653a2063616c6c6572206973206e6f7420746865206f776e657245524332303a206275726e2066726f6d20746865207a65726f206164647265737345524332303a207472616e736665722066726f6d20746865207a65726f206164647265737345524332303a20617070726f76652066726f6d20746865207a65726f206164647265737345524332303a2064656372656173656420616c6c6f77616e63652062656c6f77207a65726fa264697066735822122061d79501a92a326734bdbff920e8494e88e057aa50f9760d826ee10c39922e3464736f6c634300060800334f776e61626c653a206e6577206f776e657220697320746865207a65726f2061646472657373536166654d6174683a206d756c7469706c69636174696f6e206f766572666c6f774f776e61626c653a2063616c6c6572206973206e6f7420746865206f776e657266756e6374696f6e2063616e6e6f742062652063616c6c656420617420746869732074696d65a2646970667358221220bded1bac3d73fbce70574d791d8c59b2e51fd74692f56af666cd7f092dd7800064736f6c634300060800334f776e61626c653a206e6577206f776e657220697320746865207a65726f20616464726573738be0079c531659141344cd1fd0a4f28419497f9722a3daafe3b4186f6b6457e0",
  "immutableReferences": {},
  "source": "//SPDX-License-Identifier: UNLICENSED\npragma solidity 0.6.8;\n\nimport '@nomiclabs/buidler/console.sol';\nimport '@openzeppelin/contracts/math/SafeMath.sol';\nimport '@openzeppelin/contracts/utils/ReentrancyGuard.sol';\nimport '@openzeppelin/contracts/utils/Pausable.sol';\nimport '@openzeppelin/contracts/access/Ownable.sol';\nimport './interfaces/IAave.sol';\nimport './interfaces/IDai.sol';\nimport './interfaces/IRealitio.sol';\nimport './Token.sol';\n\n\ncontract BTMarket is Ownable, Pausable, ReentrancyGuard {\n    using SafeMath for uint256;\n\n    ////////////////////////////////////\n    //////// VARIABLES /////////////////\n    ////////////////////////////////////\n\n    //////// Externals ////////\n    Dai public dai;\n    IaToken public aToken;\n    IAaveLendingPool public aaveLendingPool;\n    IRealitio public realitio;\n\n    //////// Setup ////////\n    uint256 public tokenContractsCreated;\n\n    //////// Market Details ////////\n    uint256 public maxInterest; //for the front end\n    uint256 public marketOpeningTime; // when the market can opened for bets\n    uint256 public marketOpeningTimeActual; //when the market is actually opened\n    uint256 public marketLockingTime; // when the market is no longer open for bets\n    uint32 public marketResolutionTime; // the time the realitio market is able to be answered, uint32 cos Realitio needs it\n    bytes32 public questionId; // the question ID of the question on realitio\n    string public eventName;\n    string[] public outcomeNames;\n    Token[] public tokenAddresses;\n    uint256 public numberOfOutcomes;\n    enum States {SETUP, WAITING, OPEN, LOCKED, WITHDRAW}\n    States public state;\n\n    //////// Betting variables ////////\n    mapping(uint256 => betStruct[]) public betsTracker;\n    mapping(uint256 => uint256) public totalBetsPerOutcome;\n    mapping(address => uint256) public totalBetsPerUser;\n    mapping(uint256 => uint256) public betsWithdrawnPerOutcome;\n    mapping(uint256 => uint256) public usersPerOutcome;\n    uint256 public totalBets;\n    uint256 public betsWithdrawn;\n    address[] public participants;\n    struct betStruct {\n        uint256 daiBet;\n        uint256 timestamp;\n    }\n\n    //////// Market resolution variables ////////\n    mapping(address => bool) public withdrawnBool; //so participants can only withdraw once\n    uint256 public winningOutcome = 69; // start with incorrect winning outcome\n    bool public questionResolvedInvalid = true; // default to true\n\n    ////////////////////////////////////\n    //////// CONSTRUCTOR ///////////////\n    ////////////////////////////////////\n    constructor(\n        Dai _daiAddress,\n        IaToken _aTokenAddress,\n        IAaveLendingPool _aaveLpAddress,\n        IAaveLendingPoolCore _aaveLpcoreAddress,\n        IRealitio _realitioAddress,\n        string memory _eventName,\n        uint256[3] memory _marketTimes,\n        uint32 _timeout, // how long realitio waits for a dispute before confirming an answer\n        address _arbitrator,\n        string memory _realitioQuestion,\n        uint256 _numberOfOutcomes,\n        address _owner\n    ) public {\n        if (_owner != msg.sender) {\n            transferOwnership(_owner);\n        }\n        // Externals\n        dai = _daiAddress;\n        aToken = _aTokenAddress;\n        aaveLendingPool = _aaveLpAddress;\n        realitio = _realitioAddress;\n\n        // Approvals\n        dai.approve(address(_aaveLpcoreAddress), 2**255);\n\n        // Pass arguments to public variables\n        eventName = _eventName;\n        marketOpeningTime = _marketTimes[0];\n        marketLockingTime = _marketTimes[1];\n        marketResolutionTime = uint32(_marketTimes[2]);\n        numberOfOutcomes = _numberOfOutcomes;\n\n        // Create the question on Realitio\n        uint256 _templateId = 2;\n        uint256 _nonce = now; // <- should probably change this to zero for mainnet\n        questionId = _postQuestion(_templateId, _realitioQuestion, _arbitrator, _timeout, marketResolutionTime, _nonce);\n    }\n\n    ////////////////////////////////////\n    //////// EVENTS ////////////////////\n    ////////////////////////////////////\n    event ParticipantEntered(address indexed participant);\n    event ParticipantWithdrawn(address indexed participant);\n    event StateChanged(States state);\n    event WinnerSelected(address indexed winner);\n\n    ////////////////////////////////////\n    //////// INITIAL SETUP /////////////\n    ////////////////////////////////////\n    // you cannot pass an array of strings as an argument\n    // string manipulation is also difficult, so it is not easy to parse the relevant\n    // ... info from the _realitioQuestion string. So, manually set this info\n    // probably redundant, the front end can store this, just adding in case\n\n    function setEventName(string calldata _eventName) external onlyOwner {\n        eventName = _eventName;\n    }\n\n    function createTokenContract(string calldata _outcomeName, string calldata _tokenName)\n        external\n        onlyOwner\n        checkState(States.SETUP)\n    {\n        outcomeNames.push(_outcomeName);\n        Token tokenContract = new Token({_tokenName: _tokenName});\n        tokenAddresses.push(tokenContract);\n        tokenContractsCreated = tokenContractsCreated.add(1);\n        if (tokenContractsCreated == numberOfOutcomes) {\n            state = States(uint256(state) + 1);\n        }\n    }\n\n    ////////////////////////////////////\n    //////// MODIFIERS /////////////////\n    ////////////////////////////////////\n    modifier checkState(States currentState) {\n        require(state == currentState, 'function cannot be called at this time');\n        _;\n    }\n\n    ////////////////////////////////////\n    ////////// VIEW FUNCTIONS //////////\n    ////////////////////////////////////\n    function getMarketSize() public view returns (uint256) {\n        return participants.length;\n    }\n\n    function getParticipantsBet(uint256 _outcome) public view returns (uint256) {\n        Token _token = Token(tokenAddresses[_outcome]);\n        return _token.balanceOf(msg.sender);\n    }\n\n    function getMaxTotalInterest() public view returns (uint256) {\n        if (state == States.WITHDRAW) {\n            return maxInterest;\n        } else {\n            return getTotalInterest();\n        }\n    }\n\n    function getTotalInterest() public view returns (uint256) {\n        uint256 _remainingBet = totalBets.sub(betsWithdrawn);\n        uint256 _totalAdaibalances = aToken.balanceOf(address(this));\n        uint256 _totalInterest = _totalAdaibalances.sub(_remainingBet);\n        return _totalInterest;\n    }\n\n    /// @dev Returns total winnings for a participant based on current accumulated interest\n    /// @dev ... and assuming the passed _outcome wins.\n    function getWinnings(uint256 _winningOutcome) public view returns (uint256) {\n        Token _token = Token(tokenAddresses[_winningOutcome]);\n        uint256 _winnings;\n        uint256 _userBetOnWinningOutcome = _token.balanceOf(msg.sender);\n        if (_userBetOnWinningOutcome > 0) {\n            uint256 _totalInterest = getTotalInterest();\n            uint256 _totalRemainingBetsOnWinningOutcome = totalBetsPerOutcome[_winningOutcome].sub(\n                betsWithdrawnPerOutcome[_winningOutcome]\n            );\n            if (_totalRemainingBetsOnWinningOutcome > 0) {\n                _winnings = (_totalInterest.mul(_userBetOnWinningOutcome)).div(_totalRemainingBetsOnWinningOutcome);\n            }\n        }\n        return _winnings;\n    }\n\n    /// @dev if invalid outcome, simply pay out interest in proportion to bets across all tokenAddresses\n    /// @dev i.e. as if all the outcomes 'won'\n    function getWinningsInvalid() public view returns (uint256) {\n        uint256 _winningsInvalid;\n        if (totalBetsPerUser[msg.sender] > 0) {\n            uint256 _totalInterest = getTotalInterest();\n            uint256 _totalRemainingBets = totalBets.sub(betsWithdrawn);\n            if (_totalRemainingBets > 0) {\n                _winningsInvalid = (_totalInterest.mul(totalBetsPerUser[msg.sender])).div(_totalRemainingBets);\n            }\n        }\n        return _winningsInvalid;\n    }\n\n    // need the interest rate for this\n    // function getEstimatedReturn(uint _outcome) returns (uint) {\n    //     uint _timeLocked = marketResolutionTime.\n    // }\n\n    ////////////////////////////////////\n    //////// REALIITO FUNCTIONS ////////\n    ////////////////////////////////////\n\n    /// @notice posts the question to realit.io\n    function _postQuestion(\n        uint256 template_id,\n        string memory question,\n        address arbitrator,\n        uint32 timeout,\n        uint32 opening_ts,\n        uint256 nonce\n    ) internal returns (bytes32) {\n        return realitio.askQuestion(template_id, question, arbitrator, timeout, opening_ts, nonce);\n    }\n\n    /// @notice gets the winning outcome from realitio\n    /// @dev this function call will revert if it has not yet resolved\n    function _determineWinner() internal view returns (uint256) {\n        bytes32 _winningOutcome = realitio.resultFor(questionId);\n        return uint256(_winningOutcome);\n    }\n\n    /// @notice has the question been finalized on realitio?\n    function _isQuestionFinalized() internal view returns (bool) {\n        return realitio.isFinalized(questionId);\n    }\n\n    ////////////////////////////////////\n    /////// EXTERNAL DAI CALLS /////////\n    ////////////////////////////////////\n\n    /// @notice common function for all outgoing DAI transfers\n    function _sendCash(address _to, uint256 _amount) internal {\n        require(dai.transfer(_to, _amount), 'Cash transfer failed');\n    }\n\n    /// @notice common function for all incoming DAI transfers\n    function _receiveCash(address _from, uint256 _amount) internal {\n        require(dai.transferFrom(_from, address(this), _amount), 'Cash transfer failed');\n    }\n\n    /// @notice mints Dai, will only work on a testnet\n    function _mintCash(uint256 _amount) internal {\n        dai.mint(_amount);\n    }\n\n    ////////////////////////////////////\n    /////// EXTERNAL AAVE CALLS ////////\n    ////////////////////////////////////\n\n    /// @notice swap Dai for aDai\n    function _sendToAave(uint256 _dai) internal {\n        aaveLendingPool.deposit(address(dai), _dai, 0);\n    }\n\n    /// @notice swap aDai for Dai\n    function _redeemFromAave(uint256 _dai) internal {\n        aToken.redeem(_dai);\n    }\n\n    ////////////////////////////////////\n    //////// EXTERNAL FUNCTIONS ////////\n    ////////////////////////////////////\n\n    function placeBet(uint256 _outcome, uint256 _dai) external virtual checkState(States.OPEN) whenNotPaused {\n        _placeBet(_outcome, _dai);\n        _receiveCash(msg.sender, _dai);\n        _sendToAave(_dai);\n    }\n\n    function determineWinner() external whenNotPaused {\n        require(_isQuestionFinalized(), 'Oracle has not finalised');\n        winningOutcome = _determineWinner();\n        if (winningOutcome != ((2**256) - 1)) {\n            questionResolvedInvalid = false;\n        }\n        incrementState();\n    }\n\n    // keep this public as it's called by determineWinner\n    // not onlyOwner, can be called by anyone, this is fine\n    function incrementState() public whenNotPaused {\n        if (\n            ((state == States.WAITING) && (marketOpeningTime < now)) ||\n            ((state == States.OPEN) && (marketLockingTime < now)) ||\n            ((state == States.LOCKED) && (winningOutcome != 69))\n        ) {\n            if (state == States.WAITING) {\n                marketOpeningTimeActual = now;\n            }\n            if (state == States.LOCKED) {\n                maxInterest = getTotalInterest();\n            }\n            state = States(uint256(state) + 1);\n            emit StateChanged(state);\n        }\n    }\n\n    /// @dev change state to WITHDRAW to lock contract and return all funds\n    /// @dev in case Oracle never resolves\n    function circuitBreaker() external {\n        require(now > (marketResolutionTime + 4 weeks), 'Too early');\n        questionResolvedInvalid = true;\n        state = States.WITHDRAW;\n    }\n\n    function withdraw() external checkState(States.WITHDRAW) whenNotPaused nonReentrant {\n        require(!withdrawnBool[msg.sender], 'Already withdrawn');\n        withdrawnBool[msg.sender] = true;\n        if (!questionResolvedInvalid) {\n            _payoutWinnings();\n        } else {\n            _payoutWinningsInvalid();\n        }\n        _burnUsersTokens();\n    }\n\n    ////////////////////////////////////\n    //////// INTERNAL FUNCTIONS ////////\n    ////////////////////////////////////\n    function _payoutWinnings() internal {\n        uint256 _winnings = getWinnings(winningOutcome);\n        uint256 _daiToSend = _winnings.add(totalBetsPerUser[msg.sender]);\n        // externals\n        if (_daiToSend > 0) {\n            _redeemFromAave(_daiToSend);\n            _sendCash(msg.sender, _daiToSend);\n        }\n    }\n\n    function _payoutWinningsInvalid() internal {\n        uint256 _winningsInvalid = getWinningsInvalid();\n        uint256 _daiToSend = _winningsInvalid.add(totalBetsPerUser[msg.sender]);\n        // externals\n        if (_daiToSend > 0) {\n            _redeemFromAave(_daiToSend);\n            _sendCash(msg.sender, _daiToSend);\n        }\n    }\n\n    function _placeBet(uint256 _outcome, uint256 _dai) internal {\n        betStruct memory _bet;\n        _bet.daiBet = _dai;\n        _bet.timestamp = now;\n        betsTracker[_outcome].push(_bet);\n        Token _token = Token(tokenAddresses[_outcome]);\n        if (_token.balanceOf(msg.sender) == 0) {\n            participants.push(msg.sender);\n            usersPerOutcome[_outcome] = usersPerOutcome[_outcome].add(1);\n        }\n        emit ParticipantEntered(msg.sender);\n        _token.mint(msg.sender, _dai);\n        totalBets = totalBets.add(_dai);\n        totalBetsPerOutcome[_outcome] = totalBetsPerOutcome[_outcome].add(_dai);\n        totalBetsPerUser[msg.sender] = totalBetsPerUser[msg.sender].add(_dai);\n    }\n\n    function _burnUsersTokens() internal {\n        uint256 _userBetsAllOutcomes;\n        for (uint256 i = 0; i < numberOfOutcomes; i++) {\n            Token _token = Token(tokenAddresses[i]);\n            uint256 _userBetThisOutcome = _token.balanceOf(msg.sender);\n            if (_userBetThisOutcome > 0) {\n                _userBetsAllOutcomes = _userBetsAllOutcomes.add(_userBetThisOutcome);\n                betsWithdrawnPerOutcome[i] = betsWithdrawnPerOutcome[i].add(_userBetThisOutcome);\n                _token.burn(msg.sender, _userBetThisOutcome);\n            }\n        }\n        assert(_userBetsAllOutcomes == totalBetsPerUser[msg.sender]);\n        betsWithdrawn = betsWithdrawn.add(_userBetsAllOutcomes);\n    }\n\n    ////////////////////////////////////\n    ///// BOILERPLATE FUNCTIONS ////////\n    ////////////////////////////////////\n    function disableContract() public onlyOwner whenNotPaused returns (bool) {\n        _pause();\n    }\n\n    function enableContract() public onlyOwner whenPaused returns (bool) {\n        _unpause();\n    }\n\n    receive() external payable {}\n\n    fallback() external payable {}\n}\n",
  "sourcePath": "/Users/brenfife/Desktop/MagicBet-Contracts/contracts/BTMarket.sol",
  "compiler": {
    "name": "solc",
    "version": "0.6.8+commit.0bbfe453.Emscripten.clang"
  },
  "schemaVersion": "3.1.0",
  "updatedAt": "2020-05-21T17:25:47.342Z",
  "devdoc": {
    "methods": {
      "circuitBreaker()": {
        "details": "change state to WITHDRAW to lock contract and return all fundsin case Oracle never resolves"
      },
      "getWinnings(uint256)": {
        "details": "Returns total winnings for a participant based on current accumulated interest... and assuming the passed _outcome wins."
      },
      "getWinningsInvalid()": {
        "details": "if invalid outcome, simply pay out interest in proportion to bets across all tokenAddressesi.e. as if all the outcomes 'won'"
      },
      "owner()": {
        "details": "Returns the address of the current owner."
      },
      "paused()": {
        "details": "Returns true if the contract is paused, and false otherwise."
      },
      "renounceOwnership()": {
        "details": "Leaves the contract without owner. It will not be possible to call `onlyOwner` functions anymore. Can only be called by the current owner.     * NOTE: Renouncing ownership will leave the contract without an owner, thereby removing any functionality that is only available to the owner."
      },
      "transferOwnership(address)": {
        "details": "Transfers ownership of the contract to a new account (`newOwner`). Can only be called by the current owner."
      }
    }
  },
  "userdoc": {
    "methods": {
      "constructor": "///////////////////////////////// ///// CONSTRUCTOR /////////////// /////////////////////////////////",
      "disableContract()": {
        "notice": "///////////////////////////////// // BOILERPLATE FUNCTIONS //////// /////////////////////////////////"
      },
      "getMarketSize()": {
        "notice": "///////////////////////////////// /////// VIEW FUNCTIONS ////////// /////////////////////////////////"
      },
      "placeBet(uint256,uint256)": {
        "notice": "///////////////////////////////// ///// EXTERNAL FUNCTIONS //////// /////////////////////////////////"
      },
      "setEventName(string)": {
        "notice": "///////////////////////////////// ///// INITIAL SETUP ///////////// /////////////////////////////////"
      }
    }
  }
}