{
  "contractName": "RealitioMockup",
  "abi": [
    {
      "inputs": [
        {
          "internalType": "uint256",
          "name": "_result",
          "type": "uint256"
        }
      ],
      "name": "setResult",
      "outputs": [],
      "stateMutability": "nonpayable",
      "type": "function"
    },
    {
      "inputs": [
        {
          "internalType": "uint256",
          "name": "template_id",
          "type": "uint256"
        },
        {
          "internalType": "string",
          "name": "question",
          "type": "string"
        },
        {
          "internalType": "address",
          "name": "arbitrator",
          "type": "address"
        },
        {
          "internalType": "uint32",
          "name": "timeout",
          "type": "uint32"
        },
        {
          "internalType": "uint32",
          "name": "opening_ts",
          "type": "uint32"
        },
        {
          "internalType": "uint256",
          "name": "nonce",
          "type": "uint256"
        }
      ],
      "name": "askQuestion",
      "outputs": [
        {
          "internalType": "bytes32",
          "name": "",
          "type": "bytes32"
        }
      ],
      "stateMutability": "payable",
      "type": "function"
    },
    {
      "inputs": [
        {
          "internalType": "bytes32",
          "name": "question_id",
          "type": "bytes32"
        }
      ],
      "name": "resultFor",
      "outputs": [
        {
          "internalType": "bytes32",
          "name": "",
          "type": "bytes32"
        }
      ],
      "stateMutability": "view",
      "type": "function"
    },
    {
      "inputs": [
        {
          "internalType": "bytes32",
          "name": "question_id",
          "type": "bytes32"
        }
      ],
      "name": "isFinalized",
      "outputs": [
        {
          "internalType": "bool",
          "name": "",
          "type": "bool"
        }
      ],
      "stateMutability": "view",
      "type": "function"
    }
  ],
  "bytecode": "0x60806040526101a460005534801561001657600080fd5b50610296806100266000396000f3fe60806040526004361061003f5760003560e01c8063762c38fd146100445780637f8d429e146100f2578063812448a514610130578063d09cc57e1461015c575b600080fd5b6100e0600480360360c081101561005a57600080fd5b8135919081019060408101602082013564010000000081111561007c57600080fd5b82018360208201111561008e57600080fd5b803590602001918460018302840111640100000000831117156100b057600080fd5b91935091506001600160a01b038135169063ffffffff602082013581169160408101359091169060600135610186565b60408051918252519081900360200190f35b3480156100fe57600080fd5b5061011c6004803603602081101561011557600080fd5b50356101b2565b604080519115158252519081900360200190f35b34801561013c57600080fd5b5061015a6004803603602081101561015357600080fd5b50356101fd565b005b34801561016857600080fd5b506100e06004803603602081101561017f57600080fd5b503561021a565b7f8d293509129e26299990826db10c48241be5f59f2e4f61c0c9d550e4451e1a38979650505050505050565b60007f8d293509129e26299990826db10c48241be5f59f2e4f61c0c9d550e4451e1a3882146101e057600080fd5b6000546101a414156101f4575060006101f8565b5060015b919050565b806045141561021157600019600055610217565b60008190555b50565b600080546101a4141561022c57600080fd5b7f8d293509129e26299990826db10c48241be5f59f2e4f61c0c9d550e4451e1a38821461025857600080fd5b50506000549056fea2646970667358221220b94af9577cbaaac90d021e61d3db54e1e678f4eda9b3b9323a9622e949025ac464736f6c63430006070033",
  "immutableReferences": {},
  "source": "//SPDX-License-Identifier: UNLICENSED\r\npragma solidity >=0.4.21 <0.7.0;\r\n\r\n\r\n// this is only for ganache testing. Public chain deployments will use the existing Realitio contracts.\r\n\r\ncontract RealitioMockup {\r\n    uint256 result = 420;\r\n\r\n    function setResult(uint256 _result) public {\r\n        if (_result == 69) {\r\n            result = ((2**256) - 1);\r\n        } else {\r\n            result = _result;\r\n        }\r\n    }\r\n\r\n    function askQuestion(\r\n        uint256 template_id,\r\n        string calldata question,\r\n        address arbitrator,\r\n        uint32 timeout,\r\n        uint32 opening_ts,\r\n        uint256 nonce\r\n    ) external payable returns (bytes32) {\r\n        // to get rid of compiler warnings:\r\n        template_id;\r\n        nonce;\r\n        question;\r\n        arbitrator;\r\n        timeout;\r\n        opening_ts;\r\n        return 0x8d293509129e26299990826db10c48241be5f59f2e4f61c0c9d550e4451e1a38;\r\n    }\r\n\r\n    // 420 = not resolved\r\n    // 69 = invalid\r\n    function resultFor(bytes32 question_id) external view returns (bytes32) {\r\n        require(result != 420);\r\n        require(question_id == 0x8d293509129e26299990826db10c48241be5f59f2e4f61c0c9d550e4451e1a38);\r\n        return bytes32(result);\r\n    }\r\n\r\n    function isFinalized(bytes32 question_id) external view returns (bool) {\r\n        require(question_id == 0x8d293509129e26299990826db10c48241be5f59f2e4f61c0c9d550e4451e1a38);\r\n        if (result == 420) {\r\n            return false;\r\n        } else {\r\n            return true;\r\n        }\r\n    }\r\n}\r\n",
  "sourcePath": "C:\\Users\\mail\\Personal\\ETH-global\\BetTogether-Contracts\\contracts\\mockups\\realitioMockup.sol",
  "compiler": {
    "name": "solc",
    "version": "0.6.7+commit.b8d736ae.Emscripten.clang"
  },
  "schemaVersion": "3.2.0",
  "updatedAt": "2020-05-23T22:52:30.617Z",
  "networkType": "ethereum",
  "devdoc": {
    "methods": {}
  },
  "userdoc": {
    "methods": {}
  }
}