{
  "contractName": "TestBTMarket",
  "abi": [
    {
      "inputs": [
        {
          "internalType": "contract Dai",
          "name": "_daiAddress",
          "type": "address"
        },
        {
          "internalType": "contract IaToken",
          "name": "_aTokenAddress",
          "type": "address"
        },
        {
          "internalType": "contract IAaveLendingPool",
          "name": "_aaveLpAddress",
          "type": "address"
        },
        {
          "internalType": "contract IAaveLendingPoolCore",
          "name": "_aaveLpcoreAddress",
          "type": "address"
        },
        {
          "internalType": "contract IRealitio",
          "name": "_realitioAddress",
          "type": "address"
        },
        {
          "internalType": "string",
          "name": "_eventName",
          "type": "string"
        },
        {
          "internalType": "uint256[3]",
          "name": "_marketTimes",
          "type": "uint256[3]"
        },
        {
          "internalType": "address",
          "name": "_arbitrator",
          "type": "address"
        },
        {
          "internalType": "string",
          "name": "_realitioQuestion",
          "type": "string"
        },
        {
          "internalType": "uint256",
          "name": "_numberOfOutcomes",
          "type": "uint256"
        },
        {
          "internalType": "address",
          "name": "_owner",
          "type": "address"
        }
      ],
      "stateMutability": "nonpayable",
      "type": "constructor"
    },
    {
      "anonymous": false,
      "inputs": [
        {
          "indexed": true,
          "internalType": "address",
          "name": "previousOwner",
          "type": "address"
        },
        {
          "indexed": true,
          "internalType": "address",
          "name": "newOwner",
          "type": "address"
        }
      ],
      "name": "OwnershipTransferred",
      "type": "event"
    },
    {
      "anonymous": false,
      "inputs": [
        {
          "indexed": true,
          "internalType": "address",
          "name": "participant",
          "type": "address"
        }
      ],
      "name": "ParticipantEntered",
      "type": "event"
    },
    {
      "anonymous": false,
      "inputs": [
        {
          "indexed": true,
          "internalType": "address",
          "name": "participant",
          "type": "address"
        }
      ],
      "name": "ParticipantWithdrawn",
      "type": "event"
    },
    {
      "anonymous": false,
      "inputs": [
        {
          "indexed": false,
          "internalType": "address",
          "name": "account",
          "type": "address"
        }
      ],
      "name": "Paused",
      "type": "event"
    },
    {
      "anonymous": false,
      "inputs": [
        {
          "indexed": false,
          "internalType": "enum BTMarket.States",
          "name": "state",
          "type": "uint8"
        }
      ],
      "name": "StateChanged",
      "type": "event"
    },
    {
      "anonymous": false,
      "inputs": [
        {
          "indexed": false,
          "internalType": "address",
          "name": "account",
          "type": "address"
        }
      ],
      "name": "Unpaused",
      "type": "event"
    },
    {
      "anonymous": false,
      "inputs": [
        {
          "indexed": true,
          "internalType": "address",
          "name": "winner",
          "type": "address"
        }
      ],
      "name": "WinnerSelected",
      "type": "event"
    },
    {
      "stateMutability": "payable",
      "type": "fallback"
    },
    {
      "inputs": [],
      "name": "aToken",
      "outputs": [
        {
          "internalType": "contract IaToken",
          "name": "",
          "type": "address"
        }
      ],
      "stateMutability": "view",
      "type": "function"
    },
    {
      "inputs": [],
      "name": "aaveLendingPool",
      "outputs": [
        {
          "internalType": "contract IAaveLendingPool",
          "name": "",
          "type": "address"
        }
      ],
      "stateMutability": "view",
      "type": "function"
    },
    {
      "inputs": [],
      "name": "betsWithdrawn",
      "outputs": [
        {
          "internalType": "uint256",
          "name": "",
          "type": "uint256"
        }
      ],
      "stateMutability": "view",
      "type": "function"
    },
    {
      "inputs": [
        {
          "internalType": "uint256",
          "name": "",
          "type": "uint256"
        }
      ],
      "name": "betsWithdrawnPerOutcome",
      "outputs": [
        {
          "internalType": "uint256",
          "name": "",
          "type": "uint256"
        }
      ],
      "stateMutability": "view",
      "type": "function"
    },
    {
      "inputs": [],
      "name": "circuitBreaker",
      "outputs": [],
      "stateMutability": "nonpayable",
      "type": "function"
    },
    {
      "inputs": [
        {
          "internalType": "string",
          "name": "_outcomeName",
          "type": "string"
        },
        {
          "internalType": "string",
          "name": "_tokenName",
          "type": "string"
        }
      ],
      "name": "createTokenContract",
      "outputs": [],
      "stateMutability": "nonpayable",
      "type": "function"
    },
    {
      "inputs": [],
      "name": "dai",
      "outputs": [
        {
          "internalType": "contract Dai",
          "name": "",
          "type": "address"
        }
      ],
      "stateMutability": "view",
      "type": "function"
    },
    {
      "inputs": [],
      "name": "determineWinner",
      "outputs": [],
      "stateMutability": "nonpayable",
      "type": "function"
    },
    {
      "inputs": [],
      "name": "disableContract",
      "outputs": [
        {
          "internalType": "bool",
          "name": "",
          "type": "bool"
        }
      ],
      "stateMutability": "nonpayable",
      "type": "function"
    },
    {
      "inputs": [],
      "name": "enableContract",
      "outputs": [
        {
          "internalType": "bool",
          "name": "",
          "type": "bool"
        }
      ],
      "stateMutability": "nonpayable",
      "type": "function"
    },
    {
      "inputs": [],
      "name": "eventName",
      "outputs": [
        {
          "internalType": "string",
          "name": "",
          "type": "string"
        }
      ],
      "stateMutability": "view",
      "type": "function"
    },
    {
      "inputs": [
        {
          "internalType": "uint256",
          "name": "_outcome",
          "type": "uint256"
        }
      ],
      "name": "getBetAmountsArray",
      "outputs": [
        {
          "internalType": "uint256[]",
          "name": "",
          "type": "uint256[]"
        }
      ],
      "stateMutability": "view",
      "type": "function"
    },
    {
      "inputs": [],
      "name": "getMarketSize",
      "outputs": [
        {
          "internalType": "uint256",
          "name": "",
          "type": "uint256"
        }
      ],
      "stateMutability": "view",
      "type": "function"
    },
    {
      "inputs": [],
      "name": "getMaxTotalInterest",
      "outputs": [
        {
          "internalType": "uint256",
          "name": "",
          "type": "uint256"
        }
      ],
      "stateMutability": "view",
      "type": "function"
    },
    {
      "inputs": [
        {
          "internalType": "uint256",
          "name": "_outcome",
          "type": "uint256"
        }
      ],
      "name": "getParticipantsBet",
      "outputs": [
        {
          "internalType": "uint256",
          "name": "",
          "type": "uint256"
        }
      ],
      "stateMutability": "view",
      "type": "function"
    },
    {
      "inputs": [
        {
          "internalType": "uint256",
          "name": "_outcome",
          "type": "uint256"
        }
      ],
      "name": "getTimestampsArray",
      "outputs": [
        {
          "internalType": "uint256[]",
          "name": "",
          "type": "uint256[]"
        }
      ],
      "stateMutability": "view",
      "type": "function"
    },
    {
      "inputs": [],
      "name": "getTotalInterest",
      "outputs": [
        {
          "internalType": "uint256",
          "name": "",
          "type": "uint256"
        }
      ],
      "stateMutability": "view",
      "type": "function"
    },
    {
      "inputs": [
        {
          "internalType": "uint256",
          "name": "_winningOutcome",
          "type": "uint256"
        }
      ],
      "name": "getWinnings",
      "outputs": [
        {
          "internalType": "uint256",
          "name": "",
          "type": "uint256"
        }
      ],
      "stateMutability": "view",
      "type": "function"
    },
    {
      "inputs": [],
      "name": "getWinningsInvalid",
      "outputs": [
        {
          "internalType": "uint256",
          "name": "",
          "type": "uint256"
        }
      ],
      "stateMutability": "view",
      "type": "function"
    },
    {
      "inputs": [],
      "name": "incrementState",
      "outputs": [],
      "stateMutability": "nonpayable",
      "type": "function"
    },
    {
      "inputs": [],
      "name": "marketLockingTime",
      "outputs": [
        {
          "internalType": "uint256",
          "name": "",
          "type": "uint256"
        }
      ],
      "stateMutability": "view",
      "type": "function"
    },
    {
      "inputs": [],
      "name": "marketOpeningTime",
      "outputs": [
        {
          "internalType": "uint256",
          "name": "",
          "type": "uint256"
        }
      ],
      "stateMutability": "view",
      "type": "function"
    },
    {
      "inputs": [],
      "name": "marketOpeningTimeActual",
      "outputs": [
        {
          "internalType": "uint256",
          "name": "",
          "type": "uint256"
        }
      ],
      "stateMutability": "view",
      "type": "function"
    },
    {
      "inputs": [],
      "name": "marketResolutionTime",
      "outputs": [
        {
          "internalType": "uint32",
          "name": "",
          "type": "uint32"
        }
      ],
      "stateMutability": "view",
      "type": "function"
    },
    {
      "inputs": [],
      "name": "maxInterest",
      "outputs": [
        {
          "internalType": "uint256",
          "name": "",
          "type": "uint256"
        }
      ],
      "stateMutability": "view",
      "type": "function"
    },
    {
      "inputs": [],
      "name": "numberOfOutcomes",
      "outputs": [
        {
          "internalType": "uint256",
          "name": "",
          "type": "uint256"
        }
      ],
      "stateMutability": "view",
      "type": "function"
    },
    {
      "inputs": [
        {
          "internalType": "uint256",
          "name": "",
          "type": "uint256"
        }
      ],
      "name": "outcomeNames",
      "outputs": [
        {
          "internalType": "string",
          "name": "",
          "type": "string"
        }
      ],
      "stateMutability": "view",
      "type": "function"
    },
    {
      "inputs": [],
      "name": "owner",
      "outputs": [
        {
          "internalType": "address",
          "name": "",
          "type": "address"
        }
      ],
      "stateMutability": "view",
      "type": "function"
    },
    {
      "inputs": [
        {
          "internalType": "uint256",
          "name": "",
          "type": "uint256"
        }
      ],
      "name": "participants",
      "outputs": [
        {
          "internalType": "address",
          "name": "",
          "type": "address"
        }
      ],
      "stateMutability": "view",
      "type": "function"
    },
    {
      "inputs": [],
      "name": "paused",
      "outputs": [
        {
          "internalType": "bool",
          "name": "",
          "type": "bool"
        }
      ],
      "stateMutability": "view",
      "type": "function"
    },
    {
      "inputs": [],
      "name": "questionId",
      "outputs": [
        {
          "internalType": "bytes32",
          "name": "",
          "type": "bytes32"
        }
      ],
      "stateMutability": "view",
      "type": "function"
    },
    {
      "inputs": [],
      "name": "questionResolvedInvalid",
      "outputs": [
        {
          "internalType": "bool",
          "name": "",
          "type": "bool"
        }
      ],
      "stateMutability": "view",
      "type": "function"
    },
    {
      "inputs": [],
      "name": "realitio",
      "outputs": [
        {
          "internalType": "contract IRealitio",
          "name": "",
          "type": "address"
        }
      ],
      "stateMutability": "view",
      "type": "function"
    },
    {
      "inputs": [],
      "name": "renounceOwnership",
      "outputs": [],
      "stateMutability": "nonpayable",
      "type": "function"
    },
    {
      "inputs": [
        {
          "internalType": "string",
          "name": "_eventName",
          "type": "string"
        }
      ],
      "name": "setEventName",
      "outputs": [],
      "stateMutability": "nonpayable",
      "type": "function"
    },
    {
      "inputs": [],
      "name": "state",
      "outputs": [
        {
          "internalType": "enum BTMarket.States",
          "name": "",
          "type": "uint8"
        }
      ],
      "stateMutability": "view",
      "type": "function"
    },
    {
      "inputs": [
        {
          "internalType": "uint256",
          "name": "",
          "type": "uint256"
        }
      ],
      "name": "tokenAddresses",
      "outputs": [
        {
          "internalType": "contract Token",
          "name": "",
          "type": "address"
        }
      ],
      "stateMutability": "view",
      "type": "function"
    },
    {
      "inputs": [],
      "name": "tokenContractsCreated",
      "outputs": [
        {
          "internalType": "uint256",
          "name": "",
          "type": "uint256"
        }
      ],
      "stateMutability": "view",
      "type": "function"
    },
    {
      "inputs": [],
      "name": "totalBets",
      "outputs": [
        {
          "internalType": "uint256",
          "name": "",
          "type": "uint256"
        }
      ],
      "stateMutability": "view",
      "type": "function"
    },
    {
      "inputs": [
        {
          "internalType": "uint256",
          "name": "",
          "type": "uint256"
        }
      ],
      "name": "totalBetsPerOutcome",
      "outputs": [
        {
          "internalType": "uint256",
          "name": "",
          "type": "uint256"
        }
      ],
      "stateMutability": "view",
      "type": "function"
    },
    {
      "inputs": [
        {
          "internalType": "address",
          "name": "",
          "type": "address"
        }
      ],
      "name": "totalBetsPerUser",
      "outputs": [
        {
          "internalType": "uint256",
          "name": "",
          "type": "uint256"
        }
      ],
      "stateMutability": "view",
      "type": "function"
    },
    {
      "inputs": [
        {
          "internalType": "address",
          "name": "newOwner",
          "type": "address"
        }
      ],
      "name": "transferOwnership",
      "outputs": [],
      "stateMutability": "nonpayable",
      "type": "function"
    },
    {
      "inputs": [
        {
          "internalType": "uint256",
          "name": "",
          "type": "uint256"
        }
      ],
      "name": "usersPerOutcome",
      "outputs": [
        {
          "internalType": "uint256",
          "name": "",
          "type": "uint256"
        }
      ],
      "stateMutability": "view",
      "type": "function"
    },
    {
      "inputs": [],
      "name": "winningOutcome",
      "outputs": [
        {
          "internalType": "uint256",
          "name": "",
          "type": "uint256"
        }
      ],
      "stateMutability": "view",
      "type": "function"
    },
    {
      "inputs": [],
      "name": "withdraw",
      "outputs": [],
      "stateMutability": "nonpayable",
      "type": "function"
    },
    {
      "inputs": [
        {
          "internalType": "address",
          "name": "",
          "type": "address"
        }
      ],
      "name": "withdrawnBool",
      "outputs": [
        {
          "internalType": "bool",
          "name": "",
          "type": "bool"
        }
      ],
      "stateMutability": "view",
      "type": "function"
    },
    {
      "stateMutability": "payable",
      "type": "receive"
    },
    {
      "inputs": [
        {
          "internalType": "uint256",
          "name": "_outcome",
          "type": "uint256"
        },
        {
          "internalType": "uint256",
          "name": "_dai",
          "type": "uint256"
        }
      ],
      "name": "placeBet",
      "outputs": [],
      "stateMutability": "nonpayable",
      "type": "function"
    }
  ],
  "bytecode": "0x60806040526045601b55601c805460ff191660011790553480156200002357600080fd5b506040516200436b3803806200436b83398181016040526101a08110156200004a57600080fd5b815160208301516040808501516060860151608087015160a0880180519451969895979396929591949293820192846401000000008211156200008c57600080fd5b908301906020820185811115620000a257600080fd5b8251640100000000811182820188101715620000bd57600080fd5b82525081516020918201929091019080838360005b83811015620000ec578181015183820152602001620000d2565b50505050905090810190601f1680156200011a5780820380516001836020036101000a031916815260200191505b5060405260200191908260600180519060200190929190805160405193929190846401000000008211156200014e57600080fd5b9083019060208201858111156200016457600080fd5b82516401000000008111828201881017156200017f57600080fd5b82525081516020918201929091019080838360005b83811015620001ae57818101518382015260200162000194565b50505050905090810190601f168015620001dc5780820380516001836020036101000a031916815260200191505b506040908152602082015191015190925090508a8a8a8a8a8a8a601e8b8b8b8b6000620002116001600160e01b03620003cc16565b600080546001600160a01b0319166001600160a01b0383169081178255604051929350916000805160206200434b833981519152908290a3506000805461ffff60a01b1916600160a81b1790556001600160a01b0381163314620002835762000283816001600160e01b03620003d116565b600180546001600160a01b03199081166001600160a01b038f811691909117928390556002805483168f83161790556003805483168e8316179055600480549092168b82161782556040805163095ea7b360e01b81528d831693810193909352600160ff1b60248401525192169163095ea7b3916044808201926020929091908290030181600087803b1580156200031a57600080fd5b505af11580156200032f573d6000803e3d6000fd5b505050506040513d60208110156200034657600080fd5b505086516200035d90600c9060208a019062000626565b50855160075560208601516009556040860151600a805463ffffffff191663ffffffff9283161790819055600f8490556002914291620003a791849188918a918c911686620004d8565b600b8190555050505050505050505050505050505050505050505050505050620006c8565b335b90565b620003e46001600160e01b03620003cc16565b6000546001600160a01b0390811691161462000447576040805162461bcd60e51b815260206004820181905260248201527f4f776e61626c653a2063616c6c6572206973206e6f7420746865206f776e6572604482015290519081900360640190fd5b6001600160a01b0381166200048e5760405162461bcd60e51b8152600401808060200182810382526026815260200180620043256026913960400191505060405180910390fd5b600080546040516001600160a01b03808516939216916000805160206200434b83398151915291a3600080546001600160a01b0319166001600160a01b0392909216919091179055565b6000600460009054906101000a90046001600160a01b03166001600160a01b031663762c38fd8888888888886040518763ffffffff1660e01b81526004018087815260200180602001866001600160a01b03166001600160a01b031681526020018563ffffffff1663ffffffff1681526020018463ffffffff1663ffffffff168152602001838152602001828103825287818151815260200191508051906020019080838360005b838110156200059a57818101518382015260200162000580565b50505050905090810190601f168015620005c85780820380516001836020036101000a031916815260200191505b50975050505050505050602060405180830381600087803b158015620005ed57600080fd5b505af115801562000602573d6000803e3d6000fd5b505050506040513d60208110156200061957600080fd5b5051979650505050505050565b828054600181600116156101000203166002900490600052602060002090601f016020900481019282601f106200066957805160ff191683800117855562000699565b8280016001018555821562000699579182015b82811115620006995782518255916020019190600101906200067c565b50620006a7929150620006ab565b5090565b620003ce91905b80821115620006a75760008155600101620006b2565b613c4d80620006d86000396000f3fe608060405260043610620002cb5760003560e01c8063894ba833116200017b578063befa1e2f11620000d3578063e8f033c91162000085578063e8f033c91462000a44578063e9d337b81462000a72578063ee72b06d1462000a8a578063f2fde38b1462000aa2578063f4b9fa751462000ad9578063fd27b51e1462000af157620002d3565b8063befa1e2f1462000944578063c19d93fb146200095c578063c56f338c1462000999578063d844ab5f14620009c7578063e14dedfd14620009fe578063e5df8b841462000a1657620002d3565b8063a055ccc5116200012d578063a055ccc5146200089e578063a0c1f15e14620008b6578063aa0cb84214620008ce578063ad5d286214620008e6578063b06a5c521462000914578063bc8802a2146200092c57620002d3565b8063894ba83314620007835780638da5cb5b146200079b578063906d624114620007b3578063991d4f5d14620007ea5780639b34ae03146200086e5780639d7c7d39146200088657620002d3565b806347254f4f116200022f5780635c975abb11620001e15780635c975abb14620005ca5780636c0dc97614620005e2578063715018a614620006bb5780638043c9c014620006d3578063807535cc14620006eb57806382633028146200076b57620002d3565b806347254f4f146200050857806349200d7714620005205780634afe62b514620005385780634b8755ca146200056c5780634ecc79f71462000584578063519709c4146200059c57620002d3565b806327acae74116200028957806327acae7414620003a457806333b16d93146200044a57806335c1d3491462000462578063367edd3214620004ac5780633ccfd60b14620004d85780633eac554014620004f057620002d3565b806305801f0b14620002d55780630b60365c1462000315578063149b5d58146200032d57806316efd941146200035b578063232ea3ad146200037357620002d3565b36620002d357005b005b348015620002e257600080fd5b506200030360048036036020811015620002fb57600080fd5b503562000b09565b60408051918252519081900360200190f35b3480156200032257600080fd5b506200030362000b1b565b3480156200033a57600080fd5b5062000303600480360360208110156200035357600080fd5b503562000bd6565b3480156200036857600080fd5b50620002d362000c6f565b3480156200038057600080fd5b506200038b62000cde565b6040805163ffffffff9092168252519081900360200190f35b348015620003b157600080fd5b50620003d260048036036020811015620003ca57600080fd5b503562000cea565b6040805160208082528351818301528351919283929083019185019080838360005b838110156200040e578181015183820152602001620003f4565b50505050905090810190601f1680156200043c5780820380516001836020036101000a031916815260200191505b509250505060405180910390f35b3480156200045757600080fd5b50620002d362000d95565b3480156200046f57600080fd5b5062000490600480360360208110156200048857600080fd5b503562000e73565b604080516001600160a01b039092168252519081900360200190f35b348015620004b957600080fd5b50620004c462000e9b565b604080519115158252519081900360200190f35b348015620004e557600080fd5b50620002d362000f59565b348015620004fd57600080fd5b506200030362001121565b3480156200051557600080fd5b50620004c462001127565b3480156200052d57600080fd5b506200030362001130565b3480156200054557600080fd5b50620002d3600480360360408110156200055e57600080fd5b508035906020013562001136565b3480156200057957600080fd5b506200030362001203565b3480156200059157600080fd5b506200030362001209565b348015620005a957600080fd5b506200030360048036036020811015620005c257600080fd5b50356200120f565b348015620005d757600080fd5b50620004c462001221565b348015620005ef57600080fd5b50620002d3600480360360408110156200060857600080fd5b8101906020810181356401000000008111156200062457600080fd5b8201836020820111156200063757600080fd5b803590602001918460018302840111640100000000831117156200065a57600080fd5b9193909290916020810190356401000000008111156200067957600080fd5b8201836020820111156200068c57600080fd5b80359060200191846001830284011164010000000083111715620006af57600080fd5b50909250905062001231565b348015620006c857600080fd5b50620002d362001432565b348015620006e057600080fd5b50620003d2620014d8565b348015620006f857600080fd5b5062000719600480360360208110156200071157600080fd5b503562001536565b60408051602080825283518183015283519192839290830191858101910280838360005b83811015620007575781810151838201526020016200073d565b505050509050019250505060405180910390f35b3480156200077857600080fd5b50620003036200159a565b3480156200079057600080fd5b50620004c4620015a0565b348015620007a857600080fd5b50620004906200165b565b348015620007c057600080fd5b50620004c460048036036020811015620007d957600080fd5b50356001600160a01b03166200166a565b348015620007f757600080fd5b50620002d3600480360360208110156200081057600080fd5b8101906020810181356401000000008111156200082c57600080fd5b8201836020820111156200083f57600080fd5b803590602001918460018302840111640100000000831117156200086257600080fd5b5090925090506200167f565b3480156200087b57600080fd5b5062000303620016e9565b3480156200089357600080fd5b5062000303620016ef565b348015620008ab57600080fd5b506200030362001728565b348015620008c357600080fd5b5062000490620017b4565b348015620008db57600080fd5b5062000303620017c3565b348015620008f357600080fd5b5062000303600480360360208110156200090c57600080fd5b5035620017c9565b3480156200092157600080fd5b5062000303620018d3565b3480156200093957600080fd5b5062000490620018d9565b3480156200095157600080fd5b5062000303620018e8565b3480156200096957600080fd5b5062000974620018ee565b604051808260048111156200098557fe5b60ff16815260200191505060405180910390f35b348015620009a657600080fd5b506200030360048036036020811015620009bf57600080fd5b5035620018f7565b348015620009d457600080fd5b506200030360048036036020811015620009ed57600080fd5b50356001600160a01b031662001909565b34801562000a0b57600080fd5b50620003036200191b565b34801562000a2357600080fd5b50620004906004803603602081101562000a3c57600080fd5b503562001921565b34801562000a5157600080fd5b50620007196004803603602081101562000a6a57600080fd5b50356200192f565b34801562000a7f57600080fd5b506200049062001991565b34801562000a9757600080fd5b50620002d3620019a0565b34801562000aaf57600080fd5b50620002d36004803603602081101562000ac857600080fd5b50356001600160a01b031662001b47565b34801562000ae657600080fd5b506200049062001c45565b34801562000afe57600080fd5b506200030362001c54565b60136020526000908152604090205481565b60008062000b3760185460175462001c5a90919063ffffffff16565b600254604080516370a0823160e01b815230600482015290519293506000926001600160a01b03909216916370a0823191602480820192602092909190829003018186803b15801562000b8957600080fd5b505afa15801562000b9e573d6000803e3d6000fd5b505050506040513d602081101562000bb557600080fd5b50519050600062000bcd828463ffffffff62001c5a16565b93505050505b90565b600080600e838154811062000be757fe5b60009182526020918290200154604080516370a0823160e01b815233600482015290516001600160a01b03909216935083926370a0823192602480840193829003018186803b15801562000c3a57600080fd5b505afa15801562000c4f573d6000803e3d6000fd5b505050506040513d602081101562000c6657600080fd5b50519392505050565b600a546224ea0063ffffffff9182160116421162000cc0576040805162461bcd60e51b8152602060048201526009602482015268546f6f206561726c7960b81b604482015290519081900360640190fd5b601c805460ff19908116600117909155601080549091166004179055565b600a5463ffffffff1681565b600d818154811062000cf857fe5b600091825260209182902001805460408051601f600260001961010060018716150201909416939093049283018590048502810185019091528181529350909183018282801562000d8d5780601f1062000d615761010080835404028352916020019162000d8d565b820191906000526020600020905b81548152906001019060200180831162000d6f57829003601f168201915b505050505081565b600054600160a01b900460ff161562000de8576040805162461bcd60e51b815260206004820152601060248201526f14185d5cd8589b194e881c185d5cd95960821b604482015290519081900360640190fd5b62000df262001ca7565b62000e44576040805162461bcd60e51b815260206004820152601860248201527f4f7261636c6520686173206e6f742066696e616c697365640000000000000000604482015290519081900360640190fd5b62000e4e62001d2c565b601b8190556000191462000e6757601c805460ff191690555b62000e71620019a0565b565b6019818154811062000e8157fe5b6000918252602090912001546001600160a01b0316905081565b600062000ea762001db3565b6000546001600160a01b0390811691161462000ef9576040805162461bcd60e51b8152602060048201819052602482015260008051602062003bd2833981519152604482015290519081900360640190fd5b600054600160a01b900460ff1662000f4f576040805162461bcd60e51b815260206004820152601460248201527314185d5cd8589b194e881b9bdd081c185d5cd95960621b604482015290519081900360640190fd5b62000bd362001db7565b60048060105460ff16600481111562000f6e57fe5b1462000fac5760405162461bcd60e51b815260040180806020018281038252602681526020018062003bf26026913960400191505060405180910390fd5b600054600160a01b900460ff161562000fff576040805162461bcd60e51b815260206004820152601060248201526f14185d5cd8589b194e881c185d5cd95960821b604482015290519081900360640190fd5b600054600160a81b900460ff166200105e576040805162461bcd60e51b815260206004820152601f60248201527f5265656e7472616e637947756172643a207265656e7472616e742063616c6c00604482015290519081900360640190fd5b6000805460ff60a81b19168155338152601a602052604090205460ff1615620010c2576040805162461bcd60e51b815260206004820152601160248201527020b63932b0b23c903bb4ba34323930bbb760791b604482015290519081900360640190fd5b336000908152601a60205260409020805460ff19166001179055601c5460ff16620010f757620010f162001e62565b62001101565b6200110162001ebc565b6200110b62001ec8565b506000805460ff60a81b1916600160a81b179055565b60085481565b601c5460ff1681565b600f5481565b60028060105460ff1660048111156200114b57fe5b14620011895760405162461bcd60e51b815260040180806020018281038252602681526020018062003bf26026913960400191505060405180910390fd5b600054600160a01b900460ff1615620011dc576040805162461bcd60e51b815260206004820152601060248201526f14185d5cd8589b194e881c185d5cd95960821b604482015290519081900360640190fd5b620011e883836200205f565b620011f382620022b2565b620011fe826200231c565b505050565b60095481565b60075481565b60166020526000908152604090205481565b600054600160a01b900460ff1690565b6200123b62001db3565b6000546001600160a01b039081169116146200128d576040805162461bcd60e51b8152602060048201819052602482015260008051602062003bd2833981519152604482015290519081900360640190fd5b60008060105460ff166004811115620012a257fe5b14620012e05760405162461bcd60e51b815260040180806020018281038252602681526020018062003bf26026913960400191505060405180910390fd5b600d80546001810182556000919091526200131f907fd7b6990105719101dabeb77144f2a3385c8033acd3af97e9423a695e81ad1eb501868662002728565b50600083836040516200133290620027ad565b6020808252810182905280604081018484808284376000838201819052604051601f909201601f1916909301819003965094509092505050f0801580156200137e573d6000803e3d6000fd5b50600e8054600180820183556000929092527fbb7b4a454dc3493923482f07822329ed19e8244eff582cc204f8554c3620c3fd0180546001600160a01b0319166001600160a01b038416179055600554919250620013dd91906200237a565b6005819055600f5414156200142a5760105460ff166004811115620013fe57fe5b60010160048111156200140d57fe5b6010805460ff191660018360048111156200142457fe5b02179055505b505050505050565b6200143c62001db3565b6000546001600160a01b039081169116146200148e576040805162461bcd60e51b8152602060048201819052602482015260008051602062003bd2833981519152604482015290519081900360640190fd5b600080546040516001600160a01b03909116907f8be0079c531659141344cd1fd0a4f28419497f9722a3daafe3b4186f6b6457e0908390a3600080546001600160a01b0319169055565b600c805460408051602060026001851615610100026000190190941693909304601f8101849004840282018401909252818152929183018282801562000d8d5780601f1062000d615761010080835404028352916020019162000d8d565b6000818152601160209081526040918290208054835181840281018401909452808452606093928301828280156200158e57602002820191906000526020600020905b81548152602001906001019080831162001579575b50505050509050919050565b60065481565b6000620015ac62001db3565b6000546001600160a01b03908116911614620015fe576040805162461bcd60e51b8152602060048201819052602482015260008051602062003bd2833981519152604482015290519081900360640190fd5b600054600160a01b900460ff161562001651576040805162461bcd60e51b815260206004820152601060248201526f14185d5cd8589b194e881c185d5cd95960821b604482015290519081900360640190fd5b62000bd3620023d5565b6000546001600160a01b031690565b601a6020526000908152604090205460ff1681565b6200168962001db3565b6000546001600160a01b03908116911614620016db576040805162461bcd60e51b8152602060048201819052602482015260008051602062003bd2833981519152604482015290519081900360640190fd5b620011fe600c838362002728565b601b5481565b6000600460105460ff1660048111156200170557fe5b141562001716575060065462000bd3565b6200172062000b1b565b905062000bd3565b33600090815260146020526040812054819015620017af5760006200174c62000b1b565b905060006200176960185460175462001c5a90919063ffffffff16565b90508015620017ac5733600090815260146020526040902054620017a99082906200179c90859063ffffffff6200246616565b9063ffffffff620024c416565b92505b50505b905090565b6002546001600160a01b031681565b60055481565b600080600e8381548110620017da57fe5b6000918252602080832090910154604080516370a0823160e01b815233600482015290516001600160a01b039092169450839285926370a08231926024808201939291829003018186803b1580156200183257600080fd5b505afa15801562001847573d6000803e3d6000fd5b505050506040513d60208110156200185e57600080fd5b505190508015620018cb5760006200187562000b1b565b60008781526015602090815260408083205460139092528220549293509091620018a59163ffffffff62001c5a16565b90508015620018c857620018c5816200179c848663ffffffff6200246616565b93505b50505b509392505050565b600b5481565b6004546001600160a01b031681565b60175481565b60105460ff1681565b60156020526000908152604090205481565b60146020526000908152604090205481565b60185481565b600e818154811062000e8157fe5b6000818152601260209081526040918290208054835181840281018401909452808452606093928301828280156200158e5760200282019190600052602060002090815481526020019060010190808311620015795750505050509050919050565b6003546001600160a01b031681565b600054600160a01b900460ff1615620019f3576040805162461bcd60e51b815260206004820152601060248201526f14185d5cd8589b194e881c185d5cd95960821b604482015290519081900360640190fd5b600160105460ff16600481111562001a0757fe5b14801562001a16575042600754105b8062001a405750600260105460ff16600481111562001a3157fe5b14801562001a40575042600954105b8062001a6c5750600360105460ff16600481111562001a5b57fe5b14801562001a6c5750601b54604514155b1562000e7157600160105460ff16600481111562001a8657fe5b141562001a9257426008555b600360105460ff16600481111562001aa657fe5b141562001abb5762001ab762000b1b565b6006555b60105460ff16600481111562001acd57fe5b600101600481111562001adc57fe5b6010805460ff1916600183600481111562001af357fe5b02179055506010546040517f551dc40198cc79684bb69e4931dba4ac16e4598792ee1c0a5000aeea366d7bb69160ff16908082600481111562001b3257fe5b60ff16815260200191505060405180910390a1565b62001b5162001db3565b6000546001600160a01b0390811691161462001ba3576040805162461bcd60e51b8152602060048201819052602482015260008051602062003bd2833981519152604482015290519081900360640190fd5b6001600160a01b03811662001bea5760405162461bcd60e51b815260040180806020018281038252602681526020018062003b8b6026913960400191505060405180910390fd5b600080546040516001600160a01b03808516939216917f8be0079c531659141344cd1fd0a4f28419497f9722a3daafe3b4186f6b6457e091a3600080546001600160a01b0319166001600160a01b0392909216919091179055565b6001546001600160a01b031681565b60195490565b600062001c9e83836040518060400160405280601e81526020017f536166654d6174683a207375627472616374696f6e206f766572666c6f77000081525062002508565b90505b92915050565b60048054600b5460408051633fc6a14f60e11b815293840191909152516000926001600160a01b0390921691637f8d429e916024808301926020929190829003018186803b15801562001cf957600080fd5b505afa15801562001d0e573d6000803e3d6000fd5b505050506040513d602081101562001d2557600080fd5b5051905090565b60048054600b546040805163684e62bf60e11b8152938401919091525160009283926001600160a01b03169163d09cc57e91602480820192602092909190829003018186803b15801562001d7f57600080fd5b505afa15801562001d94573d6000803e3d6000fd5b505050506040513d602081101562001dab57600080fd5b505191505090565b3390565b600054600160a01b900460ff1662001e0d576040805162461bcd60e51b815260206004820152601460248201527314185d5cd8589b194e881b9bdd081c185d5cd95960621b604482015290519081900360640190fd5b6000805460ff60a01b191690557f5db9ee0a495bf2e6ff9c91a7834c1ba4fdd244a5e8aa4e537bd38aeae4b073aa62001e4562001db3565b604080516001600160a01b039092168252519081900360200190a1565b600062001e71601b54620017c9565b336000908152601460205260408120549192509062001e9890839063ffffffff6200237a16565b9050801562001eb85762001eac81620025a3565b62001eb83382620025f1565b5050565b600062001e7162001728565b6000805b600f548110156200202a576000600e828154811062001ee757fe5b6000918252602080832090910154604080516370a0823160e01b815233600482015290516001600160a01b03909216945084926370a0823192602480840193829003018186803b15801562001f3b57600080fd5b505afa15801562001f50573d6000803e3d6000fd5b505050506040513d602081101562001f6757600080fd5b5051905080156200201f5762001f84848263ffffffff6200237a16565b60008481526015602052604090205490945062001fa8908263ffffffff6200237a16565b600084815260156020526040808220929092558151632770a7eb60e21b81523360048201526024810184905291516001600160a01b03851692639dc29fac92604480830193919282900301818387803b1580156200200557600080fd5b505af11580156200201a573d6000803e3d6000fd5b505050505b505060010162001ecc565b503360009081526014602052604090205481146200204457fe5b60185462002059908263ffffffff6200237a16565b60185550565b6000828152601160209081526040808320805460018181018355918552838520018590558584526012835290832080549182018155835290822042910155600e805484908110620020ac57fe5b60009182526020918290200154604080516370a0823160e01b815233600482015290516001600160a01b03909216935083926370a0823192602480840193829003018186803b158015620020ff57600080fd5b505afa15801562002114573d6000803e3d6000fd5b505050506040513d60208110156200212b57600080fd5b5051620021a0576019805460018181019092557f944998273e477b495144fb8794c914197f3ccb46be2900f4698fd0ef743c96950180546001600160a01b03191633179055600084815260166020526040902054620021909163ffffffff6200237a16565b6000848152601660205260409020555b60405133907fef3b3ae531a4f494c95e537ec1fe385cfe5c1146cb4c1d850b24bad38595804990600090a2604080516340c10f1960e01b81523360048201526024810184905290516001600160a01b038316916340c10f1991604480830192600092919082900301818387803b1580156200221a57600080fd5b505af11580156200222f573d6000803e3d6000fd5b505060175462002249925090508363ffffffff6200237a16565b6017556000838152601360205260409020546200226d908363ffffffff6200237a16565b6000848152601360209081526040808320939093553382526014905220546200229d908363ffffffff6200237a16565b33600090815260146020526040902055505050565b6001546040805163140e25ad60e31b81526004810184905290516001600160a01b039092169163a0712d689160248082019260009290919082900301818387803b1580156200230057600080fd5b505af115801562002315573d6000803e3d6000fd5b5050505050565b60035460015460408051636968703360e11b81526001600160a01b039283166004820152602481018590526000604482018190529151929093169263d2d0e066926064808301939282900301818387803b1580156200230057600080fd5b60008282018381101562001c9e576040805162461bcd60e51b815260206004820152601b60248201527f536166654d6174683a206164646974696f6e206f766572666c6f770000000000604482015290519081900360640190fd5b600054600160a01b900460ff161562002428576040805162461bcd60e51b815260206004820152601060248201526f14185d5cd8589b194e881c185d5cd95960821b604482015290519081900360640190fd5b6000805460ff60a01b1916600160a01b1790557f62e78cea01bee320cd4e420270b5ea74000d11b0c9f74754ebdbfc544b05a25862001e4562001db3565b600082620024775750600062001ca1565b828202828482816200248557fe5b041462001c9e5760405162461bcd60e51b815260040180806020018281038252602181526020018062003bb16021913960400191505060405180910390fd5b600062001c9e83836040518060400160405280601a81526020017f536166654d6174683a206469766973696f6e206279207a65726f000000000000815250620026bf565b600081848411156200259b5760405162461bcd60e51b81526004018080602001828103825283818151815260200191508051906020019080838360005b838110156200255f57818101518382015260200162002545565b50505050905090810190601f1680156200258d5780820380516001836020036101000a031916815260200191505b509250505060405180910390fd5b505050900390565b6002546040805163db006a7560e01b81526004810184905290516001600160a01b039092169163db006a759160248082019260009290919082900301818387803b1580156200230057600080fd5b6001546040805163a9059cbb60e01b81526001600160a01b038581166004830152602482018590529151919092169163a9059cbb9160448083019260209291908290030181600087803b1580156200264857600080fd5b505af11580156200265d573d6000803e3d6000fd5b505050506040513d60208110156200267457600080fd5b505162001eb8576040805162461bcd60e51b815260206004820152601460248201527310d85cda081d1c985b9cd9995c8819985a5b195960621b604482015290519081900360640190fd5b60008183620027115760405162461bcd60e51b81526020600482018181528351602484015283519092839260449091019190850190808383600083156200255f57818101518382015260200162002545565b5060008385816200271e57fe5b0495945050505050565b828054600181600116156101000203166002900490600052602060002090601f016020900481019282601f106200276b5782800160ff198235161785556200279b565b828001600101855582156200279b579182015b828111156200279b5782358255916020019190600101906200277e565b50620027a9929150620027bb565b5090565b6113b280620027d983390190565b62000bd391905b80821115620027a95760008155600101620027c256fe60806040523480156200001157600080fd5b50604051620013b2380380620013b2833981810160405260208110156200003757600080fd5b81019080805160405193929190846401000000008211156200005857600080fd5b9083019060208201858111156200006e57600080fd5b82516401000000008111828201881017156200008957600080fd5b82525081516020918201929091019080838360005b83811015620000b85781810151838201526020016200009e565b50505050905090810190601f168015620000e65780820380516001836020036101000a031916815260200191505b5060408181019052600281526126a160f11b60208083019190915285518695509193506200011c925060039190850190620001b9565b50805162000132906004906020840190620001b9565b50506005805460ff19166012179055506000620001576001600160e01b03620001b416565b60058054610100600160a81b0319166101006001600160a01b03841690810291909117909155604051919250906000907f8be0079c531659141344cd1fd0a4f28419497f9722a3daafe3b4186f6b6457e0908290a350506200025b565b335b90565b828054600181600116156101000203166002900490600052602060002090601f016020900481019282601f10620001fc57805160ff19168380011785556200022c565b828001600101855582156200022c579182015b828111156200022c5782518255916020019190600101906200020f565b506200023a9291506200023e565b5090565b620001b691905b808211156200023a576000815560010162000245565b611147806200026b6000396000f3fe6080604052600436106100f75760003560e01c8063715018a61161008a578063a457c2d711610059578063a457c2d7146103a5578063a9059cbb146103de578063dd62ed3e14610417578063f2fde38b14610452576100fe565b8063715018a6146103115780638da5cb5b1461032657806395d89b41146103575780639dc29fac1461036c576100fe565b8063313ce567116100c6578063313ce56714610241578063395093511461026c57806340c10f19146102a557806370a08231146102de576100fe565b806306fdde0314610100578063095ea7b31461018a57806318160ddd146101d757806323b872dd146101fe576100fe565b366100fe57005b005b34801561010c57600080fd5b50610115610485565b6040805160208082528351818301528351919283929083019185019080838360005b8381101561014f578181015183820152602001610137565b50505050905090810190601f16801561017c5780820380516001836020036101000a031916815260200191505b509250505060405180910390f35b34801561019657600080fd5b506101c3600480360360408110156101ad57600080fd5b506001600160a01b03813516906020013561051b565b604080519115158252519081900360200190f35b3480156101e357600080fd5b506101ec610538565b60408051918252519081900360200190f35b34801561020a57600080fd5b506101c36004803603606081101561022157600080fd5b506001600160a01b0381358116916020810135909116906040013561053e565b34801561024d57600080fd5b506102566105cb565b6040805160ff9092168252519081900360200190f35b34801561027857600080fd5b506101c36004803603604081101561028f57600080fd5b506001600160a01b0381351690602001356105d4565b3480156102b157600080fd5b506100fe600480360360408110156102c857600080fd5b506001600160a01b038135169060200135610628565b3480156102ea57600080fd5b506101ec6004803603602081101561030157600080fd5b50356001600160a01b0316610693565b34801561031d57600080fd5b506100fe6106ae565b34801561033257600080fd5b5061033b61075b565b604080516001600160a01b039092168252519081900360200190f35b34801561036357600080fd5b5061011561076f565b34801561037857600080fd5b506100fe6004803603604081101561038f57600080fd5b506001600160a01b0381351690602001356107d0565b3480156103b157600080fd5b506101c3600480360360408110156103c857600080fd5b506001600160a01b038135169060200135610837565b3480156103ea57600080fd5b506101c36004803603604081101561040157600080fd5b506001600160a01b0381351690602001356108a5565b34801561042357600080fd5b506101ec6004803603604081101561043a57600080fd5b506001600160a01b03813581169160200135166108b9565b34801561045e57600080fd5b506100fe6004803603602081101561047557600080fd5b50356001600160a01b03166108e4565b60038054604080516020601f60026000196101006001881615020190951694909404938401819004810282018101909252828152606093909290918301828280156105115780601f106104e657610100808354040283529160200191610511565b820191906000526020600020905b8154815290600101906020018083116104f457829003601f168201915b5050505050905090565b600061052f6105286109ed565b84846109f1565b50600192915050565b60025490565b600061054b848484610add565b6105c1846105576109ed565b6105bc8560405180606001604052806028815260200161103b602891396001600160a01b038a166000908152600160205260408120906105956109ed565b6001600160a01b03168152602081019190915260400160002054919063ffffffff610c4416565b6109f1565b5060019392505050565b60055460ff1690565b600061052f6105e16109ed565b846105bc85600160006105f26109ed565b6001600160a01b03908116825260208083019390935260409182016000908120918c16815292529020549063ffffffff610cdb16565b6106306109ed565b60055461010090046001600160a01b03908116911614610685576040805162461bcd60e51b81526020600482018190526024820152600080516020611063833981519152604482015290519081900360640190fd5b61068f8282610d3c565b5050565b6001600160a01b031660009081526020819052604090205490565b6106b66109ed565b60055461010090046001600160a01b0390811691161461070b576040805162461bcd60e51b81526020600482018190526024820152600080516020611063833981519152604482015290519081900360640190fd5b60055460405160009161010090046001600160a01b0316907f8be0079c531659141344cd1fd0a4f28419497f9722a3daafe3b4186f6b6457e0908390a360058054610100600160a81b0319169055565b60055461010090046001600160a01b031690565b60048054604080516020601f60026000196101006001881615020190951694909404938401819004810282018101909252828152606093909290918301828280156105115780601f106104e657610100808354040283529160200191610511565b6107d86109ed565b60055461010090046001600160a01b0390811691161461082d576040805162461bcd60e51b81526020600482018190526024820152600080516020611063833981519152604482015290519081900360640190fd5b61068f8282610e38565b600061052f6108446109ed565b846105bc856040518060600160405280602581526020016110ed602591396001600061086e6109ed565b6001600160a01b03908116825260208083019390935260409182016000908120918d1681529252902054919063ffffffff610c4416565b600061052f6108b26109ed565b8484610add565b6001600160a01b03918216600090815260016020908152604080832093909416825291909152205490565b6108ec6109ed565b60055461010090046001600160a01b03908116911614610941576040805162461bcd60e51b81526020600482018190526024820152600080516020611063833981519152604482015290519081900360640190fd5b6001600160a01b0381166109865760405162461bcd60e51b8152600401808060200182810382526026815260200180610fcd6026913960400191505060405180910390fd5b6005546040516001600160a01b0380841692610100900416907f8be0079c531659141344cd1fd0a4f28419497f9722a3daafe3b4186f6b6457e090600090a3600580546001600160a01b0390921661010002610100600160a81b0319909216919091179055565b3390565b6001600160a01b038316610a365760405162461bcd60e51b81526004018080602001828103825260248152602001806110c96024913960400191505060405180910390fd5b6001600160a01b038216610a7b5760405162461bcd60e51b8152600401808060200182810382526022815260200180610ff36022913960400191505060405180910390fd5b6001600160a01b03808416600081815260016020908152604080832094871680845294825291829020859055815185815291517f8c5be1e5ebec7d5bd14f71427d1e84f3dd0314c0f7b2291e5b200ac8c7c3b9259281900390910190a3505050565b6001600160a01b038316610b225760405162461bcd60e51b81526004018080602001828103825260258152602001806110a46025913960400191505060405180910390fd5b6001600160a01b038216610b675760405162461bcd60e51b8152600401808060200182810382526023815260200180610f886023913960400191505060405180910390fd5b610b72838383610f40565b610bb581604051806060016040528060268152602001611015602691396001600160a01b038616600090815260208190526040902054919063ffffffff610c4416565b6001600160a01b038085166000908152602081905260408082209390935590841681522054610bea908263ffffffff610cdb16565b6001600160a01b038084166000818152602081815260409182902094909455805185815290519193928716927fddf252ad1be2c89b69c2b068fc378daa952ba7f163c4a11628f55a4df523b3ef92918290030190a3505050565b60008184841115610cd35760405162461bcd60e51b81526004018080602001828103825283818151815260200191508051906020019080838360005b83811015610c98578181015183820152602001610c80565b50505050905090810190601f168015610cc55780820380516001836020036101000a031916815260200191505b509250505060405180910390fd5b505050900390565b600082820183811015610d35576040805162461bcd60e51b815260206004820152601b60248201527f536166654d6174683a206164646974696f6e206f766572666c6f770000000000604482015290519081900360640190fd5b9392505050565b6001600160a01b038216610d97576040805162461bcd60e51b815260206004820152601f60248201527f45524332303a206d696e7420746f20746865207a65726f206164647265737300604482015290519081900360640190fd5b610da360008383610f40565b600254610db6908263ffffffff610cdb16565b6002556001600160a01b038216600090815260208190526040902054610de2908263ffffffff610cdb16565b6001600160a01b0383166000818152602081815260408083209490945583518581529351929391927fddf252ad1be2c89b69c2b068fc378daa952ba7f163c4a11628f55a4df523b3ef9281900390910190a35050565b6001600160a01b038216610e7d5760405162461bcd60e51b81526004018080602001828103825260218152602001806110836021913960400191505060405180910390fd5b610e8982600083610f40565b610ecc81604051806060016040528060228152602001610fab602291396001600160a01b038516600090815260208190526040902054919063ffffffff610c4416565b6001600160a01b038316600090815260208190526040902055600254610ef8908263ffffffff610f4516565b6002556040805182815290516000916001600160a01b038516917fddf252ad1be2c89b69c2b068fc378daa952ba7f163c4a11628f55a4df523b3ef9181900360200190a35050565b505050565b6000610d3583836040518060400160405280601e81526020017f536166654d6174683a207375627472616374696f6e206f766572666c6f770000815250610c4456fe45524332303a207472616e7366657220746f20746865207a65726f206164647265737345524332303a206275726e20616d6f756e7420657863656564732062616c616e63654f776e61626c653a206e6577206f776e657220697320746865207a65726f206164647265737345524332303a20617070726f766520746f20746865207a65726f206164647265737345524332303a207472616e7366657220616d6f756e7420657863656564732062616c616e636545524332303a207472616e7366657220616d6f756e74206578636565647320616c6c6f77616e63654f776e61626c653a2063616c6c6572206973206e6f7420746865206f776e657245524332303a206275726e2066726f6d20746865207a65726f206164647265737345524332303a207472616e736665722066726f6d20746865207a65726f206164647265737345524332303a20617070726f76652066726f6d20746865207a65726f206164647265737345524332303a2064656372656173656420616c6c6f77616e63652062656c6f77207a65726fa264697066735822122061d79501a92a326734bdbff920e8494e88e057aa50f9760d826ee10c39922e3464736f6c634300060800334f776e61626c653a206e6577206f776e657220697320746865207a65726f2061646472657373536166654d6174683a206d756c7469706c69636174696f6e206f766572666c6f774f776e61626c653a2063616c6c6572206973206e6f7420746865206f776e657266756e6374696f6e2063616e6e6f742062652063616c6c656420617420746869732074696d65a2646970667358221220472d47dc0b77545dcb5068d63c2169b863ae11a82dcc88050888b42a7d8ad4ad64736f6c634300060800334f776e61626c653a206e6577206f776e657220697320746865207a65726f20616464726573738be0079c531659141344cd1fd0a4f28419497f9722a3daafe3b4186f6b6457e0",
  "immutableReferences": {},
  "source": "//SPDX-License-Identifier: UNLICENSED\npragma solidity 0.6.8;\n\nimport './interfaces/IAave.sol';\nimport './interfaces/IDai.sol';\nimport './BTMarket.sol';\nimport './Token.sol';\n\n\ncontract TestBTMarket is BTMarket {\n    constructor(\n        Dai _daiAddress,\n        IaToken _aTokenAddress,\n        IAaveLendingPool _aaveLpAddress,\n        IAaveLendingPoolCore _aaveLpcoreAddress,\n        IRealitio _realitioAddress,\n        string memory _eventName,\n        uint256[3] memory _marketTimes,\n        address _arbitrator,\n        string memory _realitioQuestion,\n        uint256 _numberOfOutcomes,\n        address _owner\n    )\n        public\n        BTMarket(\n            _daiAddress,\n            _aTokenAddress,\n            _aaveLpAddress,\n            _aaveLpcoreAddress,\n            _realitioAddress,\n            _eventName,\n            _marketTimes,\n            30,\n            _arbitrator,\n            _realitioQuestion,\n            _numberOfOutcomes,\n            _owner\n        )\n    {}\n\n    function placeBet(uint256 _outcome, uint256 _dai) external override checkState(States.OPEN) whenNotPaused {\n        _placeBet(_outcome, _dai);\n        _mintCash(_dai);\n        _sendToAave(_dai);\n    }\n}\n",
  "sourcePath": "/Users/brenfife/Desktop/MagicBet-Contracts/contracts/TestBTMarket.sol",
  "compiler": {
    "name": "solc",
    "version": "0.6.8+commit.0bbfe453.Emscripten.clang"
  },
  "schemaVersion": "3.1.0",
  "updatedAt": "2020-05-21T22:11:09.460Z",
  "devdoc": {
    "methods": {
      "circuitBreaker()": {
        "details": "change state to WITHDRAW to lock contract and return all fundsin case Oracle never resolves"
      },
      "getWinnings(uint256)": {
        "details": "Returns total winnings for a participant based on current accumulated interest... and assuming the passed _outcome wins."
      },
      "getWinningsInvalid()": {
        "details": "if invalid outcome, simply pay out interest in proportion to bets across all tokenAddressesi.e. as if all the outcomes 'won'"
      },
      "owner()": {
        "details": "Returns the address of the current owner."
      },
      "paused()": {
        "details": "Returns true if the contract is paused, and false otherwise."
      },
      "renounceOwnership()": {
        "details": "Leaves the contract without owner. It will not be possible to call `onlyOwner` functions anymore. Can only be called by the current owner.     * NOTE: Renouncing ownership will leave the contract without an owner, thereby removing any functionality that is only available to the owner."
      },
      "transferOwnership(address)": {
        "details": "Transfers ownership of the contract to a new account (`newOwner`). Can only be called by the current owner."
      }
    }
  },
  "userdoc": {
    "methods": {
      "disableContract()": {
        "notice": "///////////////////////////////// // BOILERPLATE FUNCTIONS //////// /////////////////////////////////"
      },
      "getBetAmountsArray(uint256)": {
        "notice": "///////////////////////////////// /////// VIEW FUNCTIONS ////////// /////////////////////////////////"
      },
      "setEventName(string)": {
        "notice": "///////////////////////////////// ///// INITIAL SETUP ///////////// /////////////////////////////////"
      }
    }
  }
}