{
  "contractName": "TestBTMarketFactory",
  "abi": [
    {
      "inputs": [
        {
          "internalType": "contract Dai",
          "name": "_daiAddress",
          "type": "address"
        },
        {
          "internalType": "contract IaToken",
          "name": "_aTokenAddress",
          "type": "address"
        },
        {
          "internalType": "contract IAaveLendingPool",
          "name": "_aaveLpAddress",
          "type": "address"
        },
        {
          "internalType": "contract IAaveLendingPoolCore",
          "name": "_aaveLpcoreAddress",
          "type": "address"
        },
        {
          "internalType": "contract IRealitio",
          "name": "_realitioAddress",
          "type": "address"
        }
      ],
      "stateMutability": "nonpayable",
      "type": "constructor"
    },
    {
      "anonymous": false,
      "inputs": [
        {
          "indexed": false,
          "internalType": "address",
          "name": "contractAddress",
          "type": "address"
        }
      ],
      "name": "MarketCreated",
      "type": "event"
    },
    {
      "anonymous": false,
      "inputs": [
        {
          "indexed": true,
          "internalType": "address",
          "name": "previousOwner",
          "type": "address"
        },
        {
          "indexed": true,
          "internalType": "address",
          "name": "newOwner",
          "type": "address"
        }
      ],
      "name": "OwnershipTransferred",
      "type": "event"
    },
    {
      "anonymous": false,
      "inputs": [
        {
          "indexed": false,
          "internalType": "address",
          "name": "account",
          "type": "address"
        }
      ],
      "name": "Paused",
      "type": "event"
    },
    {
      "anonymous": false,
      "inputs": [
        {
          "indexed": false,
          "internalType": "address",
          "name": "account",
          "type": "address"
        }
      ],
      "name": "Unpaused",
      "type": "event"
    },
    {
      "inputs": [],
      "name": "aToken",
      "outputs": [
        {
          "internalType": "contract IaToken",
          "name": "",
          "type": "address"
        }
      ],
      "stateMutability": "view",
      "type": "function"
    },
    {
      "inputs": [],
      "name": "aaveLendingPool",
      "outputs": [
        {
          "internalType": "contract IAaveLendingPool",
          "name": "",
          "type": "address"
        }
      ],
      "stateMutability": "view",
      "type": "function"
    },
    {
      "inputs": [],
      "name": "aaveLendingPoolCore",
      "outputs": [
        {
          "internalType": "contract IAaveLendingPoolCore",
          "name": "",
          "type": "address"
        }
      ],
      "stateMutability": "view",
      "type": "function"
    },
    {
      "inputs": [],
      "name": "dai",
      "outputs": [
        {
          "internalType": "contract Dai",
          "name": "",
          "type": "address"
        }
      ],
      "stateMutability": "view",
      "type": "function"
    },
    {
      "inputs": [],
      "name": "destroy",
      "outputs": [],
      "stateMutability": "nonpayable",
      "type": "function"
    },
    {
      "inputs": [
        {
          "internalType": "address payable",
          "name": "marketAddress",
          "type": "address"
        }
      ],
      "name": "disableMarket",
      "outputs": [
        {
          "internalType": "bool",
          "name": "",
          "type": "bool"
        }
      ],
      "stateMutability": "nonpayable",
      "type": "function"
    },
    {
      "inputs": [],
      "name": "getMarkets",
      "outputs": [
        {
          "internalType": "address[]",
          "name": "",
          "type": "address[]"
        }
      ],
      "stateMutability": "view",
      "type": "function"
    },
    {
      "inputs": [
        {
          "internalType": "address",
          "name": "",
          "type": "address"
        }
      ],
      "name": "mappingOfMarkets",
      "outputs": [
        {
          "internalType": "bool",
          "name": "",
          "type": "bool"
        }
      ],
      "stateMutability": "view",
      "type": "function"
    },
    {
      "inputs": [
        {
          "internalType": "uint256",
          "name": "",
          "type": "uint256"
        }
      ],
      "name": "marketAddresses",
      "outputs": [
        {
          "internalType": "address",
          "name": "",
          "type": "address"
        }
      ],
      "stateMutability": "view",
      "type": "function"
    },
    {
      "inputs": [],
      "name": "owner",
      "outputs": [
        {
          "internalType": "address",
          "name": "",
          "type": "address"
        }
      ],
      "stateMutability": "view",
      "type": "function"
    },
    {
      "inputs": [],
      "name": "paused",
      "outputs": [
        {
          "internalType": "bool",
          "name": "",
          "type": "bool"
        }
      ],
      "stateMutability": "view",
      "type": "function"
    },
    {
      "inputs": [],
      "name": "realitio",
      "outputs": [
        {
          "internalType": "contract IRealitio",
          "name": "",
          "type": "address"
        }
      ],
      "stateMutability": "view",
      "type": "function"
    },
    {
      "inputs": [],
      "name": "renounceOwnership",
      "outputs": [],
      "stateMutability": "nonpayable",
      "type": "function"
    },
    {
      "inputs": [
        {
          "internalType": "address",
          "name": "newOwner",
          "type": "address"
        }
      ],
      "name": "transferOwnership",
      "outputs": [],
      "stateMutability": "nonpayable",
      "type": "function"
    },
    {
      "inputs": [
        {
          "internalType": "string",
          "name": "_eventName",
          "type": "string"
        },
        {
          "internalType": "uint256",
          "name": "_marketOpeningTime",
          "type": "uint256"
        },
        {
          "internalType": "uint256",
          "name": "_marketLockingTime",
          "type": "uint256"
        },
        {
          "internalType": "uint32",
          "name": "_marketResolutionTime",
          "type": "uint32"
        },
        {
          "internalType": "uint32",
          "name": "_timeout",
          "type": "uint32"
        },
        {
          "internalType": "address",
          "name": "_arbitrator",
          "type": "address"
        },
        {
          "internalType": "string",
          "name": "_realitioQuestion",
          "type": "string"
        },
        {
          "internalType": "uint256",
          "name": "_numberOfOutcomes",
          "type": "uint256"
        }
      ],
      "name": "createMarket",
      "outputs": [
        {
          "internalType": "contract BTMarket",
          "name": "",
          "type": "address"
        }
      ],
      "stateMutability": "nonpayable",
      "type": "function"
    }
  ],
  "bytecode": "0x608060405234801561001057600080fd5b5060405161507c38038061507c833981810160405260a081101561003357600080fd5b508051602082015160408301516060840151608090940151929391929091908484848484600061006a6001600160e01b0361012916565b600080546001600160a01b0319166001600160a01b0383169081178255604051929350917f8be0079c531659141344cd1fd0a4f28419497f9722a3daafe3b4186f6b6457e0908290a3506000805460ff60a01b19169055600180546001600160a01b03199081166001600160a01b039788161790915560028054821695871695909517909455600380548516938616939093179092556004805484169185169190911790556005805490921692169190911790555061012d9350505050565b3390565b614f408061013c6000396000f3fe60806040523480156200001157600080fd5b50600436106200010c5760003560e01c8063a0c1f15e11620000a5578063ec2c9016116200006f578063ec2c90161462000341578063f2fde38b146200039d578063f4b9fa7514620003c6578063f55a898c14620003d0576200010c565b8063a0c1f15e14620002fa578063bc8802a21462000304578063d3f8fb81146200030e578063e9d337b81462000337576200010c565b80635c975abb11620000e75780635c975abb14620002bc578063715018a614620002da57806383197ef014620002e65780638da5cb5b14620002f0576200010c565b8063222007591462000111578063350293a114620002925780633ca5583314620002b2575b600080fd5b6200027660048036036101008110156200012a57600080fd5b8101906020810181356401000000008111156200014657600080fd5b8201836020820111156200015957600080fd5b803590602001918460018302840111640100000000831117156200017c57600080fd5b91908080601f016020809104026020016040519081016040528093929190818152602001838380828437600092019190915250929584359560208601359563ffffffff60408201358116965060608201351694506001600160a01b03608082013516935060c081019060a00135640100000000811115620001fc57600080fd5b8201836020820111156200020f57600080fd5b803590602001918460018302840111640100000000831117156200023257600080fd5b91908080601f0160208091040260200160405190810160405280939291908181526020018383808284376000920191909152509295505091359250620003f9915050565b604080516001600160a01b039092168252519081900360200190f35b6200027660048036036020811015620002aa57600080fd5b50356200073f565b6200027662000767565b620002c662000776565b604080519115158252519081900360200190f35b620002e462000786565b005b620002e46200082c565b62000276620008e1565b62000276620008f0565b62000276620008ff565b620002c6600480360360208110156200032657600080fd5b50356001600160a01b03166200090e565b6200027662000923565b6200034b62000932565b60408051602080825283518183015283519192839290830191858101910280838360005b83811015620003895781810151838201526020016200036f565b505050509050019250505060405180910390f35b620002e460048036036020811015620003b557600080fd5b50356001600160a01b031662000996565b6200027662000a94565b620002c660048036036020811015620003e857600080fd5b50356001600160a01b031662000aa3565b60008054600160a01b900460ff16156200044d576040805162461bcd60e51b815260206004820152601060248201526f14185d5cd8589b194e881c185d5cd95960821b604482015290519081900360640190fd5b6200045762000bd1565b60405180606001604052808a81526020018981526020018863ffffffff1681525090506000600160009054906101000a90046001600160a01b0316600260009054906101000a90046001600160a01b0316600360009054906101000a90046001600160a01b0316600460009054906101000a90046001600160a01b0316600560009054906101000a90046001600160a01b03168f878c8c8c33604051620004fe9062000bef565b6001600160a01b03808d1682528b811660208301528a81166040830152898116606080840191909152908916608083015260a082019060c0830190889080838360005b838110156200055b57818101518382015260200162000541565b50505050905001866001600160a01b03166001600160a01b0316815260200180602001858152602001846001600160a01b03166001600160a01b03168152602001838103835289818151815260200191508051906020019080838360005b83811015620005d3578181015183820152602001620005b9565b50505050905090810190601f168015620006015780820380516001836020036101000a031916815260200191505b50838103825286518152865160209182019188019080838360005b83811015620006365781810151838201526020016200061c565b50505050905090810190601f168015620006645780820380516001836020036101000a031916815260200191505b509d5050505050505050505050505050604051809103906000f08015801562000691573d6000803e3d6000fd5b506007805460018082019092557fa66cc928b5edb82af9bd49922954155ab7b0942694bea4ce44661d9a8736c6880180546001600160a01b0319166001600160a01b038416908117909155600081815260066020908152604091829020805460ff191690941790935580519182525192935083927fb27af04ab132a0b6bba5de2a84bbbadcc31c20c33932936a992ae6ff951259c3929181900390910190a1509a9950505050505050505050565b600781815481106200074d57fe5b6000918252602090912001546001600160a01b0316905081565b6004546001600160a01b031681565b600054600160a01b900460ff1690565b6200079062000bcd565b6000546001600160a01b03908116911614620007e2576040805162461bcd60e51b8152602060048201819052602482015260008051602062004eeb833981519152604482015290519081900360640190fd5b600080546040516001600160a01b03909116907f8be0079c531659141344cd1fd0a4f28419497f9722a3daafe3b4186f6b6457e0908390a3600080546001600160a01b0319169055565b6200083662000bcd565b6000546001600160a01b0390811691161462000888576040805162461bcd60e51b8152602060048201819052602482015260008051602062004eeb833981519152604482015290519081900360640190fd5b600054600160a01b900460ff16620008de576040805162461bcd60e51b815260206004820152601460248201527314185d5cd8589b194e881b9bdd081c185d5cd95960621b604482015290519081900360640190fd5b33ff5b6000546001600160a01b031690565b6002546001600160a01b031681565b6005546001600160a01b031681565b60066020526000908152604090205460ff1681565b6003546001600160a01b031681565b606060078054806020026020016040519081016040528092919081815260200182805480156200098c57602002820191906000526020600020905b81546001600160a01b031681526001909101906020018083116200096d575b5050505050905090565b620009a062000bcd565b6000546001600160a01b03908116911614620009f2576040805162461bcd60e51b8152602060048201819052602482015260008051602062004eeb833981519152604482015290519081900360640190fd5b6001600160a01b03811662000a395760405162461bcd60e51b815260040180806020018281038252602681526020018062004e946026913960400191505060405180910390fd5b600080546040516001600160a01b03808516939216917f8be0079c531659141344cd1fd0a4f28419497f9722a3daafe3b4186f6b6457e091a3600080546001600160a01b0319166001600160a01b0392909216919091179055565b6001546001600160a01b031681565b600062000aaf62000bcd565b6000546001600160a01b0390811691161462000b01576040805162461bcd60e51b8152602060048201819052602482015260008051602062004eeb833981519152604482015290519081900360640190fd5b6001600160a01b038216600090815260066020526040902054829060ff1662000b5c5760405162461bcd60e51b815260040180806020018281038252603181526020018062004eba6031913960400191505060405180910390fd5b826001600160a01b031663894ba8336040518163ffffffff1660e01b8152600401602060405180830381600087803b15801562000b9857600080fd5b505af115801562000bad573d6000803e3d6000fd5b505050506040513d602081101562000bc457600080fd5b50519392505050565b3390565b60405180606001604052806003906020820280368337509192915050565b6142968062000bfe8339019056fe60806040526045601a55601b805460ff191660011790553480156200002357600080fd5b50604051620042963803806200429683398181016040526101a08110156200004a57600080fd5b815160208301516040808501516060860151608087015160a0880180519451969895979396929591949293820192846401000000008211156200008c57600080fd5b908301906020820185811115620000a257600080fd5b8251640100000000811182820188101715620000bd57600080fd5b82525081516020918201929091019080838360005b83811015620000ec578181015183820152602001620000d2565b50505050905090810190601f1680156200011a5780820380516001836020036101000a031916815260200191505b5060405260200191908260600180519060200190929190805160405193929190846401000000008211156200014e57600080fd5b9083019060208201858111156200016457600080fd5b82516401000000008111828201881017156200017f57600080fd5b82525081516020918201929091019080838360005b83811015620001ae57818101518382015260200162000194565b50505050905090810190601f168015620001dc5780820380516001836020036101000a031916815260200191505b506040908152602082015191015190925090508a8a8a8a8a8a8a601e8b8b8b8b6000620002116001600160e01b03620003cc16565b600080546001600160a01b0319166001600160a01b03831690811782556040519293509160008051602062004276833981519152908290a3506000805461ffff60a01b1916600160a81b1790556001600160a01b0381163314620002835762000283816001600160e01b03620003d116565b600180546001600160a01b03199081166001600160a01b038f811691909117928390556002805483168f83161790556003805483168e8316179055600480549092168b82161782556040805163095ea7b360e01b81528d831693810193909352600160ff1b60248401525192169163095ea7b3916044808201926020929091908290030181600087803b1580156200031a57600080fd5b505af11580156200032f573d6000803e3d6000fd5b505050506040513d60208110156200034657600080fd5b505086516200035d90600c9060208a019062000626565b50855160075560208601516009556040860151600a805463ffffffff191663ffffffff9283161790819055600f8490556002914291620003a791849188918a918c911686620004d8565b600b8190555050505050505050505050505050505050505050505050505050620006c8565b335b90565b620003e46001600160e01b03620003cc16565b6000546001600160a01b0390811691161462000447576040805162461bcd60e51b815260206004820181905260248201527f4f776e61626c653a2063616c6c6572206973206e6f7420746865206f776e6572604482015290519081900360640190fd5b6001600160a01b0381166200048e5760405162461bcd60e51b8152600401808060200182810382526026815260200180620042506026913960400191505060405180910390fd5b600080546040516001600160a01b03808516939216916000805160206200427683398151915291a3600080546001600160a01b0319166001600160a01b0392909216919091179055565b6000600460009054906101000a90046001600160a01b03166001600160a01b031663762c38fd8888888888886040518763ffffffff1660e01b81526004018087815260200180602001866001600160a01b03166001600160a01b031681526020018563ffffffff1663ffffffff1681526020018463ffffffff1663ffffffff168152602001838152602001828103825287818151815260200191508051906020019080838360005b838110156200059a57818101518382015260200162000580565b50505050905090810190601f168015620005c85780820380516001836020036101000a031916815260200191505b50975050505050505050602060405180830381600087803b158015620005ed57600080fd5b505af115801562000602573d6000803e3d6000fd5b505050506040513d60208110156200061957600080fd5b5051979650505050505050565b828054600181600116156101000203166002900490600052602060002090601f016020900481019282601f106200066957805160ff191683800117855562000699565b8280016001018555821562000699579182015b82811115620006995782518255916020019190600101906200067c565b50620006a7929150620006ab565b5090565b620003ce91905b80821115620006a75760008155600101620006b2565b613b7880620006d86000396000f3fe608060405260043610620002bf5760003560e01c80638da5cb5b116200016f578063befa1e2f11620000d3578063e9d337b81162000085578063e9d337b814620009b8578063ee72b06d14620009d0578063f2fde38b14620009e8578063f4b9fa751462000a1f578063f7f9940e1462000a37578063fd27b51e1462000a8457620002c7565b8063befa1e2f14620008b8578063c19d93fb14620008d0578063c56f338c146200090d578063d844ab5f146200093b578063e14dedfd1462000972578063e5df8b84146200098a57620002c7565b8063a055ccc5116200012d578063a055ccc51462000812578063a0c1f15e146200082a578063aa0cb8421462000842578063ad5d2862146200085a578063b06a5c521462000888578063bc8802a214620008a057620002c7565b80638da5cb5b146200070f578063906d62411462000727578063991d4f5d146200075e5780639b34ae0314620007e25780639d7c7d3914620007fa57620002c7565b806347254f4f11620002235780635c975abb11620001d55780635c975abb14620005be5780636c0dc97614620005d6578063715018a614620006af5780638043c9c014620006c75780638263302814620006df578063894ba83314620006f757620002c7565b806347254f4f14620004fc57806349200d7714620005145780634afe62b5146200052c5780634b8755ca14620005605780634ecc79f71462000578578063519709c4146200059057620002c7565b806327acae74116200027d57806327acae74146200039857806333b16d93146200043e57806335c1d3491462000456578063367edd3214620004a05780633ccfd60b14620004cc5780633eac554014620004e457620002c7565b806305801f0b14620002c95780630b60365c1462000309578063149b5d58146200032157806316efd941146200034f578063232ea3ad146200036757620002c7565b36620002c757005b005b348015620002d657600080fd5b50620002f760048036036020811015620002ef57600080fd5b503562000a9c565b60408051918252519081900360200190f35b3480156200031657600080fd5b50620002f762000aae565b3480156200032e57600080fd5b50620002f7600480360360208110156200034757600080fd5b503562000b69565b3480156200035c57600080fd5b50620002c762000c02565b3480156200037457600080fd5b506200037f62000c71565b6040805163ffffffff9092168252519081900360200190f35b348015620003a557600080fd5b50620003c660048036036020811015620003be57600080fd5b503562000c7d565b6040805160208082528351818301528351919283929083019185019080838360005b8381101562000402578181015183820152602001620003e8565b50505050905090810190601f168015620004305780820380516001836020036101000a031916815260200191505b509250505060405180910390f35b3480156200044b57600080fd5b50620002c762000d28565b3480156200046357600080fd5b5062000484600480360360208110156200047c57600080fd5b503562000e06565b604080516001600160a01b039092168252519081900360200190f35b348015620004ad57600080fd5b50620004b862000e2e565b604080519115158252519081900360200190f35b348015620004d957600080fd5b50620002c762000eec565b348015620004f157600080fd5b50620002f7620010b4565b3480156200050957600080fd5b50620004b8620010ba565b3480156200052157600080fd5b50620002f7620010c3565b3480156200053957600080fd5b50620002c7600480360360408110156200055257600080fd5b5080359060200135620010c9565b3480156200056d57600080fd5b50620002f762001196565b3480156200058557600080fd5b50620002f76200119c565b3480156200059d57600080fd5b50620002f760048036036020811015620005b657600080fd5b5035620011a2565b348015620005cb57600080fd5b50620004b8620011b4565b348015620005e357600080fd5b50620002c760048036036040811015620005fc57600080fd5b8101906020810181356401000000008111156200061857600080fd5b8201836020820111156200062b57600080fd5b803590602001918460018302840111640100000000831117156200064e57600080fd5b9193909290916020810190356401000000008111156200066d57600080fd5b8201836020820111156200068057600080fd5b80359060200191846001830284011164010000000083111715620006a357600080fd5b509092509050620011c4565b348015620006bc57600080fd5b50620002c7620013c5565b348015620006d457600080fd5b50620003c66200146b565b348015620006ec57600080fd5b50620002f7620014c9565b3480156200070457600080fd5b50620004b8620014cf565b3480156200071c57600080fd5b50620004846200158a565b3480156200073457600080fd5b50620004b8600480360360208110156200074d57600080fd5b50356001600160a01b031662001599565b3480156200076b57600080fd5b50620002c7600480360360208110156200078457600080fd5b810190602081018135640100000000811115620007a057600080fd5b820183602082011115620007b357600080fd5b80359060200191846001830284011164010000000083111715620007d657600080fd5b509092509050620015ae565b348015620007ef57600080fd5b50620002f762001618565b3480156200080757600080fd5b50620002f76200161e565b3480156200081f57600080fd5b50620002f762001657565b3480156200083757600080fd5b5062000484620016e3565b3480156200084f57600080fd5b50620002f7620016f2565b3480156200086757600080fd5b50620002f7600480360360208110156200088057600080fd5b5035620016f8565b3480156200089557600080fd5b50620002f762001805565b348015620008ad57600080fd5b50620004846200180b565b348015620008c557600080fd5b50620002f76200181a565b348015620008dd57600080fd5b50620008e862001820565b60405180826004811115620008f957fe5b60ff16815260200191505060405180910390f35b3480156200091a57600080fd5b50620002f7600480360360208110156200093357600080fd5b503562001829565b3480156200094857600080fd5b50620002f7600480360360208110156200096157600080fd5b50356001600160a01b03166200183b565b3480156200097f57600080fd5b50620002f76200184d565b3480156200099757600080fd5b506200048460048036036020811015620009b057600080fd5b503562001853565b348015620009c557600080fd5b506200048462001861565b348015620009dd57600080fd5b50620002c762001870565b348015620009f557600080fd5b50620002c76004803603602081101562000a0e57600080fd5b50356001600160a01b031662001a17565b34801562000a2c57600080fd5b506200048462001b15565b34801562000a4457600080fd5b5062000a6b6004803603604081101562000a5d57600080fd5b508035906020013562001b24565b6040805192835260208301919091528051918290030190f35b34801562000a9157600080fd5b50620002f762001b5e565b60126020526000908152604090205481565b60008062000aca60175460165462001b6490919063ffffffff16565b600254604080516370a0823160e01b815230600482015290519293506000926001600160a01b03909216916370a0823191602480820192602092909190829003018186803b15801562000b1c57600080fd5b505afa15801562000b31573d6000803e3d6000fd5b505050506040513d602081101562000b4857600080fd5b50519050600062000b60828463ffffffff62001b6416565b93505050505b90565b600080600e838154811062000b7a57fe5b60009182526020918290200154604080516370a0823160e01b815233600482015290516001600160a01b03909216935083926370a0823192602480840193829003018186803b15801562000bcd57600080fd5b505afa15801562000be2573d6000803e3d6000fd5b505050506040513d602081101562000bf957600080fd5b50519392505050565b600a546224ea0063ffffffff9182160116421162000c53576040805162461bcd60e51b8152602060048201526009602482015268546f6f206561726c7960b81b604482015290519081900360640190fd5b601b805460ff19908116600117909155601080549091166004179055565b600a5463ffffffff1681565b600d818154811062000c8b57fe5b600091825260209182902001805460408051601f600260001961010060018716150201909416939093049283018590048502810185019091528181529350909183018282801562000d205780601f1062000cf45761010080835404028352916020019162000d20565b820191906000526020600020905b81548152906001019060200180831162000d0257829003601f168201915b505050505081565b600054600160a01b900460ff161562000d7b576040805162461bcd60e51b815260206004820152601060248201526f14185d5cd8589b194e881c185d5cd95960821b604482015290519081900360640190fd5b62000d8562001bb1565b62000dd7576040805162461bcd60e51b815260206004820152601860248201527f4f7261636c6520686173206e6f742066696e616c697365640000000000000000604482015290519081900360640190fd5b62000de162001c36565b601a8190556000191462000dfa57601b805460ff191690555b62000e0462001870565b565b6018818154811062000e1457fe5b6000918252602090912001546001600160a01b0316905081565b600062000e3a62001cbd565b6000546001600160a01b0390811691161462000e8c576040805162461bcd60e51b8152602060048201819052602482015260008051602062003afd833981519152604482015290519081900360640190fd5b600054600160a01b900460ff1662000ee2576040805162461bcd60e51b815260206004820152601460248201527314185d5cd8589b194e881b9bdd081c185d5cd95960621b604482015290519081900360640190fd5b62000b6662001cc1565b60048060105460ff16600481111562000f0157fe5b1462000f3f5760405162461bcd60e51b815260040180806020018281038252602681526020018062003b1d6026913960400191505060405180910390fd5b600054600160a01b900460ff161562000f92576040805162461bcd60e51b815260206004820152601060248201526f14185d5cd8589b194e881c185d5cd95960821b604482015290519081900360640190fd5b600054600160a81b900460ff1662000ff1576040805162461bcd60e51b815260206004820152601f60248201527f5265656e7472616e637947756172643a207265656e7472616e742063616c6c00604482015290519081900360640190fd5b6000805460ff60a81b191681553381526019602052604090205460ff161562001055576040805162461bcd60e51b815260206004820152601160248201527020b63932b0b23c903bb4ba34323930bbb760791b604482015290519081900360640190fd5b336000908152601960205260409020805460ff19166001179055601b5460ff166200108a576200108462001d6c565b62001094565b6200109462001dc6565b6200109e62001dd2565b506000805460ff60a81b1916600160a81b179055565b60085481565b601b5460ff1681565b600f5481565b60028060105460ff166004811115620010de57fe5b146200111c5760405162461bcd60e51b815260040180806020018281038252602681526020018062003b1d6026913960400191505060405180910390fd5b600054600160a01b900460ff16156200116f576040805162461bcd60e51b815260206004820152601060248201526f14185d5cd8589b194e881c185d5cd95960821b604482015290519081900360640190fd5b6200117b838362001f69565b6200118682620021c3565b62001191826200222d565b505050565b60095481565b60075481565b60156020526000908152604090205481565b600054600160a01b900460ff1690565b620011ce62001cbd565b6000546001600160a01b0390811691161462001220576040805162461bcd60e51b8152602060048201819052602482015260008051602062003afd833981519152604482015290519081900360640190fd5b60008060105460ff1660048111156200123557fe5b14620012735760405162461bcd60e51b815260040180806020018281038252602681526020018062003b1d6026913960400191505060405180910390fd5b600d8054600181018255600091909152620012b2907fd7b6990105719101dabeb77144f2a3385c8033acd3af97e9423a695e81ad1eb501868662002639565b5060008383604051620012c590620026be565b6020808252810182905280604081018484808284376000838201819052604051601f909201601f1916909301819003965094509092505050f08015801562001311573d6000803e3d6000fd5b50600e8054600180820183556000929092527fbb7b4a454dc3493923482f07822329ed19e8244eff582cc204f8554c3620c3fd0180546001600160a01b0319166001600160a01b0384161790556005549192506200137091906200228b565b6005819055600f541415620013bd5760105460ff1660048111156200139157fe5b6001016004811115620013a057fe5b6010805460ff19166001836004811115620013b757fe5b02179055505b505050505050565b620013cf62001cbd565b6000546001600160a01b0390811691161462001421576040805162461bcd60e51b8152602060048201819052602482015260008051602062003afd833981519152604482015290519081900360640190fd5b600080546040516001600160a01b03909116907f8be0079c531659141344cd1fd0a4f28419497f9722a3daafe3b4186f6b6457e0908390a3600080546001600160a01b0319169055565b600c805460408051602060026001851615610100026000190190941693909304601f8101849004840282018401909252818152929183018282801562000d205780601f1062000cf45761010080835404028352916020019162000d20565b60065481565b6000620014db62001cbd565b6000546001600160a01b039081169116146200152d576040805162461bcd60e51b8152602060048201819052602482015260008051602062003afd833981519152604482015290519081900360640190fd5b600054600160a01b900460ff161562001580576040805162461bcd60e51b815260206004820152601060248201526f14185d5cd8589b194e881c185d5cd95960821b604482015290519081900360640190fd5b62000b66620022e6565b6000546001600160a01b031690565b60196020526000908152604090205460ff1681565b620015b862001cbd565b6000546001600160a01b039081169116146200160a576040805162461bcd60e51b8152602060048201819052602482015260008051602062003afd833981519152604482015290519081900360640190fd5b62001191600c838362002639565b601a5481565b6000600460105460ff1660048111156200163457fe5b141562001645575060065462000b66565b6200164f62000aae565b905062000b66565b33600090815260136020526040812054819015620016de5760006200167b62000aae565b905060006200169860175460165462001b6490919063ffffffff16565b90508015620016db5733600090815260136020526040902054620016d8908290620016cb90859063ffffffff6200237716565b9063ffffffff620023d516565b92505b50505b905090565b6002546001600160a01b031681565b60055481565b600080600e83815481106200170957fe5b6000918252602080832090910154604080516370a0823160e01b815233600482015290516001600160a01b039092169450839285926370a08231926024808201939291829003018186803b1580156200176157600080fd5b505afa15801562001776573d6000803e3d6000fd5b505050506040513d60208110156200178d57600080fd5b505190508015620017fd576000620017a462000aae565b601a5460009081526014602090815260408083205460129092528220549293509091620017d79163ffffffff62001b6416565b90508015620017fa57620017f781620016cb848663ffffffff6200237716565b93505b50505b509392505050565b600b5481565b6004546001600160a01b031681565b60165481565b60105460ff1681565b60146020526000908152604090205481565b60136020526000908152604090205481565b60175481565b600e818154811062000e1457fe5b6003546001600160a01b031681565b600054600160a01b900460ff1615620018c3576040805162461bcd60e51b815260206004820152601060248201526f14185d5cd8589b194e881c185d5cd95960821b604482015290519081900360640190fd5b600160105460ff166004811115620018d757fe5b148015620018e6575042600754105b80620019105750600260105460ff1660048111156200190157fe5b14801562001910575042600954105b806200193c5750600360105460ff1660048111156200192b57fe5b1480156200193c5750601a54604514155b1562000e0457600160105460ff1660048111156200195657fe5b14156200196257426008555b600360105460ff1660048111156200197657fe5b14156200198b576200198762000aae565b6006555b60105460ff1660048111156200199d57fe5b6001016004811115620019ac57fe5b6010805460ff19166001836004811115620019c357fe5b02179055506010546040517f551dc40198cc79684bb69e4931dba4ac16e4598792ee1c0a5000aeea366d7bb69160ff16908082600481111562001a0257fe5b60ff16815260200191505060405180910390a1565b62001a2162001cbd565b6000546001600160a01b0390811691161462001a73576040805162461bcd60e51b8152602060048201819052602482015260008051602062003afd833981519152604482015290519081900360640190fd5b6001600160a01b03811662001aba5760405162461bcd60e51b815260040180806020018281038252602681526020018062003ab66026913960400191505060405180910390fd5b600080546040516001600160a01b03808516939216917f8be0079c531659141344cd1fd0a4f28419497f9722a3daafe3b4186f6b6457e091a3600080546001600160a01b0319166001600160a01b0392909216919091179055565b6001546001600160a01b031681565b6011602052816000526040600020818154811062001b3e57fe5b600091825260209091206002909102018054600190910154909250905082565b60185490565b600062001ba883836040518060400160405280601e81526020017f536166654d6174683a207375627472616374696f6e206f766572666c6f77000081525062002419565b90505b92915050565b60048054600b5460408051633fc6a14f60e11b815293840191909152516000926001600160a01b0390921691637f8d429e916024808301926020929190829003018186803b15801562001c0357600080fd5b505afa15801562001c18573d6000803e3d6000fd5b505050506040513d602081101562001c2f57600080fd5b5051905090565b60048054600b546040805163684e62bf60e11b8152938401919091525160009283926001600160a01b03169163d09cc57e91602480820192602092909190829003018186803b15801562001c8957600080fd5b505afa15801562001c9e573d6000803e3d6000fd5b505050506040513d602081101562001cb557600080fd5b505191505090565b3390565b600054600160a01b900460ff1662001d17576040805162461bcd60e51b815260206004820152601460248201527314185d5cd8589b194e881b9bdd081c185d5cd95960621b604482015290519081900360640190fd5b6000805460ff60a01b191690557f5db9ee0a495bf2e6ff9c91a7834c1ba4fdd244a5e8aa4e537bd38aeae4b073aa62001d4f62001cbd565b604080516001600160a01b039092168252519081900360200190a1565b600062001d7b601a54620016f8565b336000908152601360205260408120549192509062001da290839063ffffffff6200228b16565b9050801562001dc25762001db681620024b4565b62001dc2338262002502565b5050565b600062001d7b62001657565b6000805b600f5481101562001f34576000600e828154811062001df157fe5b6000918252602080832090910154604080516370a0823160e01b815233600482015290516001600160a01b03909216945084926370a0823192602480840193829003018186803b15801562001e4557600080fd5b505afa15801562001e5a573d6000803e3d6000fd5b505050506040513d602081101562001e7157600080fd5b50519050801562001f295762001e8e848263ffffffff6200228b16565b60008481526014602052604090205490945062001eb2908263ffffffff6200228b16565b600084815260146020526040808220929092558151632770a7eb60e21b81523360048201526024810184905291516001600160a01b03851692639dc29fac92604480830193919282900301818387803b15801562001f0f57600080fd5b505af115801562001f24573d6000803e3d6000fd5b505050505b505060010162001dd6565b5033600090815260136020526040902054811462001f4e57fe5b60175462001f63908263ffffffff6200228b16565b60175550565b62001f73620026cc565b81815242602080830191825260008581526011825260408120805460018181018355918352928220855160029094020192835592519190920155600e80548590811062001fbc57fe5b60009182526020918290200154604080516370a0823160e01b815233600482015290516001600160a01b03909216935083926370a0823192602480840193829003018186803b1580156200200f57600080fd5b505afa15801562002024573d6000803e3d6000fd5b505050506040513d60208110156200203b57600080fd5b5051620020b0576018805460018181019092557fb13d2d76d1f4b7be834882e410b3e3a8afaf69f83600ae24db354391d2378d2e0180546001600160a01b03191633179055600085815260156020526040902054620020a09163ffffffff6200228b16565b6000858152601560205260409020555b60405133907fef3b3ae531a4f494c95e537ec1fe385cfe5c1146cb4c1d850b24bad38595804990600090a2604080516340c10f1960e01b81523360048201526024810185905290516001600160a01b038316916340c10f1991604480830192600092919082900301818387803b1580156200212a57600080fd5b505af11580156200213f573d6000803e3d6000fd5b505060165462002159925090508463ffffffff6200228b16565b6016556000848152601260205260409020546200217d908463ffffffff6200228b16565b600085815260126020908152604080832093909355338252601390522054620021ad908463ffffffff6200228b16565b3360009081526013602052604090205550505050565b6001546040805163140e25ad60e31b81526004810184905290516001600160a01b039092169163a0712d689160248082019260009290919082900301818387803b1580156200221157600080fd5b505af115801562002226573d6000803e3d6000fd5b5050505050565b60035460015460408051636968703360e11b81526001600160a01b039283166004820152602481018590526000604482018190529151929093169263d2d0e066926064808301939282900301818387803b1580156200221157600080fd5b60008282018381101562001ba8576040805162461bcd60e51b815260206004820152601b60248201527f536166654d6174683a206164646974696f6e206f766572666c6f770000000000604482015290519081900360640190fd5b600054600160a01b900460ff161562002339576040805162461bcd60e51b815260206004820152601060248201526f14185d5cd8589b194e881c185d5cd95960821b604482015290519081900360640190fd5b6000805460ff60a01b1916600160a01b1790557f62e78cea01bee320cd4e420270b5ea74000d11b0c9f74754ebdbfc544b05a25862001d4f62001cbd565b600082620023885750600062001bab565b828202828482816200239657fe5b041462001ba85760405162461bcd60e51b815260040180806020018281038252602181526020018062003adc6021913960400191505060405180910390fd5b600062001ba883836040518060400160405280601a81526020017f536166654d6174683a206469766973696f6e206279207a65726f000000000000815250620025d0565b60008184841115620024ac5760405162461bcd60e51b81526004018080602001828103825283818151815260200191508051906020019080838360005b838110156200247057818101518382015260200162002456565b50505050905090810190601f1680156200249e5780820380516001836020036101000a031916815260200191505b509250505060405180910390fd5b505050900390565b6002546040805163db006a7560e01b81526004810184905290516001600160a01b039092169163db006a759160248082019260009290919082900301818387803b1580156200221157600080fd5b6001546040805163a9059cbb60e01b81526001600160a01b038581166004830152602482018590529151919092169163a9059cbb9160448083019260209291908290030181600087803b1580156200255957600080fd5b505af11580156200256e573d6000803e3d6000fd5b505050506040513d60208110156200258557600080fd5b505162001dc2576040805162461bcd60e51b815260206004820152601460248201527310d85cda081d1c985b9cd9995c8819985a5b195960621b604482015290519081900360640190fd5b60008183620026225760405162461bcd60e51b81526020600482018181528351602484015283519092839260449091019190850190808383600083156200247057818101518382015260200162002456565b5060008385816200262f57fe5b0495945050505050565b828054600181600116156101000203166002900490600052602060002090601f016020900481019282601f106200267c5782800160ff19823516178555620026ac565b82800160010185558215620026ac579182015b82811115620026ac5782358255916020019190600101906200268f565b50620026ba929150620026e6565b5090565b6113b2806200270483390190565b604051806040016040528060008152602001600081525090565b62000b6691905b80821115620026ba5760008155600101620026ed56fe60806040523480156200001157600080fd5b50604051620013b2380380620013b2833981810160405260208110156200003757600080fd5b81019080805160405193929190846401000000008211156200005857600080fd5b9083019060208201858111156200006e57600080fd5b82516401000000008111828201881017156200008957600080fd5b82525081516020918201929091019080838360005b83811015620000b85781810151838201526020016200009e565b50505050905090810190601f168015620000e65780820380516001836020036101000a031916815260200191505b5060408181019052600281526126a160f11b60208083019190915285518695509193506200011c925060039190850190620001b9565b50805162000132906004906020840190620001b9565b50506005805460ff19166012179055506000620001576001600160e01b03620001b416565b60058054610100600160a81b0319166101006001600160a01b03841690810291909117909155604051919250906000907f8be0079c531659141344cd1fd0a4f28419497f9722a3daafe3b4186f6b6457e0908290a350506200025b565b335b90565b828054600181600116156101000203166002900490600052602060002090601f016020900481019282601f10620001fc57805160ff19168380011785556200022c565b828001600101855582156200022c579182015b828111156200022c5782518255916020019190600101906200020f565b506200023a9291506200023e565b5090565b620001b691905b808211156200023a576000815560010162000245565b611147806200026b6000396000f3fe6080604052600436106100f75760003560e01c8063715018a61161008a578063a457c2d711610059578063a457c2d7146103a5578063a9059cbb146103de578063dd62ed3e14610417578063f2fde38b14610452576100fe565b8063715018a6146103115780638da5cb5b1461032657806395d89b41146103575780639dc29fac1461036c576100fe565b8063313ce567116100c6578063313ce56714610241578063395093511461026c57806340c10f19146102a557806370a08231146102de576100fe565b806306fdde0314610100578063095ea7b31461018a57806318160ddd146101d757806323b872dd146101fe576100fe565b366100fe57005b005b34801561010c57600080fd5b50610115610485565b6040805160208082528351818301528351919283929083019185019080838360005b8381101561014f578181015183820152602001610137565b50505050905090810190601f16801561017c5780820380516001836020036101000a031916815260200191505b509250505060405180910390f35b34801561019657600080fd5b506101c3600480360360408110156101ad57600080fd5b506001600160a01b03813516906020013561051b565b604080519115158252519081900360200190f35b3480156101e357600080fd5b506101ec610538565b60408051918252519081900360200190f35b34801561020a57600080fd5b506101c36004803603606081101561022157600080fd5b506001600160a01b0381358116916020810135909116906040013561053e565b34801561024d57600080fd5b506102566105cb565b6040805160ff9092168252519081900360200190f35b34801561027857600080fd5b506101c36004803603604081101561028f57600080fd5b506001600160a01b0381351690602001356105d4565b3480156102b157600080fd5b506100fe600480360360408110156102c857600080fd5b506001600160a01b038135169060200135610628565b3480156102ea57600080fd5b506101ec6004803603602081101561030157600080fd5b50356001600160a01b0316610693565b34801561031d57600080fd5b506100fe6106ae565b34801561033257600080fd5b5061033b61075b565b604080516001600160a01b039092168252519081900360200190f35b34801561036357600080fd5b5061011561076f565b34801561037857600080fd5b506100fe6004803603604081101561038f57600080fd5b506001600160a01b0381351690602001356107d0565b3480156103b157600080fd5b506101c3600480360360408110156103c857600080fd5b506001600160a01b038135169060200135610837565b3480156103ea57600080fd5b506101c36004803603604081101561040157600080fd5b506001600160a01b0381351690602001356108a5565b34801561042357600080fd5b506101ec6004803603604081101561043a57600080fd5b506001600160a01b03813581169160200135166108b9565b34801561045e57600080fd5b506100fe6004803603602081101561047557600080fd5b50356001600160a01b03166108e4565b60038054604080516020601f60026000196101006001881615020190951694909404938401819004810282018101909252828152606093909290918301828280156105115780601f106104e657610100808354040283529160200191610511565b820191906000526020600020905b8154815290600101906020018083116104f457829003601f168201915b5050505050905090565b600061052f6105286109ed565b84846109f1565b50600192915050565b60025490565b600061054b848484610add565b6105c1846105576109ed565b6105bc8560405180606001604052806028815260200161103b602891396001600160a01b038a166000908152600160205260408120906105956109ed565b6001600160a01b03168152602081019190915260400160002054919063ffffffff610c4416565b6109f1565b5060019392505050565b60055460ff1690565b600061052f6105e16109ed565b846105bc85600160006105f26109ed565b6001600160a01b03908116825260208083019390935260409182016000908120918c16815292529020549063ffffffff610cdb16565b6106306109ed565b60055461010090046001600160a01b03908116911614610685576040805162461bcd60e51b81526020600482018190526024820152600080516020611063833981519152604482015290519081900360640190fd5b61068f8282610d3c565b5050565b6001600160a01b031660009081526020819052604090205490565b6106b66109ed565b60055461010090046001600160a01b0390811691161461070b576040805162461bcd60e51b81526020600482018190526024820152600080516020611063833981519152604482015290519081900360640190fd5b60055460405160009161010090046001600160a01b0316907f8be0079c531659141344cd1fd0a4f28419497f9722a3daafe3b4186f6b6457e0908390a360058054610100600160a81b0319169055565b60055461010090046001600160a01b031690565b60048054604080516020601f60026000196101006001881615020190951694909404938401819004810282018101909252828152606093909290918301828280156105115780601f106104e657610100808354040283529160200191610511565b6107d86109ed565b60055461010090046001600160a01b0390811691161461082d576040805162461bcd60e51b81526020600482018190526024820152600080516020611063833981519152604482015290519081900360640190fd5b61068f8282610e38565b600061052f6108446109ed565b846105bc856040518060600160405280602581526020016110ed602591396001600061086e6109ed565b6001600160a01b03908116825260208083019390935260409182016000908120918d1681529252902054919063ffffffff610c4416565b600061052f6108b26109ed565b8484610add565b6001600160a01b03918216600090815260016020908152604080832093909416825291909152205490565b6108ec6109ed565b60055461010090046001600160a01b03908116911614610941576040805162461bcd60e51b81526020600482018190526024820152600080516020611063833981519152604482015290519081900360640190fd5b6001600160a01b0381166109865760405162461bcd60e51b8152600401808060200182810382526026815260200180610fcd6026913960400191505060405180910390fd5b6005546040516001600160a01b0380841692610100900416907f8be0079c531659141344cd1fd0a4f28419497f9722a3daafe3b4186f6b6457e090600090a3600580546001600160a01b0390921661010002610100600160a81b0319909216919091179055565b3390565b6001600160a01b038316610a365760405162461bcd60e51b81526004018080602001828103825260248152602001806110c96024913960400191505060405180910390fd5b6001600160a01b038216610a7b5760405162461bcd60e51b8152600401808060200182810382526022815260200180610ff36022913960400191505060405180910390fd5b6001600160a01b03808416600081815260016020908152604080832094871680845294825291829020859055815185815291517f8c5be1e5ebec7d5bd14f71427d1e84f3dd0314c0f7b2291e5b200ac8c7c3b9259281900390910190a3505050565b6001600160a01b038316610b225760405162461bcd60e51b81526004018080602001828103825260258152602001806110a46025913960400191505060405180910390fd5b6001600160a01b038216610b675760405162461bcd60e51b8152600401808060200182810382526023815260200180610f886023913960400191505060405180910390fd5b610b72838383610f40565b610bb581604051806060016040528060268152602001611015602691396001600160a01b038616600090815260208190526040902054919063ffffffff610c4416565b6001600160a01b038085166000908152602081905260408082209390935590841681522054610bea908263ffffffff610cdb16565b6001600160a01b038084166000818152602081815260409182902094909455805185815290519193928716927fddf252ad1be2c89b69c2b068fc378daa952ba7f163c4a11628f55a4df523b3ef92918290030190a3505050565b60008184841115610cd35760405162461bcd60e51b81526004018080602001828103825283818151815260200191508051906020019080838360005b83811015610c98578181015183820152602001610c80565b50505050905090810190601f168015610cc55780820380516001836020036101000a031916815260200191505b509250505060405180910390fd5b505050900390565b600082820183811015610d35576040805162461bcd60e51b815260206004820152601b60248201527f536166654d6174683a206164646974696f6e206f766572666c6f770000000000604482015290519081900360640190fd5b9392505050565b6001600160a01b038216610d97576040805162461bcd60e51b815260206004820152601f60248201527f45524332303a206d696e7420746f20746865207a65726f206164647265737300604482015290519081900360640190fd5b610da360008383610f40565b600254610db6908263ffffffff610cdb16565b6002556001600160a01b038216600090815260208190526040902054610de2908263ffffffff610cdb16565b6001600160a01b0383166000818152602081815260408083209490945583518581529351929391927fddf252ad1be2c89b69c2b068fc378daa952ba7f163c4a11628f55a4df523b3ef9281900390910190a35050565b6001600160a01b038216610e7d5760405162461bcd60e51b81526004018080602001828103825260218152602001806110836021913960400191505060405180910390fd5b610e8982600083610f40565b610ecc81604051806060016040528060228152602001610fab602291396001600160a01b038516600090815260208190526040902054919063ffffffff610c4416565b6001600160a01b038316600090815260208190526040902055600254610ef8908263ffffffff610f4516565b6002556040805182815290516000916001600160a01b038516917fddf252ad1be2c89b69c2b068fc378daa952ba7f163c4a11628f55a4df523b3ef9181900360200190a35050565b505050565b6000610d3583836040518060400160405280601e81526020017f536166654d6174683a207375627472616374696f6e206f766572666c6f770000815250610c4456fe45524332303a207472616e7366657220746f20746865207a65726f206164647265737345524332303a206275726e20616d6f756e7420657863656564732062616c616e63654f776e61626c653a206e6577206f776e657220697320746865207a65726f206164647265737345524332303a20617070726f766520746f20746865207a65726f206164647265737345524332303a207472616e7366657220616d6f756e7420657863656564732062616c616e636545524332303a207472616e7366657220616d6f756e74206578636565647320616c6c6f77616e63654f776e61626c653a2063616c6c6572206973206e6f7420746865206f776e657245524332303a206275726e2066726f6d20746865207a65726f206164647265737345524332303a207472616e736665722066726f6d20746865207a65726f206164647265737345524332303a20617070726f76652066726f6d20746865207a65726f206164647265737345524332303a2064656372656173656420616c6c6f77616e63652062656c6f77207a65726fa26469706673582212203627f9de8b2fd41e5b1db3258f1ce6d390d5238b7766e198d481f442c2e8936664736f6c634300060800334f776e61626c653a206e6577206f776e657220697320746865207a65726f2061646472657373536166654d6174683a206d756c7469706c69636174696f6e206f766572666c6f774f776e61626c653a2063616c6c6572206973206e6f7420746865206f776e657266756e6374696f6e2063616e6e6f742062652063616c6c656420617420746869732074696d65a264697066735822122041abe672e6b4c6b3c51376f44fb3b41b9367e933e534aaf5ce17041e8ddf411464736f6c634300060800334f776e61626c653a206e6577206f776e657220697320746865207a65726f20616464726573738be0079c531659141344cd1fd0a4f28419497f9722a3daafe3b4186f6b6457e04f776e61626c653a206e6577206f776e657220697320746865207a65726f20616464726573734d757374277665206265656e20637265617465642062792074686520636f72726573706f6e64696e6720666163746f72794f776e61626c653a2063616c6c6572206973206e6f7420746865206f776e6572a2646970667358221220f7b41c6a010149e8593acf7efaa6a766276257f8a7a8c2d872b341edb2a5f20064736f6c63430006080033",
  "immutableReferences": {},
  "source": "//SPDX-License-Identifier: UNLICENSED\npragma solidity 0.6.8;\n\nimport './BTMarket.sol';\nimport './BTMarketFactory.sol';\nimport './TestBTMarket.sol';\n\n\ncontract TestBTMarketFactory is BTMarketFactory {\n    constructor(\n        Dai _daiAddress,\n        IaToken _aTokenAddress,\n        IAaveLendingPool _aaveLpAddress,\n        IAaveLendingPoolCore _aaveLpcoreAddress,\n        IRealitio _realitioAddress\n    ) public BTMarketFactory(_daiAddress, _aTokenAddress, _aaveLpAddress, _aaveLpcoreAddress, _realitioAddress) {}\n\n    function createMarket(\n        string memory _eventName,\n        uint256 _marketOpeningTime,\n        uint256 _marketLockingTime,\n        uint32 _marketResolutionTime,\n        uint32 _timeout,\n        address _arbitrator,\n        string memory _realitioQuestion,\n        uint256 _numberOfOutcomes\n    )\n        public\n        override\n        /* onlyOwner TODO removed for development */\n        whenNotPaused\n        returns (BTMarket)\n    {\n        uint256[3] memory marketTimes = [_marketOpeningTime, _marketLockingTime, _marketResolutionTime];\n        BTMarket newContract = new TestBTMarket({\n            _daiAddress: dai,\n            _aTokenAddress: aToken,\n            _aaveLpAddress: aaveLendingPool,\n            _aaveLpcoreAddress: aaveLendingPoolCore,\n            _realitioAddress: realitio,\n            _eventName: _eventName,\n            _marketTimes: marketTimes,\n            _arbitrator: _arbitrator,\n            _realitioQuestion: _realitioQuestion,\n            _numberOfOutcomes: _numberOfOutcomes,\n            _owner: msg.sender\n        });\n        address newAddress = address(newContract);\n        marketAddresses.push(newAddress);\n        mappingOfMarkets[newAddress] = true;\n        emit MarketCreated(address(newAddress));\n        return newContract;\n    }\n}\n",
  "sourcePath": "/Users/mcplums/Repos/MagicBet/contracts/TestBTMarketFactory.sol",
  "compiler": {
    "name": "solc",
    "version": "0.6.8+commit.0bbfe453.Emscripten.clang"
  },
  "schemaVersion": "3.1.0",
  "updatedAt": "2020-05-21T12:56:51.511Z",
  "devdoc": {
    "methods": {
      "owner()": {
        "details": "Returns the address of the current owner."
      },
      "paused()": {
        "details": "Returns true if the contract is paused, and false otherwise."
      },
      "renounceOwnership()": {
        "details": "Leaves the contract without owner. It will not be possible to call `onlyOwner` functions anymore. Can only be called by the current owner.     * NOTE: Renouncing ownership will leave the contract without an owner, thereby removing any functionality that is only available to the owner."
      },
      "transferOwnership(address)": {
        "details": "Transfers ownership of the contract to a new account (`newOwner`). Can only be called by the current owner."
      }
    }
  },
  "userdoc": {
    "methods": {}
  }
}