{
  "contractName": "BTMarket",
  "abi": [
    {
      "inputs": [
        {
          "internalType": "contract Dai",
          "name": "_daiAddress",
          "type": "address"
        },
        {
          "internalType": "contract IaToken",
          "name": "_aTokenAddress",
          "type": "address"
        },
        {
          "internalType": "contract IAaveLendingPool",
          "name": "_aaveLpAddress",
          "type": "address"
        },
        {
          "internalType": "contract IAaveLendingPoolCore",
          "name": "_aaveLpcoreAddress",
          "type": "address"
        },
        {
          "internalType": "contract IRealitio",
          "name": "_realitioAddress",
          "type": "address"
        },
        {
          "internalType": "string",
          "name": "_eventName",
          "type": "string"
        },
        {
          "internalType": "uint256",
          "name": "_marketOpeningTime",
          "type": "uint256"
        },
        {
          "internalType": "uint32",
          "name": "_marketResolutionTime",
          "type": "uint32"
        },
        {
          "internalType": "address",
          "name": "_arbitrator",
          "type": "address"
        },
        {
          "internalType": "string",
          "name": "_question",
          "type": "string"
        },
        {
          "internalType": "uint256",
          "name": "_numberOfOutcomes",
          "type": "uint256"
        },
        {
          "internalType": "address",
          "name": "_owner",
          "type": "address"
        },
        {
          "internalType": "bool",
          "name": "_testMode",
          "type": "bool"
        }
      ],
      "stateMutability": "nonpayable",
      "type": "constructor"
    },
    {
      "anonymous": false,
      "inputs": [
        {
          "indexed": true,
          "internalType": "address",
          "name": "previousOwner",
          "type": "address"
        },
        {
          "indexed": true,
          "internalType": "address",
          "name": "newOwner",
          "type": "address"
        }
      ],
      "name": "OwnershipTransferred",
      "type": "event"
    },
    {
      "anonymous": false,
      "inputs": [
        {
          "indexed": true,
          "internalType": "address",
          "name": "participant",
          "type": "address"
        }
      ],
      "name": "ParticipantEntered",
      "type": "event"
    },
    {
      "anonymous": false,
      "inputs": [
        {
          "indexed": true,
          "internalType": "address",
          "name": "participant",
          "type": "address"
        }
      ],
      "name": "ParticipantWithdrawn",
      "type": "event"
    },
    {
      "anonymous": false,
      "inputs": [
        {
          "indexed": false,
          "internalType": "address",
          "name": "account",
          "type": "address"
        }
      ],
      "name": "Paused",
      "type": "event"
    },
    {
      "anonymous": false,
      "inputs": [
        {
          "indexed": false,
          "internalType": "enum BTMarket.States",
          "name": "state",
          "type": "uint8"
        }
      ],
      "name": "StateChanged",
      "type": "event"
    },
    {
      "anonymous": false,
      "inputs": [
        {
          "indexed": false,
          "internalType": "address",
          "name": "account",
          "type": "address"
        }
      ],
      "name": "Unpaused",
      "type": "event"
    },
    {
      "anonymous": false,
      "inputs": [
        {
          "indexed": true,
          "internalType": "address",
          "name": "winner",
          "type": "address"
        }
      ],
      "name": "WinnerSelected",
      "type": "event"
    },
    {
      "stateMutability": "payable",
      "type": "fallback"
    },
    {
      "inputs": [],
      "name": "aToken",
      "outputs": [
        {
          "internalType": "contract IaToken",
          "name": "",
          "type": "address"
        }
      ],
      "stateMutability": "view",
      "type": "function"
    },
    {
      "inputs": [],
      "name": "aaveLendingPool",
      "outputs": [
        {
          "internalType": "contract IAaveLendingPool",
          "name": "",
          "type": "address"
        }
      ],
      "stateMutability": "view",
      "type": "function"
    },
    {
      "inputs": [],
      "name": "betsWithdrawn",
      "outputs": [
        {
          "internalType": "uint256",
          "name": "",
          "type": "uint256"
        }
      ],
      "stateMutability": "view",
      "type": "function"
    },
    {
      "inputs": [
        {
          "internalType": "uint256",
          "name": "",
          "type": "uint256"
        }
      ],
      "name": "betsWithdrawnPerOutcome",
      "outputs": [
        {
          "internalType": "uint256",
          "name": "",
          "type": "uint256"
        }
      ],
      "stateMutability": "view",
      "type": "function"
    },
    {
      "inputs": [],
      "name": "dai",
      "outputs": [
        {
          "internalType": "contract Dai",
          "name": "",
          "type": "address"
        }
      ],
      "stateMutability": "view",
      "type": "function"
    },
    {
      "inputs": [],
      "name": "eventName",
      "outputs": [
        {
          "internalType": "string",
          "name": "",
          "type": "string"
        }
      ],
      "stateMutability": "view",
      "type": "function"
    },
    {
      "inputs": [],
      "name": "marketLockingTime",
      "outputs": [
        {
          "internalType": "uint256",
          "name": "",
          "type": "uint256"
        }
      ],
      "stateMutability": "view",
      "type": "function"
    },
    {
      "inputs": [],
      "name": "marketOpeningTime",
      "outputs": [
        {
          "internalType": "uint256",
          "name": "",
          "type": "uint256"
        }
      ],
      "stateMutability": "view",
      "type": "function"
    },
    {
      "inputs": [],
      "name": "marketResolutionTime",
      "outputs": [
        {
          "internalType": "uint32",
          "name": "",
          "type": "uint32"
        }
      ],
      "stateMutability": "view",
      "type": "function"
    },
    {
      "inputs": [],
      "name": "numberOfOutcomes",
      "outputs": [
        {
          "internalType": "uint256",
          "name": "",
          "type": "uint256"
        }
      ],
      "stateMutability": "view",
      "type": "function"
    },
    {
      "inputs": [
        {
          "internalType": "uint256",
          "name": "",
          "type": "uint256"
        }
      ],
      "name": "outcomeNames",
      "outputs": [
        {
          "internalType": "string",
          "name": "",
          "type": "string"
        }
      ],
      "stateMutability": "view",
      "type": "function"
    },
    {
      "inputs": [],
      "name": "owner",
      "outputs": [
        {
          "internalType": "address",
          "name": "",
          "type": "address"
        }
      ],
      "stateMutability": "view",
      "type": "function"
    },
    {
      "inputs": [
        {
          "internalType": "uint256",
          "name": "",
          "type": "uint256"
        }
      ],
      "name": "participants",
      "outputs": [
        {
          "internalType": "address",
          "name": "",
          "type": "address"
        }
      ],
      "stateMutability": "view",
      "type": "function"
    },
    {
      "inputs": [],
      "name": "paused",
      "outputs": [
        {
          "internalType": "bool",
          "name": "",
          "type": "bool"
        }
      ],
      "stateMutability": "view",
      "type": "function"
    },
    {
      "inputs": [],
      "name": "questionId",
      "outputs": [
        {
          "internalType": "bytes32",
          "name": "",
          "type": "bytes32"
        }
      ],
      "stateMutability": "view",
      "type": "function"
    },
    {
      "inputs": [],
      "name": "realitio",
      "outputs": [
        {
          "internalType": "contract IRealitio",
          "name": "",
          "type": "address"
        }
      ],
      "stateMutability": "view",
      "type": "function"
    },
    {
      "inputs": [],
      "name": "renounceOwnership",
      "outputs": [],
      "stateMutability": "nonpayable",
      "type": "function"
    },
    {
      "inputs": [],
      "name": "state",
      "outputs": [
        {
          "internalType": "enum BTMarket.States",
          "name": "",
          "type": "uint8"
        }
      ],
      "stateMutability": "view",
      "type": "function"
    },
    {
      "inputs": [],
      "name": "testMode",
      "outputs": [
        {
          "internalType": "bool",
          "name": "",
          "type": "bool"
        }
      ],
      "stateMutability": "view",
      "type": "function"
    },
    {
      "inputs": [],
      "name": "tokenContractsCreated",
      "outputs": [
        {
          "internalType": "uint256",
          "name": "",
          "type": "uint256"
        }
      ],
      "stateMutability": "view",
      "type": "function"
    },
    {
      "inputs": [
        {
          "internalType": "uint256",
          "name": "",
          "type": "uint256"
        }
      ],
      "name": "tokens",
      "outputs": [
        {
          "internalType": "contract Token",
          "name": "",
          "type": "address"
        }
      ],
      "stateMutability": "view",
      "type": "function"
    },
    {
      "inputs": [],
      "name": "totalBets",
      "outputs": [
        {
          "internalType": "uint256",
          "name": "",
          "type": "uint256"
        }
      ],
      "stateMutability": "view",
      "type": "function"
    },
    {
      "inputs": [
        {
          "internalType": "uint256",
          "name": "",
          "type": "uint256"
        }
      ],
      "name": "totalBetsPerOutcome",
      "outputs": [
        {
          "internalType": "uint256",
          "name": "",
          "type": "uint256"
        }
      ],
      "stateMutability": "view",
      "type": "function"
    },
    {
      "inputs": [
        {
          "internalType": "address",
          "name": "newOwner",
          "type": "address"
        }
      ],
      "name": "transferOwnership",
      "outputs": [],
      "stateMutability": "nonpayable",
      "type": "function"
    },
    {
      "inputs": [],
      "name": "winningOutcome",
      "outputs": [
        {
          "internalType": "uint256",
          "name": "",
          "type": "uint256"
        }
      ],
      "stateMutability": "view",
      "type": "function"
    },
    {
      "inputs": [
        {
          "internalType": "address",
          "name": "",
          "type": "address"
        }
      ],
      "name": "withdrawnBool",
      "outputs": [
        {
          "internalType": "bool",
          "name": "",
          "type": "bool"
        }
      ],
      "stateMutability": "view",
      "type": "function"
    },
    {
      "stateMutability": "payable",
      "type": "receive"
    },
    {
      "inputs": [
        {
          "internalType": "string",
          "name": "_eventName",
          "type": "string"
        }
      ],
      "name": "setEventName",
      "outputs": [],
      "stateMutability": "nonpayable",
      "type": "function"
    },
    {
      "inputs": [
        {
          "internalType": "string",
          "name": "_outcomeName",
          "type": "string"
        },
        {
          "internalType": "string",
          "name": "_tokenName",
          "type": "string"
        }
      ],
      "name": "createTokenContract",
      "outputs": [],
      "stateMutability": "nonpayable",
      "type": "function"
    },
    {
      "inputs": [],
      "name": "getMarketSize",
      "outputs": [
        {
          "internalType": "uint256",
          "name": "",
          "type": "uint256"
        }
      ],
      "stateMutability": "view",
      "type": "function"
    },
    {
      "inputs": [
        {
          "internalType": "uint256",
          "name": "_outcome",
          "type": "uint256"
        }
      ],
      "name": "getParticipantsBet",
      "outputs": [
        {
          "internalType": "uint256",
          "name": "",
          "type": "uint256"
        }
      ],
      "stateMutability": "view",
      "type": "function"
    },
    {
      "inputs": [],
      "name": "getTotalInterest",
      "outputs": [
        {
          "internalType": "uint256",
          "name": "",
          "type": "uint256"
        }
      ],
      "stateMutability": "view",
      "type": "function"
    },
    {
      "inputs": [
        {
          "internalType": "uint256",
          "name": "_outcome",
          "type": "uint256"
        }
      ],
      "name": "getWinnings",
      "outputs": [
        {
          "internalType": "uint256",
          "name": "",
          "type": "uint256"
        }
      ],
      "stateMutability": "view",
      "type": "function"
    },
    {
      "inputs": [
        {
          "internalType": "uint256",
          "name": "_outcome",
          "type": "uint256"
        },
        {
          "internalType": "uint256",
          "name": "_dai",
          "type": "uint256"
        }
      ],
      "name": "placeBet",
      "outputs": [],
      "stateMutability": "nonpayable",
      "type": "function"
    },
    {
      "inputs": [],
      "name": "determineWinner",
      "outputs": [],
      "stateMutability": "nonpayable",
      "type": "function"
    },
    {
      "inputs": [],
      "name": "incrementState",
      "outputs": [],
      "stateMutability": "nonpayable",
      "type": "function"
    },
    {
      "inputs": [],
      "name": "withdraw",
      "outputs": [],
      "stateMutability": "nonpayable",
      "type": "function"
    },
    {
      "inputs": [],
      "name": "disableContract",
      "outputs": [
        {
          "internalType": "bool",
          "name": "",
          "type": "bool"
        }
      ],
      "stateMutability": "nonpayable",
      "type": "function"
    },
    {
      "inputs": [],
      "name": "enableContract",
      "outputs": [
        {
          "internalType": "bool",
          "name": "",
          "type": "bool"
        }
      ],
      "stateMutability": "nonpayable",
      "type": "function"
    }
  ],
  "bytecode": "0x608060405260456015553480156200001657600080fd5b5060405162003f9838038062003f9883398181016040526101a08110156200003d57600080fd5b815160208301516040808501516060860151608087015160a0880180519451969895979396929591949293820192846401000000008211156200007f57600080fd5b9083019060208201858111156200009557600080fd5b8251640100000000811182820188101715620000b057600080fd5b82525081516020918201929091019080838360005b83811015620000df578181015183820152602001620000c5565b50505050905090810190601f1680156200010d5780820380516001836020036101000a031916815260200191505b506040818152602083015190830151606084015160809094018051929691959192846401000000008211156200014257600080fd5b9083019060208201858111156200015857600080fd5b82516401000000008111828201881017156200017357600080fd5b82525081516020918201929091019080838360005b83811015620001a257818101518382015260200162000188565b50505050905090810190601f168015620001d05780820380516001836020036101000a031916815260200191505b5060409081526020820151908201516060909201519093509091506000620002006001600160e01b036200047816565b600080546001600160a01b0319166001600160a01b03831690811782556040519293509160008051602062003f78833981519152908290a3506000805461ffff60a01b1916600160a81b1790556001600160a01b0382163314620002725762000272826001600160e01b036200047d16565b8c600160006101000a8154816001600160a01b0302191690836001600160a01b031602179055508b600260006101000a8154816001600160a01b0302191690836001600160a01b031602179055508a600360006101000a8154816001600160a01b0302191690836001600160a01b0316021790555088600460006101000a8154816001600160a01b0302191690836001600160a01b03160217905550600160009054906101000a90046001600160a01b03166001600160a01b031663095ea7b38b600160ff1b6040518363ffffffff1660e01b815260040180836001600160a01b03166001600160a01b0316815260200182815260200192505050602060405180830381600087803b1580156200038857600080fd5b505af11580156200039d573d6000803e3d6000fd5b505050506040513d6020811015620003b457600080fd5b50508751620003cb90600a9060208b019062000734565b5060068790556008805463ffffffff191663ffffffff8816179055600d839055600e805461ff0019166101008315801591909102919091179091556000906200041c57506007879055601e62000442565b6200043962093a80896200058460201b620019e71790919060201c565b60075550620151805b6002426200045e82888a868d866001600160e01b03620005e616565b60095550620007d69e505050505050505050505050505050565b335b90565b620004906001600160e01b036200047816565b6000546001600160a01b03908116911614620004f3576040805162461bcd60e51b815260206004820181905260248201527f4f776e61626c653a2063616c6c6572206973206e6f7420746865206f776e6572604482015290519081900360640190fd5b6001600160a01b0381166200053a5760405162461bcd60e51b815260040180806020018281038252602681526020018062003f526026913960400191505060405180910390fd5b600080546040516001600160a01b038085169392169160008051602062003f7883398151915291a3600080546001600160a01b0319166001600160a01b0392909216919091179055565b600082820183811015620005df576040805162461bcd60e51b815260206004820152601b60248201527f536166654d6174683a206164646974696f6e206f766572666c6f770000000000604482015290519081900360640190fd5b9392505050565b6000600460009054906101000a90046001600160a01b03166001600160a01b031663762c38fd8888888888886040518763ffffffff1660e01b81526004018087815260200180602001866001600160a01b03166001600160a01b031681526020018563ffffffff1663ffffffff1681526020018463ffffffff1663ffffffff168152602001838152602001828103825287818151815260200191508051906020019080838360005b83811015620006a85781810151838201526020016200068e565b50505050905090810190601f168015620006d65780820380516001836020036101000a031916815260200191505b50975050505050505050602060405180830381600087803b158015620006fb57600080fd5b505af115801562000710573d6000803e3d6000fd5b505050506040513d60208110156200072757600080fd5b5051979650505050505050565b828054600181600116156101000203166002900490600052602060002090601f016020900481019282601f106200077757805160ff1916838001178555620007a7565b82800160010185558215620007a7579182015b82811115620007a75782518255916020019190600101906200078a565b50620007b5929150620007b9565b5090565b6200047a91905b80821115620007b55760008155600101620007c0565b61376c80620007e66000396000f3fe6080604052600436106200025f5760003560e01c80638da5cb5b116200013f578063befa1e2f11620000bb578063e9d337b81162000079578063e9d337b8146200087b578063ee72b06d1462000893578063f2fde38b14620008ab578063f4b9fa7514620008e2578063fd27b51e14620008fa5762000267565b8063befa1e2f14620007c8578063c19d93fb14620007e0578063c56f338c146200081d578063cd9ea342146200084b578063e14dedfd14620008635762000267565b8063a0c1f15e1162000109578063a0c1f15e146200073a578063aa0cb8421462000752578063ad5d2862146200076a578063b06a5c521462000798578063bc8802a214620007b05762000267565b80638da5cb5b146200064f578063906d62411462000667578063991d4f5d146200069e5780639b34ae0314620007225762000267565b806349200d7711620001db5780635c975abb11620001995780635c975abb14620005165780636c0dc976146200052e578063715018a614620006075780638043c9c0146200061f578063894ba83314620006375762000267565b806349200d77146200046c5780634afe62b514620004845780634b8755ca14620004b85780634ecc79f714620004d05780634f64b2be14620004e85762000267565b806327acae74116200022957806327acae74146200032057806333b16d9314620003c657806335c1d34914620003de578063367edd3214620004285780633ccfd60b14620004545762000267565b806305801f0b14620002695780630b60365c14620002a9578063149b5d5814620002c1578063232ea3ad14620002ef5762000267565b366200026757005b005b3480156200027657600080fd5b5062000297600480360360208110156200028f57600080fd5b503562000912565b60408051918252519081900360200190f35b348015620002b657600080fd5b506200029762000924565b348015620002ce57600080fd5b506200029760048036036020811015620002e757600080fd5b5035620009df565b348015620002fc57600080fd5b506200030762000a78565b6040805163ffffffff9092168252519081900360200190f35b3480156200032d57600080fd5b506200034e600480360360208110156200034657600080fd5b503562000a84565b6040805160208082528351818301528351919283929083019185019080838360005b838110156200038a57818101518382015260200162000370565b50505050905090810190601f168015620003b85780820380516001836020036101000a031916815260200191505b509250505060405180910390f35b348015620003d357600080fd5b506200026762000b2f565b348015620003eb57600080fd5b506200040c600480360360208110156200040457600080fd5b503562000bf7565b604080516001600160a01b039092168252519081900360200190f35b3480156200043557600080fd5b506200044062000c1f565b604080519115158252519081900360200190f35b3480156200046157600080fd5b506200026762000cdd565b3480156200047957600080fd5b506200029762000ecb565b3480156200049157600080fd5b506200026760048036036040811015620004aa57600080fd5b508035906020013562000ed1565b348015620004c557600080fd5b50620002976200116b565b348015620004dd57600080fd5b506200029762001171565b348015620004f557600080fd5b506200040c600480360360208110156200050e57600080fd5b503562001177565b3480156200052357600080fd5b506200044062001185565b3480156200053b57600080fd5b5062000267600480360360408110156200055457600080fd5b8101906020810181356401000000008111156200057057600080fd5b8201836020820111156200058357600080fd5b80359060200191846001830284011164010000000083111715620005a657600080fd5b919390929091602081019035640100000000811115620005c557600080fd5b820183602082011115620005d857600080fd5b80359060200191846001830284011164010000000083111715620005fb57600080fd5b50909250905062001195565b3480156200061457600080fd5b506200026762001396565b3480156200062c57600080fd5b506200034e6200143c565b3480156200064457600080fd5b50620004406200149a565b3480156200065c57600080fd5b506200040c62001555565b3480156200067457600080fd5b5062000440600480360360208110156200068d57600080fd5b50356001600160a01b031662001564565b348015620006ab57600080fd5b506200026760048036036020811015620006c457600080fd5b810190602081018135640100000000811115620006e057600080fd5b820183602082011115620006f357600080fd5b803590602001918460018302840111640100000000831117156200071657600080fd5b50909250905062001579565b3480156200072f57600080fd5b5062000297620015e8565b3480156200074757600080fd5b506200040c620015ee565b3480156200075f57600080fd5b5062000297620015fd565b3480156200077757600080fd5b5062000297600480360360208110156200079057600080fd5b503562001603565b348015620007a557600080fd5b50620002976200171d565b348015620007bd57600080fd5b506200040c62001723565b348015620007d557600080fd5b506200029762001732565b348015620007ed57600080fd5b50620007f862001738565b604051808260048111156200080957fe5b60ff16815260200191505060405180910390f35b3480156200082a57600080fd5b5062000297600480360360208110156200084357600080fd5b503562001741565b3480156200085857600080fd5b506200044062001753565b3480156200087057600080fd5b506200029762001761565b3480156200088857600080fd5b506200040c62001767565b348015620008a057600080fd5b506200026762001776565b348015620008b857600080fd5b506200026760048036036020811015620008d157600080fd5b50356001600160a01b0316620018d4565b348015620008ef57600080fd5b506200040c620019d2565b3480156200090757600080fd5b5062000297620019e1565b600f6020526000908152604090205481565b6000806200094060125460115462001a4b90919063ffffffff16565b600254604080516370a0823160e01b815230600482015290519293506000926001600160a01b03909216916370a0823191602480820192602092909190829003018186803b1580156200099257600080fd5b505afa158015620009a7573d6000803e3d6000fd5b505050506040513d6020811015620009be57600080fd5b505190506000620009d6828463ffffffff62001a4b16565b93505050505b90565b600080600c8381548110620009f057fe5b60009182526020918290200154604080516370a0823160e01b815233600482015290516001600160a01b03909216935083926370a0823192602480840193829003018186803b15801562000a4357600080fd5b505afa15801562000a58573d6000803e3d6000fd5b505050506040513d602081101562000a6f57600080fd5b50519392505050565b60085463ffffffff1681565b600b818154811062000a9257fe5b600091825260209182902001805460408051601f600260001961010060018716150201909416939093049283018590048502810185019091528181529350909183018282801562000b275780601f1062000afb5761010080835404028352916020019162000b27565b820191906000526020600020905b81548152906001019060200180831162000b0957829003601f168201915b505050505081565b600054600160a01b900460ff161562000b82576040805162461bcd60e51b815260206004820152601060248201526f14185d5cd8589b194e881c185d5cd95960821b604482015290519081900360640190fd5b62000b8c62001a8f565b62000bde576040805162461bcd60e51b815260206004820152601860248201527f4f7261636c6520686173206e6f742066696e616c697365640000000000000000604482015290519081900360640190fd5b62000be862001b14565b60155562000bf562001776565b565b6013818154811062000c0557fe5b6000918252602090912001546001600160a01b0316905081565b600062000c2b62001b9b565b6000546001600160a01b0390811691161462000c7d576040805162461bcd60e51b81526020600482018190526024820152600080516020620036f1833981519152604482015290519081900360640190fd5b600054600160a01b900460ff1662000cd3576040805162461bcd60e51b815260206004820152601460248201527314185d5cd8589b194e881b9bdd081c185d5cd95960621b604482015290519081900360640190fd5b620009dc62001b9f565b600480600e5460ff16600481111562000cf257fe5b1462000d305760405162461bcd60e51b8152600401808060200182810382526026815260200180620037116026913960400191505060405180910390fd5b600054600160a01b900460ff161562000d83576040805162461bcd60e51b815260206004820152601060248201526f14185d5cd8589b194e881c185d5cd95960821b604482015290519081900360640190fd5b600054600160a81b900460ff1662000de2576040805162461bcd60e51b815260206004820152601f60248201527f5265656e7472616e637947756172643a207265656e7472616e742063616c6c00604482015290519081900360640190fd5b6000805460ff60a81b191681553381526014602052604090205460ff161562000e46576040805162461bcd60e51b815260206004820152601160248201527020b63932b0b23c903bb4ba34323930bbb760791b604482015290519081900360640190fd5b336000908152601460205260408120805460ff1916600117905560155462000e6e9062001603565b9050600062000e7c62001c4a565b9050600062000e92838363ffffffff620019e716565b9050801562000eb25762000ea68162001dcb565b62000eb2338262001e35565b50506000805460ff60a81b1916600160a81b1790555050565b600d5481565b600280600e5460ff16600481111562000ee657fe5b1462000f245760405162461bcd60e51b8152600401808060200182810382526026815260200180620037116026913960400191505060405180910390fd5b600054600160a01b900460ff161562000f77576040805162461bcd60e51b815260206004820152601060248201526f14185d5cd8589b194e881c185d5cd95960821b604482015290519081900360640190fd5b6000600c848154811062000f8757fe5b60009182526020918290200154604080516370a0823160e01b815233600482015290516001600160a01b03909216935083926370a0823192602480840193829003018186803b15801562000fda57600080fd5b505afa15801562000fef573d6000803e3d6000fd5b505050506040513d60208110156200100657600080fd5b50516200105057601380546001810182556000919091527f66de8ffda797e3de9c05e8fc57b3bf0ec28a930d40b0d285d93c06501cf6a0900180546001600160a01b031916331790555b60405133907fef3b3ae531a4f494c95e537ec1fe385cfe5c1146cb4c1d850b24bad38595804990600090a2604080516340c10f1960e01b81523360048201526024810185905290516001600160a01b038316916340c10f1991604480830192600092919082900301818387803b158015620010ca57600080fd5b505af1158015620010df573d6000803e3d6000fd5b5050601154620010f9925090508463ffffffff620019e716565b6011556000848152600f60205260409020546200111d908463ffffffff620019e716565b6000858152600f6020526040902055600e54610100900460ff16156200114e57620011488362001f07565b6200115a565b6200115a338462001f55565b620011658362001fb2565b50505050565b60075481565b60065481565b600c818154811062000c0557fe5b600054600160a01b900460ff1690565b6200119f62001b9b565b6000546001600160a01b03908116911614620011f1576040805162461bcd60e51b81526020600482018190526024820152600080516020620036f1833981519152604482015290519081900360640190fd5b600080600e5460ff1660048111156200120657fe5b14620012445760405162461bcd60e51b8152600401808060200182810382526026815260200180620037116026913960400191505060405180910390fd5b600b805460018101825560009190915262001283907f0175b7a638427703f0dbe7bb9bbf987a2551717b34e79f33b5b1008d1fa01db901868662002247565b50600083836040516200129690620022cc565b6020808252810182905280604081018484808284376000838201819052604051601f909201601f1916909301819003965094509092505050f080158015620012e2573d6000803e3d6000fd5b50600c8054600180820183556000929092527fdf6966c971051c3d54ec59162606531493a51404a002842f56009d7e5cf4a8c70180546001600160a01b0319166001600160a01b038416179055600554919250620013419190620019e7565b6005819055600d5414156200138e57600e5460ff1660048111156200136257fe5b60010160048111156200137157fe5b600e805460ff191660018360048111156200138857fe5b02179055505b505050505050565b620013a062001b9b565b6000546001600160a01b03908116911614620013f2576040805162461bcd60e51b81526020600482018190526024820152600080516020620036f1833981519152604482015290519081900360640190fd5b600080546040516001600160a01b03909116907f8be0079c531659141344cd1fd0a4f28419497f9722a3daafe3b4186f6b6457e0908390a3600080546001600160a01b0319169055565b600a805460408051602060026001851615610100026000190190941693909304601f8101849004840282018401909252818152929183018282801562000b275780601f1062000afb5761010080835404028352916020019162000b27565b6000620014a662001b9b565b6000546001600160a01b03908116911614620014f8576040805162461bcd60e51b81526020600482018190526024820152600080516020620036f1833981519152604482015290519081900360640190fd5b600054600160a01b900460ff16156200154b576040805162461bcd60e51b815260206004820152601060248201526f14185d5cd8589b194e881c185d5cd95960821b604482015290519081900360640190fd5b620009dc62002010565b6000546001600160a01b031690565b60146020526000908152604090205460ff1681565b6200158362001b9b565b6000546001600160a01b03908116911614620015d5576040805162461bcd60e51b81526020600482018190526024820152600080516020620036f1833981519152604482015290519081900360640190fd5b620015e3600a838362002247565b505050565b60155481565b6002546001600160a01b031681565b60055481565b600080600c83815481106200161457fe5b6000918252602080832090910154604080516370a0823160e01b815233600482015290516001600160a01b039092169450839285926370a08231926024808201939291829003018186803b1580156200166c57600080fd5b505afa15801562001681573d6000803e3d6000fd5b505050506040513d60208110156200169857600080fd5b50519050801562001715576000620016af62000924565b601554600090815260106020908152604080832054600f9092528220549293509091620016e29163ffffffff62001a4b16565b9050801562001712576200170f8162001702848663ffffffff620020a116565b9063ffffffff620020ff16565b93505b50505b509392505050565b60095481565b6004546001600160a01b031681565b60115481565b600e5460ff1681565b60106020526000908152604090205481565b600e54610100900460ff1681565b60125481565b6003546001600160a01b031681565b600054600160a01b900460ff1615620017c9576040805162461bcd60e51b815260206004820152601060248201526f14185d5cd8589b194e881c185d5cd95960821b604482015290519081900360640190fd5b6001600e5460ff166004811115620017dd57fe5b148015620017ec575042600654105b806200181657506002600e5460ff1660048111156200180757fe5b14801562001816575042600754105b806200184257506003600e5460ff1660048111156200183157fe5b148015620018425750601554604514155b1562000bf557600e5460ff1660048111156200185a57fe5b60010160048111156200186957fe5b600e805460ff191660018360048111156200188057fe5b0217905550600e546040517f551dc40198cc79684bb69e4931dba4ac16e4598792ee1c0a5000aeea366d7bb69160ff169080826004811115620018bf57fe5b60ff16815260200191505060405180910390a1565b620018de62001b9b565b6000546001600160a01b0390811691161462001930576040805162461bcd60e51b81526020600482018190526024820152600080516020620036f1833981519152604482015290519081900360640190fd5b6001600160a01b038116620019775760405162461bcd60e51b8152600401808060200182810382526026815260200180620036aa6026913960400191505060405180910390fd5b600080546040516001600160a01b03808516939216917f8be0079c531659141344cd1fd0a4f28419497f9722a3daafe3b4186f6b6457e091a3600080546001600160a01b0319166001600160a01b0392909216919091179055565b6001546001600160a01b031681565b60135490565b60008282018381101562001a42576040805162461bcd60e51b815260206004820152601b60248201527f536166654d6174683a206164646974696f6e206f766572666c6f770000000000604482015290519081900360640190fd5b90505b92915050565b600062001a4283836040518060400160405280601e81526020017f536166654d6174683a207375627472616374696f6e206f766572666c6f77000081525062002143565b6004805460095460408051633fc6a14f60e11b815293840191909152516000926001600160a01b0390921691637f8d429e916024808301926020929190829003018186803b15801562001ae157600080fd5b505afa15801562001af6573d6000803e3d6000fd5b505050506040513d602081101562001b0d57600080fd5b5051905090565b600480546009546040805163684e62bf60e11b8152938401919091525160009283926001600160a01b03169163d09cc57e91602480820192602092909190829003018186803b15801562001b6757600080fd5b505afa15801562001b7c573d6000803e3d6000fd5b505050506040513d602081101562001b9357600080fd5b505191505090565b3390565b600054600160a01b900460ff1662001bf5576040805162461bcd60e51b815260206004820152601460248201527314185d5cd8589b194e881b9bdd081c185d5cd95960621b604482015290519081900360640190fd5b6000805460ff60a01b191690557f5db9ee0a495bf2e6ff9c91a7834c1ba4fdd244a5e8aa4e537bd38aeae4b073aa62001c2d62001b9b565b604080516001600160a01b039092168252519081900360200190a1565b600080805b600d5481101562001dad576000600c828154811062001c6a57fe5b6000918252602080832090910154604080516370a0823160e01b815233600482015290516001600160a01b03909216945084926370a0823192602480840193829003018186803b15801562001cbe57600080fd5b505afa15801562001cd3573d6000803e3d6000fd5b505050506040513d602081101562001cea57600080fd5b50519050801562001da25762001d07848263ffffffff620019e716565b60008481526010602052604090205490945062001d2b908563ffffffff620019e716565b600084815260106020526040808220929092558151632770a7eb60e21b81523360048201526024810184905291516001600160a01b03851692639dc29fac92604480830193919282900301818387803b15801562001d8857600080fd5b505af115801562001d9d573d6000803e3d6000fd5b505050505b505060010162001c4f565b5060125462001dc3908263ffffffff620019e716565b601255905090565b6002546040805163db006a7560e01b81526004810184905290516001600160a01b039092169163db006a759160248082019260009290919082900301818387803b15801562001e1957600080fd5b505af115801562001e2e573d6000803e3d6000fd5b5050505050565b6001546040805163a9059cbb60e01b81526001600160a01b038581166004830152602482018590529151919092169163a9059cbb9160448083019260209291908290030181600087803b15801562001e8c57600080fd5b505af115801562001ea1573d6000803e3d6000fd5b505050506040513d602081101562001eb857600080fd5b505162001f03576040805162461bcd60e51b815260206004820152601460248201527310d85cda081d1c985b9cd9995c8819985a5b195960621b604482015290519081900360640190fd5b5050565b6001546040805163140e25ad60e31b81526004810184905290516001600160a01b039092169163a0712d689160248082019260009290919082900301818387803b15801562001e1957600080fd5b600154604080516323b872dd60e01b81526001600160a01b03858116600483015230602483015260448201859052915191909216916323b872dd9160648083019260209291908290030181600087803b15801562001e8c57600080fd5b60035460015460408051636968703360e11b81526001600160a01b039283166004820152602481018590526000604482018190529151929093169263d2d0e066926064808301939282900301818387803b15801562001e1957600080fd5b600054600160a01b900460ff161562002063576040805162461bcd60e51b815260206004820152601060248201526f14185d5cd8589b194e881c185d5cd95960821b604482015290519081900360640190fd5b6000805460ff60a01b1916600160a01b1790557f62e78cea01bee320cd4e420270b5ea74000d11b0c9f74754ebdbfc544b05a25862001c2d62001b9b565b600082620020b25750600062001a45565b82820282848281620020c057fe5b041462001a425760405162461bcd60e51b8152600401808060200182810382526021815260200180620036d06021913960400191505060405180910390fd5b600062001a4283836040518060400160405280601a81526020017f536166654d6174683a206469766973696f6e206279207a65726f000000000000815250620021de565b60008184841115620021d65760405162461bcd60e51b81526004018080602001828103825283818151815260200191508051906020019080838360005b838110156200219a57818101518382015260200162002180565b50505050905090810190601f168015620021c85780820380516001836020036101000a031916815260200191505b509250505060405180910390fd5b505050900390565b60008183620022305760405162461bcd60e51b81526020600482018181528351602484015283519092839260449091019190850190808383600083156200219a57818101518382015260200162002180565b5060008385816200223d57fe5b0495945050505050565b828054600181600116156101000203166002900490600052602060002090601f016020900481019282601f106200228a5782800160ff19823516178555620022ba565b82800160010185558215620022ba579182015b82811115620022ba5782358255916020019190600101906200229d565b50620022c8929150620022da565b5090565b6113b280620022f883390190565b620009dc91905b80821115620022c85760008155600101620022e156fe60806040523480156200001157600080fd5b50604051620013b2380380620013b2833981810160405260208110156200003757600080fd5b81019080805160405193929190846401000000008211156200005857600080fd5b9083019060208201858111156200006e57600080fd5b82516401000000008111828201881017156200008957600080fd5b82525081516020918201929091019080838360005b83811015620000b85781810151838201526020016200009e565b50505050905090810190601f168015620000e65780820380516001836020036101000a031916815260200191505b5060408181019052600281526126a160f11b60208083019190915285518695509193506200011c925060039190850190620001b9565b50805162000132906004906020840190620001b9565b50506005805460ff19166012179055506000620001576001600160e01b03620001b416565b60058054610100600160a81b0319166101006001600160a01b03841690810291909117909155604051919250906000907f8be0079c531659141344cd1fd0a4f28419497f9722a3daafe3b4186f6b6457e0908290a350506200025b565b335b90565b828054600181600116156101000203166002900490600052602060002090601f016020900481019282601f10620001fc57805160ff19168380011785556200022c565b828001600101855582156200022c579182015b828111156200022c5782518255916020019190600101906200020f565b506200023a9291506200023e565b5090565b620001b691905b808211156200023a576000815560010162000245565b611147806200026b6000396000f3fe6080604052600436106100f75760003560e01c8063715018a61161008a578063a457c2d711610059578063a457c2d7146103a5578063a9059cbb146103de578063dd62ed3e14610417578063f2fde38b14610452576100fe565b8063715018a6146103115780638da5cb5b1461032657806395d89b41146103575780639dc29fac1461036c576100fe565b8063313ce567116100c6578063313ce56714610241578063395093511461026c57806340c10f19146102a557806370a08231146102de576100fe565b806306fdde0314610100578063095ea7b31461018a57806318160ddd146101d757806323b872dd146101fe576100fe565b366100fe57005b005b34801561010c57600080fd5b50610115610485565b6040805160208082528351818301528351919283929083019185019080838360005b8381101561014f578181015183820152602001610137565b50505050905090810190601f16801561017c5780820380516001836020036101000a031916815260200191505b509250505060405180910390f35b34801561019657600080fd5b506101c3600480360360408110156101ad57600080fd5b506001600160a01b03813516906020013561051b565b604080519115158252519081900360200190f35b3480156101e357600080fd5b506101ec610538565b60408051918252519081900360200190f35b34801561020a57600080fd5b506101c36004803603606081101561022157600080fd5b506001600160a01b0381358116916020810135909116906040013561053e565b34801561024d57600080fd5b506102566105cb565b6040805160ff9092168252519081900360200190f35b34801561027857600080fd5b506101c36004803603604081101561028f57600080fd5b506001600160a01b0381351690602001356105d4565b3480156102b157600080fd5b506100fe600480360360408110156102c857600080fd5b506001600160a01b038135169060200135610628565b3480156102ea57600080fd5b506101ec6004803603602081101561030157600080fd5b50356001600160a01b0316610693565b34801561031d57600080fd5b506100fe6106ae565b34801561033257600080fd5b5061033b61075b565b604080516001600160a01b039092168252519081900360200190f35b34801561036357600080fd5b5061011561076f565b34801561037857600080fd5b506100fe6004803603604081101561038f57600080fd5b506001600160a01b0381351690602001356107d0565b3480156103b157600080fd5b506101c3600480360360408110156103c857600080fd5b506001600160a01b038135169060200135610837565b3480156103ea57600080fd5b506101c36004803603604081101561040157600080fd5b506001600160a01b0381351690602001356108a5565b34801561042357600080fd5b506101ec6004803603604081101561043a57600080fd5b506001600160a01b03813581169160200135166108b9565b34801561045e57600080fd5b506100fe6004803603602081101561047557600080fd5b50356001600160a01b03166108e4565b60038054604080516020601f60026000196101006001881615020190951694909404938401819004810282018101909252828152606093909290918301828280156105115780601f106104e657610100808354040283529160200191610511565b820191906000526020600020905b8154815290600101906020018083116104f457829003601f168201915b5050505050905090565b600061052f6105286109ed565b84846109f1565b50600192915050565b60025490565b600061054b848484610add565b6105c1846105576109ed565b6105bc8560405180606001604052806028815260200161103b602891396001600160a01b038a166000908152600160205260408120906105956109ed565b6001600160a01b03168152602081019190915260400160002054919063ffffffff610c4416565b6109f1565b5060019392505050565b60055460ff1690565b600061052f6105e16109ed565b846105bc85600160006105f26109ed565b6001600160a01b03908116825260208083019390935260409182016000908120918c16815292529020549063ffffffff610cdb16565b6106306109ed565b60055461010090046001600160a01b03908116911614610685576040805162461bcd60e51b81526020600482018190526024820152600080516020611063833981519152604482015290519081900360640190fd5b61068f8282610d3c565b5050565b6001600160a01b031660009081526020819052604090205490565b6106b66109ed565b60055461010090046001600160a01b0390811691161461070b576040805162461bcd60e51b81526020600482018190526024820152600080516020611063833981519152604482015290519081900360640190fd5b60055460405160009161010090046001600160a01b0316907f8be0079c531659141344cd1fd0a4f28419497f9722a3daafe3b4186f6b6457e0908390a360058054610100600160a81b0319169055565b60055461010090046001600160a01b031690565b60048054604080516020601f60026000196101006001881615020190951694909404938401819004810282018101909252828152606093909290918301828280156105115780601f106104e657610100808354040283529160200191610511565b6107d86109ed565b60055461010090046001600160a01b0390811691161461082d576040805162461bcd60e51b81526020600482018190526024820152600080516020611063833981519152604482015290519081900360640190fd5b61068f8282610e38565b600061052f6108446109ed565b846105bc856040518060600160405280602581526020016110ed602591396001600061086e6109ed565b6001600160a01b03908116825260208083019390935260409182016000908120918d1681529252902054919063ffffffff610c4416565b600061052f6108b26109ed565b8484610add565b6001600160a01b03918216600090815260016020908152604080832093909416825291909152205490565b6108ec6109ed565b60055461010090046001600160a01b03908116911614610941576040805162461bcd60e51b81526020600482018190526024820152600080516020611063833981519152604482015290519081900360640190fd5b6001600160a01b0381166109865760405162461bcd60e51b8152600401808060200182810382526026815260200180610fcd6026913960400191505060405180910390fd5b6005546040516001600160a01b0380841692610100900416907f8be0079c531659141344cd1fd0a4f28419497f9722a3daafe3b4186f6b6457e090600090a3600580546001600160a01b0390921661010002610100600160a81b0319909216919091179055565b3390565b6001600160a01b038316610a365760405162461bcd60e51b81526004018080602001828103825260248152602001806110c96024913960400191505060405180910390fd5b6001600160a01b038216610a7b5760405162461bcd60e51b8152600401808060200182810382526022815260200180610ff36022913960400191505060405180910390fd5b6001600160a01b03808416600081815260016020908152604080832094871680845294825291829020859055815185815291517f8c5be1e5ebec7d5bd14f71427d1e84f3dd0314c0f7b2291e5b200ac8c7c3b9259281900390910190a3505050565b6001600160a01b038316610b225760405162461bcd60e51b81526004018080602001828103825260258152602001806110a46025913960400191505060405180910390fd5b6001600160a01b038216610b675760405162461bcd60e51b8152600401808060200182810382526023815260200180610f886023913960400191505060405180910390fd5b610b72838383610f40565b610bb581604051806060016040528060268152602001611015602691396001600160a01b038616600090815260208190526040902054919063ffffffff610c4416565b6001600160a01b038085166000908152602081905260408082209390935590841681522054610bea908263ffffffff610cdb16565b6001600160a01b038084166000818152602081815260409182902094909455805185815290519193928716927fddf252ad1be2c89b69c2b068fc378daa952ba7f163c4a11628f55a4df523b3ef92918290030190a3505050565b60008184841115610cd35760405162461bcd60e51b81526004018080602001828103825283818151815260200191508051906020019080838360005b83811015610c98578181015183820152602001610c80565b50505050905090810190601f168015610cc55780820380516001836020036101000a031916815260200191505b509250505060405180910390fd5b505050900390565b600082820183811015610d35576040805162461bcd60e51b815260206004820152601b60248201527f536166654d6174683a206164646974696f6e206f766572666c6f770000000000604482015290519081900360640190fd5b9392505050565b6001600160a01b038216610d97576040805162461bcd60e51b815260206004820152601f60248201527f45524332303a206d696e7420746f20746865207a65726f206164647265737300604482015290519081900360640190fd5b610da360008383610f40565b600254610db6908263ffffffff610cdb16565b6002556001600160a01b038216600090815260208190526040902054610de2908263ffffffff610cdb16565b6001600160a01b0383166000818152602081815260408083209490945583518581529351929391927fddf252ad1be2c89b69c2b068fc378daa952ba7f163c4a11628f55a4df523b3ef9281900390910190a35050565b6001600160a01b038216610e7d5760405162461bcd60e51b81526004018080602001828103825260218152602001806110836021913960400191505060405180910390fd5b610e8982600083610f40565b610ecc81604051806060016040528060228152602001610fab602291396001600160a01b038516600090815260208190526040902054919063ffffffff610c4416565b6001600160a01b038316600090815260208190526040902055600254610ef8908263ffffffff610f4516565b6002556040805182815290516000916001600160a01b038516917fddf252ad1be2c89b69c2b068fc378daa952ba7f163c4a11628f55a4df523b3ef9181900360200190a35050565b505050565b6000610d3583836040518060400160405280601e81526020017f536166654d6174683a207375627472616374696f6e206f766572666c6f770000815250610c4456fe45524332303a207472616e7366657220746f20746865207a65726f206164647265737345524332303a206275726e20616d6f756e7420657863656564732062616c616e63654f776e61626c653a206e6577206f776e657220697320746865207a65726f206164647265737345524332303a20617070726f766520746f20746865207a65726f206164647265737345524332303a207472616e7366657220616d6f756e7420657863656564732062616c616e636545524332303a207472616e7366657220616d6f756e74206578636565647320616c6c6f77616e63654f776e61626c653a2063616c6c6572206973206e6f7420746865206f776e657245524332303a206275726e2066726f6d20746865207a65726f206164647265737345524332303a207472616e736665722066726f6d20746865207a65726f206164647265737345524332303a20617070726f76652066726f6d20746865207a65726f206164647265737345524332303a2064656372656173656420616c6c6f77616e63652062656c6f77207a65726fa264697066735822122050c91cc969dbacf9a1bba74bdae1ea1fba7bfa53cb28faedd90115e059a873df64736f6c634300060800334f776e61626c653a206e6577206f776e657220697320746865207a65726f2061646472657373536166654d6174683a206d756c7469706c69636174696f6e206f766572666c6f774f776e61626c653a2063616c6c6572206973206e6f7420746865206f776e657266756e6374696f6e2063616e6e6f742062652063616c6c656420617420746869732074696d65a2646970667358221220c0e24a7e46a8619fd21b4f09a9c84ce70f2ecdaf728110379f6572731107017e64736f6c634300060800334f776e61626c653a206e6577206f776e657220697320746865207a65726f20616464726573738be0079c531659141344cd1fd0a4f28419497f9722a3daafe3b4186f6b6457e0",
  "immutableReferences": {},
  "source": "pragma solidity 0.6.8;\n\nimport \"@nomiclabs/buidler/console.sol\";\nimport \"@openzeppelin/contracts/math/SafeMath.sol\";\nimport \"@openzeppelin/contracts/utils/ReentrancyGuard.sol\";\nimport \"@openzeppelin/contracts/utils/Pausable.sol\";\nimport \"@openzeppelin/contracts/access/Ownable.sol\";\nimport \"./interfaces/IAave.sol\";\nimport \"./interfaces/IDai.sol\";\nimport \"./interfaces/IRealitio.sol\";\nimport \"./Token.sol\";\n\n\ncontract BTMarket is Ownable, Pausable, ReentrancyGuard {\n  using SafeMath for uint256;\n\n  ////////////////////////////////////\n  //////// VARIABLES /////////////////\n  ////////////////////////////////////\n\n  //////// Externals ////////\n  Dai public dai;\n  IaToken public aToken;\n  IAaveLendingPool public aaveLendingPool;\n  IRealitio public realitio;\n\n  //////// Setup ////////\n  uint256 public tokenContractsCreated;\n\n  //////// Market Details ////////\n  uint256 public marketOpeningTime; // when the market is opened for bets\n  uint256 public marketLockingTime; // when the market is no longer open for bets\n  uint32 public marketResolutionTime; // the time the realitio market is able to be answered, uint32 cos Realitio needs it\n  bytes32 public questionId; // the question ID of the question on realitio\n  string public eventName;\n  string[] public outcomeNames;\n  Token[] public tokens;\n  uint256 public numberOfOutcomes;\n  enum States { SETUP, WAITING, OPEN, LOCKED, WITHDRAW }\n  States public state;\n  bool public testMode;\n\n  //////// Betting variables ////////\n  mapping(uint256 => uint256) public totalBetsPerOutcome;\n  mapping(uint256 => uint256) public betsWithdrawnPerOutcome;\n  uint256 public totalBets;\n  uint256 public betsWithdrawn;\n  address[] public participants;\n  mapping(address => bool) public withdrawnBool; //so participants can only withdraw once\n  uint256 public winningOutcome = 69; // start with incorrect winning outcome\n\n  ////////////////////////////////////\n  //////// CONSTRUCTOR ///////////////\n  ////////////////////////////////////\n  constructor(\n    Dai _daiAddress,\n    IaToken _aTokenAddress,\n    IAaveLendingPool _aaveLpAddress,\n    IAaveLendingPoolCore _aaveLpcoreAddress,\n    IRealitio _realitioAddress,\n    string memory _eventName,\n    uint256 _marketOpeningTime,\n    uint32 _marketResolutionTime,\n    address _arbitrator,\n    string memory _question,\n    uint256 _numberOfOutcomes,\n    address _owner,\n    bool _testMode\n  ) public {\n    if (_owner != msg.sender) {\n      transferOwnership(_owner);\n    }\n    // Externals\n    dai = _daiAddress;\n    aToken = _aTokenAddress;\n    aaveLendingPool = _aaveLpAddress;\n    realitio = _realitioAddress;\n\n    // Approvals\n    dai.approve(address(_aaveLpcoreAddress), 2**255);\n\n    // Pass arguments to public variables\n    eventName = _eventName;\n    marketOpeningTime = _marketOpeningTime;\n    marketResolutionTime = _marketResolutionTime;\n    numberOfOutcomes = _numberOfOutcomes;\n    testMode = _testMode;\n\n    uint32 _timeout;\n    // timeout = how long realitio waits for a dispute before confirming an answer\n    // set to 24 hours. should this be hardcoded or might we want to change this?\n    if (_testMode) {\n      marketLockingTime = _marketOpeningTime;\n      _timeout = 30;\n    } else {\n      marketLockingTime = _marketOpeningTime.add(604800); // one week\n      _timeout = 86400;\n    }\n\n    // Create the question on Realitio\n    uint256 _templateId = 2;\n    uint256 _nonce = now; // <- should probably change this to zero for mainnet\n    questionId = _postQuestion(\n      _templateId,\n      _question,\n      _arbitrator,\n      _timeout,\n      _marketResolutionTime,\n      _nonce\n    );\n  }\n\n  ////////////////////////////////////\n  //////// EVENTS ////////////////////\n  ////////////////////////////////////\n  event ParticipantEntered(address indexed participant);\n  event ParticipantWithdrawn(address indexed participant);\n  event StateChanged(States state);\n  event WinnerSelected(address indexed winner);\n\n  ////////////////////////////////////\n  //////// INITIAL SETUP /////////////\n  ////////////////////////////////////\n  // you cannot pass an array of strings as an argument\n  // string manipulation is also difficult, so it is not easy to parse the relevant\n  // ... info from the _question string. So, manually set this info\n  // probably redundant, the front end can store this, just adding in case\n\n  function setEventName(string calldata _eventName) external onlyOwner {\n    eventName = _eventName;\n  }\n\n  function createTokenContract(\n    string calldata _outcomeName,\n    string calldata _tokenName\n  ) external onlyOwner checkState(States.SETUP) {\n    outcomeNames.push(_outcomeName);\n    Token tokenContract = new Token({ _tokenName: _tokenName });\n    tokens.push(tokenContract);\n    tokenContractsCreated = tokenContractsCreated.add(1);\n    if (tokenContractsCreated == numberOfOutcomes) {\n      state = States(uint256(state) + 1);\n    }\n  }\n\n  ////////////////////////////////////\n  //////// MODIFIERS /////////////////\n  ////////////////////////////////////\n  modifier checkState(States currentState) {\n    require(state == currentState, \"function cannot be called at this time\");\n    _;\n  }\n\n  ////////////////////////////////////\n  ////////// VIEW FUNCTIONS //////////\n  ////////////////////////////////////\n  function getMarketSize() public view returns (uint256) {\n    return participants.length;\n  }\n\n  function getParticipantsBet(uint256 _outcome) public view returns (uint256) {\n    Token _token = Token(tokens[_outcome]);\n    return _token.balanceOf(msg.sender);\n  }\n\n  function getTotalInterest() public view returns (uint256) {\n    uint256 _remainingBet = totalBets.sub(betsWithdrawn);\n    uint256 _totalAdaibalances = aToken.balanceOf(address(this));\n    uint256 _totalInterest = _totalAdaibalances.sub(_remainingBet);\n    return _totalInterest;\n  }\n\n  /// @dev Returns total winnings for a participant based on current accumulated interest\n  /// @dev ... and assuming the passed _outcome wins.\n  function getWinnings(uint256 _outcome) public view returns (uint256) {\n    Token _token = Token(tokens[_outcome]);\n    uint256 _winnings;\n    uint256 _userBetOnWinningOutcome = _token.balanceOf(msg.sender);\n    if (_userBetOnWinningOutcome > 0) {\n      uint256 _totalInterest = getTotalInterest();\n\n        uint256 _totalRemainingBetsOnWinningOutcome\n       = totalBetsPerOutcome[winningOutcome].sub(\n        betsWithdrawnPerOutcome[winningOutcome]\n      );\n      if (_totalRemainingBetsOnWinningOutcome > 0) {\n        _winnings = (_totalInterest.mul(_userBetOnWinningOutcome)).div(\n          _totalRemainingBetsOnWinningOutcome\n        );\n      }\n    }\n    return _winnings;\n  }\n\n  // need the interest rate for this\n  // function getEstimatedReturn(uint _outcome) returns (uint) {\n  //     uint _timeLocked = marketResolutionTime.\n  // }\n\n  ////////////////////////////////////\n  //////// REALIITO FUNCTIONS ////////\n  ////////////////////////////////////\n\n  /// @notice posts the question to realit.io\n  function _postQuestion(\n    uint256 template_id,\n    string memory question,\n    address arbitrator,\n    uint32 timeout,\n    uint32 opening_ts,\n    uint256 nonce\n  ) internal returns (bytes32) {\n    return\n      realitio.askQuestion(\n        template_id,\n        question,\n        arbitrator,\n        timeout,\n        opening_ts,\n        nonce\n      );\n  }\n\n  /// @notice gets the winning outcome from realitio\n  /// @dev this function call will revert if it has not yet resolved\n  function _determineWinner() internal view returns (uint256) {\n    bytes32 _winningOutcome = realitio.resultFor(questionId);\n    return uint256(_winningOutcome);\n  }\n\n  /// @notice has the question been finalized on realitio?\n  function _isQuestionFinalized() internal view returns (bool) {\n    return realitio.isFinalized(questionId);\n  }\n\n  ////////////////////////////////////\n  /////// EXTERNAL DAI CALLS /////////\n  ////////////////////////////////////\n\n  /// @notice common function for all outgoing DAI transfers\n  function _sendCash(address _to, uint256 _amount) internal {\n    require(dai.transfer(_to, _amount), \"Cash transfer failed\");\n  }\n\n  /// @notice common function for all incoming DAI transfers\n  function _receiveCash(address _from, uint256 _amount) internal {\n    require(\n      dai.transferFrom(_from, address(this), _amount),\n      \"Cash transfer failed\"\n    );\n  }\n\n  /// @notice mints Dai, will only work on a testnet\n  function _mintCash(uint256 _amount) internal {\n    dai.mint(_amount);\n  }\n\n  ////////////////////////////////////\n  /////// EXTERNAL AAVE CALLS ////////\n  ////////////////////////////////////\n\n  /// @notice swap Dai for aDai\n  function _sendToAave(uint256 _dai) internal {\n    aaveLendingPool.deposit(address(dai), _dai, 0);\n  }\n\n  /// @notice swap aDai for Dai\n  function _redeemFromAave(uint256 _dai) internal {\n    aToken.redeem(_dai);\n  }\n\n  ////////////////////////////////////\n  //////// EXTERNAL FUNCTIONS ////////\n  ////////////////////////////////////\n  function placeBet(uint256 _outcome, uint256 _dai)\n    external\n    checkState(States.OPEN)\n    whenNotPaused\n  {\n    Token _token = Token(tokens[_outcome]);\n    if (_token.balanceOf(msg.sender) == 0) participants.push(msg.sender);\n    emit ParticipantEntered(msg.sender);\n    _token.mint(msg.sender, _dai);\n    totalBets = totalBets.add(_dai);\n    totalBetsPerOutcome[_outcome] = totalBetsPerOutcome[_outcome].add(_dai);\n    if (testMode) {\n      _mintCash(_dai);\n    } else {\n      _receiveCash(msg.sender, _dai);\n    }\n    _sendToAave(_dai);\n  }\n\n  function determineWinner() external whenNotPaused {\n    require(_isQuestionFinalized(), \"Oracle has not finalised\");\n    winningOutcome = _determineWinner();\n    incrementState();\n  }\n\n  // keep this public as it's called by determineWinner\n  // not onlyOwner, can be called by anyone, this is fine\n  function incrementState() public whenNotPaused {\n    if (\n      ((state == States.WAITING) && (marketOpeningTime < now)) ||\n      ((state == States.OPEN) && (marketLockingTime < now)) ||\n      ((state == States.LOCKED) && (winningOutcome != 69))\n    ) {\n      state = States(uint256(state) + 1);\n      emit StateChanged(state);\n    }\n  }\n\n  function withdraw()\n    external\n    checkState(States.WITHDRAW)\n    whenNotPaused\n    nonReentrant\n  {\n    require(!withdrawnBool[msg.sender], \"Already withdrawn\");\n    withdrawnBool[msg.sender] = true;\n    uint256 _winnings = getWinnings(winningOutcome);\n    uint256 _userBetsAllOutcomes = _getUserBetsAndBurnTokens();\n    uint256 _daiToSend = _winnings.add(_userBetsAllOutcomes);\n    // externals\n    if (_daiToSend > 0) {\n      _redeemFromAave(_daiToSend);\n      _sendCash(msg.sender, _daiToSend);\n    }\n  }\n\n  ////////////////////////////////////\n  //////// INTERNAL FUNCTIONS ////////\n  ////////////////////////////////////\n  function _getUserBetsAndBurnTokens() internal returns (uint256) {\n    uint256 _userBetsAllOutcomes;\n    for (uint256 i = 0; i < numberOfOutcomes; i++) {\n      Token _token = Token(tokens[i]);\n      uint256 _userBetThisOutcome = _token.balanceOf(msg.sender);\n      if (_userBetThisOutcome > 0) {\n        _userBetsAllOutcomes = _userBetsAllOutcomes.add(_userBetThisOutcome);\n        betsWithdrawnPerOutcome[i] = betsWithdrawnPerOutcome[i].add(\n          _userBetsAllOutcomes\n        );\n        _token.burn(msg.sender, _userBetThisOutcome);\n      }\n    }\n    betsWithdrawn = betsWithdrawn.add(_userBetsAllOutcomes);\n    return _userBetsAllOutcomes;\n  }\n\n  ////////////////////////////////////\n  ///// BOILERPLATE FUNCTIONS ////////\n  ////////////////////////////////////\n  function disableContract() public onlyOwner whenNotPaused returns (bool) {\n    _pause();\n  }\n\n  function enableContract() public onlyOwner whenPaused returns (bool) {\n    _unpause();\n  }\n\n  receive() external payable {}\n\n  fallback() external payable {}\n}\n",
  "sourcePath": "/Users/brenfife/Desktop/BetTogether-Contracts/contracts/BTMarket.sol",
  "compiler": {
    "name": "solc",
    "version": "0.6.8+commit.0bbfe453.Emscripten.clang"
  },
  "schemaVersion": "3.1.0",
  "updatedAt": "2020-05-14T18:57:03.578Z",
  "devdoc": {
    "methods": {
      "getWinnings(uint256)": {
        "details": "Returns total winnings for a participant based on current accumulated interest... and assuming the passed _outcome wins."
      },
      "owner()": {
        "details": "Returns the address of the current owner."
      },
      "paused()": {
        "details": "Returns true if the contract is paused, and false otherwise."
      },
      "renounceOwnership()": {
        "details": "Leaves the contract without owner. It will not be possible to call `onlyOwner` functions anymore. Can only be called by the current owner.     * NOTE: Renouncing ownership will leave the contract without an owner, thereby removing any functionality that is only available to the owner."
      },
      "transferOwnership(address)": {
        "details": "Transfers ownership of the contract to a new account (`newOwner`). Can only be called by the current owner."
      }
    }
  },
  "userdoc": {
    "methods": {
      "constructor": "///////////////////////////////// ///// CONSTRUCTOR /////////////// /////////////////////////////////",
      "disableContract()": {
        "notice": "///////////////////////////////// // BOILERPLATE FUNCTIONS //////// /////////////////////////////////"
      },
      "getMarketSize()": {
        "notice": "///////////////////////////////// /////// VIEW FUNCTIONS ////////// /////////////////////////////////"
      },
      "placeBet(uint256,uint256)": {
        "notice": "///////////////////////////////// ///// EXTERNAL FUNCTIONS //////// /////////////////////////////////"
      },
      "setEventName(string)": {
        "notice": "///////////////////////////////// ///// INITIAL SETUP ///////////// /////////////////////////////////"
      }
    }
  }
}