{
  "contractName": "BTMarketFactory",
  "abi": [
    {
      "inputs": [
        {
          "internalType": "contract Dai",
          "name": "_daiAddress",
          "type": "address"
        },
        {
          "internalType": "contract IaToken",
          "name": "_aTokenAddress",
          "type": "address"
        },
        {
          "internalType": "contract IAaveLendingPool",
          "name": "_aaveLpAddress",
          "type": "address"
        },
        {
          "internalType": "contract IAaveLendingPoolCore",
          "name": "_aaveLpcoreAddress",
          "type": "address"
        },
        {
          "internalType": "contract IRealitio",
          "name": "_realitioAddress",
          "type": "address"
        }
      ],
      "stateMutability": "nonpayable",
      "type": "constructor"
    },
    {
      "anonymous": false,
      "inputs": [
        {
          "indexed": false,
          "internalType": "address",
          "name": "contractAddress",
          "type": "address"
        }
      ],
      "name": "MarketCreated",
      "type": "event"
    },
    {
      "anonymous": false,
      "inputs": [
        {
          "indexed": true,
          "internalType": "address",
          "name": "previousOwner",
          "type": "address"
        },
        {
          "indexed": true,
          "internalType": "address",
          "name": "newOwner",
          "type": "address"
        }
      ],
      "name": "OwnershipTransferred",
      "type": "event"
    },
    {
      "anonymous": false,
      "inputs": [
        {
          "indexed": false,
          "internalType": "address",
          "name": "account",
          "type": "address"
        }
      ],
      "name": "Paused",
      "type": "event"
    },
    {
      "anonymous": false,
      "inputs": [
        {
          "indexed": false,
          "internalType": "address",
          "name": "account",
          "type": "address"
        }
      ],
      "name": "Unpaused",
      "type": "event"
    },
    {
      "inputs": [],
      "name": "aToken",
      "outputs": [
        {
          "internalType": "contract IaToken",
          "name": "",
          "type": "address"
        }
      ],
      "stateMutability": "view",
      "type": "function"
    },
    {
      "inputs": [],
      "name": "aaveLendingPool",
      "outputs": [
        {
          "internalType": "contract IAaveLendingPool",
          "name": "",
          "type": "address"
        }
      ],
      "stateMutability": "view",
      "type": "function"
    },
    {
      "inputs": [],
      "name": "aaveLendingPoolCore",
      "outputs": [
        {
          "internalType": "contract IAaveLendingPoolCore",
          "name": "",
          "type": "address"
        }
      ],
      "stateMutability": "view",
      "type": "function"
    },
    {
      "inputs": [],
      "name": "dai",
      "outputs": [
        {
          "internalType": "contract Dai",
          "name": "",
          "type": "address"
        }
      ],
      "stateMutability": "view",
      "type": "function"
    },
    {
      "inputs": [
        {
          "internalType": "address",
          "name": "",
          "type": "address"
        }
      ],
      "name": "mappingOfMarkets",
      "outputs": [
        {
          "internalType": "bool",
          "name": "",
          "type": "bool"
        }
      ],
      "stateMutability": "view",
      "type": "function"
    },
    {
      "inputs": [
        {
          "internalType": "uint256",
          "name": "",
          "type": "uint256"
        }
      ],
      "name": "markets",
      "outputs": [
        {
          "internalType": "address",
          "name": "",
          "type": "address"
        }
      ],
      "stateMutability": "view",
      "type": "function"
    },
    {
      "inputs": [],
      "name": "owner",
      "outputs": [
        {
          "internalType": "address",
          "name": "",
          "type": "address"
        }
      ],
      "stateMutability": "view",
      "type": "function"
    },
    {
      "inputs": [],
      "name": "paused",
      "outputs": [
        {
          "internalType": "bool",
          "name": "",
          "type": "bool"
        }
      ],
      "stateMutability": "view",
      "type": "function"
    },
    {
      "inputs": [],
      "name": "realitio",
      "outputs": [
        {
          "internalType": "contract IRealitio",
          "name": "",
          "type": "address"
        }
      ],
      "stateMutability": "view",
      "type": "function"
    },
    {
      "inputs": [],
      "name": "renounceOwnership",
      "outputs": [],
      "stateMutability": "nonpayable",
      "type": "function"
    },
    {
      "inputs": [
        {
          "internalType": "address",
          "name": "newOwner",
          "type": "address"
        }
      ],
      "name": "transferOwnership",
      "outputs": [],
      "stateMutability": "nonpayable",
      "type": "function"
    },
    {
      "inputs": [
        {
          "internalType": "string",
          "name": "_eventName",
          "type": "string"
        },
        {
          "internalType": "uint256",
          "name": "_marketOpeningTime",
          "type": "uint256"
        },
        {
          "internalType": "uint32",
          "name": "_marketResolutionTime",
          "type": "uint32"
        },
        {
          "internalType": "address",
          "name": "_arbitrator",
          "type": "address"
        },
        {
          "internalType": "string",
          "name": "_question",
          "type": "string"
        },
        {
          "internalType": "uint256",
          "name": "_numberOfOutcomes",
          "type": "uint256"
        }
      ],
      "name": "createMarket",
      "outputs": [
        {
          "internalType": "contract BTMarket",
          "name": "",
          "type": "address"
        }
      ],
      "stateMutability": "nonpayable",
      "type": "function"
    },
    {
      "inputs": [],
      "name": "getMarkets",
      "outputs": [
        {
          "internalType": "address[]",
          "name": "",
          "type": "address[]"
        }
      ],
      "stateMutability": "view",
      "type": "function"
    },
    {
      "inputs": [],
      "name": "destroy",
      "outputs": [],
      "stateMutability": "nonpayable",
      "type": "function"
    },
    {
      "inputs": [
        {
          "internalType": "address payable",
          "name": "marketAddress",
          "type": "address"
        }
      ],
      "name": "disableMarket",
      "outputs": [
        {
          "internalType": "bool",
          "name": "",
          "type": "bool"
        }
      ],
      "stateMutability": "nonpayable",
      "type": "function"
    }
  ],
  "bytecode": "0x608060405234801561001057600080fd5b50604051614c90380380614c90833981810160405260a081101561003357600080fd5b5080516020820151604083015160608401516080909401519293919290919060006100656001600160e01b0361011e16565b600080546001600160a01b0319166001600160a01b0383169081178255604051929350917f8be0079c531659141344cd1fd0a4f28419497f9722a3daafe3b4186f6b6457e0908290a3506000805460ff60a01b19169055600180546001600160a01b03199081166001600160a01b03978816179091556002805482169587169590951790945560038054851693861693909317909255600480548416918516919091179055600580549092169216919091179055610122565b3390565b614b5f806101316000396000f3fe60806040523480156200001157600080fd5b50600436106200010c5760003560e01c8063b1283e7711620000a5578063ec2c9016116200006f578063ec2c90161462000335578063f2fde38b1462000391578063f4b9fa7514620003ba578063f55a898c14620003c4576200010c565b8063b1283e7714620002d8578063bc8802a214620002f8578063d3f8fb811462000302578063e9d337b8146200032b576200010c565b8063715018a611620000e7578063715018a614620002ae57806383197ef014620002ba5780638da5cb5b14620002c4578063a0c1f15e14620002ce576200010c565b80633ca5583314620001115780634c1ab31314620001375780635c975abb1462000290575b600080fd5b6200011b620003ed565b604080516001600160a01b039092168252519081900360200190f35b6200011b600480360360c08110156200014f57600080fd5b8101906020810181356401000000008111156200016b57600080fd5b8201836020820111156200017e57600080fd5b80359060200191846001830284011164010000000083111715620001a157600080fd5b91908080601f016020809104026020016040519081016040528093929190818152602001838380828437600092019190915250929584359563ffffffff602087013516956001600160a01b03604082013516955091935091506080810190606001356401000000008111156200021657600080fd5b8201836020820111156200022957600080fd5b803590602001918460018302840111640100000000831117156200024c57600080fd5b91908080601f0160208091040260200160405190810160405280939291908181526020018383808284376000920191909152509295505091359250620003fc915050565b6200029a620006b3565b604080519115158252519081900360200190f35b620002b8620006c3565b005b620002b862000769565b6200011b6200081e565b6200011b6200082d565b6200011b60048036036020811015620002f057600080fd5b50356200083c565b6200011b62000864565b6200029a600480360360208110156200031a57600080fd5b50356001600160a01b031662000873565b6200011b62000888565b6200033f62000897565b60408051602080825283518183015283519192839290830191858101910280838360005b838110156200037d57818101518382015260200162000363565b505050509050019250505060405180910390f35b620002b860048036036020811015620003a957600080fd5b50356001600160a01b0316620008fb565b6200011b620009f9565b6200029a60048036036020811015620003dc57600080fd5b50356001600160a01b031662000a08565b6004546001600160a01b031681565b60008054600160a01b900460ff161562000450576040805162461bcd60e51b815260206004820152601060248201526f14185d5cd8589b194e881c185d5cd95960821b604482015290519081900360640190fd5b600180546002546003546004546005546040516000966001600160a01b0396871696958616959485169493841693909216918e918e918e918e918e918e9133916200049b9062000b36565b6001600160a01b03808f1682528d81166020808401919091528d821660408401528c821660608401528b8216608084015260c083018a905263ffffffff891660e084015287821661010084015261014083018690529084166101608301528215156101808301526101a060a083018181528b51918401919091528a5190916101208401916101c08501918d019080838360005b83811015620005485781810151838201526020016200052e565b50505050905090810190601f168015620005765780820380516001836020036101000a031916815260200191505b50838103825287518152875160209182019189019080838360005b83811015620005ab57818101518382015260200162000591565b50505050905090810190601f168015620005d95780820380516001836020036101000a031916815260200191505b509f50505050505050505050505050505050604051809103906000f08015801562000608573d6000803e3d6000fd5b506007805460018082019092557fa66cc928b5edb82af9bd49922954155ab7b0942694bea4ce44661d9a8736c6880180546001600160a01b0319166001600160a01b038416908117909155600081815260066020908152604091829020805460ff191690941790935580519182525192935083927fb27af04ab132a0b6bba5de2a84bbbadcc31c20c33932936a992ae6ff951259c3929181900390910190a150979650505050505050565b600054600160a01b900460ff1690565b620006cd62000b32565b6000546001600160a01b039081169116146200071f576040805162461bcd60e51b8152602060048201819052602482015260008051602062004b0a833981519152604482015290519081900360640190fd5b600080546040516001600160a01b03909116907f8be0079c531659141344cd1fd0a4f28419497f9722a3daafe3b4186f6b6457e0908390a3600080546001600160a01b0319169055565b6200077362000b32565b6000546001600160a01b03908116911614620007c5576040805162461bcd60e51b8152602060048201819052602482015260008051602062004b0a833981519152604482015290519081900360640190fd5b600054600160a01b900460ff166200081b576040805162461bcd60e51b815260206004820152601460248201527314185d5cd8589b194e881b9bdd081c185d5cd95960621b604482015290519081900360640190fd5b33ff5b6000546001600160a01b031690565b6002546001600160a01b031681565b600781815481106200084a57fe5b6000918252602090912001546001600160a01b0316905081565b6005546001600160a01b031681565b60066020526000908152604090205460ff1681565b6003546001600160a01b031681565b60606007805480602002602001604051908101604052809291908181526020018280548015620008f157602002820191906000526020600020905b81546001600160a01b03168152600190910190602001808311620008d2575b5050505050905090565b6200090562000b32565b6000546001600160a01b0390811691161462000957576040805162461bcd60e51b8152602060048201819052602482015260008051602062004b0a833981519152604482015290519081900360640190fd5b6001600160a01b0381166200099e5760405162461bcd60e51b815260040180806020018281038252602681526020018062004ab36026913960400191505060405180910390fd5b600080546040516001600160a01b03808516939216917f8be0079c531659141344cd1fd0a4f28419497f9722a3daafe3b4186f6b6457e091a3600080546001600160a01b0319166001600160a01b0392909216919091179055565b6001546001600160a01b031681565b600062000a1462000b32565b6000546001600160a01b0390811691161462000a66576040805162461bcd60e51b8152602060048201819052602482015260008051602062004b0a833981519152604482015290519081900360640190fd5b6001600160a01b038216600090815260066020526040902054829060ff1662000ac15760405162461bcd60e51b815260040180806020018281038252603181526020018062004ad96031913960400191505060405180910390fd5b826001600160a01b031663894ba8336040518163ffffffff1660e01b8152600401602060405180830381600087803b15801562000afd57600080fd5b505af115801562000b12573d6000803e3d6000fd5b505050506040513d602081101562000b2957600080fd5b50519392505050565b3390565b613f6e8062000b458339019056fe608060405260456015553480156200001657600080fd5b5060405162003f6e38038062003f6e83398181016040526101a08110156200003d57600080fd5b815160208301516040808501516060860151608087015160a0880180519451969895979396929591949293820192846401000000008211156200007f57600080fd5b9083019060208201858111156200009557600080fd5b8251640100000000811182820188101715620000b057600080fd5b82525081516020918201929091019080838360005b83811015620000df578181015183820152602001620000c5565b50505050905090810190601f1680156200010d5780820380516001836020036101000a031916815260200191505b506040818152602083015190830151606084015160809094018051929691959192846401000000008211156200014257600080fd5b9083019060208201858111156200015857600080fd5b82516401000000008111828201881017156200017357600080fd5b82525081516020918201929091019080838360005b83811015620001a257818101518382015260200162000188565b50505050905090810190601f168015620001d05780820380516001836020036101000a031916815260200191505b5060409081526020820151908201516060909201519093509091506000620002006001600160e01b036200047816565b600080546001600160a01b0319166001600160a01b03831690811782556040519293509160008051602062003f4e833981519152908290a3506000805461ffff60a01b1916600160a81b1790556001600160a01b0382163314620002725762000272826001600160e01b036200047d16565b8c600160006101000a8154816001600160a01b0302191690836001600160a01b031602179055508b600260006101000a8154816001600160a01b0302191690836001600160a01b031602179055508a600360006101000a8154816001600160a01b0302191690836001600160a01b0316021790555088600460006101000a8154816001600160a01b0302191690836001600160a01b03160217905550600160009054906101000a90046001600160a01b03166001600160a01b031663095ea7b38b600160ff1b6040518363ffffffff1660e01b815260040180836001600160a01b03166001600160a01b0316815260200182815260200192505050602060405180830381600087803b1580156200038857600080fd5b505af11580156200039d573d6000803e3d6000fd5b505050506040513d6020811015620003b457600080fd5b50508751620003cb90600a9060208b019062000734565b5060068790556008805463ffffffff191663ffffffff8816179055600d839055600e805461ff0019166101008315801591909102919091179091556000906200041c57506007879055601e62000442565b6200043962093a80896200058460201b620019bd1790919060201c565b60075550620151805b6002426200045e82888a868d866001600160e01b03620005e616565b60095550620007d69e505050505050505050505050505050565b335b90565b620004906001600160e01b036200047816565b6000546001600160a01b03908116911614620004f3576040805162461bcd60e51b815260206004820181905260248201527f4f776e61626c653a2063616c6c6572206973206e6f7420746865206f776e6572604482015290519081900360640190fd5b6001600160a01b0381166200053a5760405162461bcd60e51b815260040180806020018281038252602681526020018062003f286026913960400191505060405180910390fd5b600080546040516001600160a01b038085169392169160008051602062003f4e83398151915291a3600080546001600160a01b0319166001600160a01b0392909216919091179055565b600082820183811015620005df576040805162461bcd60e51b815260206004820152601b60248201527f536166654d6174683a206164646974696f6e206f766572666c6f770000000000604482015290519081900360640190fd5b9392505050565b6000600460009054906101000a90046001600160a01b03166001600160a01b031663762c38fd8888888888886040518763ffffffff1660e01b81526004018087815260200180602001866001600160a01b03166001600160a01b031681526020018563ffffffff1663ffffffff1681526020018463ffffffff1663ffffffff168152602001838152602001828103825287818151815260200191508051906020019080838360005b83811015620006a85781810151838201526020016200068e565b50505050905090810190601f168015620006d65780820380516001836020036101000a031916815260200191505b50975050505050505050602060405180830381600087803b158015620006fb57600080fd5b505af115801562000710573d6000803e3d6000fd5b505050506040513d60208110156200072757600080fd5b5051979650505050505050565b828054600181600116156101000203166002900490600052602060002090601f016020900481019282601f106200077757805160ff1916838001178555620007a7565b82800160010185558215620007a7579182015b82811115620007a75782518255916020019190600101906200078a565b50620007b5929150620007b9565b5090565b6200047a91905b80821115620007b55760008155600101620007c0565b61374280620007e66000396000f3fe608060405260043610620002535760003560e01c8063894ba833116200013f578063befa1e2f11620000bb578063e9d337b81162000079578063e9d337b81462000857578063ee72b06d146200086f578063f2fde38b1462000887578063f4b9fa7514620008be578063fd27b51e14620008d6576200025b565b8063befa1e2f14620007a4578063c19d93fb14620007bc578063c56f338c14620007f9578063cd9ea3421462000827578063e14dedfd146200083f576200025b565b80639b34ae0311620001095780639b34ae031462000716578063a0c1f15e146200072e578063ad5d28621462000746578063b06a5c521462000774578063bc8802a2146200078c576200025b565b8063894ba833146200062b5780638da5cb5b1462000643578063906d6241146200065b578063991d4f5d1462000692576200025b565b806349200d7711620001cf5780634f64b2be11620001995780634f64b2be14620004dc5780635c975abb146200050a5780636c0dc9761462000522578063715018a614620005fb5780638043c9c01462000613576200025b565b806349200d7714620004605780634afe62b514620004785780634b8755ca14620004ac5780634ecc79f714620004c4576200025b565b806327acae74116200021d57806327acae74146200031457806333b16d9314620003ba57806335c1d34914620003d2578063367edd32146200041c5780633ccfd60b1462000448576200025b565b806305801f0b146200025d5780630b60365c146200029d578063149b5d5814620002b5578063232ea3ad14620002e3576200025b565b366200025b57005b005b3480156200026a57600080fd5b506200028b600480360360208110156200028357600080fd5b5035620008ee565b60408051918252519081900360200190f35b348015620002aa57600080fd5b506200028b62000900565b348015620002c257600080fd5b506200028b60048036036020811015620002db57600080fd5b5035620009bb565b348015620002f057600080fd5b50620002fb62000a54565b6040805163ffffffff9092168252519081900360200190f35b3480156200032157600080fd5b5062000342600480360360208110156200033a57600080fd5b503562000a60565b6040805160208082528351818301528351919283929083019185019080838360005b838110156200037e57818101518382015260200162000364565b50505050905090810190601f168015620003ac5780820380516001836020036101000a031916815260200191505b509250505060405180910390f35b348015620003c757600080fd5b506200025b62000b0b565b348015620003df57600080fd5b506200040060048036036020811015620003f857600080fd5b503562000bd3565b604080516001600160a01b039092168252519081900360200190f35b3480156200042957600080fd5b506200043462000bfb565b604080519115158252519081900360200190f35b3480156200045557600080fd5b506200025b62000cb9565b3480156200046d57600080fd5b506200028b62000ea7565b3480156200048557600080fd5b506200025b600480360360408110156200049e57600080fd5b508035906020013562000ead565b348015620004b957600080fd5b506200028b62001147565b348015620004d157600080fd5b506200028b6200114d565b348015620004e957600080fd5b5062000400600480360360208110156200050257600080fd5b503562001153565b3480156200051757600080fd5b506200043462001161565b3480156200052f57600080fd5b506200025b600480360360408110156200054857600080fd5b8101906020810181356401000000008111156200056457600080fd5b8201836020820111156200057757600080fd5b803590602001918460018302840111640100000000831117156200059a57600080fd5b919390929091602081019035640100000000811115620005b957600080fd5b820183602082011115620005cc57600080fd5b80359060200191846001830284011164010000000083111715620005ef57600080fd5b50909250905062001171565b3480156200060857600080fd5b506200025b62001372565b3480156200062057600080fd5b506200034262001418565b3480156200063857600080fd5b506200043462001476565b3480156200065057600080fd5b506200040062001531565b3480156200066857600080fd5b5062000434600480360360208110156200068157600080fd5b50356001600160a01b031662001540565b3480156200069f57600080fd5b506200025b60048036036020811015620006b857600080fd5b810190602081018135640100000000811115620006d457600080fd5b820183602082011115620006e757600080fd5b803590602001918460018302840111640100000000831117156200070a57600080fd5b50909250905062001555565b3480156200072357600080fd5b506200028b620015c4565b3480156200073b57600080fd5b5062000400620015ca565b3480156200075357600080fd5b506200028b600480360360208110156200076c57600080fd5b5035620015d9565b3480156200078157600080fd5b506200028b620016f3565b3480156200079957600080fd5b5062000400620016f9565b348015620007b157600080fd5b506200028b62001708565b348015620007c957600080fd5b50620007d46200170e565b60405180826004811115620007e557fe5b60ff16815260200191505060405180910390f35b3480156200080657600080fd5b506200028b600480360360208110156200081f57600080fd5b503562001717565b3480156200083457600080fd5b506200043462001729565b3480156200084c57600080fd5b506200028b62001737565b3480156200086457600080fd5b50620004006200173d565b3480156200087c57600080fd5b506200025b6200174c565b3480156200089457600080fd5b506200025b60048036036020811015620008ad57600080fd5b50356001600160a01b0316620018aa565b348015620008cb57600080fd5b5062000400620019a8565b348015620008e357600080fd5b506200028b620019b7565b600f6020526000908152604090205481565b6000806200091c60125460115462001a2190919063ffffffff16565b600254604080516370a0823160e01b815230600482015290519293506000926001600160a01b03909216916370a0823191602480820192602092909190829003018186803b1580156200096e57600080fd5b505afa15801562000983573d6000803e3d6000fd5b505050506040513d60208110156200099a57600080fd5b505190506000620009b2828463ffffffff62001a2116565b93505050505b90565b600080600c8381548110620009cc57fe5b60009182526020918290200154604080516370a0823160e01b815233600482015290516001600160a01b03909216935083926370a0823192602480840193829003018186803b15801562000a1f57600080fd5b505afa15801562000a34573d6000803e3d6000fd5b505050506040513d602081101562000a4b57600080fd5b50519392505050565b60085463ffffffff1681565b600b818154811062000a6e57fe5b600091825260209182902001805460408051601f600260001961010060018716150201909416939093049283018590048502810185019091528181529350909183018282801562000b035780601f1062000ad75761010080835404028352916020019162000b03565b820191906000526020600020905b81548152906001019060200180831162000ae557829003601f168201915b505050505081565b600054600160a01b900460ff161562000b5e576040805162461bcd60e51b815260206004820152601060248201526f14185d5cd8589b194e881c185d5cd95960821b604482015290519081900360640190fd5b62000b6862001a65565b62000bba576040805162461bcd60e51b815260206004820152601860248201527f4f7261636c6520686173206e6f742066696e616c697365640000000000000000604482015290519081900360640190fd5b62000bc462001aea565b60155562000bd16200174c565b565b6013818154811062000be157fe5b6000918252602090912001546001600160a01b0316905081565b600062000c0762001b71565b6000546001600160a01b0390811691161462000c59576040805162461bcd60e51b81526020600482018190526024820152600080516020620036c7833981519152604482015290519081900360640190fd5b600054600160a01b900460ff1662000caf576040805162461bcd60e51b815260206004820152601460248201527314185d5cd8589b194e881b9bdd081c185d5cd95960621b604482015290519081900360640190fd5b620009b862001b75565b600480600e5460ff16600481111562000cce57fe5b1462000d0c5760405162461bcd60e51b8152600401808060200182810382526026815260200180620036e76026913960400191505060405180910390fd5b600054600160a01b900460ff161562000d5f576040805162461bcd60e51b815260206004820152601060248201526f14185d5cd8589b194e881c185d5cd95960821b604482015290519081900360640190fd5b600054600160a81b900460ff1662000dbe576040805162461bcd60e51b815260206004820152601f60248201527f5265656e7472616e637947756172643a207265656e7472616e742063616c6c00604482015290519081900360640190fd5b6000805460ff60a81b191681553381526014602052604090205460ff161562000e22576040805162461bcd60e51b815260206004820152601160248201527020b63932b0b23c903bb4ba34323930bbb760791b604482015290519081900360640190fd5b336000908152601460205260408120805460ff1916600117905560155462000e4a90620015d9565b9050600062000e5862001c20565b9050600062000e6e838363ffffffff620019bd16565b9050801562000e8e5762000e828162001da1565b62000e8e338262001e0b565b50506000805460ff60a81b1916600160a81b1790555050565b600d5481565b600280600e5460ff16600481111562000ec257fe5b1462000f005760405162461bcd60e51b8152600401808060200182810382526026815260200180620036e76026913960400191505060405180910390fd5b600054600160a01b900460ff161562000f53576040805162461bcd60e51b815260206004820152601060248201526f14185d5cd8589b194e881c185d5cd95960821b604482015290519081900360640190fd5b6000600c848154811062000f6357fe5b60009182526020918290200154604080516370a0823160e01b815233600482015290516001600160a01b03909216935083926370a0823192602480840193829003018186803b15801562000fb657600080fd5b505afa15801562000fcb573d6000803e3d6000fd5b505050506040513d602081101562000fe257600080fd5b50516200102c57601380546001810182556000919091527f66de8ffda797e3de9c05e8fc57b3bf0ec28a930d40b0d285d93c06501cf6a0900180546001600160a01b031916331790555b60405133907fef3b3ae531a4f494c95e537ec1fe385cfe5c1146cb4c1d850b24bad38595804990600090a2604080516340c10f1960e01b81523360048201526024810185905290516001600160a01b038316916340c10f1991604480830192600092919082900301818387803b158015620010a657600080fd5b505af1158015620010bb573d6000803e3d6000fd5b5050601154620010d5925090508463ffffffff620019bd16565b6011556000848152600f6020526040902054620010f9908463ffffffff620019bd16565b6000858152600f6020526040902055600e54610100900460ff16156200112a57620011248362001edd565b62001136565b62001136338462001f2b565b620011418362001f88565b50505050565b60075481565b60065481565b600c818154811062000be157fe5b600054600160a01b900460ff1690565b6200117b62001b71565b6000546001600160a01b03908116911614620011cd576040805162461bcd60e51b81526020600482018190526024820152600080516020620036c7833981519152604482015290519081900360640190fd5b600080600e5460ff166004811115620011e257fe5b14620012205760405162461bcd60e51b8152600401808060200182810382526026815260200180620036e76026913960400191505060405180910390fd5b600b80546001810182556000919091526200125f907f0175b7a638427703f0dbe7bb9bbf987a2551717b34e79f33b5b1008d1fa01db90186866200221d565b50600083836040516200127290620022a2565b6020808252810182905280604081018484808284376000838201819052604051601f909201601f1916909301819003965094509092505050f080158015620012be573d6000803e3d6000fd5b50600c8054600180820183556000929092527fdf6966c971051c3d54ec59162606531493a51404a002842f56009d7e5cf4a8c70180546001600160a01b0319166001600160a01b0384161790556005549192506200131d9190620019bd565b6005819055600d5414156200136a57600e5460ff1660048111156200133e57fe5b60010160048111156200134d57fe5b600e805460ff191660018360048111156200136457fe5b02179055505b505050505050565b6200137c62001b71565b6000546001600160a01b03908116911614620013ce576040805162461bcd60e51b81526020600482018190526024820152600080516020620036c7833981519152604482015290519081900360640190fd5b600080546040516001600160a01b03909116907f8be0079c531659141344cd1fd0a4f28419497f9722a3daafe3b4186f6b6457e0908390a3600080546001600160a01b0319169055565b600a805460408051602060026001851615610100026000190190941693909304601f8101849004840282018401909252818152929183018282801562000b035780601f1062000ad75761010080835404028352916020019162000b03565b60006200148262001b71565b6000546001600160a01b03908116911614620014d4576040805162461bcd60e51b81526020600482018190526024820152600080516020620036c7833981519152604482015290519081900360640190fd5b600054600160a01b900460ff161562001527576040805162461bcd60e51b815260206004820152601060248201526f14185d5cd8589b194e881c185d5cd95960821b604482015290519081900360640190fd5b620009b862001fe6565b6000546001600160a01b031690565b60146020526000908152604090205460ff1681565b6200155f62001b71565b6000546001600160a01b03908116911614620015b1576040805162461bcd60e51b81526020600482018190526024820152600080516020620036c7833981519152604482015290519081900360640190fd5b620015bf600a83836200221d565b505050565b60155481565b6002546001600160a01b031681565b600080600c8381548110620015ea57fe5b6000918252602080832090910154604080516370a0823160e01b815233600482015290516001600160a01b039092169450839285926370a08231926024808201939291829003018186803b1580156200164257600080fd5b505afa15801562001657573d6000803e3d6000fd5b505050506040513d60208110156200166e57600080fd5b505190508015620016eb5760006200168562000900565b601554600090815260106020908152604080832054600f9092528220549293509091620016b89163ffffffff62001a2116565b90508015620016e857620016e581620016d8848663ffffffff6200207716565b9063ffffffff620020d516565b93505b50505b509392505050565b60095481565b6004546001600160a01b031681565b60115481565b600e5460ff1681565b60106020526000908152604090205481565b600e54610100900460ff1681565b60125481565b6003546001600160a01b031681565b600054600160a01b900460ff16156200179f576040805162461bcd60e51b815260206004820152601060248201526f14185d5cd8589b194e881c185d5cd95960821b604482015290519081900360640190fd5b6001600e5460ff166004811115620017b357fe5b148015620017c2575042600654105b80620017ec57506002600e5460ff166004811115620017dd57fe5b148015620017ec575042600754105b806200181857506003600e5460ff1660048111156200180757fe5b148015620018185750601554604514155b1562000bd157600e5460ff1660048111156200183057fe5b60010160048111156200183f57fe5b600e805460ff191660018360048111156200185657fe5b0217905550600e546040517f551dc40198cc79684bb69e4931dba4ac16e4598792ee1c0a5000aeea366d7bb69160ff1690808260048111156200189557fe5b60ff16815260200191505060405180910390a1565b620018b462001b71565b6000546001600160a01b0390811691161462001906576040805162461bcd60e51b81526020600482018190526024820152600080516020620036c7833981519152604482015290519081900360640190fd5b6001600160a01b0381166200194d5760405162461bcd60e51b8152600401808060200182810382526026815260200180620036806026913960400191505060405180910390fd5b600080546040516001600160a01b03808516939216917f8be0079c531659141344cd1fd0a4f28419497f9722a3daafe3b4186f6b6457e091a3600080546001600160a01b0319166001600160a01b0392909216919091179055565b6001546001600160a01b031681565b60135490565b60008282018381101562001a18576040805162461bcd60e51b815260206004820152601b60248201527f536166654d6174683a206164646974696f6e206f766572666c6f770000000000604482015290519081900360640190fd5b90505b92915050565b600062001a1883836040518060400160405280601e81526020017f536166654d6174683a207375627472616374696f6e206f766572666c6f77000081525062002119565b6004805460095460408051633fc6a14f60e11b815293840191909152516000926001600160a01b0390921691637f8d429e916024808301926020929190829003018186803b15801562001ab757600080fd5b505afa15801562001acc573d6000803e3d6000fd5b505050506040513d602081101562001ae357600080fd5b5051905090565b600480546009546040805163684e62bf60e11b8152938401919091525160009283926001600160a01b03169163d09cc57e91602480820192602092909190829003018186803b15801562001b3d57600080fd5b505afa15801562001b52573d6000803e3d6000fd5b505050506040513d602081101562001b6957600080fd5b505191505090565b3390565b600054600160a01b900460ff1662001bcb576040805162461bcd60e51b815260206004820152601460248201527314185d5cd8589b194e881b9bdd081c185d5cd95960621b604482015290519081900360640190fd5b6000805460ff60a01b191690557f5db9ee0a495bf2e6ff9c91a7834c1ba4fdd244a5e8aa4e537bd38aeae4b073aa62001c0362001b71565b604080516001600160a01b039092168252519081900360200190a1565b600080805b600d5481101562001d83576000600c828154811062001c4057fe5b6000918252602080832090910154604080516370a0823160e01b815233600482015290516001600160a01b03909216945084926370a0823192602480840193829003018186803b15801562001c9457600080fd5b505afa15801562001ca9573d6000803e3d6000fd5b505050506040513d602081101562001cc057600080fd5b50519050801562001d785762001cdd848263ffffffff620019bd16565b60008481526010602052604090205490945062001d01908563ffffffff620019bd16565b600084815260106020526040808220929092558151632770a7eb60e21b81523360048201526024810184905291516001600160a01b03851692639dc29fac92604480830193919282900301818387803b15801562001d5e57600080fd5b505af115801562001d73573d6000803e3d6000fd5b505050505b505060010162001c25565b5060125462001d99908263ffffffff620019bd16565b601255905090565b6002546040805163db006a7560e01b81526004810184905290516001600160a01b039092169163db006a759160248082019260009290919082900301818387803b15801562001def57600080fd5b505af115801562001e04573d6000803e3d6000fd5b5050505050565b6001546040805163a9059cbb60e01b81526001600160a01b038581166004830152602482018590529151919092169163a9059cbb9160448083019260209291908290030181600087803b15801562001e6257600080fd5b505af115801562001e77573d6000803e3d6000fd5b505050506040513d602081101562001e8e57600080fd5b505162001ed9576040805162461bcd60e51b815260206004820152601460248201527310d85cda081d1c985b9cd9995c8819985a5b195960621b604482015290519081900360640190fd5b5050565b6001546040805163140e25ad60e31b81526004810184905290516001600160a01b039092169163a0712d689160248082019260009290919082900301818387803b15801562001def57600080fd5b600154604080516323b872dd60e01b81526001600160a01b03858116600483015230602483015260448201859052915191909216916323b872dd9160648083019260209291908290030181600087803b15801562001e6257600080fd5b60035460015460408051636968703360e11b81526001600160a01b039283166004820152602481018590526000604482018190529151929093169263d2d0e066926064808301939282900301818387803b15801562001def57600080fd5b600054600160a01b900460ff161562002039576040805162461bcd60e51b815260206004820152601060248201526f14185d5cd8589b194e881c185d5cd95960821b604482015290519081900360640190fd5b6000805460ff60a01b1916600160a01b1790557f62e78cea01bee320cd4e420270b5ea74000d11b0c9f74754ebdbfc544b05a25862001c0362001b71565b600082620020885750600062001a1b565b828202828482816200209657fe5b041462001a185760405162461bcd60e51b8152600401808060200182810382526021815260200180620036a66021913960400191505060405180910390fd5b600062001a1883836040518060400160405280601a81526020017f536166654d6174683a206469766973696f6e206279207a65726f000000000000815250620021b4565b60008184841115620021ac5760405162461bcd60e51b81526004018080602001828103825283818151815260200191508051906020019080838360005b838110156200217057818101518382015260200162002156565b50505050905090810190601f1680156200219e5780820380516001836020036101000a031916815260200191505b509250505060405180910390fd5b505050900390565b60008183620022065760405162461bcd60e51b81526020600482018181528351602484015283519092839260449091019190850190808383600083156200217057818101518382015260200162002156565b5060008385816200221357fe5b0495945050505050565b828054600181600116156101000203166002900490600052602060002090601f016020900481019282601f10620022605782800160ff1982351617855562002290565b8280016001018555821562002290579182015b828111156200229057823582559160200191906001019062002273565b506200229e929150620022b0565b5090565b6113b280620022ce83390190565b620009b891905b808211156200229e5760008155600101620022b756fe60806040523480156200001157600080fd5b50604051620013b2380380620013b2833981810160405260208110156200003757600080fd5b81019080805160405193929190846401000000008211156200005857600080fd5b9083019060208201858111156200006e57600080fd5b82516401000000008111828201881017156200008957600080fd5b82525081516020918201929091019080838360005b83811015620000b85781810151838201526020016200009e565b50505050905090810190601f168015620000e65780820380516001836020036101000a031916815260200191505b5060408181019052600281526126a160f11b60208083019190915285518695509193506200011c925060039190850190620001b9565b50805162000132906004906020840190620001b9565b50506005805460ff19166012179055506000620001576001600160e01b03620001b416565b60058054610100600160a81b0319166101006001600160a01b03841690810291909117909155604051919250906000907f8be0079c531659141344cd1fd0a4f28419497f9722a3daafe3b4186f6b6457e0908290a350506200025b565b335b90565b828054600181600116156101000203166002900490600052602060002090601f016020900481019282601f10620001fc57805160ff19168380011785556200022c565b828001600101855582156200022c579182015b828111156200022c5782518255916020019190600101906200020f565b506200023a9291506200023e565b5090565b620001b691905b808211156200023a576000815560010162000245565b611147806200026b6000396000f3fe6080604052600436106100f75760003560e01c8063715018a61161008a578063a457c2d711610059578063a457c2d7146103a5578063a9059cbb146103de578063dd62ed3e14610417578063f2fde38b14610452576100fe565b8063715018a6146103115780638da5cb5b1461032657806395d89b41146103575780639dc29fac1461036c576100fe565b8063313ce567116100c6578063313ce56714610241578063395093511461026c57806340c10f19146102a557806370a08231146102de576100fe565b806306fdde0314610100578063095ea7b31461018a57806318160ddd146101d757806323b872dd146101fe576100fe565b366100fe57005b005b34801561010c57600080fd5b50610115610485565b6040805160208082528351818301528351919283929083019185019080838360005b8381101561014f578181015183820152602001610137565b50505050905090810190601f16801561017c5780820380516001836020036101000a031916815260200191505b509250505060405180910390f35b34801561019657600080fd5b506101c3600480360360408110156101ad57600080fd5b506001600160a01b03813516906020013561051b565b604080519115158252519081900360200190f35b3480156101e357600080fd5b506101ec610538565b60408051918252519081900360200190f35b34801561020a57600080fd5b506101c36004803603606081101561022157600080fd5b506001600160a01b0381358116916020810135909116906040013561053e565b34801561024d57600080fd5b506102566105cb565b6040805160ff9092168252519081900360200190f35b34801561027857600080fd5b506101c36004803603604081101561028f57600080fd5b506001600160a01b0381351690602001356105d4565b3480156102b157600080fd5b506100fe600480360360408110156102c857600080fd5b506001600160a01b038135169060200135610628565b3480156102ea57600080fd5b506101ec6004803603602081101561030157600080fd5b50356001600160a01b0316610693565b34801561031d57600080fd5b506100fe6106ae565b34801561033257600080fd5b5061033b61075b565b604080516001600160a01b039092168252519081900360200190f35b34801561036357600080fd5b5061011561076f565b34801561037857600080fd5b506100fe6004803603604081101561038f57600080fd5b506001600160a01b0381351690602001356107d0565b3480156103b157600080fd5b506101c3600480360360408110156103c857600080fd5b506001600160a01b038135169060200135610837565b3480156103ea57600080fd5b506101c36004803603604081101561040157600080fd5b506001600160a01b0381351690602001356108a5565b34801561042357600080fd5b506101ec6004803603604081101561043a57600080fd5b506001600160a01b03813581169160200135166108b9565b34801561045e57600080fd5b506100fe6004803603602081101561047557600080fd5b50356001600160a01b03166108e4565b60038054604080516020601f60026000196101006001881615020190951694909404938401819004810282018101909252828152606093909290918301828280156105115780601f106104e657610100808354040283529160200191610511565b820191906000526020600020905b8154815290600101906020018083116104f457829003601f168201915b5050505050905090565b600061052f6105286109ed565b84846109f1565b50600192915050565b60025490565b600061054b848484610add565b6105c1846105576109ed565b6105bc8560405180606001604052806028815260200161103b602891396001600160a01b038a166000908152600160205260408120906105956109ed565b6001600160a01b03168152602081019190915260400160002054919063ffffffff610c4416565b6109f1565b5060019392505050565b60055460ff1690565b600061052f6105e16109ed565b846105bc85600160006105f26109ed565b6001600160a01b03908116825260208083019390935260409182016000908120918c16815292529020549063ffffffff610cdb16565b6106306109ed565b60055461010090046001600160a01b03908116911614610685576040805162461bcd60e51b81526020600482018190526024820152600080516020611063833981519152604482015290519081900360640190fd5b61068f8282610d3c565b5050565b6001600160a01b031660009081526020819052604090205490565b6106b66109ed565b60055461010090046001600160a01b0390811691161461070b576040805162461bcd60e51b81526020600482018190526024820152600080516020611063833981519152604482015290519081900360640190fd5b60055460405160009161010090046001600160a01b0316907f8be0079c531659141344cd1fd0a4f28419497f9722a3daafe3b4186f6b6457e0908390a360058054610100600160a81b0319169055565b60055461010090046001600160a01b031690565b60048054604080516020601f60026000196101006001881615020190951694909404938401819004810282018101909252828152606093909290918301828280156105115780601f106104e657610100808354040283529160200191610511565b6107d86109ed565b60055461010090046001600160a01b0390811691161461082d576040805162461bcd60e51b81526020600482018190526024820152600080516020611063833981519152604482015290519081900360640190fd5b61068f8282610e38565b600061052f6108446109ed565b846105bc856040518060600160405280602581526020016110ed602591396001600061086e6109ed565b6001600160a01b03908116825260208083019390935260409182016000908120918d1681529252902054919063ffffffff610c4416565b600061052f6108b26109ed565b8484610add565b6001600160a01b03918216600090815260016020908152604080832093909416825291909152205490565b6108ec6109ed565b60055461010090046001600160a01b03908116911614610941576040805162461bcd60e51b81526020600482018190526024820152600080516020611063833981519152604482015290519081900360640190fd5b6001600160a01b0381166109865760405162461bcd60e51b8152600401808060200182810382526026815260200180610fcd6026913960400191505060405180910390fd5b6005546040516001600160a01b0380841692610100900416907f8be0079c531659141344cd1fd0a4f28419497f9722a3daafe3b4186f6b6457e090600090a3600580546001600160a01b0390921661010002610100600160a81b0319909216919091179055565b3390565b6001600160a01b038316610a365760405162461bcd60e51b81526004018080602001828103825260248152602001806110c96024913960400191505060405180910390fd5b6001600160a01b038216610a7b5760405162461bcd60e51b8152600401808060200182810382526022815260200180610ff36022913960400191505060405180910390fd5b6001600160a01b03808416600081815260016020908152604080832094871680845294825291829020859055815185815291517f8c5be1e5ebec7d5bd14f71427d1e84f3dd0314c0f7b2291e5b200ac8c7c3b9259281900390910190a3505050565b6001600160a01b038316610b225760405162461bcd60e51b81526004018080602001828103825260258152602001806110a46025913960400191505060405180910390fd5b6001600160a01b038216610b675760405162461bcd60e51b8152600401808060200182810382526023815260200180610f886023913960400191505060405180910390fd5b610b72838383610f40565b610bb581604051806060016040528060268152602001611015602691396001600160a01b038616600090815260208190526040902054919063ffffffff610c4416565b6001600160a01b038085166000908152602081905260408082209390935590841681522054610bea908263ffffffff610cdb16565b6001600160a01b038084166000818152602081815260409182902094909455805185815290519193928716927fddf252ad1be2c89b69c2b068fc378daa952ba7f163c4a11628f55a4df523b3ef92918290030190a3505050565b60008184841115610cd35760405162461bcd60e51b81526004018080602001828103825283818151815260200191508051906020019080838360005b83811015610c98578181015183820152602001610c80565b50505050905090810190601f168015610cc55780820380516001836020036101000a031916815260200191505b509250505060405180910390fd5b505050900390565b600082820183811015610d35576040805162461bcd60e51b815260206004820152601b60248201527f536166654d6174683a206164646974696f6e206f766572666c6f770000000000604482015290519081900360640190fd5b9392505050565b6001600160a01b038216610d97576040805162461bcd60e51b815260206004820152601f60248201527f45524332303a206d696e7420746f20746865207a65726f206164647265737300604482015290519081900360640190fd5b610da360008383610f40565b600254610db6908263ffffffff610cdb16565b6002556001600160a01b038216600090815260208190526040902054610de2908263ffffffff610cdb16565b6001600160a01b0383166000818152602081815260408083209490945583518581529351929391927fddf252ad1be2c89b69c2b068fc378daa952ba7f163c4a11628f55a4df523b3ef9281900390910190a35050565b6001600160a01b038216610e7d5760405162461bcd60e51b81526004018080602001828103825260218152602001806110836021913960400191505060405180910390fd5b610e8982600083610f40565b610ecc81604051806060016040528060228152602001610fab602291396001600160a01b038516600090815260208190526040902054919063ffffffff610c4416565b6001600160a01b038316600090815260208190526040902055600254610ef8908263ffffffff610f4516565b6002556040805182815290516000916001600160a01b038516917fddf252ad1be2c89b69c2b068fc378daa952ba7f163c4a11628f55a4df523b3ef9181900360200190a35050565b505050565b6000610d3583836040518060400160405280601e81526020017f536166654d6174683a207375627472616374696f6e206f766572666c6f770000815250610c4456fe45524332303a207472616e7366657220746f20746865207a65726f206164647265737345524332303a206275726e20616d6f756e7420657863656564732062616c616e63654f776e61626c653a206e6577206f776e657220697320746865207a65726f206164647265737345524332303a20617070726f766520746f20746865207a65726f206164647265737345524332303a207472616e7366657220616d6f756e7420657863656564732062616c616e636545524332303a207472616e7366657220616d6f756e74206578636565647320616c6c6f77616e63654f776e61626c653a2063616c6c6572206973206e6f7420746865206f776e657245524332303a206275726e2066726f6d20746865207a65726f206164647265737345524332303a207472616e736665722066726f6d20746865207a65726f206164647265737345524332303a20617070726f76652066726f6d20746865207a65726f206164647265737345524332303a2064656372656173656420616c6c6f77616e63652062656c6f77207a65726fa264697066735822122050c91cc969dbacf9a1bba74bdae1ea1fba7bfa53cb28faedd90115e059a873df64736f6c634300060800334f776e61626c653a206e6577206f776e657220697320746865207a65726f2061646472657373536166654d6174683a206d756c7469706c69636174696f6e206f766572666c6f774f776e61626c653a2063616c6c6572206973206e6f7420746865206f776e657266756e6374696f6e2063616e6e6f742062652063616c6c656420617420746869732074696d65a264697066735822122072a80a8e4546fd6b07fc81837415ee6b8707f88a6773d8933dc092ef4ade88c164736f6c634300060800334f776e61626c653a206e6577206f776e657220697320746865207a65726f20616464726573738be0079c531659141344cd1fd0a4f28419497f9722a3daafe3b4186f6b6457e04f776e61626c653a206e6577206f776e657220697320746865207a65726f20616464726573734d757374277665206265656e20637265617465642062792074686520636f72726573706f6e64696e6720666163746f72794f776e61626c653a2063616c6c6572206973206e6f7420746865206f776e6572a2646970667358221220732e01524f3830f137deef506e8c3c68464e22571d27088cb38c6474f9a8acd864736f6c63430006080033",
  "immutableReferences": {},
  "source": "pragma solidity 0.6.8;\n\nimport \"@openzeppelin/contracts/access/Ownable.sol\";\nimport \"@openzeppelin/contracts/utils/Pausable.sol\";\nimport \"./BTMarket.sol\";\nimport \"./interfaces/IAave.sol\";\nimport \"./interfaces/IDai.sol\";\nimport \"./interfaces/IRealitio.sol\";\n\n\ncontract BTMarketFactory is Ownable, Pausable {\n  Dai public dai;\n  IaToken public aToken;\n  IAaveLendingPool public aaveLendingPool;\n  IAaveLendingPoolCore public aaveLendingPoolCore;\n  IRealitio public realitio;\n  mapping(address => bool) public mappingOfMarkets;\n  address[] public markets;\n\n  event MarketCreated(address contractAddress);\n\n  modifier createdByThisFactory(address marketAddress) {\n    require(\n      mappingOfMarkets[marketAddress],\n      \"Must've been created by the corresponding factory\"\n    );\n    _;\n  }\n\n  constructor(\n    Dai _daiAddress,\n    IaToken _aTokenAddress,\n    IAaveLendingPool _aaveLpAddress,\n    IAaveLendingPoolCore _aaveLpcoreAddress,\n    IRealitio _realitioAddress\n  ) public {\n    dai = _daiAddress;\n    aToken = _aTokenAddress;\n    aaveLendingPool = _aaveLpAddress;\n    aaveLendingPoolCore = _aaveLpcoreAddress;\n    realitio = _realitioAddress;\n  }\n\n  function createMarket(\n    string memory _eventName,\n    uint256 _marketOpeningTime,\n    uint32 _marketResolutionTime,\n    address _arbitrator,\n    string memory _question,\n    uint256 _numberOfOutcomes\n  )\n    public\n    /* onlyOwner TODO removed for development */\n    whenNotPaused\n    returns (BTMarket)\n  {\n    BTMarket newContract = new BTMarket({\n      _daiAddress: dai,\n      _aTokenAddress: aToken,\n      _aaveLpAddress: aaveLendingPool,\n      _aaveLpcoreAddress: aaveLendingPoolCore,\n      _realitioAddress: realitio,\n      _eventName: _eventName,\n      _marketOpeningTime: _marketOpeningTime,\n      _marketResolutionTime: _marketResolutionTime,\n      _arbitrator: _arbitrator,\n      _question: _question,\n      _numberOfOutcomes: _numberOfOutcomes,\n      _owner: msg.sender,\n      _testMode: true\n    });\n    address newAddress = address(newContract);\n    markets.push(newAddress);\n    mappingOfMarkets[newAddress] = true;\n    emit MarketCreated(address(newAddress));\n    return newContract;\n  }\n\n  function getMarkets() public view returns (address[] memory) {\n    return markets;\n  }\n\n  function destroy() public onlyOwner whenPaused {\n    selfdestruct(msg.sender);\n  }\n\n  function disableMarket(address payable marketAddress)\n    public\n    onlyOwner\n    createdByThisFactory(marketAddress)\n    returns (bool)\n  {\n    return BTMarket(marketAddress).disableContract();\n  }\n}\n",
  "sourcePath": "/Users/brenfife/Desktop/BetTogether-Contracts/contracts/BTMarketFactory.sol",
  "compiler": {
    "name": "solc",
    "version": "0.6.8+commit.0bbfe453.Emscripten.clang"
  },
  "schemaVersion": "3.1.0",
  "updatedAt": "2020-05-14T17:57:49.664Z",
  "devdoc": {
    "methods": {
      "owner()": {
        "details": "Returns the address of the current owner."
      },
      "paused()": {
        "details": "Returns true if the contract is paused, and false otherwise."
      },
      "renounceOwnership()": {
        "details": "Leaves the contract without owner. It will not be possible to call `onlyOwner` functions anymore. Can only be called by the current owner.     * NOTE: Renouncing ownership will leave the contract without an owner, thereby removing any functionality that is only available to the owner."
      },
      "transferOwnership(address)": {
        "details": "Transfers ownership of the contract to a new account (`newOwner`). Can only be called by the current owner."
      }
    }
  },
  "userdoc": {
    "methods": {}
  }
}