{
  "contractName": "BTMarket",
  "abi": [
    {
      "inputs": [
        {
          "internalType": "contract Dai",
          "name": "_daiAddress",
          "type": "address"
        },
        {
          "internalType": "contract IaToken",
          "name": "_aTokenAddress",
          "type": "address"
        },
        {
          "internalType": "contract IAaveLendingPool",
          "name": "_aaveLpAddress",
          "type": "address"
        },
        {
          "internalType": "contract IAaveLendingPoolCore",
          "name": "_aaveLpcoreAddress",
          "type": "address"
        },
        {
          "internalType": "contract IRealitio",
          "name": "_realitioAddress",
          "type": "address"
        },
        {
          "internalType": "uint256",
          "name": "_marketOpeningTime",
          "type": "uint256"
        },
        {
          "internalType": "uint32",
          "name": "_marketResolutionTime",
          "type": "uint32"
        },
        {
          "internalType": "address",
          "name": "_arbitrator",
          "type": "address"
        },
        {
          "internalType": "string",
          "name": "_eventName",
          "type": "string"
        },
        {
          "internalType": "uint256",
          "name": "_numberOfOutcomes",
          "type": "uint256"
        },
        {
          "internalType": "uint32",
          "name": "_timeout",
          "type": "uint32"
        },
        {
          "internalType": "address",
          "name": "_owner",
          "type": "address"
        },
        {
          "internalType": "bool",
          "name": "_testMode",
          "type": "bool"
        }
      ],
      "stateMutability": "nonpayable",
      "type": "constructor"
    },
    {
      "anonymous": false,
      "inputs": [
        {
          "indexed": true,
          "internalType": "address",
          "name": "previousOwner",
          "type": "address"
        },
        {
          "indexed": true,
          "internalType": "address",
          "name": "newOwner",
          "type": "address"
        }
      ],
      "name": "OwnershipTransferred",
      "type": "event"
    },
    {
      "anonymous": false,
      "inputs": [
        {
          "indexed": true,
          "internalType": "address",
          "name": "participant",
          "type": "address"
        }
      ],
      "name": "ParticipantEntered",
      "type": "event"
    },
    {
      "anonymous": false,
      "inputs": [
        {
          "indexed": true,
          "internalType": "address",
          "name": "participant",
          "type": "address"
        }
      ],
      "name": "ParticipantWithdrawn",
      "type": "event"
    },
    {
      "anonymous": false,
      "inputs": [
        {
          "indexed": false,
          "internalType": "address",
          "name": "account",
          "type": "address"
        }
      ],
      "name": "Paused",
      "type": "event"
    },
    {
      "anonymous": false,
      "inputs": [
        {
          "indexed": false,
          "internalType": "enum BTMarket.States",
          "name": "state",
          "type": "uint8"
        }
      ],
      "name": "StateChanged",
      "type": "event"
    },
    {
      "anonymous": false,
      "inputs": [
        {
          "indexed": false,
          "internalType": "address",
          "name": "account",
          "type": "address"
        }
      ],
      "name": "Unpaused",
      "type": "event"
    },
    {
      "anonymous": false,
      "inputs": [
        {
          "indexed": true,
          "internalType": "address",
          "name": "winner",
          "type": "address"
        }
      ],
      "name": "WinnerSelected",
      "type": "event"
    },
    {
      "stateMutability": "payable",
      "type": "fallback"
    },
    {
      "inputs": [],
      "name": "aToken",
      "outputs": [
        {
          "internalType": "contract IaToken",
          "name": "",
          "type": "address"
        }
      ],
      "stateMutability": "view",
      "type": "function"
    },
    {
      "inputs": [],
      "name": "aaveLendingPool",
      "outputs": [
        {
          "internalType": "contract IAaveLendingPool",
          "name": "",
          "type": "address"
        }
      ],
      "stateMutability": "view",
      "type": "function"
    },
    {
      "inputs": [],
      "name": "aaveLendingPoolCore",
      "outputs": [
        {
          "internalType": "contract IAaveLendingPoolCore",
          "name": "",
          "type": "address"
        }
      ],
      "stateMutability": "view",
      "type": "function"
    },
    {
      "inputs": [
        {
          "internalType": "address",
          "name": "",
          "type": "address"
        },
        {
          "internalType": "uint256",
          "name": "",
          "type": "uint256"
        }
      ],
      "name": "balances",
      "outputs": [
        {
          "internalType": "uint256",
          "name": "",
          "type": "uint256"
        }
      ],
      "stateMutability": "view",
      "type": "function"
    },
    {
      "inputs": [],
      "name": "dai",
      "outputs": [
        {
          "internalType": "contract Dai",
          "name": "",
          "type": "address"
        }
      ],
      "stateMutability": "view",
      "type": "function"
    },
    {
      "inputs": [],
      "name": "eventName",
      "outputs": [
        {
          "internalType": "string",
          "name": "",
          "type": "string"
        }
      ],
      "stateMutability": "view",
      "type": "function"
    },
    {
      "inputs": [
        {
          "internalType": "uint256",
          "name": "",
          "type": "uint256"
        }
      ],
      "name": "eventOutcomes",
      "outputs": [
        {
          "internalType": "string",
          "name": "",
          "type": "string"
        }
      ],
      "stateMutability": "view",
      "type": "function"
    },
    {
      "inputs": [],
      "name": "marketLockingTime",
      "outputs": [
        {
          "internalType": "uint256",
          "name": "",
          "type": "uint256"
        }
      ],
      "stateMutability": "view",
      "type": "function"
    },
    {
      "inputs": [],
      "name": "marketOpeningTime",
      "outputs": [
        {
          "internalType": "uint256",
          "name": "",
          "type": "uint256"
        }
      ],
      "stateMutability": "view",
      "type": "function"
    },
    {
      "inputs": [],
      "name": "marketResolutionTime",
      "outputs": [
        {
          "internalType": "uint32",
          "name": "",
          "type": "uint32"
        }
      ],
      "stateMutability": "view",
      "type": "function"
    },
    {
      "inputs": [],
      "name": "numberOfOutcomes",
      "outputs": [
        {
          "internalType": "uint256",
          "name": "",
          "type": "uint256"
        }
      ],
      "stateMutability": "view",
      "type": "function"
    },
    {
      "inputs": [],
      "name": "owner",
      "outputs": [
        {
          "internalType": "address",
          "name": "",
          "type": "address"
        }
      ],
      "stateMutability": "view",
      "type": "function"
    },
    {
      "inputs": [
        {
          "internalType": "uint256",
          "name": "",
          "type": "uint256"
        }
      ],
      "name": "participants",
      "outputs": [
        {
          "internalType": "address",
          "name": "",
          "type": "address"
        }
      ],
      "stateMutability": "view",
      "type": "function"
    },
    {
      "inputs": [],
      "name": "paused",
      "outputs": [
        {
          "internalType": "bool",
          "name": "",
          "type": "bool"
        }
      ],
      "stateMutability": "view",
      "type": "function"
    },
    {
      "inputs": [],
      "name": "questionId",
      "outputs": [
        {
          "internalType": "bytes32",
          "name": "",
          "type": "bytes32"
        }
      ],
      "stateMutability": "view",
      "type": "function"
    },
    {
      "inputs": [],
      "name": "realitio",
      "outputs": [
        {
          "internalType": "contract IRealitio",
          "name": "",
          "type": "address"
        }
      ],
      "stateMutability": "view",
      "type": "function"
    },
    {
      "inputs": [],
      "name": "renounceOwnership",
      "outputs": [],
      "stateMutability": "nonpayable",
      "type": "function"
    },
    {
      "inputs": [],
      "name": "state",
      "outputs": [
        {
          "internalType": "enum BTMarket.States",
          "name": "",
          "type": "uint8"
        }
      ],
      "stateMutability": "view",
      "type": "function"
    },
    {
      "inputs": [],
      "name": "testMode",
      "outputs": [
        {
          "internalType": "bool",
          "name": "",
          "type": "bool"
        }
      ],
      "stateMutability": "view",
      "type": "function"
    },
    {
      "inputs": [],
      "name": "totalBet",
      "outputs": [
        {
          "internalType": "uint256",
          "name": "",
          "type": "uint256"
        }
      ],
      "stateMutability": "view",
      "type": "function"
    },
    {
      "inputs": [
        {
          "internalType": "uint256",
          "name": "",
          "type": "uint256"
        }
      ],
      "name": "totalBetPerOutcome",
      "outputs": [
        {
          "internalType": "uint256",
          "name": "",
          "type": "uint256"
        }
      ],
      "stateMutability": "view",
      "type": "function"
    },
    {
      "inputs": [],
      "name": "totalWithdrawn",
      "outputs": [
        {
          "internalType": "uint256",
          "name": "",
          "type": "uint256"
        }
      ],
      "stateMutability": "view",
      "type": "function"
    },
    {
      "inputs": [
        {
          "internalType": "address",
          "name": "newOwner",
          "type": "address"
        }
      ],
      "name": "transferOwnership",
      "outputs": [],
      "stateMutability": "nonpayable",
      "type": "function"
    },
    {
      "inputs": [],
      "name": "winningOutcome",
      "outputs": [
        {
          "internalType": "uint256",
          "name": "",
          "type": "uint256"
        }
      ],
      "stateMutability": "view",
      "type": "function"
    },
    {
      "inputs": [
        {
          "internalType": "address",
          "name": "",
          "type": "address"
        }
      ],
      "name": "withdrawnBool",
      "outputs": [
        {
          "internalType": "bool",
          "name": "",
          "type": "bool"
        }
      ],
      "stateMutability": "view",
      "type": "function"
    },
    {
      "stateMutability": "payable",
      "type": "receive"
    },
    {
      "inputs": [],
      "name": "getMarketSize",
      "outputs": [
        {
          "internalType": "uint256",
          "name": "",
          "type": "uint256"
        }
      ],
      "stateMutability": "view",
      "type": "function"
    },
    {
      "inputs": [
        {
          "internalType": "uint256",
          "name": "_outcome",
          "type": "uint256"
        }
      ],
      "name": "getParticipantsBet",
      "outputs": [
        {
          "internalType": "uint256",
          "name": "",
          "type": "uint256"
        }
      ],
      "stateMutability": "view",
      "type": "function"
    },
    {
      "inputs": [],
      "name": "getTotalInterest",
      "outputs": [
        {
          "internalType": "uint256",
          "name": "",
          "type": "uint256"
        }
      ],
      "stateMutability": "view",
      "type": "function"
    },
    {
      "inputs": [
        {
          "internalType": "uint256",
          "name": "_outcome",
          "type": "uint256"
        }
      ],
      "name": "getWinnings",
      "outputs": [
        {
          "internalType": "uint256",
          "name": "",
          "type": "uint256"
        }
      ],
      "stateMutability": "view",
      "type": "function"
    },
    {
      "inputs": [
        {
          "internalType": "uint256",
          "name": "_outcome",
          "type": "uint256"
        },
        {
          "internalType": "uint256",
          "name": "_dai",
          "type": "uint256"
        }
      ],
      "name": "placeBet",
      "outputs": [],
      "stateMutability": "nonpayable",
      "type": "function"
    },
    {
      "inputs": [],
      "name": "determineWinner",
      "outputs": [],
      "stateMutability": "nonpayable",
      "type": "function"
    },
    {
      "inputs": [],
      "name": "incrementState",
      "outputs": [],
      "stateMutability": "nonpayable",
      "type": "function"
    },
    {
      "inputs": [],
      "name": "withdraw",
      "outputs": [],
      "stateMutability": "nonpayable",
      "type": "function"
    },
    {
      "inputs": [],
      "name": "disableContract",
      "outputs": [
        {
          "internalType": "bool",
          "name": "",
          "type": "bool"
        }
      ],
      "stateMutability": "nonpayable",
      "type": "function"
    },
    {
      "inputs": [],
      "name": "enableContract",
      "outputs": [
        {
          "internalType": "bool",
          "name": "",
          "type": "bool"
        }
      ],
      "stateMutability": "nonpayable",
      "type": "function"
    }
  ],
  "bytecode": "0x608060405260456013553480156200001657600080fd5b5060405162003a1638038062003a1683398181016040526101a08110156200003d57600080fd5b81019080805190602001909291908051906020019092919080519060200190929190805190602001909291908051906020019092919080519060200190929190805190602001909291908051906020019092919080516040519392919084640100000000821115620000ae57600080fd5b83820191506020820185811115620000c557600080fd5b8251866001820283011164010000000082111715620000e357600080fd5b8083526020830192505050908051906020019080838360005b8381101562000119578082015181840152602081019050620000fc565b50505050905090810190601f168015620001475780820380516001836020036101000a031916815260200191505b506040526020018051906020019092919080519060200190929190805190602001909291908051906020019092919050505060006200018b620006c760201b60201c565b9050806000806101000a81548173ffffffffffffffffffffffffffffffffffffffff021916908373ffffffffffffffffffffffffffffffffffffffff1602179055508073ffffffffffffffffffffffffffffffffffffffff16600073ffffffffffffffffffffffffffffffffffffffff167f8be0079c531659141344cd1fd0a4f28419497f9722a3daafe3b4186f6b6457e060405160405180910390a35060008060146101000a81548160ff0219169083151502179055506001600060156101000a81548160ff0219169083151502179055503373ffffffffffffffffffffffffffffffffffffffff168273ffffffffffffffffffffffffffffffffffffffff1614620002a457620002a382620006cf60201b60201c565b5b8c600160006101000a81548173ffffffffffffffffffffffffffffffffffffffff021916908373ffffffffffffffffffffffffffffffffffffffff1602179055508b600260006101000a81548173ffffffffffffffffffffffffffffffffffffffff021916908373ffffffffffffffffffffffffffffffffffffffff1602179055508a600360006101000a81548173ffffffffffffffffffffffffffffffffffffffff021916908373ffffffffffffffffffffffffffffffffffffffff16021790555089600460006101000a81548173ffffffffffffffffffffffffffffffffffffffff021916908373ffffffffffffffffffffffffffffffffffffffff16021790555088600560006101000a81548173ffffffffffffffffffffffffffffffffffffffff021916908373ffffffffffffffffffffffffffffffffffffffff160217905550600160009054906101000a900473ffffffffffffffffffffffffffffffffffffffff1673ffffffffffffffffffffffffffffffffffffffff1663095ea7b3600460009054906101000a900473ffffffffffffffffffffffffffffffffffffffff167f80000000000000000000000000000000000000000000000000000000000000006040518363ffffffff1660e01b8152600401808373ffffffffffffffffffffffffffffffffffffffff1673ffffffffffffffffffffffffffffffffffffffff16815260200182815260200192505050602060405180830381600087803b158015620004d557600080fd5b505af1158015620004ea573d6000803e3d6000fd5b505050506040513d60208110156200050157600080fd5b8101908080519060200190929190505050508760068190555080156200052e578760078190555062000552565b6200054b62093a8089620008e760201b620027251790919060201c565b6007819055505b86600860006101000a81548163ffffffff021916908363ffffffff16021790555084600a90805190602001906200058b92919062000b05565b5083600c8190555080600d60016101000a81548160ff0219169083151502179055506040518060400160405280600c81526020017f446f6e616c64205472756d700000000000000000000000000000000000000000815250600b600080815260200190815260200160002090805190602001906200060b92919062000b05565b506040518060400160405280600981526020017f4a6f6520426964656e0000000000000000000000000000000000000000000000815250600b60006001815260200190815260200160002090805190602001906200066b92919062000b05565b5060006002905060606040518060800160405280605e8152602001620039b8605e913990506000429050620006ab83838b898e866200097060201b60201c565b6009819055505050505050505050505050505050505062000bb4565b600033905090565b620006df620006c760201b60201c565b73ffffffffffffffffffffffffffffffffffffffff166000809054906101000a900473ffffffffffffffffffffffffffffffffffffffff1673ffffffffffffffffffffffffffffffffffffffff1614620007a1576040517f08c379a00000000000000000000000000000000000000000000000000000000081526004018080602001828103825260208152602001807f4f776e61626c653a2063616c6c6572206973206e6f7420746865206f776e657281525060200191505060405180910390fd5b600073ffffffffffffffffffffffffffffffffffffffff168173ffffffffffffffffffffffffffffffffffffffff16141562000829576040517f08c379a0000000000000000000000000000000000000000000000000000000008152600401808060200182810382526026815260200180620039926026913960400191505060405180910390fd5b8073ffffffffffffffffffffffffffffffffffffffff166000809054906101000a900473ffffffffffffffffffffffffffffffffffffffff1673ffffffffffffffffffffffffffffffffffffffff167f8be0079c531659141344cd1fd0a4f28419497f9722a3daafe3b4186f6b6457e060405160405180910390a3806000806101000a81548173ffffffffffffffffffffffffffffffffffffffff021916908373ffffffffffffffffffffffffffffffffffffffff16021790555050565b60008082840190508381101562000966576040517f08c379a000000000000000000000000000000000000000000000000000000000815260040180806020018281038252601b8152602001807f536166654d6174683a206164646974696f6e206f766572666c6f77000000000081525060200191505060405180910390fd5b8091505092915050565b6000600560009054906101000a900473ffffffffffffffffffffffffffffffffffffffff1673ffffffffffffffffffffffffffffffffffffffff1663762c38fd8888888888886040518763ffffffff1660e01b815260040180878152602001806020018673ffffffffffffffffffffffffffffffffffffffff1673ffffffffffffffffffffffffffffffffffffffff1681526020018563ffffffff1663ffffffff1681526020018463ffffffff1663ffffffff168152602001838152602001828103825287818151815260200191508051906020019080838360005b8381101562000a6957808201518184015260208101905062000a4c565b50505050905090810190601f16801562000a975780820380516001836020036101000a031916815260200191505b50975050505050505050602060405180830381600087803b15801562000abc57600080fd5b505af115801562000ad1573d6000803e3d6000fd5b505050506040513d602081101562000ae857600080fd5b810190808051906020019092919050505090509695505050505050565b828054600181600116156101000203166002900490600052602060002090601f016020900481019282601f1062000b4857805160ff191683800117855562000b79565b8280016001018555821562000b79579182015b8281111562000b7857825182559160200191906001019062000b5b565b5b50905062000b88919062000b8c565b5090565b62000bb191905b8082111562000bad57600081600090555060010162000b93565b5090565b90565b612dce8062000bc46000396000f3fe6080604052600436106102085760003560e01c80638043c9c011610118578063c19d93fb116100a0578063ee72b06d1161006f578063ee72b06d14610a2b578063f2fde38b14610a42578063f4b9fa7514610a93578063fd27b51e14610aea578063fe5e185314610b155761020f565b8063c19d93fb146108fd578063cbf1304d14610936578063cd9ea342146109a5578063e9d337b8146109d45761020f565b80639b34ae03116100e75780639b34ae03146107aa578063a0c1f15e146107d5578063ad5d28621461082c578063b06a5c521461087b578063bc8802a2146108a65761020f565b80638043c9c01461062b578063894ba833146106bb5780638da5cb5b146106ea578063906d6241146107415761020f565b80633ccfd60b1161019b5780634b8755ca1161016a5780634b8755ca146104db5780634ecc79f7146105065780635c975abb1461053157806369fb066414610560578063715018a6146106145761020f565b80633ccfd60b1461042957806349200d77146104405780634afe62b51461046b5780634b319713146104b05761020f565b806333b16d93116101d757806333b16d931461031157806335c1d34914610328578063367edd32146103a35780633ca55833146103d25761020f565b8063052fd203146102115780630b60365c14610260578063149b5d581461028b578063232ea3ad146102da5761020f565b3661020f57005b005b34801561021d57600080fd5b5061024a6004803603602081101561023457600080fd5b8101908080359060200190929190505050610b40565b6040518082815260200191505060405180910390f35b34801561026c57600080fd5b50610275610b58565b6040518082815260200191505060405180910390f35b34801561029757600080fd5b506102c4600480360360208110156102ae57600080fd5b8101908080359060200190929190505050610c72565b6040518082815260200191505060405180910390f35b3480156102e657600080fd5b506102ef610ccc565b604051808263ffffffff1663ffffffff16815260200191505060405180910390f35b34801561031d57600080fd5b50610326610ce2565b005b34801561033457600080fd5b506103616004803603602081101561034b57600080fd5b8101908080359060200190929190505050610df7565b604051808273ffffffffffffffffffffffffffffffffffffffff1673ffffffffffffffffffffffffffffffffffffffff16815260200191505060405180910390f35b3480156103af57600080fd5b506103b8610e33565b604051808215151515815260200191505060405180910390f35b3480156103de57600080fd5b506103e7610f8b565b604051808273ffffffffffffffffffffffffffffffffffffffff1673ffffffffffffffffffffffffffffffffffffffff16815260200191505060405180910390f35b34801561043557600080fd5b5061043e610fb1565b005b34801561044c57600080fd5b5061045561133e565b6040518082815260200191505060405180910390f35b34801561047757600080fd5b506104ae6004803603604081101561048e57600080fd5b810190808035906020019092919080359060200190929190505050611344565b005b3480156104bc57600080fd5b506104c5611778565b6040518082815260200191505060405180910390f35b3480156104e757600080fd5b506104f061177e565b6040518082815260200191505060405180910390f35b34801561051257600080fd5b5061051b611784565b6040518082815260200191505060405180910390f35b34801561053d57600080fd5b5061054661178a565b604051808215151515815260200191505060405180910390f35b34801561056c57600080fd5b506105996004803603602081101561058357600080fd5b81019080803590602001909291905050506117a0565b6040518080602001828103825283818151815260200191508051906020019080838360005b838110156105d95780820151818401526020810190506105be565b50505050905090810190601f1680156106065780820380516001836020036101000a031916815260200191505b509250505060405180910390f35b34801561062057600080fd5b50610629611850565b005b34801561063757600080fd5b506106406119d8565b6040518080602001828103825283818151815260200191508051906020019080838360005b83811015610680578082015181840152602081019050610665565b50505050905090810190601f1680156106ad5780820380516001836020036101000a031916815260200191505b509250505060405180910390f35b3480156106c757600080fd5b506106d0611a76565b604051808215151515815260200191505060405180910390f35b3480156106f657600080fd5b506106ff611bcf565b604051808273ffffffffffffffffffffffffffffffffffffffff1673ffffffffffffffffffffffffffffffffffffffff16815260200191505060405180910390f35b34801561074d57600080fd5b506107906004803603602081101561076457600080fd5b81019080803573ffffffffffffffffffffffffffffffffffffffff169060200190929190505050611bf8565b604051808215151515815260200191505060405180910390f35b3480156107b657600080fd5b506107bf611c18565b6040518082815260200191505060405180910390f35b3480156107e157600080fd5b506107ea611c1e565b604051808273ffffffffffffffffffffffffffffffffffffffff1673ffffffffffffffffffffffffffffffffffffffff16815260200191505060405180910390f35b34801561083857600080fd5b506108656004803603602081101561084f57600080fd5b8101908080359060200190929190505050611c44565b6040518082815260200191505060405180910390f35b34801561088757600080fd5b50610890611d0a565b6040518082815260200191505060405180910390f35b3480156108b257600080fd5b506108bb611d10565b604051808273ffffffffffffffffffffffffffffffffffffffff1673ffffffffffffffffffffffffffffffffffffffff16815260200191505060405180910390f35b34801561090957600080fd5b50610912611d36565b6040518082600381111561092257fe5b60ff16815260200191505060405180910390f35b34801561094257600080fd5b5061098f6004803603604081101561095957600080fd5b81019080803573ffffffffffffffffffffffffffffffffffffffff16906020019092919080359060200190929190505050611d49565b6040518082815260200191505060405180910390f35b3480156109b157600080fd5b506109ba611d6e565b604051808215151515815260200191505060405180910390f35b3480156109e057600080fd5b506109e9611d81565b604051808273ffffffffffffffffffffffffffffffffffffffff1673ffffffffffffffffffffffffffffffffffffffff16815260200191505060405180910390f35b348015610a3757600080fd5b50610a40611da7565b005b348015610a4e57600080fd5b50610a9160048036036020811015610a6557600080fd5b81019080803573ffffffffffffffffffffffffffffffffffffffff169060200190929190505050611f83565b005b348015610a9f57600080fd5b50610aa8612190565b604051808273ffffffffffffffffffffffffffffffffffffffff1673ffffffffffffffffffffffffffffffffffffffff16815260200191505060405180910390f35b348015610af657600080fd5b50610aff6121b6565b6040518082815260200191505060405180910390f35b348015610b2157600080fd5b50610b2a6121c3565b6040518082815260200191505060405180910390f35b600f6020528060005260406000206000915090505481565b600080610b726014546010546121c990919063ffffffff16565b90506000600260009054906101000a900473ffffffffffffffffffffffffffffffffffffffff1673ffffffffffffffffffffffffffffffffffffffff166370a08231306040518263ffffffff1660e01b8152600401808273ffffffffffffffffffffffffffffffffffffffff1673ffffffffffffffffffffffffffffffffffffffff16815260200191505060206040518083038186803b158015610c1557600080fd5b505afa158015610c29573d6000803e3d6000fd5b505050506040513d6020811015610c3f57600080fd5b810190808051906020019092919050505090506000610c6783836121c990919063ffffffff16565b905080935050505090565b6000600e60003373ffffffffffffffffffffffffffffffffffffffff1673ffffffffffffffffffffffffffffffffffffffff1681526020019081526020016000206000838152602001908152602001600020549050919050565b600860009054906101000a900463ffffffff1681565b600060149054906101000a900460ff1615610d65576040517f08c379a00000000000000000000000000000000000000000000000000000000081526004018080602001828103825260108152602001807f5061757361626c653a207061757365640000000000000000000000000000000081525060200191505060405180910390fd5b610d6d612213565b610ddf576040517f08c379a00000000000000000000000000000000000000000000000000000000081526004018080602001828103825260188152602001807f4f7261636c6520686173206e6f742066696e616c69736564000000000000000081525060200191505060405180910390fd5b610de76122ca565b601381905550610df5611da7565b565b60118181548110610e0457fe5b906000526020600020016000915054906101000a900473ffffffffffffffffffffffffffffffffffffffff1681565b6000610e3d612389565b73ffffffffffffffffffffffffffffffffffffffff166000809054906101000a900473ffffffffffffffffffffffffffffffffffffffff1673ffffffffffffffffffffffffffffffffffffffff1614610efe576040517f08c379a00000000000000000000000000000000000000000000000000000000081526004018080602001828103825260208152602001807f4f776e61626c653a2063616c6c6572206973206e6f7420746865206f776e657281525060200191505060405180910390fd5b600060149054906101000a900460ff16610f80576040517f08c379a00000000000000000000000000000000000000000000000000000000081526004018080602001828103825260148152602001807f5061757361626c653a206e6f742070617573656400000000000000000000000081525060200191505060405180910390fd5b610f88612391565b90565b600460009054906101000a900473ffffffffffffffffffffffffffffffffffffffff1681565b6003806003811115610fbf57fe5b600d60009054906101000a900460ff166003811115610fda57fe5b14611030576040517f08c379a0000000000000000000000000000000000000000000000000000000008152600401808060200182810382526026815260200180612d736026913960400191505060405180910390fd5b600060149054906101000a900460ff16156110b3576040517f08c379a00000000000000000000000000000000000000000000000000000000081526004018080602001828103825260108152602001807f5061757361626c653a207061757365640000000000000000000000000000000081525060200191505060405180910390fd5b600060159054906101000a900460ff16611135576040517f08c379a000000000000000000000000000000000000000000000000000000000815260040180806020018281038252601f8152602001807f5265656e7472616e637947756172643a207265656e7472616e742063616c6c0081525060200191505060405180910390fd5b60008060156101000a81548160ff021916908315150217905550601260003373ffffffffffffffffffffffffffffffffffffffff1673ffffffffffffffffffffffffffffffffffffffff16815260200190815260200160002060009054906101000a900460ff161561120f576040517f08c379a00000000000000000000000000000000000000000000000000000000081526004018080602001828103825260118152602001807f416c72656164792077697468647261776e00000000000000000000000000000081525060200191505060405180910390fd5b6001601260003373ffffffffffffffffffffffffffffffffffffffff1673ffffffffffffffffffffffffffffffffffffffff16815260200190815260200160002060006101000a81548160ff0219169083151502179055506000611274601354611c44565b9050600081111561131757600260009054906101000a900473ffffffffffffffffffffffffffffffffffffffff1673ffffffffffffffffffffffffffffffffffffffff1663db006a75826040518263ffffffff1660e01b815260040180828152602001915050600060405180830381600087803b1580156112f457600080fd5b505af1158015611308573d6000803e3d6000fd5b505050506113163382612499565b5b61131f6125f3565b506001600060156101000a81548160ff02191690831515021790555050565b600c5481565b600180600381111561135257fe5b600d60009054906101000a900460ff16600381111561136d57fe5b146113c3576040517f08c379a0000000000000000000000000000000000000000000000000000000008152600401808060200182810382526026815260200180612d736026913960400191505060405180910390fd5b600060149054906101000a900460ff1615611446576040517f08c379a00000000000000000000000000000000000000000000000000000000081526004018080602001828103825260108152602001807f5061757361626c653a207061757365640000000000000000000000000000000081525060200191505060405180910390fd5b6000600e60003373ffffffffffffffffffffffffffffffffffffffff1673ffffffffffffffffffffffffffffffffffffffff1681526020019081526020016000206000858152602001908152602001600020541415611503576011339080600181540180825580915050600190039060005260206000200160009091909190916101000a81548173ffffffffffffffffffffffffffffffffffffffff021916908373ffffffffffffffffffffffffffffffffffffffff1602179055505b3373ffffffffffffffffffffffffffffffffffffffff167fef3b3ae531a4f494c95e537ec1fe385cfe5c1146cb4c1d850b24bad38595804960405160405180910390a26115a982600e60003373ffffffffffffffffffffffffffffffffffffffff1673ffffffffffffffffffffffffffffffffffffffff16815260200190815260200160002060008681526020019081526020016000205461272590919063ffffffff16565b600e60003373ffffffffffffffffffffffffffffffffffffffff1673ffffffffffffffffffffffffffffffffffffffff1681526020019081526020016000206000858152602001908152602001600020819055506116128260105461272590919063ffffffff16565b60108190555061163e82600f60008681526020019081526020016000205461272590919063ffffffff16565b600f600085815260200190815260200160002081905550600d60019054906101000a900460ff161561167857611673826127ad565b611683565b611682338361283d565b5b600360009054906101000a900473ffffffffffffffffffffffffffffffffffffffff1673ffffffffffffffffffffffffffffffffffffffff1663d2d0e066600160009054906101000a900473ffffffffffffffffffffffffffffffffffffffff168460006040518463ffffffff1660e01b8152600401808473ffffffffffffffffffffffffffffffffffffffff1673ffffffffffffffffffffffffffffffffffffffff1681526020018381526020018261ffff1681526020019350505050600060405180830381600087803b15801561175b57600080fd5b505af115801561176f573d6000803e3d6000fd5b50505050505050565b60145481565b60075481565b60065481565b60008060149054906101000a900460ff16905090565b600b6020528060005260406000206000915090508054600181600116156101000203166002900480601f0160208091040260200160405190810160405280929190818152602001828054600181600116156101000203166002900480156118485780601f1061181d57610100808354040283529160200191611848565b820191906000526020600020905b81548152906001019060200180831161182b57829003601f168201915b505050505081565b611858612389565b73ffffffffffffffffffffffffffffffffffffffff166000809054906101000a900473ffffffffffffffffffffffffffffffffffffffff1673ffffffffffffffffffffffffffffffffffffffff1614611919576040517f08c379a00000000000000000000000000000000000000000000000000000000081526004018080602001828103825260208152602001807f4f776e61626c653a2063616c6c6572206973206e6f7420746865206f776e657281525060200191505060405180910390fd5b600073ffffffffffffffffffffffffffffffffffffffff166000809054906101000a900473ffffffffffffffffffffffffffffffffffffffff1673ffffffffffffffffffffffffffffffffffffffff167f8be0079c531659141344cd1fd0a4f28419497f9722a3daafe3b4186f6b6457e060405160405180910390a360008060006101000a81548173ffffffffffffffffffffffffffffffffffffffff021916908373ffffffffffffffffffffffffffffffffffffffff160217905550565b600a8054600181600116156101000203166002900480601f016020809104026020016040519081016040528092919081815260200182805460018160011615610100020316600290048015611a6e5780601f10611a4357610100808354040283529160200191611a6e565b820191906000526020600020905b815481529060010190602001808311611a5157829003601f168201915b505050505081565b6000611a80612389565b73ffffffffffffffffffffffffffffffffffffffff166000809054906101000a900473ffffffffffffffffffffffffffffffffffffffff1673ffffffffffffffffffffffffffffffffffffffff1614611b41576040517f08c379a00000000000000000000000000000000000000000000000000000000081526004018080602001828103825260208152602001807f4f776e61626c653a2063616c6c6572206973206e6f7420746865206f776e657281525060200191505060405180910390fd5b600060149054906101000a900460ff1615611bc4576040517f08c379a00000000000000000000000000000000000000000000000000000000081526004018080602001828103825260108152602001807f5061757361626c653a207061757365640000000000000000000000000000000081525060200191505060405180910390fd5b611bcc6129cb565b90565b60008060009054906101000a900473ffffffffffffffffffffffffffffffffffffffff16905090565b60126020528060005260406000206000915054906101000a900460ff1681565b60135481565b600260009054906101000a900473ffffffffffffffffffffffffffffffffffffffff1681565b6000806000600e60003373ffffffffffffffffffffffffffffffffffffffff1673ffffffffffffffffffffffffffffffffffffffff16815260200190815260200160002060008581526020019081526020016000205490506000811115611d00576000611caf610b58565b90506000611cca6014546010546121c990919063ffffffff16565b90506000811115611cfd57611cfa81611cec8486612ad590919063ffffffff16565b612b5b90919063ffffffff16565b93505b50505b8192505050919050565b60095481565b600560009054906101000a900473ffffffffffffffffffffffffffffffffffffffff1681565b600d60009054906101000a900460ff1681565b600e602052816000526040600020602052806000526040600020600091509150505481565b600d60019054906101000a900460ff1681565b600360009054906101000a900473ffffffffffffffffffffffffffffffffffffffff1681565b600060149054906101000a900460ff1615611e2a576040517f08c379a00000000000000000000000000000000000000000000000000000000081526004018080602001828103825260108152602001807f5061757361626c653a207061757365640000000000000000000000000000000081525060200191505060405180910390fd5b60006003811115611e3757fe5b600d60009054906101000a900460ff166003811115611e5257fe5b148015611e60575042600654105b80611e9d575060016003811115611e7357fe5b600d60009054906101000a900460ff166003811115611e8e57fe5b148015611e9c575042600754105b5b80611edc575060026003811115611eb057fe5b600d60009054906101000a900460ff166003811115611ecb57fe5b148015611edb5750604560135414155b5b15611f81576001600d60009054906101000a900460ff166003811115611efe57fe5b016003811115611f0a57fe5b600d60006101000a81548160ff02191690836003811115611f2757fe5b02179055507f551dc40198cc79684bb69e4931dba4ac16e4598792ee1c0a5000aeea366d7bb6600d60009054906101000a900460ff1660405180826003811115611f6d57fe5b60ff16815260200191505060405180910390a15b565b611f8b612389565b73ffffffffffffffffffffffffffffffffffffffff166000809054906101000a900473ffffffffffffffffffffffffffffffffffffffff1673ffffffffffffffffffffffffffffffffffffffff161461204c576040517f08c379a00000000000000000000000000000000000000000000000000000000081526004018080602001828103825260208152602001807f4f776e61626c653a2063616c6c6572206973206e6f7420746865206f776e657281525060200191505060405180910390fd5b600073ffffffffffffffffffffffffffffffffffffffff168173ffffffffffffffffffffffffffffffffffffffff1614156120d2576040517f08c379a0000000000000000000000000000000000000000000000000000000008152600401808060200182810382526026815260200180612d2c6026913960400191505060405180910390fd5b8073ffffffffffffffffffffffffffffffffffffffff166000809054906101000a900473ffffffffffffffffffffffffffffffffffffffff1673ffffffffffffffffffffffffffffffffffffffff167f8be0079c531659141344cd1fd0a4f28419497f9722a3daafe3b4186f6b6457e060405160405180910390a3806000806101000a81548173ffffffffffffffffffffffffffffffffffffffff021916908373ffffffffffffffffffffffffffffffffffffffff16021790555050565b600160009054906101000a900473ffffffffffffffffffffffffffffffffffffffff1681565b6000601180549050905090565b60105481565b600061220b83836040518060400160405280601e81526020017f536166654d6174683a207375627472616374696f6e206f766572666c6f770000815250612ba5565b905092915050565b6000600560009054906101000a900473ffffffffffffffffffffffffffffffffffffffff1673ffffffffffffffffffffffffffffffffffffffff16637f8d429e6009546040518263ffffffff1660e01b81526004018082815260200191505060206040518083038186803b15801561228a57600080fd5b505afa15801561229e573d6000803e3d6000fd5b505050506040513d60208110156122b457600080fd5b8101908080519060200190929190505050905090565b600080600560009054906101000a900473ffffffffffffffffffffffffffffffffffffffff1673ffffffffffffffffffffffffffffffffffffffff1663d09cc57e6009546040518263ffffffff1660e01b81526004018082815260200191505060206040518083038186803b15801561234257600080fd5b505afa158015612356573d6000803e3d6000fd5b505050506040513d602081101561236c57600080fd5b810190808051906020019092919050505090508060001c91505090565b600033905090565b600060149054906101000a900460ff16612413576040517f08c379a00000000000000000000000000000000000000000000000000000000081526004018080602001828103825260148152602001807f5061757361626c653a206e6f742070617573656400000000000000000000000081525060200191505060405180910390fd5b60008060146101000a81548160ff0219169083151502179055507f5db9ee0a495bf2e6ff9c91a7834c1ba4fdd244a5e8aa4e537bd38aeae4b073aa612456612389565b604051808273ffffffffffffffffffffffffffffffffffffffff1673ffffffffffffffffffffffffffffffffffffffff16815260200191505060405180910390a1565b600160009054906101000a900473ffffffffffffffffffffffffffffffffffffffff1673ffffffffffffffffffffffffffffffffffffffff1663a9059cbb83836040518363ffffffff1660e01b8152600401808373ffffffffffffffffffffffffffffffffffffffff1673ffffffffffffffffffffffffffffffffffffffff16815260200182815260200192505050602060405180830381600087803b15801561254257600080fd5b505af1158015612556573d6000803e3d6000fd5b505050506040513d602081101561256c57600080fd5b81019080805190602001909291905050506125ef576040517f08c379a00000000000000000000000000000000000000000000000000000000081526004018080602001828103825260148152602001807f43617368207472616e73666572206661696c656400000000000000000000000081525060200191505060405180910390fd5b5050565b60008090505b600c54811015612722576000600e60003373ffffffffffffffffffffffffffffffffffffffff1673ffffffffffffffffffffffffffffffffffffffff16815260200190815260200160002060008381526020019081526020016000205490506000811115612714576126768160145461272590919063ffffffff16565b601481905550600260009054906101000a900473ffffffffffffffffffffffffffffffffffffffff1673ffffffffffffffffffffffffffffffffffffffff1663db006a75826040518263ffffffff1660e01b815260040180828152602001915050600060405180830381600087803b1580156126f157600080fd5b505af1158015612705573d6000803e3d6000fd5b505050506127133382612499565b5b5080806001019150506125f9565b50565b6000808284019050838110156127a3576040517f08c379a000000000000000000000000000000000000000000000000000000000815260040180806020018281038252601b8152602001807f536166654d6174683a206164646974696f6e206f766572666c6f77000000000081525060200191505060405180910390fd5b8091505092915050565b600160009054906101000a900473ffffffffffffffffffffffffffffffffffffffff1673ffffffffffffffffffffffffffffffffffffffff1663a0712d68826040518263ffffffff1660e01b815260040180828152602001915050600060405180830381600087803b15801561282257600080fd5b505af1158015612836573d6000803e3d6000fd5b5050505050565b600160009054906101000a900473ffffffffffffffffffffffffffffffffffffffff1673ffffffffffffffffffffffffffffffffffffffff166323b872dd8330846040518463ffffffff1660e01b8152600401808473ffffffffffffffffffffffffffffffffffffffff1673ffffffffffffffffffffffffffffffffffffffff1681526020018373ffffffffffffffffffffffffffffffffffffffff1673ffffffffffffffffffffffffffffffffffffffff1681526020018281526020019350505050602060405180830381600087803b15801561291a57600080fd5b505af115801561292e573d6000803e3d6000fd5b505050506040513d602081101561294457600080fd5b81019080805190602001909291905050506129c7576040517f08c379a00000000000000000000000000000000000000000000000000000000081526004018080602001828103825260148152602001807f43617368207472616e73666572206661696c656400000000000000000000000081525060200191505060405180910390fd5b5050565b600060149054906101000a900460ff1615612a4e576040517f08c379a00000000000000000000000000000000000000000000000000000000081526004018080602001828103825260108152602001807f5061757361626c653a207061757365640000000000000000000000000000000081525060200191505060405180910390fd5b6001600060146101000a81548160ff0219169083151502179055507f62e78cea01bee320cd4e420270b5ea74000d11b0c9f74754ebdbfc544b05a258612a92612389565b604051808273ffffffffffffffffffffffffffffffffffffffff1673ffffffffffffffffffffffffffffffffffffffff16815260200191505060405180910390a1565b600080831415612ae85760009050612b55565b6000828402905082848281612af957fe5b0414612b50576040517f08c379a0000000000000000000000000000000000000000000000000000000008152600401808060200182810382526021815260200180612d526021913960400191505060405180910390fd5b809150505b92915050565b6000612b9d83836040518060400160405280601a81526020017f536166654d6174683a206469766973696f6e206279207a65726f000000000000815250612c65565b905092915050565b6000838311158290612c52576040517f08c379a00000000000000000000000000000000000000000000000000000000081526004018080602001828103825283818151815260200191508051906020019080838360005b83811015612c17578082015181840152602081019050612bfc565b50505050905090810190601f168015612c445780820380516001836020036101000a031916815260200191505b509250505060405180910390fd5b5060008385039050809150509392505050565b60008083118290612d11576040517f08c379a00000000000000000000000000000000000000000000000000000000081526004018080602001828103825283818151815260200191508051906020019080838360005b83811015612cd6578082015181840152602081019050612cbb565b50505050905090810190601f168015612d035780820380516001836020036101000a031916815260200191505b509250505060405180910390fd5b506000838581612d1d57fe5b04905080915050939250505056fe4f776e61626c653a206e6577206f776e657220697320746865207a65726f2061646472657373536166654d6174683a206d756c7469706c69636174696f6e206f766572666c6f7766756e6374696f6e2063616e6e6f742062652063616c6c656420617420746869732074696d65a264697066735822122015646090299aefe90c505c6eced4e9b0ec993f723838f922aee60b0d4874216c64736f6c634300060700334f776e61626c653a206e6577206f776e657220697320746865207a65726f206164647265737357686f2077696c6c2077696e2074686520323032302055532047656e6572616c20456c656374696f6ee2909f22446f6e616c64205472756d70222c224a6f6520426964656e22e2909f6e6577732d706f6c6974696373e2909f656e5f5553",
  "immutableReferences": {},
  "source": "pragma solidity 0.6.7;\n\nimport \"@nomiclabs/buidler/console.sol\";\nimport \"@openzeppelin/contracts/token/ERC20/ERC20.sol\";\nimport \"@openzeppelin/contracts/math/SafeMath.sol\";\nimport \"@openzeppelin/contracts/utils/ReentrancyGuard.sol\";\nimport \"@openzeppelin/contracts/utils/Pausable.sol\";\nimport \"@openzeppelin/contracts/access/Ownable.sol\";\nimport \"./interfaces/IAave.sol\";\nimport \"./interfaces/IDai.sol\";\nimport \"./interfaces/IRealitio.sol\";\n\n\ncontract BTMarket is Ownable, Pausable, ReentrancyGuard {\n    using SafeMath for uint256;\n\n    ////////////////////////////////////\n    //////// VARIABLES /////////////////\n    ////////////////////////////////////\n\n    //////// Externals ////////\n    Dai public dai;\n    IaToken public aToken;\n    IAaveLendingPool public aaveLendingPool;\n    IAaveLendingPoolCore public aaveLendingPoolCore;\n    IRealitio public realitio;\n\n    //////// Market Details ////////\n    uint256 public marketOpeningTime; // when the market is opened for bets\n    uint256 public marketLockingTime; // when the market is no longer open for bets\n    uint32 public marketResolutionTime; // the time the realitio market is able to be answered, uint32 cos Realitio needs it\n    bytes32 public questionId; // the question ID of the question on realitio\n    string public eventName;\n    mapping(uint256 => string) public eventOutcomes;\n    uint256 public numberOfOutcomes;\n    enum States {WAITING, OPEN, LOCKED, WITHDRAW}\n    States public state;\n    bool public testMode;\n\n    //////// Betting variables ////////\n    mapping(address => mapping(uint256 => uint256)) public balances;\n    mapping(uint256 => uint256) public totalBetPerOutcome;\n    uint256 public totalBet;\n    address[] public participants;\n    mapping(address => bool) public withdrawnBool; //so participants can only withdraw once\n    uint256 public winningOutcome = 69; // start with incorrect winning outcome\n    uint256 public totalWithdrawn;\n\n    ////////////////////////////////////\n    //////// CONSTRUCTOR ///////////////\n    ////////////////////////////////////\n    constructor(\n        Dai _daiAddress,\n        IaToken _aTokenAddress,\n        IAaveLendingPool _aaveLpAddress,\n        IAaveLendingPoolCore _aaveLpcoreAddress,\n        IRealitio _realitioAddress,\n        uint256 _marketOpeningTime,\n        uint32 _marketResolutionTime,\n        address _arbitrator,\n        string memory _eventName,\n        uint256 _numberOfOutcomes,\n        uint32 _timeout,\n        address _owner,\n        bool _testMode\n    ) public {\n        if (_owner != msg.sender) {\n            transferOwnership(_owner);\n        }\n        // Externals\n        dai = _daiAddress;\n        aToken = _aTokenAddress;\n        aaveLendingPool = _aaveLpAddress;\n        aaveLendingPoolCore = _aaveLpcoreAddress;\n        realitio = _realitioAddress;\n\n        // Approvals\n        dai.approve(address(aaveLendingPoolCore), 2**255);\n\n        // Pass arguments to public variables\n        marketOpeningTime = _marketOpeningTime;\n        if (_testMode) {\n            marketLockingTime = _marketOpeningTime;\n        } else {\n            marketLockingTime = _marketOpeningTime.add(604800); // one week\n        }\n        marketResolutionTime = _marketResolutionTime;\n        eventName = _eventName;\n        numberOfOutcomes = _numberOfOutcomes;\n        testMode = _testMode;\n        // We need to get the below from an argument eventually\n        // ... but I'm getting \"Stack too deep, try using fewer variables\" error\n        eventOutcomes[0] = \"Donald Trump\";\n        eventOutcomes[1] = \"Joe Biden\";\n\n        // Create the question on Realitio\n        uint256 _templateId = 2;\n        // ultimately this needs to be created from the input arguments (i.e. concatenated):\n\n\n            string memory _question\n         = 'Who will win the 2020 US General Election\"Donald Trump\",\"Joe Biden\"news-politicsen_US';\n        // timeout = how long the market can be disputed on realitio after an answer has been submitted, 24 hours\n        uint256 _nonce = now; // <- should probably change this to zero for mainnet\n        // uint32 _timeout = 86400;\n        questionId = _postQuestion(\n            _templateId,\n            _question,\n            _arbitrator,\n            _timeout,\n            _marketResolutionTime,\n            _nonce\n        );\n    }\n\n    ////////////////////////////////////\n    //////// EVENTS ////////////////////\n    ////////////////////////////////////\n    event ParticipantEntered(address indexed participant);\n    event ParticipantWithdrawn(address indexed participant);\n    event StateChanged(States state);\n    event WinnerSelected(address indexed winner);\n\n    ////////////////////////////////////\n    //////// MODIFIERS /////////////////\n    ////////////////////////////////////\n    modifier checkState(States currentState) {\n        require(\n            state == currentState,\n            \"function cannot be called at this time\"\n        );\n        _;\n    }\n\n    ////////////////////////////////////\n    ////////// VIEW FUNCTIONS //////////\n    ////////////////////////////////////\n    function getMarketSize() public view returns (uint256) {\n        return participants.length;\n    }\n\n    function getParticipantsBet(uint256 _outcome)\n        public\n        view\n        returns (uint256)\n    {\n        return balances[msg.sender][_outcome];\n    }\n\n    function getTotalInterest() public view returns (uint256) {\n        uint256 _remainingPrincipal = totalBet.sub(totalWithdrawn);\n        uint256 _totalAdaibalances = aToken.balanceOf(address(this));\n        uint256 _totalInterest = _totalAdaibalances.sub(_remainingPrincipal);\n        return _totalInterest;\n    }\n\n    /// @dev Returns total winnings for a participant based on current accumulated interest\n    /// @dev ... and assuming the passed _outcome wins.\n    function getWinnings(uint256 _outcome) public view returns (uint256) {\n        uint256 _winnings;\n        uint256 _amountBetOnOutcome = balances[msg.sender][_outcome];\n        if (_amountBetOnOutcome > 0) {\n            uint256 _totalInterest = getTotalInterest();\n            // console.log(totalBet);\n            // console.log(totalWithdrawn);\n            uint256 _remainingPrincipal = totalBet.sub(totalWithdrawn);\n            if (_remainingPrincipal > 0) {\n                _winnings = (_amountBetOnOutcome.mul(_totalInterest)).div(\n                    _remainingPrincipal\n                );\n            }\n        }\n        return _winnings;\n    }\n\n    // need the interest rate for this\n    // function getEstimatedReturn(uint _outcome) returns (uint) {\n    //     uint _timeLocked = marketResolutionTime.\n    // }\n\n    ////////////////////////////////////\n    //////// REALIITO FUNCTIONS ////////\n    ////////////////////////////////////\n\n    /// @notice posts the question to realit.io\n    function _postQuestion(\n        uint256 template_id,\n        string memory question,\n        address arbitrator,\n        uint32 timeout,\n        uint32 opening_ts,\n        uint256 nonce\n    ) internal returns (bytes32) {\n        return\n            realitio.askQuestion(\n                template_id,\n                question,\n                arbitrator,\n                timeout,\n                opening_ts,\n                nonce\n            );\n    }\n\n    /// @notice gets the winning outcome from realitio\n    /// @dev this function call will revert if it has not yet resolved\n    function _determineWinner() internal view returns (uint256) {\n        bytes32 _winningOutcome = realitio.resultFor(questionId);\n        return uint256(_winningOutcome);\n    }\n\n    /// @notice has the question been finalized on realitio?\n    function _isQuestionFinalized() internal view returns (bool) {\n        return realitio.isFinalized(questionId);\n    }\n\n    ////////////////////////////////////\n    ////////// DAI FUNCTIONS///////////\n    ////////////////////////////////////\n\n    // * internal *\n    /// @notice common function for all outgoing DAI transfers\n    function _sendCash(address _to, uint256 _amount) internal {\n        require(dai.transfer(_to, _amount), \"Cash transfer failed\");\n    }\n\n    // * internal *\n    /// @notice common function for all incoming DAI transfers\n    function _receiveCash(address _from, uint256 _amount) internal {\n        require(\n            dai.transferFrom(_from, address(this), _amount),\n            \"Cash transfer failed\"\n        );\n    }\n\n    // * internal *\n    /// @notice mints Dai, will only work on a testnet\n    function _mintCash(uint256 _amount) internal {\n        dai.mint(_amount);\n    }\n\n    ////////////////////////////////////\n    //////// EXTERNAL FUNCTIONS ////////\n    ////////////////////////////////////\n    function placeBet(uint256 _outcome, uint256 _dai)\n        external\n        checkState(States.OPEN)\n        whenNotPaused\n    {\n        if (balances[msg.sender][_outcome] == 0) participants.push(msg.sender);\n        emit ParticipantEntered(msg.sender);\n        // increment three variables- balances, totalBet, totalBetPerOutcome\n        balances[msg.sender][_outcome] = balances[msg.sender][_outcome].add(\n            _dai\n        );\n        totalBet = totalBet.add(_dai);\n        totalBetPerOutcome[_outcome] = totalBetPerOutcome[_outcome].add(_dai);\n        if (testMode) {\n            _mintCash(_dai);\n        } else {\n            _receiveCash(msg.sender, _dai);\n        }\n        aaveLendingPool.deposit(address(dai), _dai, 0);\n    }\n\n    function determineWinner() external whenNotPaused {\n        require(_isQuestionFinalized(), \"Oracle has not finalised\");\n        winningOutcome = _determineWinner();\n        incrementState();\n    }\n\n    // keep this public as it's called by determineWinner\n    function incrementState() public whenNotPaused {\n        if (\n            ((state == States.WAITING) && (marketOpeningTime < now)) ||\n            ((state == States.OPEN) && (marketLockingTime < now)) ||\n            ((state == States.LOCKED) && (winningOutcome != 69))\n        ) {\n            state = States(uint256(state) + 1);\n            emit StateChanged(state);\n        }\n    }\n\n    function withdraw()\n        external\n        checkState(States.WITHDRAW)\n        whenNotPaused\n        nonReentrant\n    {\n        require(!withdrawnBool[msg.sender], \"Already withdrawn\");\n        withdrawnBool[msg.sender] = true;\n        // first, send winnings, if any\n        uint256 _winnings = getWinnings(winningOutcome);\n        if (_winnings > 0) {\n            aToken.redeem(_winnings);\n            _sendCash(msg.sender, _winnings);\n        }\n        // second, return pariticpant's original bet\n        _returnBet();\n    }\n\n    ////////////////////////////////////\n    //////// INTERNAL FUNCTIONS ////////\n    ////////////////////////////////////\n    function _returnBet() internal {\n        for (uint256 i = 0; i < numberOfOutcomes; i++) {\n            uint256 _amountBetOnOutcome = balances[msg.sender][i];\n            if (_amountBetOnOutcome > 0) {\n                // effects\n                totalWithdrawn = totalWithdrawn.add(_amountBetOnOutcome);\n                // interactions\n                aToken.redeem(_amountBetOnOutcome);\n                _sendCash(msg.sender, _amountBetOnOutcome);\n            }\n        }\n    }\n\n    ////////////////////////////////////\n    ///// BOILERPLATE FUNCTIONS ////////\n    ////////////////////////////////////\n    function disableContract() public onlyOwner whenNotPaused returns (bool) {\n        _pause();\n    }\n\n    function enableContract() public onlyOwner whenPaused returns (bool) {\n        _unpause();\n    }\n\n    receive() external payable {}\n\n    fallback() external payable {}\n}\n",
  "sourcePath": "/Users/brenfife/Desktop/BetTogether-Contracts/contracts/BTMarket.sol",
  "compiler": {
    "name": "solc",
    "version": "0.6.7+commit.b8d736ae.Emscripten.clang"
  },
  "schemaVersion": "3.1.0",
  "updatedAt": "2020-05-11T16:09:28.638Z",
  "networkType": "ethereum",
  "devdoc": {
    "methods": {
      "getWinnings(uint256)": {
        "details": "Returns total winnings for a participant based on current accumulated interest... and assuming the passed _outcome wins."
      },
      "owner()": {
        "details": "Returns the address of the current owner."
      },
      "paused()": {
        "details": "Returns true if the contract is paused, and false otherwise."
      },
      "renounceOwnership()": {
        "details": "Leaves the contract without owner. It will not be possible to call `onlyOwner` functions anymore. Can only be called by the current owner.     * NOTE: Renouncing ownership will leave the contract without an owner, thereby removing any functionality that is only available to the owner."
      },
      "transferOwnership(address)": {
        "details": "Transfers ownership of the contract to a new account (`newOwner`). Can only be called by the current owner."
      }
    }
  },
  "userdoc": {
    "methods": {
      "constructor": "///////////////////////////////// ///// CONSTRUCTOR /////////////// /////////////////////////////////",
      "disableContract()": {
        "notice": "///////////////////////////////// // BOILERPLATE FUNCTIONS //////// /////////////////////////////////"
      },
      "getMarketSize()": {
        "notice": "///////////////////////////////// /////// VIEW FUNCTIONS ////////// /////////////////////////////////"
      },
      "placeBet(uint256,uint256)": {
        "notice": "///////////////////////////////// ///// EXTERNAL FUNCTIONS //////// /////////////////////////////////"
      }
    }
  }
}